{
  "contractName": "DAT",
  "abi": [
    {
      "inputs": [
        {
          "internalType": "uint256",
          "name": "minimumAmount_",
          "type": "uint256"
        },
        {
          "internalType": "uint256",
          "name": "dayDuration_",
          "type": "uint256"
        },
        {
          "internalType": "uint16",
          "name": "interestRate_",
          "type": "uint16"
        },
        {
          "internalType": "address",
          "name": "medToken_",
          "type": "address"
        },
        {
          "internalType": "address",
          "name": "fpToken_",
          "type": "address"
        }
      ],
      "stateMutability": "nonpayable",
      "type": "constructor"
    },
    {
      "inputs": [],
      "name": "dayDuration",
      "outputs": [
        {
          "internalType": "uint256",
          "name": "",
          "type": "uint256"
        }
      ],
      "stateMutability": "view",
      "type": "function"
    },
    {
      "inputs": [
        {
          "internalType": "uint256",
          "name": "idx",
          "type": "uint256"
        }
      ],
      "name": "getSubscription",
      "outputs": [
        {
          "internalType": "uint256",
          "name": "",
          "type": "uint256"
        }
      ],
      "stateMutability": "view",
      "type": "function"
    },
    {
      "inputs": [],
      "name": "getSubscriptionLength",
      "outputs": [
        {
          "internalType": "uint256",
          "name": "",
          "type": "uint256"
        }
      ],
      "stateMutability": "view",
      "type": "function"
    },
    {
      "inputs": [],
      "name": "interestRate",
      "outputs": [
        {
          "internalType": "uint16",
          "name": "",
          "type": "uint16"
        }
      ],
      "stateMutability": "view",
      "type": "function"
    },
    {
      "inputs": [
        {
          "internalType": "uint256",
          "name": "tokenId",
          "type": "uint256"
        }
      ],
      "name": "isSuscribed",
      "outputs": [
        {
          "internalType": "bool",
          "name": "",
          "type": "bool"
        }
      ],
      "stateMutability": "view",
      "type": "function"
    },
    {
      "inputs": [],
      "name": "minimumAmount",
      "outputs": [
        {
          "internalType": "uint256",
          "name": "",
          "type": "uint256"
        }
      ],
      "stateMutability": "view",
      "type": "function"
    },
    {
      "inputs": [
        {
          "internalType": "uint256",
          "name": "depositAmount",
          "type": "uint256"
        }
      ],
      "name": "subscribeDat",
      "outputs": [],
      "stateMutability": "nonpayable",
      "type": "function"
    },
    {
      "inputs": [
        {
          "internalType": "uint256",
          "name": "tokenId",
          "type": "uint256"
        }
      ],
      "name": "cancelDat",
      "outputs": [],
      "stateMutability": "nonpayable",
      "type": "function"
    },
    {
      "inputs": [
        {
          "internalType": "uint256",
          "name": "tokenId",
          "type": "uint256"
        }
      ],
      "name": "payDat",
      "outputs": [],
      "stateMutability": "nonpayable",
      "type": "function"
    }
  ],
  "bytecode": "0x60806040523480156200001157600080fd5b50604051620018b3380380620018b383398181016040528101906200003791906200018b565b620000476200013e60201b60201c565b600260006101000a81548173ffffffffffffffffffffffffffffffffffffffff021916908373ffffffffffffffffffffffffffffffffffffffff160217905550846005819055508360068190555082600760006101000a81548161ffff021916908361ffff160217905550816000806101000a81548173ffffffffffffffffffffffffffffffffffffffff021916908373ffffffffffffffffffffffffffffffffffffffff16021790555080600160006101000a81548173ffffffffffffffffffffffffffffffffffffffff021916908373ffffffffffffffffffffffffffffffffffffffff1602179055505050505050620002a7565b600033905090565b600081519050620001578162000259565b92915050565b6000815190506200016e8162000273565b92915050565b60008151905062000185816200028d565b92915050565b600080600080600060a08688031215620001a457600080fd5b6000620001b48882890162000174565b9550506020620001c78882890162000174565b9450506040620001da888289016200015d565b9350506060620001ed8882890162000146565b9250506080620002008882890162000146565b9150509295509295909350565b60006200021a826200022f565b9050919050565b600061ffff82169050919050565b600073ffffffffffffffffffffffffffffffffffffffff82169050919050565b6000819050919050565b62000264816200020d565b81146200027057600080fd5b50565b6200027e8162000221565b81146200028a57600080fd5b50565b62000298816200024f565b8114620002a457600080fd5b50565b6115fc80620002b76000396000f3fe608060405234801561001057600080fd5b50600436106100935760003560e01c80637c3a00fd116100665780637c3a00fd1461010a578063839db9c014610128578063bb0c829814610158578063dc311dd314610176578063f6f071f1146101a657610093565b80631074d027146100985780632530ea71146100b4578063780b321c146100d25780637c127128146100ee575b600080fd5b6100b260048036038101906100ad9190610ff1565b6101c4565b005b6100bc610516565b6040516100c99190611282565b60405180910390f35b6100ec60048036038101906100e79190610ff1565b610527565b005b61010860048036038101906101039190610ff1565b610947565b005b610112610ba6565b60405161011f9190611267565b60405180910390f35b610142600480360381019061013d9190610ff1565b610bba565b60405161014f91906111cc565b60405180910390f35b610160610bd7565b60405161016d9190611282565b60405180910390f35b610190600480360381019061018b9190610ff1565b610bdd565b60405161019d9190611282565b60405180910390f35b6101ae610c45565b6040516101bb9190611282565b60405180910390f35b600654600860008381526020019081526020016000206000015460008054906101000a900473ffffffffffffffffffffffffffffffffffffffff1673ffffffffffffffffffffffffffffffffffffffff166380477a4c6040518163ffffffff1660e01b815260040160206040518083038186803b15801561024457600080fd5b505afa158015610258573d6000803e3d6000fd5b505050506040513d601f19601f8201168201806040525081019061027c919061101a565b6102869190611371565b116102c6576040517f08c379a00000000000000000000000000000000000000000000000000000000081526004016102bd906111e7565b60405180910390fd5b60006008600083815260200190815260200160002060010154905060008054906101000a900473ffffffffffffffffffffffffffffffffffffffff1673ffffffffffffffffffffffffffffffffffffffff1663a9059cbb600160009054906101000a900473ffffffffffffffffffffffffffffffffffffffff1673ffffffffffffffffffffffffffffffffffffffff16636352211e856040518263ffffffff1660e01b81526004016103789190611282565b60206040518083038186803b15801561039057600080fd5b505afa1580156103a4573d6000803e3d6000fd5b505050506040513d601f19601f820116820180604052508101906103c89190610f9f565b6064600760009054906101000a900461ffff1660646103e791906112ae565b61ffff16856103f69190611317565b61040091906112e6565b6040518363ffffffff1660e01b815260040161041d9291906111a3565b602060405180830381600087803b15801561043757600080fd5b505af115801561044b573d6000803e3d6000fd5b505050506040513d601f19601f8201168201806040525081019061046f9190610fc8565b50600160009054906101000a900473ffffffffffffffffffffffffffffffffffffffff1673ffffffffffffffffffffffffffffffffffffffff16639d118770836040518263ffffffff1660e01b81526004016104cb9190611282565b600060405180830381600087803b1580156104e557600080fd5b505af11580156104f9573d6000803e3d6000fd5b50505050610511826003610c4b90919063ffffffff16565b505050565b60006105226003610c65565b905090565b60055481101561056c576040517f08c379a000000000000000000000000000000000000000000000000000000000815260040161056390611247565b60405180910390fd5b8060008054906101000a900473ffffffffffffffffffffffffffffffffffffffff1673ffffffffffffffffffffffffffffffffffffffff1663dd62ed3e6105b1610c7a565b306040518363ffffffff1660e01b81526004016105cf92919061111a565b60206040518083038186803b1580156105e757600080fd5b505afa1580156105fb573d6000803e3d6000fd5b505050506040513d601f19601f8201168201806040525081019061061f919061101a565b1015610660576040517f08c379a000000000000000000000000000000000000000000000000000000000815260040161065790611227565b60405180910390fd5b60008054906101000a900473ffffffffffffffffffffffffffffffffffffffff1673ffffffffffffffffffffffffffffffffffffffff166323b872dd6106a4610c7a565b30846040518463ffffffff1660e01b81526004016106c493929190611143565b602060405180830381600087803b1580156106de57600080fd5b505af11580156106f2573d6000803e3d6000fd5b505050506040513d601f19601f820116820180604052508101906107169190610fc8565b50600160009054906101000a900473ffffffffffffffffffffffffffffffffffffffff1673ffffffffffffffffffffffffffffffffffffffff16635edfe0df61075d610c7a565b60006040518363ffffffff1660e01b815260040161077c92919061117a565b600060405180830381600087803b15801561079657600080fd5b505af11580156107aa573d6000803e3d6000fd5b505050506000600160009054906101000a900473ffffffffffffffffffffffffffffffffffffffff1673ffffffffffffffffffffffffffffffffffffffff1663561892366040518163ffffffff1660e01b815260040160206040518083038186803b15801561081857600080fd5b505afa15801561082c573d6000803e3d6000fd5b505050506040513d601f19601f82011682018060405250810190610850919061101a565b9050604051806040016040528060008054906101000a900473ffffffffffffffffffffffffffffffffffffffff1673ffffffffffffffffffffffffffffffffffffffff166380477a4c6040518163ffffffff1660e01b815260040160206040518083038186803b1580156108c357600080fd5b505afa1580156108d7573d6000803e3d6000fd5b505050506040513d601f19601f820116820180604052508101906108fb919061101a565b815260200183815250600860008381526020019081526020016000206000820151816000015560208201518160010155905050610942816003610c8290919063ffffffff16565b505050565b61094f610c7a565b73ffffffffffffffffffffffffffffffffffffffff16600160009054906101000a900473ffffffffffffffffffffffffffffffffffffffff1673ffffffffffffffffffffffffffffffffffffffff16636352211e836040518263ffffffff1660e01b81526004016109c09190611282565b60206040518083038186803b1580156109d857600080fd5b505afa1580156109ec573d6000803e3d6000fd5b505050506040513d601f19601f82011682018060405250810190610a109190610f9f565b73ffffffffffffffffffffffffffffffffffffffff1614610a3057600080fd5b60006008600083815260200190815260200160002060010154905060008054906101000a900473ffffffffffffffffffffffffffffffffffffffff1673ffffffffffffffffffffffffffffffffffffffff1663a9059cbb610a8f610c7a565b836040518363ffffffff1660e01b8152600401610aad9291906111a3565b602060405180830381600087803b158015610ac757600080fd5b505af1158015610adb573d6000803e3d6000fd5b505050506040513d601f19601f82011682018060405250810190610aff9190610fc8565b50600160009054906101000a900473ffffffffffffffffffffffffffffffffffffffff1673ffffffffffffffffffffffffffffffffffffffff16639d118770836040518263ffffffff1660e01b8152600401610b5b9190611282565b600060405180830381600087803b158015610b7557600080fd5b505af1158015610b89573d6000803e3d6000fd5b50505050610ba1826003610c4b90919063ffffffff16565b505050565b600760009054906101000a900461ffff1681565b6000610bd0826003610c9c90919063ffffffff16565b9050919050565b60055481565b6000610be96003610c65565b8210610c2a576040517f08c379a0000000000000000000000000000000000000000000000000000000008152600401610c2190611207565b60405180910390fd5b610c3e826003610cb690919063ffffffff16565b9050919050565b60065481565b6000610c5d836000018360001b610cd0565b905092915050565b6000610c7382600001610e56565b9050919050565b600033905090565b6000610c94836000018360001b610e67565b905092915050565b6000610cae836000018360001b610ed7565b905092915050565b6000610cc58360000183610efa565b60001c905092915050565b60008083600101600084815260200190815260200160002054905060008114610e4a576000600182610d029190611371565b9050600060018660000180549050610d1a9190611371565b9050818114610dd5576000866000018281548110610d61577f4e487b7100000000000000000000000000000000000000000000000000000000600052603260045260246000fd5b9060005260206000200154905080876000018481548110610dab577f4e487b7100000000000000000000000000000000000000000000000000000000600052603260045260246000fd5b90600052602060002001819055508387600101600083815260200190815260200160002081905550505b85600001805480610e0f577f4e487b7100000000000000000000000000000000000000000000000000000000600052603160045260246000fd5b600190038181906000526020600020016000905590558560010160008681526020019081526020016000206000905560019350505050610e50565b60009150505b92915050565b600081600001805490509050919050565b6000610e738383610ed7565b610ecc578260000182908060018154018082558091505060019003906000526020600020016000909190919091505582600001805490508360010160008481526020019081526020016000208190555060019050610ed1565b600090505b92915050565b600080836001016000848152602001908152602001600020541415905092915050565b6000826000018281548110610f38577f4e487b7100000000000000000000000000000000000000000000000000000000600052603260045260246000fd5b9060005260206000200154905092915050565b600081519050610f5a81611581565b92915050565b600081519050610f6f81611598565b92915050565b600081359050610f84816115af565b92915050565b600081519050610f99816115af565b92915050565b600060208284031215610fb157600080fd5b6000610fbf84828501610f4b565b91505092915050565b600060208284031215610fda57600080fd5b6000610fe884828501610f60565b91505092915050565b60006020828403121561100357600080fd5b600061101184828501610f75565b91505092915050565b60006020828403121561102c57600080fd5b600061103a84828501610f8a565b91505092915050565b61104c816113a5565b82525050565b61105b816113b7565b82525050565b61106a816113fb565b82525050565b600061107d60158361129d565b91506110888261146b565b602082019050919050565b60006110a0600c8361129d565b91506110ab82611494565b602082019050919050565b60006110c360428361129d565b91506110ce826114bd565b606082019050919050565b60006110e6602c8361129d565b91506110f182611532565b604082019050919050565b611105816113c3565b82525050565b611114816113f1565b82525050565b600060408201905061112f6000830185611043565b61113c6020830184611043565b9392505050565b60006060820190506111586000830186611043565b6111656020830185611043565b611172604083018461110b565b949350505050565b600060408201905061118f6000830185611043565b61119c6020830184611061565b9392505050565b60006040820190506111b86000830185611043565b6111c5602083018461110b565b9392505050565b60006020820190506111e16000830184611052565b92915050565b6000602082019050818103600083015261120081611070565b9050919050565b6000602082019050818103600083015261122081611093565b9050919050565b60006020820190508181036000830152611240816110b6565b9050919050565b60006020820190508181036000830152611260816110d9565b9050919050565b600060208201905061127c60008301846110fc565b92915050565b6000602082019050611297600083018461110b565b92915050565b600082825260208201905092915050565b60006112b9826113c3565b91506112c4836113c3565b92508261ffff038211156112db576112da61140d565b5b828201905092915050565b60006112f1826113f1565b91506112fc836113f1565b92508261130c5761130b61143c565b5b828204905092915050565b6000611322826113f1565b915061132d836113f1565b9250817fffffffffffffffffffffffffffffffffffffffffffffffffffffffffffffffff04831182151516156113665761136561140d565b5b828202905092915050565b600061137c826113f1565b9150611387836113f1565b92508282101561139a5761139961140d565b5b828203905092915050565b60006113b0826113d1565b9050919050565b60008115159050919050565b600061ffff82169050919050565b600073ffffffffffffffffffffffffffffffffffffffff82169050919050565b6000819050919050565b6000611406826113c3565b9050919050565b7f4e487b7100000000000000000000000000000000000000000000000000000000600052601160045260246000fd5b7f4e487b7100000000000000000000000000000000000000000000000000000000600052601260045260246000fd5b7f546f6f206561726c7920746f2062652070617965640000000000000000000000600082015250565b7f496478206f766572666c6f770000000000000000000000000000000000000000600082015250565b7f5072657061726520616e20616c6c6f77616e636520776974682074686520636f60008201527f727265637420616d6f756e7420696e206f7264657220746f207375627363726960208201527f6265000000000000000000000000000000000000000000000000000000000000604082015250565b7f4465706f73697420616d6f756e74206973206c657373207468616e206d696e6960008201527f6d756d2072657175697265640000000000000000000000000000000000000000602082015250565b61158a816113a5565b811461159557600080fd5b50565b6115a1816113b7565b81146115ac57600080fd5b50565b6115b8816113f1565b81146115c357600080fd5b5056fea26469706673582212201ddaf50e133dfd5f4cf94e6260046b3b66dae886cc0ac2be6a02e2a655ddc45c64736f6c63430008030033",
  "immutableReferences": {},
  "source": "// SPDX-License-Identifier: MIT\n\npragma solidity ^0.8.0;\n\nimport \"./GenericProduct.sol\";\n\n/**\n * @dev Banking smart contracts - Term Deposit (Depot A Terme)\n * @author AshtonIzmev\n */\ncontract DAT is GenericProduct {\n\n    using EnumerableSet for EnumerableSet.UintSet;\n\n    uint256 public minimumAmount;\n    uint256 public dayDuration;\n    uint16 public interestRate;\n\n    struct Product {\n        uint256 _subscriptionDate;\n        uint256 _subscriptionAmount;\n    }\n\n    mapping (uint256 => Product) private _subscriptions;\n\n    /**\n     * param minimumAmount      minimum amount deposited\n     * param dayDuration        duration of the DAT (in days)\n     * param interestRate       interest rate of the DAT\n     */\n    constructor (uint256 minimumAmount_, uint256 dayDuration_, uint16 interestRate_, \n            address medToken_, address fpToken_) {\n        _issuingBank = _msgSender();\n        minimumAmount = minimumAmount_;\n        dayDuration = dayDuration_;\n        interestRate = interestRate_;\n\n        medToken = MED(medToken_);\n        fpToken = FP(fpToken_);\n    }\n\n    /**\n     * Subscribe a new term deposit\n     */\n    function subscribeDat(uint256 depositAmount) public virtual {\n        require(depositAmount >= minimumAmount, \"Deposit amount is less than minimum required\");\n        require(medToken.allowance(_msgSender(), address(this)) >= depositAmount, \"Prepare an allowance with the correct amount in order to subscribe\");\n        medToken.transferFrom(_msgSender(), address(this), depositAmount);\n        fpToken.create(_msgSender(), 0);\n        uint256 tokenId = fpToken.getCurrentTokenId();\n        _subscriptions[tokenId] = Product(medToken.daysElapsed(), depositAmount);\n        _subscriptionIds.add(tokenId);\n    }\n\n    /**\n     * Cancelling a DAT is getting reimbursed your initial deposit at anytime without any added interest\n     */\n    function cancelDat(uint256 tokenId) public virtual {\n        require(fpToken.ownerOf(tokenId) == _msgSender());\n        uint256 initialAmount = _subscriptions[tokenId]._subscriptionAmount;\n        medToken.transfer(_msgSender(), initialAmount);\n        fpToken.destroy(tokenId);\n        _subscriptionIds.remove(tokenId);\n    }\n\n    /**\n     * Get your principal and your interest once the term ended\n     */\n    function payDat(uint256 tokenId) public virtual {\n        require(medToken.daysElapsed() - _subscriptions[tokenId]._subscriptionDate > dayDuration, \n            \"Too early to be payed\");\n        uint256 initialAmount = _subscriptions[tokenId]._subscriptionAmount;\n        medToken.transfer(fpToken.ownerOf(tokenId), initialAmount * (100+interestRate) / 100);\n        fpToken.destroy(tokenId);\n        _subscriptionIds.remove(tokenId);        \n    }\n\n}",
  "sourcePath": "/home/issam/git/med-erc20/sol/truffle/contracts/token/bank/DAT.sol",
  "compiler": {
    "name": "solc",
    "version": "0.8.3+commit.8d00100c.Emscripten.clang"
  },
  "schemaVersion": "3.2.4",
  "updatedAt": "2021-05-11T22:47:01.241Z",
  "devdoc": {
    "author": "AshtonIzmev",
    "details": "Banking smart contracts - Term Deposit (Depot A Terme)",
    "kind": "dev",
    "methods": {},
    "version": 1
  },
  "userdoc": {
    "kind": "user",
    "methods": {
      "cancelDat(uint256)": {
        "notice": "Cancelling a DAT is getting reimbursed your initial deposit at anytime without any added interest"
      },
      "constructor": {
        "notice": "param minimumAmount      minimum amount deposited param dayDuration        duration of the DAT (in days) param interestRate       interest rate of the DAT"
      },
      "payDat(uint256)": {
        "notice": "Get your principal and your interest once the term ended"
      },
      "subscribeDat(uint256)": {
        "notice": "Subscribe a new term deposit"
      }
    },
    "version": 1
  }
}