{
  "contractName": "DAT",
  "abi": [
    {
      "inputs": [
        {
          "internalType": "uint256",
          "name": "minimumAmount_",
          "type": "uint256"
        },
        {
          "internalType": "uint256",
          "name": "dayDuration_",
          "type": "uint256"
        },
        {
          "internalType": "uint16",
          "name": "interestRate_",
          "type": "uint16"
        },
        {
          "internalType": "address",
          "name": "medToken_",
          "type": "address"
        },
        {
          "internalType": "address",
          "name": "fpToken_",
          "type": "address"
        }
      ],
      "stateMutability": "nonpayable",
      "type": "constructor"
    },
    {
      "inputs": [],
      "name": "dayDuration",
      "outputs": [
        {
          "internalType": "uint256",
          "name": "",
          "type": "uint256"
        }
      ],
      "stateMutability": "view",
      "type": "function"
    },
    {
      "inputs": [],
      "name": "fpToken",
      "outputs": [
        {
          "internalType": "contract FP",
          "name": "",
          "type": "address"
        }
      ],
      "stateMutability": "view",
      "type": "function"
    },
    {
      "inputs": [],
      "name": "interestRate",
      "outputs": [
        {
          "internalType": "uint16",
          "name": "",
          "type": "uint16"
        }
      ],
      "stateMutability": "view",
      "type": "function"
    },
    {
      "inputs": [],
      "name": "medToken",
      "outputs": [
        {
          "internalType": "contract MED",
          "name": "",
          "type": "address"
        }
      ],
      "stateMutability": "view",
      "type": "function"
    },
    {
      "inputs": [],
      "name": "minimumAmount",
      "outputs": [
        {
          "internalType": "uint256",
          "name": "",
          "type": "uint256"
        }
      ],
      "stateMutability": "view",
      "type": "function"
    },
    {
      "inputs": [
        {
          "internalType": "uint256",
          "name": "depositAmount",
          "type": "uint256"
        }
      ],
      "name": "subscribeDat",
      "outputs": [
        {
          "internalType": "uint256",
          "name": "",
          "type": "uint256"
        }
      ],
      "stateMutability": "nonpayable",
      "type": "function"
    },
    {
      "inputs": [
        {
          "internalType": "uint256",
          "name": "tokenId",
          "type": "uint256"
        }
      ],
      "name": "cancelDat",
      "outputs": [],
      "stateMutability": "nonpayable",
      "type": "function"
    },
    {
      "inputs": [
        {
          "internalType": "uint256",
          "name": "tokenId",
          "type": "uint256"
        }
      ],
      "name": "payDat",
      "outputs": [],
      "stateMutability": "nonpayable",
      "type": "function"
    }
  ],
  "bytecode": "0x60806040523480156200001157600080fd5b50604051620014ca380380620014ca83398181016040528101906200003791906200018b565b620000476200013e60201b60201c565b600460026101000a81548173ffffffffffffffffffffffffffffffffffffffff021916908373ffffffffffffffffffffffffffffffffffffffff160217905550846002819055508360038190555082600460006101000a81548161ffff021916908361ffff160217905550816000806101000a81548173ffffffffffffffffffffffffffffffffffffffff021916908373ffffffffffffffffffffffffffffffffffffffff16021790555080600160006101000a81548173ffffffffffffffffffffffffffffffffffffffff021916908373ffffffffffffffffffffffffffffffffffffffff1602179055505050505050620002a7565b600033905090565b600081519050620001578162000259565b92915050565b6000815190506200016e8162000273565b92915050565b60008151905062000185816200028d565b92915050565b600080600080600060a08688031215620001a457600080fd5b6000620001b48882890162000174565b9550506020620001c78882890162000174565b9450506040620001da888289016200015d565b9350506060620001ed8882890162000146565b9250506080620002008882890162000146565b9150509295509295909350565b60006200021a826200022f565b9050919050565b600061ffff82169050919050565b600073ffffffffffffffffffffffffffffffffffffffff82169050919050565b6000819050919050565b62000264816200020d565b81146200027057600080fd5b50565b6200027e8162000221565b81146200028a57600080fd5b50565b62000298816200024f565b8114620002a457600080fd5b50565b61121380620002b76000396000f3fe608060405234801561001057600080fd5b50600436106100885760003560e01c80637c3a00fd1161005b5780637c3a00fd14610113578063bb0c829814610131578063d4ef85541461014f578063f6f071f11461016d57610088565b80631074d0271461008d578063780b321c146100a95780637b3457d5146100d95780637c127128146100f7575b600080fd5b6100a760048036038101906100a29190610c02565b61018b565b005b6100c360048036038101906100be9190610c02565b61050e565b6040516100d09190610e7a565b60405180910390f35b6100e16108a0565b6040516100ee9190610dc9565b60405180910390f35b610111600480360381019061010c9190610c02565b6108c6565b005b61011b610b10565b6040516101289190610e5f565b60405180910390f35b610139610b24565b6040516101469190610e7a565b60405180910390f35b610157610b2a565b6040516101649190610de4565b60405180910390f35b610175610b4e565b6040516101829190610e7a565b60405180910390f35b610193610b54565b73ffffffffffffffffffffffffffffffffffffffff16600160009054906101000a900473ffffffffffffffffffffffffffffffffffffffff1673ffffffffffffffffffffffffffffffffffffffff16636352211e836040518263ffffffff1660e01b81526004016102049190610e7a565b60206040518083038186803b15801561021c57600080fd5b505afa158015610230573d6000803e3d6000fd5b505050506040513d601f19601f820116820180604052508101906102549190610bb0565b73ffffffffffffffffffffffffffffffffffffffff161461027457600080fd5b600354600560008381526020019081526020016000206000015460008054906101000a900473ffffffffffffffffffffffffffffffffffffffff1673ffffffffffffffffffffffffffffffffffffffff166380477a4c6040518163ffffffff1660e01b815260040160206040518083038186803b1580156102f457600080fd5b505afa158015610308573d6000803e3d6000fd5b505050506040513d601f19601f8201168201806040525081019061032c9190610c2b565b6103369190610f69565b11610376576040517f08c379a000000000000000000000000000000000000000000000000000000000815260040161036d90610dff565b60405180910390fd5b60006005600083815260200190815260200160002060010154905060008054906101000a900473ffffffffffffffffffffffffffffffffffffffff1673ffffffffffffffffffffffffffffffffffffffff1663a9059cbb6103d5610b54565b6064600460009054906101000a900461ffff1660646103f49190610ea6565b61ffff16856104039190610f0f565b61040d9190610ede565b6040518363ffffffff1660e01b815260040161042a929190610da0565b602060405180830381600087803b15801561044457600080fd5b505af1158015610458573d6000803e3d6000fd5b505050506040513d601f19601f8201168201806040525081019061047c9190610bd9565b50600160009054906101000a900473ffffffffffffffffffffffffffffffffffffffff1673ffffffffffffffffffffffffffffffffffffffff16639d118770836040518263ffffffff1660e01b81526004016104d89190610e7a565b600060405180830381600087803b1580156104f257600080fd5b505af1158015610506573d6000803e3d6000fd5b505050505050565b6000600254821015610555576040517f08c379a000000000000000000000000000000000000000000000000000000000815260040161054c90610e3f565b60405180910390fd5b8160008054906101000a900473ffffffffffffffffffffffffffffffffffffffff1673ffffffffffffffffffffffffffffffffffffffff1663dd62ed3e61059a610b54565b306040518363ffffffff1660e01b81526004016105b8929190610d17565b60206040518083038186803b1580156105d057600080fd5b505afa1580156105e4573d6000803e3d6000fd5b505050506040513d601f19601f820116820180604052508101906106089190610c2b565b1015610649576040517f08c379a000000000000000000000000000000000000000000000000000000000815260040161064090610e1f565b60405180910390fd5b60008054906101000a900473ffffffffffffffffffffffffffffffffffffffff1673ffffffffffffffffffffffffffffffffffffffff166323b872dd61068d610b54565b30856040518463ffffffff1660e01b81526004016106ad93929190610d40565b602060405180830381600087803b1580156106c757600080fd5b505af11580156106db573d6000803e3d6000fd5b505050506040513d601f19601f820116820180604052508101906106ff9190610bd9565b506000600160009054906101000a900473ffffffffffffffffffffffffffffffffffffffff1673ffffffffffffffffffffffffffffffffffffffff16635edfe0df610748610b54565b60006040518363ffffffff1660e01b8152600401610767929190610d77565b602060405180830381600087803b15801561078157600080fd5b505af1158015610795573d6000803e3d6000fd5b505050506040513d601f19601f820116820180604052508101906107b99190610c2b565b9050604051806040016040528060008054906101000a900473ffffffffffffffffffffffffffffffffffffffff1673ffffffffffffffffffffffffffffffffffffffff166380477a4c6040518163ffffffff1660e01b815260040160206040518083038186803b15801561082c57600080fd5b505afa158015610840573d6000803e3d6000fd5b505050506040513d601f19601f820116820180604052508101906108649190610c2b565b81526020018481525060056000838152602001908152602001600020600082015181600001556020820151816001015590505080915050919050565b600160009054906101000a900473ffffffffffffffffffffffffffffffffffffffff1681565b6108ce610b54565b73ffffffffffffffffffffffffffffffffffffffff16600160009054906101000a900473ffffffffffffffffffffffffffffffffffffffff1673ffffffffffffffffffffffffffffffffffffffff16636352211e836040518263ffffffff1660e01b815260040161093f9190610e7a565b60206040518083038186803b15801561095757600080fd5b505afa15801561096b573d6000803e3d6000fd5b505050506040513d601f19601f8201168201806040525081019061098f9190610bb0565b73ffffffffffffffffffffffffffffffffffffffff16146109af57600080fd5b60006005600083815260200190815260200160002060010154905060008054906101000a900473ffffffffffffffffffffffffffffffffffffffff1673ffffffffffffffffffffffffffffffffffffffff1663a9059cbb610a0e610b54565b836040518363ffffffff1660e01b8152600401610a2c929190610da0565b602060405180830381600087803b158015610a4657600080fd5b505af1158015610a5a573d6000803e3d6000fd5b505050506040513d601f19601f82011682018060405250810190610a7e9190610bd9565b50600160009054906101000a900473ffffffffffffffffffffffffffffffffffffffff1673ffffffffffffffffffffffffffffffffffffffff16639d118770836040518263ffffffff1660e01b8152600401610ada9190610e7a565b600060405180830381600087803b158015610af457600080fd5b505af1158015610b08573d6000803e3d6000fd5b505050505050565b600460009054906101000a900461ffff1681565b60025481565b60008054906101000a900473ffffffffffffffffffffffffffffffffffffffff1681565b60035481565b600033905090565b600081519050610b6b81611198565b92915050565b600081519050610b80816111af565b92915050565b600081359050610b95816111c6565b92915050565b600081519050610baa816111c6565b92915050565b600060208284031215610bc257600080fd5b6000610bd084828501610b5c565b91505092915050565b600060208284031215610beb57600080fd5b6000610bf984828501610b71565b91505092915050565b600060208284031215610c1457600080fd5b6000610c2284828501610b86565b91505092915050565b600060208284031215610c3d57600080fd5b6000610c4b84828501610b9b565b91505092915050565b610c5d81610f9d565b82525050565b610c6c81610ff3565b82525050565b610c7b81611017565b82525050565b610c8a8161103b565b82525050565b6000610c9d601583610e95565b9150610ca8826110ab565b602082019050919050565b6000610cc0604283610e95565b9150610ccb826110d4565b606082019050919050565b6000610ce3602c83610e95565b9150610cee82611149565b604082019050919050565b610d0281610fbb565b82525050565b610d1181610fe9565b82525050565b6000604082019050610d2c6000830185610c54565b610d396020830184610c54565b9392505050565b6000606082019050610d556000830186610c54565b610d626020830185610c54565b610d6f6040830184610d08565b949350505050565b6000604082019050610d8c6000830185610c54565b610d996020830184610c81565b9392505050565b6000604082019050610db56000830185610c54565b610dc26020830184610d08565b9392505050565b6000602082019050610dde6000830184610c63565b92915050565b6000602082019050610df96000830184610c72565b92915050565b60006020820190508181036000830152610e1881610c90565b9050919050565b60006020820190508181036000830152610e3881610cb3565b9050919050565b60006020820190508181036000830152610e5881610cd6565b9050919050565b6000602082019050610e746000830184610cf9565b92915050565b6000602082019050610e8f6000830184610d08565b92915050565b600082825260208201905092915050565b6000610eb182610fbb565b9150610ebc83610fbb565b92508261ffff03821115610ed357610ed261104d565b5b828201905092915050565b6000610ee982610fe9565b9150610ef483610fe9565b925082610f0457610f0361107c565b5b828204905092915050565b6000610f1a82610fe9565b9150610f2583610fe9565b9250817fffffffffffffffffffffffffffffffffffffffffffffffffffffffffffffffff0483118215151615610f5e57610f5d61104d565b5b828202905092915050565b6000610f7482610fe9565b9150610f7f83610fe9565b925082821015610f9257610f9161104d565b5b828203905092915050565b6000610fa882610fc9565b9050919050565b60008115159050919050565b600061ffff82169050919050565b600073ffffffffffffffffffffffffffffffffffffffff82169050919050565b6000819050919050565b6000610ffe82611005565b9050919050565b600061101082610fc9565b9050919050565b600061102282611029565b9050919050565b600061103482610fc9565b9050919050565b600061104682610fbb565b9050919050565b7f4e487b7100000000000000000000000000000000000000000000000000000000600052601160045260246000fd5b7f4e487b7100000000000000000000000000000000000000000000000000000000600052601260045260246000fd5b7f546f6f206561726c7920746f2062652070617965640000000000000000000000600082015250565b7f5072657061726520616e20616c6c6f77616e636520776974682074686520636f60008201527f727265637420616d6f756e7420696e206f7264657220746f207375627363726960208201527f6265000000000000000000000000000000000000000000000000000000000000604082015250565b7f4465706f73697420616d6f756e74206973206c657373207468616e206d696e6960008201527f6d756d2072657175697265640000000000000000000000000000000000000000602082015250565b6111a181610f9d565b81146111ac57600080fd5b50565b6111b881610faf565b81146111c357600080fd5b50565b6111cf81610fe9565b81146111da57600080fd5b5056fea2646970667358221220d01aff272dc58f97ddd2f317b28528829ea6d1fdc48244051689282ce5ae33ad64736f6c63430008030033",
  "immutableReferences": {},
  "source": "// SPDX-License-Identifier: MIT\n\npragma solidity ^0.8.0;\n\nimport \"../../utils/Context.sol\";\nimport \"../med/MED.sol\";\nimport \"../nft/FP.sol\";\n\n/**\n * @dev Banking smart contracts - Term Deposit (Depot A Terme)\n * @author AshtonIzmev\n */\ncontract DAT is Context {\n\n    MED public medToken;\n    FP public fpToken;\n\n    uint256 public minimumAmount;\n    uint256 public dayDuration;\n    uint16 public interestRate;\n\n    address _issuingBank;\n\n    struct Product {\n        uint256 _subscriptionDate;\n        uint256 _subscriptionPrice;\n    }\n\n    mapping (uint256 => Product) private _subscriptions;\n\n    modifier onlyIssuingBank() {\n        require(\n            _msgSender() == _issuingBank,\n            \"Only Issuing Bank is allowed to call this\"\n        );\n        _;\n    }\n\n    /**\n     * The treasure account is the \"root\" account on this currency\n     * param minimumAmount      minimum amount deposited\n     * param dayDuration        duration of the DAT (in days)\n     * param interestRate       interest rate of the DAT\n     */\n    constructor (uint256 minimumAmount_, uint256 dayDuration_, uint16 interestRate_, \n            address medToken_, address fpToken_) {\n        _issuingBank = _msgSender();\n        minimumAmount = minimumAmount_;\n        dayDuration = dayDuration_;\n        interestRate = interestRate_;\n\n        medToken = MED(medToken_);\n        fpToken = FP(fpToken_);\n    }\n\n    /**\n     * Subscribe a new term deposit\n     */\n    function subscribeDat(uint256 depositAmount) public virtual returns (uint256) {\n        require(depositAmount >= minimumAmount, \"Deposit amount is less than minimum required\");\n        require(medToken.allowance(_msgSender(), address(this)) >= depositAmount, \"Prepare an allowance with the correct amount in order to subscribe\");\n        medToken.transferFrom(_msgSender(), address(this), depositAmount);\n        uint256 tokenId = fpToken.create(_msgSender(), 0);\n        _subscriptions[tokenId] = Product(medToken.daysElapsed(), depositAmount);\n        return tokenId;\n    }\n\n    /**\n     * Cancelling a DAT is getting reimbursed your initial deposit at anytime without any interest\n     */\n    function cancelDat(uint256 tokenId) public virtual {\n        require(fpToken.ownerOf(tokenId) == _msgSender());\n        uint256 initialAmount = _subscriptions[tokenId]._subscriptionPrice;\n        medToken.transfer(_msgSender(), initialAmount);\n        fpToken.destroy(tokenId);\n    }\n\n    /**\n     * Get your principal and your interest once the term ended\n     */\n    function payDat(uint256 tokenId) public virtual {\n        require(fpToken.ownerOf(tokenId) == _msgSender());\n        require(medToken.daysElapsed() - _subscriptions[tokenId]._subscriptionDate > dayDuration, \n            \"Too early to be payed\");\n        uint256 initialAmount = _subscriptions[tokenId]._subscriptionPrice;\n        medToken.transfer(_msgSender(), initialAmount * (100+interestRate) / 100);\n        fpToken.destroy(tokenId);        \n    }\n\n}\n",
  "sourcePath": "/home/issam/git/med-erc20/sol/truffle/contracts/token/bank/DAT.sol",
  "compiler": {
    "name": "solc",
    "version": "0.8.3+commit.8d00100c.Emscripten.clang"
  },
  "schemaVersion": "3.2.4",
  "updatedAt": "2021-05-08T12:24:56.568Z",
  "devdoc": {
    "author": "AshtonIzmev",
    "details": "Banking smart contracts - Term Deposit (Depot A Terme)",
    "kind": "dev",
    "methods": {},
    "version": 1
  },
  "userdoc": {
    "kind": "user",
    "methods": {
      "cancelDat(uint256)": {
        "notice": "Cancelling a DAT is getting reimbursed your initial deposit at anytime without any interest"
      },
      "constructor": {
        "notice": "The treasure account is the \"root\" account on this currency param minimumAmount      minimum amount deposited param dayDuration        duration of the DAT (in days) param interestRate       interest rate of the DAT"
      },
      "payDat(uint256)": {
        "notice": "Get your principal and your interest once the term ended"
      },
      "subscribeDat(uint256)": {
        "notice": "Subscribe a new term deposit"
      }
    },
    "version": 1
  }
}