{
  "contractName": "DAT",
  "abi": [
    {
      "inputs": [
        {
          "internalType": "uint256",
          "name": "minimumAmount_",
          "type": "uint256"
        },
        {
          "internalType": "uint256",
          "name": "dayDuration_",
          "type": "uint256"
        },
        {
          "internalType": "uint16",
          "name": "interestRate_",
          "type": "uint16"
        },
        {
          "internalType": "address",
          "name": "medToken_",
          "type": "address"
        },
        {
          "internalType": "address",
          "name": "fpToken_",
          "type": "address"
        }
      ],
      "stateMutability": "nonpayable",
      "type": "constructor"
    },
    {
      "inputs": [],
      "name": "dayDuration",
      "outputs": [
        {
          "internalType": "uint256",
          "name": "",
          "type": "uint256"
        }
      ],
      "stateMutability": "view",
      "type": "function"
    },
    {
      "inputs": [
        {
          "internalType": "uint256",
          "name": "idx",
          "type": "uint256"
        }
      ],
      "name": "getSubscription",
      "outputs": [
        {
          "internalType": "uint256",
          "name": "",
          "type": "uint256"
        }
      ],
      "stateMutability": "view",
      "type": "function"
    },
    {
      "inputs": [],
      "name": "getSubscriptionLength",
      "outputs": [
        {
          "internalType": "uint256",
          "name": "",
          "type": "uint256"
        }
      ],
      "stateMutability": "view",
      "type": "function"
    },
    {
      "inputs": [],
      "name": "interestRate",
      "outputs": [
        {
          "internalType": "uint16",
          "name": "",
          "type": "uint16"
        }
      ],
      "stateMutability": "view",
      "type": "function"
    },
    {
      "inputs": [
        {
          "internalType": "uint256",
          "name": "tokenId",
          "type": "uint256"
        }
      ],
      "name": "isSuscribed",
      "outputs": [
        {
          "internalType": "bool",
          "name": "",
          "type": "bool"
        }
      ],
      "stateMutability": "view",
      "type": "function"
    },
    {
      "inputs": [],
      "name": "minimumAmount",
      "outputs": [
        {
          "internalType": "uint256",
          "name": "",
          "type": "uint256"
        }
      ],
      "stateMutability": "view",
      "type": "function"
    },
    {
      "inputs": [
        {
          "internalType": "uint256",
          "name": "depositAmount",
          "type": "uint256"
        }
      ],
      "name": "subscribe",
      "outputs": [],
      "stateMutability": "nonpayable",
      "type": "function"
    },
    {
      "inputs": [
        {
          "internalType": "uint256",
          "name": "tokenId",
          "type": "uint256"
        }
      ],
      "name": "cancelDat",
      "outputs": [],
      "stateMutability": "nonpayable",
      "type": "function"
    },
    {
      "inputs": [
        {
          "internalType": "uint256",
          "name": "tokenId",
          "type": "uint256"
        }
      ],
      "name": "payDat",
      "outputs": [],
      "stateMutability": "nonpayable",
      "type": "function"
    },
    {
      "inputs": [
        {
          "internalType": "uint256",
          "name": "tokenId",
          "type": "uint256"
        }
      ],
      "name": "getProduct",
      "outputs": [
        {
          "internalType": "uint256",
          "name": "",
          "type": "uint256"
        },
        {
          "internalType": "uint256",
          "name": "",
          "type": "uint256"
        }
      ],
      "stateMutability": "view",
      "type": "function"
    }
  ],
  "bytecode": "0x60806040523480156200001157600080fd5b50604051620019523803806200195283398181016040528101906200003791906200018b565b620000476200013e60201b60201c565b600260006101000a81548173ffffffffffffffffffffffffffffffffffffffff021916908373ffffffffffffffffffffffffffffffffffffffff160217905550846005819055508360068190555082600760006101000a81548161ffff021916908361ffff160217905550816000806101000a81548173ffffffffffffffffffffffffffffffffffffffff021916908373ffffffffffffffffffffffffffffffffffffffff16021790555080600160006101000a81548173ffffffffffffffffffffffffffffffffffffffff021916908373ffffffffffffffffffffffffffffffffffffffff1602179055505050505050620002a7565b600033905090565b600081519050620001578162000259565b92915050565b6000815190506200016e8162000273565b92915050565b60008151905062000185816200028d565b92915050565b600080600080600060a08688031215620001a457600080fd5b6000620001b48882890162000174565b9550506020620001c78882890162000174565b9450506040620001da888289016200015d565b9350506060620001ed8882890162000146565b9250506080620002008882890162000146565b9150509295509295909350565b60006200021a826200022f565b9050919050565b600061ffff82169050919050565b600073ffffffffffffffffffffffffffffffffffffffff82169050919050565b6000819050919050565b62000264816200020d565b81146200027057600080fd5b50565b6200027e8162000221565b81146200028a57600080fd5b50565b62000298816200024f565b8114620002a457600080fd5b50565b61169b80620002b76000396000f3fe608060405234801561001057600080fd5b506004361061009e5760003560e01c8063839db9c011610066578063839db9c014610133578063b9db15b414610163578063bb0c829814610194578063dc311dd3146101b2578063f6f071f1146101e25761009e565b80630f574ba7146100a35780631074d027146100bf5780632530ea71146100db5780637c127128146100f95780637c3a00fd14610115575b600080fd5b6100bd60048036038101906100b89190611067565b610200565b005b6100d960048036038101906100d49190611067565b610620565b005b6100e3610972565b6040516100f091906112f8565b60405180910390f35b610113600480360381019061010e9190611067565b610983565b005b61011d610be2565b60405161012a91906112dd565b60405180910390f35b61014d60048036038101906101489190611067565b610bf6565b60405161015a9190611242565b60405180910390f35b61017d60048036038101906101789190611067565b610c13565b60405161018b929190611313565b60405180910390f35b61019c610c4d565b6040516101a991906112f8565b60405180910390f35b6101cc60048036038101906101c79190611067565b610c53565b6040516101d991906112f8565b60405180910390f35b6101ea610cbb565b6040516101f791906112f8565b60405180910390f35b600554811015610245576040517f08c379a000000000000000000000000000000000000000000000000000000000815260040161023c906112bd565b60405180910390fd5b8060008054906101000a900473ffffffffffffffffffffffffffffffffffffffff1673ffffffffffffffffffffffffffffffffffffffff1663dd62ed3e61028a610cc1565b306040518363ffffffff1660e01b81526004016102a8929190611190565b60206040518083038186803b1580156102c057600080fd5b505afa1580156102d4573d6000803e3d6000fd5b505050506040513d601f19601f820116820180604052508101906102f89190611090565b1015610339576040517f08c379a00000000000000000000000000000000000000000000000000000000081526004016103309061129d565b60405180910390fd5b60008054906101000a900473ffffffffffffffffffffffffffffffffffffffff1673ffffffffffffffffffffffffffffffffffffffff166323b872dd61037d610cc1565b30846040518463ffffffff1660e01b815260040161039d939291906111b9565b602060405180830381600087803b1580156103b757600080fd5b505af11580156103cb573d6000803e3d6000fd5b505050506040513d601f19601f820116820180604052508101906103ef919061103e565b50600160009054906101000a900473ffffffffffffffffffffffffffffffffffffffff1673ffffffffffffffffffffffffffffffffffffffff16635edfe0df610436610cc1565b60006040518363ffffffff1660e01b81526004016104559291906111f0565b600060405180830381600087803b15801561046f57600080fd5b505af1158015610483573d6000803e3d6000fd5b505050506000600160009054906101000a900473ffffffffffffffffffffffffffffffffffffffff1673ffffffffffffffffffffffffffffffffffffffff1663561892366040518163ffffffff1660e01b815260040160206040518083038186803b1580156104f157600080fd5b505afa158015610505573d6000803e3d6000fd5b505050506040513d601f19601f820116820180604052508101906105299190611090565b9050604051806040016040528060008054906101000a900473ffffffffffffffffffffffffffffffffffffffff1673ffffffffffffffffffffffffffffffffffffffff166380477a4c6040518163ffffffff1660e01b815260040160206040518083038186803b15801561059c57600080fd5b505afa1580156105b0573d6000803e3d6000fd5b505050506040513d601f19601f820116820180604052508101906105d49190611090565b81526020018381525060086000838152602001908152602001600020600082015181600001556020820151816001015590505061061b816003610cc990919063ffffffff16565b505050565b600654600860008381526020019081526020016000206000015460008054906101000a900473ffffffffffffffffffffffffffffffffffffffff1673ffffffffffffffffffffffffffffffffffffffff166380477a4c6040518163ffffffff1660e01b815260040160206040518083038186803b1580156106a057600080fd5b505afa1580156106b4573d6000803e3d6000fd5b505050506040513d601f19601f820116820180604052508101906106d89190611090565b6106e29190611410565b11610722576040517f08c379a00000000000000000000000000000000000000000000000000000000081526004016107199061125d565b60405180910390fd5b60006008600083815260200190815260200160002060010154905060008054906101000a900473ffffffffffffffffffffffffffffffffffffffff1673ffffffffffffffffffffffffffffffffffffffff1663a9059cbb600160009054906101000a900473ffffffffffffffffffffffffffffffffffffffff1673ffffffffffffffffffffffffffffffffffffffff16636352211e856040518263ffffffff1660e01b81526004016107d491906112f8565b60206040518083038186803b1580156107ec57600080fd5b505afa158015610800573d6000803e3d6000fd5b505050506040513d601f19601f820116820180604052508101906108249190611015565b6064600760009054906101000a900461ffff166064610843919061134d565b61ffff168561085291906113b6565b61085c9190611385565b6040518363ffffffff1660e01b8152600401610879929190611219565b602060405180830381600087803b15801561089357600080fd5b505af11580156108a7573d6000803e3d6000fd5b505050506040513d601f19601f820116820180604052508101906108cb919061103e565b50600160009054906101000a900473ffffffffffffffffffffffffffffffffffffffff1673ffffffffffffffffffffffffffffffffffffffff16639d118770836040518263ffffffff1660e01b815260040161092791906112f8565b600060405180830381600087803b15801561094157600080fd5b505af1158015610955573d6000803e3d6000fd5b5050505061096d826003610ce390919063ffffffff16565b505050565b600061097e6003610cfd565b905090565b61098b610cc1565b73ffffffffffffffffffffffffffffffffffffffff16600160009054906101000a900473ffffffffffffffffffffffffffffffffffffffff1673ffffffffffffffffffffffffffffffffffffffff16636352211e836040518263ffffffff1660e01b81526004016109fc91906112f8565b60206040518083038186803b158015610a1457600080fd5b505afa158015610a28573d6000803e3d6000fd5b505050506040513d601f19601f82011682018060405250810190610a4c9190611015565b73ffffffffffffffffffffffffffffffffffffffff1614610a6c57600080fd5b60006008600083815260200190815260200160002060010154905060008054906101000a900473ffffffffffffffffffffffffffffffffffffffff1673ffffffffffffffffffffffffffffffffffffffff1663a9059cbb610acb610cc1565b836040518363ffffffff1660e01b8152600401610ae9929190611219565b602060405180830381600087803b158015610b0357600080fd5b505af1158015610b17573d6000803e3d6000fd5b505050506040513d601f19601f82011682018060405250810190610b3b919061103e565b50600160009054906101000a900473ffffffffffffffffffffffffffffffffffffffff1673ffffffffffffffffffffffffffffffffffffffff16639d118770836040518263ffffffff1660e01b8152600401610b9791906112f8565b600060405180830381600087803b158015610bb157600080fd5b505af1158015610bc5573d6000803e3d6000fd5b50505050610bdd826003610ce390919063ffffffff16565b505050565b600760009054906101000a900461ffff1681565b6000610c0c826003610d1290919063ffffffff16565b9050919050565b6000806008600084815260200190815260200160002060000154600860008581526020019081526020016000206001015491509150915091565b60055481565b6000610c5f6003610cfd565b8210610ca0576040517f08c379a0000000000000000000000000000000000000000000000000000000008152600401610c979061127d565b60405180910390fd5b610cb4826003610d2c90919063ffffffff16565b9050919050565b60065481565b600033905090565b6000610cdb836000018360001b610d46565b905092915050565b6000610cf5836000018360001b610db6565b905092915050565b6000610d0b82600001610f3c565b9050919050565b6000610d24836000018360001b610f4d565b905092915050565b6000610d3b8360000183610f70565b60001c905092915050565b6000610d528383610f4d565b610dab578260000182908060018154018082558091505060019003906000526020600020016000909190919091505582600001805490508360010160008481526020019081526020016000208190555060019050610db0565b600090505b92915050565b60008083600101600084815260200190815260200160002054905060008114610f30576000600182610de89190611410565b9050600060018660000180549050610e009190611410565b9050818114610ebb576000866000018281548110610e47577f4e487b7100000000000000000000000000000000000000000000000000000000600052603260045260246000fd5b9060005260206000200154905080876000018481548110610e91577f4e487b7100000000000000000000000000000000000000000000000000000000600052603260045260246000fd5b90600052602060002001819055508387600101600083815260200190815260200160002081905550505b85600001805480610ef5577f4e487b7100000000000000000000000000000000000000000000000000000000600052603160045260246000fd5b600190038181906000526020600020016000905590558560010160008681526020019081526020016000206000905560019350505050610f36565b60009150505b92915050565b600081600001805490509050919050565b600080836001016000848152602001908152602001600020541415905092915050565b6000826000018281548110610fae577f4e487b7100000000000000000000000000000000000000000000000000000000600052603260045260246000fd5b9060005260206000200154905092915050565b600081519050610fd081611620565b92915050565b600081519050610fe581611637565b92915050565b600081359050610ffa8161164e565b92915050565b60008151905061100f8161164e565b92915050565b60006020828403121561102757600080fd5b600061103584828501610fc1565b91505092915050565b60006020828403121561105057600080fd5b600061105e84828501610fd6565b91505092915050565b60006020828403121561107957600080fd5b600061108784828501610feb565b91505092915050565b6000602082840312156110a257600080fd5b60006110b084828501611000565b91505092915050565b6110c281611444565b82525050565b6110d181611456565b82525050565b6110e08161149a565b82525050565b60006110f360158361133c565b91506110fe8261150a565b602082019050919050565b6000611116600c8361133c565b915061112182611533565b602082019050919050565b600061113960428361133c565b91506111448261155c565b606082019050919050565b600061115c602c8361133c565b9150611167826115d1565b604082019050919050565b61117b81611462565b82525050565b61118a81611490565b82525050565b60006040820190506111a560008301856110b9565b6111b260208301846110b9565b9392505050565b60006060820190506111ce60008301866110b9565b6111db60208301856110b9565b6111e86040830184611181565b949350505050565b600060408201905061120560008301856110b9565b61121260208301846110d7565b9392505050565b600060408201905061122e60008301856110b9565b61123b6020830184611181565b9392505050565b600060208201905061125760008301846110c8565b92915050565b60006020820190508181036000830152611276816110e6565b9050919050565b6000602082019050818103600083015261129681611109565b9050919050565b600060208201905081810360008301526112b68161112c565b9050919050565b600060208201905081810360008301526112d68161114f565b9050919050565b60006020820190506112f26000830184611172565b92915050565b600060208201905061130d6000830184611181565b92915050565b60006040820190506113286000830185611181565b6113356020830184611181565b9392505050565b600082825260208201905092915050565b600061135882611462565b915061136383611462565b92508261ffff0382111561137a576113796114ac565b5b828201905092915050565b600061139082611490565b915061139b83611490565b9250826113ab576113aa6114db565b5b828204905092915050565b60006113c182611490565b91506113cc83611490565b9250817fffffffffffffffffffffffffffffffffffffffffffffffffffffffffffffffff0483118215151615611405576114046114ac565b5b828202905092915050565b600061141b82611490565b915061142683611490565b925082821015611439576114386114ac565b5b828203905092915050565b600061144f82611470565b9050919050565b60008115159050919050565b600061ffff82169050919050565b600073ffffffffffffffffffffffffffffffffffffffff82169050919050565b6000819050919050565b60006114a582611462565b9050919050565b7f4e487b7100000000000000000000000000000000000000000000000000000000600052601160045260246000fd5b7f4e487b7100000000000000000000000000000000000000000000000000000000600052601260045260246000fd5b7f546f6f206561726c7920746f2062652070617965640000000000000000000000600082015250565b7f496478206f766572666c6f770000000000000000000000000000000000000000600082015250565b7f5072657061726520616e20616c6c6f77616e636520776974682074686520636f60008201527f727265637420616d6f756e7420696e206f7264657220746f207375627363726960208201527f6265000000000000000000000000000000000000000000000000000000000000604082015250565b7f4465706f73697420616d6f756e74206973206c657373207468616e206d696e6960008201527f6d756d2072657175697265640000000000000000000000000000000000000000602082015250565b61162981611444565b811461163457600080fd5b50565b61164081611456565b811461164b57600080fd5b50565b61165781611490565b811461166257600080fd5b5056fea264697066735822122082aadd5e5cba008b372b85f878ea180714b9b436bb4255adb4823b794a3cf00864736f6c63430008030033",
  "immutableReferences": {},
  "source": "// SPDX-License-Identifier: MIT\n\npragma solidity ^0.8.0;\n\nimport \"./GenericProduct.sol\";\n\n/**\n * @dev Banking smart contracts - Term Deposit (Depot A Terme)\n * @author AshtonIzmev\n */\ncontract DAT is GenericProduct {\n\n    using EnumerableSet for EnumerableSet.UintSet;\n\n    uint256 public minimumAmount;\n    uint256 public dayDuration;\n    uint16 public interestRate;\n\n    struct Product {\n        uint256 _subscriptionDate;\n        uint256 _subscriptionAmount;\n    }\n\n    mapping (uint256 => Product) private _subscriptions;\n\n    /**\n     * param minimumAmount      minimum amount deposited\n     * param dayDuration        duration of the DAT (in days)\n     * param interestRate       interest rate of the DAT\n     */\n    constructor (uint256 minimumAmount_, uint256 dayDuration_, uint16 interestRate_, \n            address medToken_, address fpToken_) {\n        _issuingBank = _msgSender();\n        minimumAmount = minimumAmount_;\n        dayDuration = dayDuration_;\n        interestRate = interestRate_;\n\n        medToken = MED(medToken_);\n        fpToken = FP(fpToken_);\n    }\n\n    /**\n     * Subscribe a new term deposit\n     */\n    function subscribe(uint256 depositAmount) public virtual {\n        require(depositAmount >= minimumAmount, \"Deposit amount is less than minimum required\");\n        require(medToken.allowance(_msgSender(), address(this)) >= depositAmount, \"Prepare an allowance with the correct amount in order to subscribe\");\n        medToken.transferFrom(_msgSender(), address(this), depositAmount);\n        fpToken.create(_msgSender(), 0);\n        uint256 tokenId = fpToken.getCurrentTokenId();\n        _subscriptions[tokenId] = Product(medToken.daysElapsed(), depositAmount);\n        _subscriptionIds.add(tokenId);\n    }\n\n    /**\n     * Cancelling a DAT is getting reimbursed your initial deposit at anytime without any added interest\n     */\n    function cancelDat(uint256 tokenId) public virtual {\n        require(fpToken.ownerOf(tokenId) == _msgSender());\n        uint256 initialAmount = _subscriptions[tokenId]._subscriptionAmount;\n        medToken.transfer(_msgSender(), initialAmount);\n        fpToken.destroy(tokenId);\n        _subscriptionIds.remove(tokenId);\n    }\n\n    /**\n     * Get your principal and your interest once the term ended\n     */\n    function payDat(uint256 tokenId) public virtual {\n        require(medToken.daysElapsed() - _subscriptions[tokenId]._subscriptionDate > dayDuration, \n            \"Too early to be payed\");\n        uint256 initialAmount = _subscriptions[tokenId]._subscriptionAmount;\n        medToken.transfer(fpToken.ownerOf(tokenId), initialAmount * (100+interestRate) / 100);\n        fpToken.destroy(tokenId);\n        _subscriptionIds.remove(tokenId);        \n    }\n\n    function getProduct(uint256 tokenId) public view virtual returns (uint256, uint256) {\n        return (\n            _subscriptions[tokenId]._subscriptionDate,\n            _subscriptions[tokenId]._subscriptionAmount);\n    }\n\n}",
  "sourcePath": "/home/issam/git/med-erc20/sol/truffle/contracts/token/bank/DAT.sol",
  "compiler": {
    "name": "solc",
    "version": "0.8.3+commit.8d00100c.Emscripten.clang"
  },
  "schemaVersion": "3.2.4",
  "updatedAt": "2021-05-13T11:39:17.985Z",
  "devdoc": {
    "author": "AshtonIzmev",
    "details": "Banking smart contracts - Term Deposit (Depot A Terme)",
    "kind": "dev",
    "methods": {},
    "version": 1
  },
  "userdoc": {
    "kind": "user",
    "methods": {
      "cancelDat(uint256)": {
        "notice": "Cancelling a DAT is getting reimbursed your initial deposit at anytime without any added interest"
      },
      "constructor": {
        "notice": "param minimumAmount      minimum amount deposited param dayDuration        duration of the DAT (in days) param interestRate       interest rate of the DAT"
      },
      "payDat(uint256)": {
        "notice": "Get your principal and your interest once the term ended"
      },
      "subscribe(uint256)": {
        "notice": "Subscribe a new term deposit"
      }
    },
    "version": 1
  }
}