{
  "contractName": "DAT",
  "abi": [
    {
      "inputs": [
        {
          "internalType": "uint256",
          "name": "minimumAmountArg",
          "type": "uint256"
        },
        {
          "internalType": "uint16",
          "name": "dayDurationArg",
          "type": "uint16"
        },
        {
          "internalType": "uint16",
          "name": "interestRateArg",
          "type": "uint16"
        },
        {
          "internalType": "address",
          "name": "medTokenArg",
          "type": "address"
        }
      ],
      "stateMutability": "nonpayable",
      "type": "constructor"
    },
    {
      "inputs": [],
      "name": "dayDuration",
      "outputs": [
        {
          "internalType": "uint16",
          "name": "",
          "type": "uint16"
        }
      ],
      "stateMutability": "view",
      "type": "function"
    },
    {
      "inputs": [],
      "name": "daysElapsed",
      "outputs": [
        {
          "internalType": "uint256",
          "name": "",
          "type": "uint256"
        }
      ],
      "stateMutability": "view",
      "type": "function"
    },
    {
      "inputs": [],
      "name": "interestRate",
      "outputs": [
        {
          "internalType": "uint16",
          "name": "",
          "type": "uint16"
        }
      ],
      "stateMutability": "view",
      "type": "function"
    },
    {
      "inputs": [],
      "name": "medToken",
      "outputs": [
        {
          "internalType": "contract MED",
          "name": "",
          "type": "address"
        }
      ],
      "stateMutability": "view",
      "type": "function"
    },
    {
      "inputs": [],
      "name": "minimumAmount",
      "outputs": [
        {
          "internalType": "uint256",
          "name": "",
          "type": "uint256"
        }
      ],
      "stateMutability": "view",
      "type": "function"
    },
    {
      "inputs": [],
      "name": "incrementDay",
      "outputs": [],
      "stateMutability": "nonpayable",
      "type": "function"
    },
    {
      "inputs": [
        {
          "internalType": "uint256",
          "name": "depositAmount",
          "type": "uint256"
        }
      ],
      "name": "subscribeDat",
      "outputs": [],
      "stateMutability": "nonpayable",
      "type": "function"
    },
    {
      "inputs": [],
      "name": "cancelDat",
      "outputs": [],
      "stateMutability": "nonpayable",
      "type": "function"
    },
    {
      "inputs": [],
      "name": "payDat",
      "outputs": [],
      "stateMutability": "nonpayable",
      "type": "function"
    }
  ],
  "bytecode": "0x60806040523480156200001157600080fd5b50604051620012093803806200120983398181016040528101906200003791906200015e565b620000476200011160201b60201c565b600560006101000a81548173ffffffffffffffffffffffffffffffffffffffff021916908373ffffffffffffffffffffffffffffffffffffffff1602179055508360018190555082600260006101000a81548161ffff021916908361ffff160217905550816002806101000a81548161ffff021916908361ffff160217905550806000806101000a81548173ffffffffffffffffffffffffffffffffffffffff021916908373ffffffffffffffffffffffffffffffffffffffff1602179055505050505062000264565b600033905090565b6000815190506200012a8162000216565b92915050565b600081519050620001418162000230565b92915050565b60008151905062000158816200024a565b92915050565b600080600080608085870312156200017557600080fd5b6000620001858782880162000147565b9450506020620001988782880162000130565b9350506040620001ab8782880162000130565b9250506060620001be8782880162000119565b91505092959194509250565b6000620001d782620001ec565b9050919050565b600061ffff82169050919050565b600073ffffffffffffffffffffffffffffffffffffffff82169050919050565b6000819050919050565b6200022181620001ca565b81146200022d57600080fd5b50565b6200023b81620001de565b81146200024757600080fd5b50565b62000255816200020c565b81146200026157600080fd5b50565b610f9580620002746000396000f3fe608060405234801561001057600080fd5b50600436106100935760003560e01c80637c3a00fd116100665780637c3a00fd146100d257806380477a4c146100f0578063bb0c82981461010e578063d4ef85541461012c578063f6f071f11461014a57610093565b80633052e8bf1461009857806347890396146100a257806367ed0c79146100ac578063780b321c146100b6575b600080fd5b6100a0610168565b005b6100aa610353565b005b6100b461061f565b005b6100d060048036038101906100cb919061097d565b6106cd565b005b6100da6108cc565b6040516100e79190610bac565b60405180910390f35b6100f86108de565b6040516101059190610bc7565b60405180910390f35b6101166108e4565b6040516101239190610bc7565b60405180910390f35b6101346108ea565b6040516101419190610af1565b60405180910390f35b61015261090e565b60405161015f9190610bac565b60405180910390f35b600060036000610176610922565b73ffffffffffffffffffffffffffffffffffffffff1673ffffffffffffffffffffffffffffffffffffffff16815260200190815260200160002060000154116101f4576040517f08c379a00000000000000000000000000000000000000000000000000000000081526004016101eb90610b2c565b60405180910390fd5b600060036000610202610922565b73ffffffffffffffffffffffffffffffffffffffff1673ffffffffffffffffffffffffffffffffffffffff1681526020019081526020016000206000015490506003600061024e610922565b73ffffffffffffffffffffffffffffffffffffffff1673ffffffffffffffffffffffffffffffffffffffff1681526020019081526020016000206000808201600090556001820160009055505060008054906101000a900473ffffffffffffffffffffffffffffffffffffffff1673ffffffffffffffffffffffffffffffffffffffff1663a9059cbb6102df610922565b836040518363ffffffff1660e01b81526004016102fd929190610ac8565b602060405180830381600087803b15801561031757600080fd5b505af115801561032b573d6000803e3d6000fd5b505050506040513d601f19601f8201168201806040525081019061034f9190610954565b5050565b600060036000610361610922565b73ffffffffffffffffffffffffffffffffffffffff1673ffffffffffffffffffffffffffffffffffffffff16815260200190815260200160002060000154116103df576040517f08c379a00000000000000000000000000000000000000000000000000000000081526004016103d690610b2c565b60405180910390fd5b600260009054906101000a900461ffff1661ffff1660036000610400610922565b73ffffffffffffffffffffffffffffffffffffffff1673ffffffffffffffffffffffffffffffffffffffff1681526020019081526020016000206001015460045461044b9190610d0c565b1161048b576040517f08c379a000000000000000000000000000000000000000000000000000000000815260040161048290610b0c565b60405180910390fd5b6000606460028054906101000a900461ffff1660646104aa9190610bf3565b61ffff16600360006104ba610922565b73ffffffffffffffffffffffffffffffffffffffff1673ffffffffffffffffffffffffffffffffffffffff168152602001908152602001600020600001546105029190610cb2565b61050c9190610c81565b90506003600061051a610922565b73ffffffffffffffffffffffffffffffffffffffff1673ffffffffffffffffffffffffffffffffffffffff1681526020019081526020016000206000808201600090556001820160009055505060008054906101000a900473ffffffffffffffffffffffffffffffffffffffff1673ffffffffffffffffffffffffffffffffffffffff1663a9059cbb6105ab610922565b836040518363ffffffff1660e01b81526004016105c9929190610ac8565b602060405180830381600087803b1580156105e357600080fd5b505af11580156105f7573d6000803e3d6000fd5b505050506040513d601f19601f8201168201806040525081019061061b9190610954565b5050565b600560009054906101000a900473ffffffffffffffffffffffffffffffffffffffff1673ffffffffffffffffffffffffffffffffffffffff16610660610922565b73ffffffffffffffffffffffffffffffffffffffff16146106b6576040517f08c379a00000000000000000000000000000000000000000000000000000000081526004016106ad90610b6c565b60405180910390fd5b60016004546106c59190610c2b565b600481905550565b600154811015610712576040517f08c379a000000000000000000000000000000000000000000000000000000000815260040161070990610b4c565b60405180910390fd5b600060036000610720610922565b73ffffffffffffffffffffffffffffffffffffffff1673ffffffffffffffffffffffffffffffffffffffff168152602001908152602001600020600001541461079e576040517f08c379a000000000000000000000000000000000000000000000000000000000815260040161079590610b8c565b60405180910390fd5b60008054906101000a900473ffffffffffffffffffffffffffffffffffffffff1673ffffffffffffffffffffffffffffffffffffffff166323b872dd6107e2610922565b30846040518463ffffffff1660e01b815260040161080293929190610a91565b602060405180830381600087803b15801561081c57600080fd5b505af1158015610830573d6000803e3d6000fd5b505050506040513d601f19601f820116820180604052508101906108549190610954565b50604051806040016040528082815260200160045481525060036000610878610922565b73ffffffffffffffffffffffffffffffffffffffff1673ffffffffffffffffffffffffffffffffffffffff168152602001908152602001600020600082015181600001556020820151816001015590505050565b60028054906101000a900461ffff1681565b60045481565b60015481565b60008054906101000a900473ffffffffffffffffffffffffffffffffffffffff1681565b600260009054906101000a900461ffff1681565b600033905090565b60008151905061093981610f31565b92915050565b60008135905061094e81610f48565b92915050565b60006020828403121561096657600080fd5b60006109748482850161092a565b91505092915050565b60006020828403121561098f57600080fd5b600061099d8482850161093f565b91505092915050565b6109af81610d40565b82525050565b6109be81610d96565b82525050565b60006109d1601583610be2565b91506109dc82610e18565b602082019050919050565b60006109f4601683610be2565b91506109ff82610e41565b602082019050919050565b6000610a17602c83610be2565b9150610a2282610e6a565b604082019050919050565b6000610a3a602983610be2565b9150610a4582610eb9565b604082019050919050565b6000610a5d601283610be2565b9150610a6882610f08565b602082019050919050565b610a7c81610d5e565b82525050565b610a8b81610d8c565b82525050565b6000606082019050610aa660008301866109a6565b610ab360208301856109a6565b610ac06040830184610a82565b949350505050565b6000604082019050610add60008301856109a6565b610aea6020830184610a82565b9392505050565b6000602082019050610b0660008301846109b5565b92915050565b60006020820190508181036000830152610b25816109c4565b9050919050565b60006020820190508181036000830152610b45816109e7565b9050919050565b60006020820190508181036000830152610b6581610a0a565b9050919050565b60006020820190508181036000830152610b8581610a2d565b9050919050565b60006020820190508181036000830152610ba581610a50565b9050919050565b6000602082019050610bc16000830184610a73565b92915050565b6000602082019050610bdc6000830184610a82565b92915050565b600082825260208201905092915050565b6000610bfe82610d5e565b9150610c0983610d5e565b92508261ffff03821115610c2057610c1f610dba565b5b828201905092915050565b6000610c3682610d8c565b9150610c4183610d8c565b9250827fffffffffffffffffffffffffffffffffffffffffffffffffffffffffffffffff03821115610c7657610c75610dba565b5b828201905092915050565b6000610c8c82610d8c565b9150610c9783610d8c565b925082610ca757610ca6610de9565b5b828204905092915050565b6000610cbd82610d8c565b9150610cc883610d8c565b9250817fffffffffffffffffffffffffffffffffffffffffffffffffffffffffffffffff0483118215151615610d0157610d00610dba565b5b828202905092915050565b6000610d1782610d8c565b9150610d2283610d8c565b925082821015610d3557610d34610dba565b5b828203905092915050565b6000610d4b82610d6c565b9050919050565b60008115159050919050565b600061ffff82169050919050565b600073ffffffffffffffffffffffffffffffffffffffff82169050919050565b6000819050919050565b6000610da182610da8565b9050919050565b6000610db382610d6c565b9050919050565b7f4e487b7100000000000000000000000000000000000000000000000000000000600052601160045260246000fd5b7f4e487b7100000000000000000000000000000000000000000000000000000000600052601260045260246000fd5b7f546f6f206561726c7920746f2062652070617965640000000000000000000000600082015250565b7f4e6f2061637469766520737562736372697074696f6e00000000000000000000600082015250565b7f4465706f73697420616d6f756e74206973206c657373207468616e206d696e6960008201527f6d756d2072657175697265640000000000000000000000000000000000000000602082015250565b7f4f6e6c792049737375696e672042616e6b20697320616c6c6f77656420746f2060008201527f63616c6c20746869730000000000000000000000000000000000000000000000602082015250565b7f416c726561647920737562736372696265640000000000000000000000000000600082015250565b610f3a81610d52565b8114610f4557600080fd5b50565b610f5181610d8c565b8114610f5c57600080fd5b5056fea2646970667358221220b7dd0118911a99fc990e13588162092d0986962a5c6fac5a93df75dd53dcb32c64736f6c63430008030033",
  "immutableReferences": {},
  "source": "// SPDX-License-Identifier: MIT\n\npragma solidity ^0.8.0;\n\nimport \"../../utils/Context.sol\";\nimport \"../med/MED.sol\";\n\n/**\n * @dev Banking smart contracts - Term Deposit (Depot A Terme)\n */\ncontract DAT is Context {\n\n    MED public medToken;\n\n    uint256 public minimumAmount;\n    uint16 public dayDuration;\n    uint16 public interestRate;\n\n    struct Product {\n        uint256 _subscriptionAmount;\n        uint256 _subscriptionDate;\n    }\n\n    mapping (address => Product) private _subscriptions;\n    uint256 public daysElapsed;\n\n    address _issuingBank;\n\n    modifier onlyIssuingBank() {\n        require(\n            _msgSender() == _issuingBank,\n            \"Only Issuing Bank is allowed to call this\"\n        );\n        _;\n    }\n\n    /**\n     * The treasure account is the \"root\" account on this currency\n     * param minimumAmount      minimum amount deposited\n     * param dayDuration        duration of the DAT (in days)\n     * param interestRate       interest rate of the DAT\n     */\n    constructor (uint256 minimumAmountArg, uint16 dayDurationArg, uint16 interestRateArg, \n            address medTokenArg) {\n        _issuingBank = _msgSender();\n        minimumAmount = minimumAmountArg;\n        dayDuration = dayDurationArg;\n        interestRate = interestRateArg;\n        medToken = MED(medTokenArg);\n    }\n\n    function incrementDay() public virtual onlyIssuingBank {\n        daysElapsed = daysElapsed +1;\n    }\n\n    /**\n     * Subscribe a new term deposit\n     */\n    function subscribeDat(uint256 depositAmount) public virtual {\n        require(depositAmount >= minimumAmount, \"Deposit amount is less than minimum required\");\n        require(_subscriptions[_msgSender()]._subscriptionAmount == 0, \"Already subscribed\");\n        medToken.transferFrom(_msgSender(), address(this), depositAmount);\n        _subscriptions[_msgSender()] = Product(depositAmount, daysElapsed);\n    }\n\n    /**\n     * Cancelling a DAT is getting reimbursed your initial deposit at anytime without any interest\n     */\n    function cancelDat() public virtual {\n        require(_subscriptions[_msgSender()]._subscriptionAmount > 0, \"No active subscription\");\n        uint256 amount = _subscriptions[_msgSender()]._subscriptionAmount;\n        delete _subscriptions[_msgSender()];\n        medToken.transfer(_msgSender(), amount);\n    }\n\n    /**\n     * Get your principal and your interest once the term ended\n     */\n    function payDat() public virtual {\n        require(_subscriptions[_msgSender()]._subscriptionAmount > 0, \"No active subscription\");\n        require(daysElapsed - _subscriptions[_msgSender()]._subscriptionDate > dayDuration, \n            \"Too early to be payed\");\n        uint256 amount = _subscriptions[_msgSender()]._subscriptionAmount * (100+interestRate) / 100;\n        delete _subscriptions[_msgSender()];\n        medToken.transfer(_msgSender(), amount);\n    }\n\n}\n",
  "sourcePath": "/home/issam/git/med-erc20/sol/truffle/contracts/token/bank/DAT.sol",
  "compiler": {
    "name": "solc",
    "version": "0.8.3+commit.8d00100c.Emscripten.clang"
  },
  "schemaVersion": "3.2.4",
  "updatedAt": "2021-04-25T09:03:47.318Z",
  "devdoc": {
    "details": "Banking smart contracts - Term Deposit (Depot A Terme)",
    "kind": "dev",
    "methods": {},
    "version": 1
  },
  "userdoc": {
    "kind": "user",
    "methods": {
      "cancelDat()": {
        "notice": "Cancelling a DAT is getting reimbursed your initial deposit at anytime without any interest"
      },
      "constructor": {
        "notice": "The treasure account is the \"root\" account on this currency param minimumAmount      minimum amount deposited param dayDuration        duration of the DAT (in days) param interestRate       interest rate of the DAT"
      },
      "payDat()": {
        "notice": "Get your principal and your interest once the term ended"
      },
      "subscribeDat(uint256)": {
        "notice": "Subscribe a new term deposit"
      }
    },
    "version": 1
  }
}