{
  "contractName": "DAT",
  "abi": [
    {
      "inputs": [
        {
          "internalType": "uint256",
          "name": "minimumAmount_",
          "type": "uint256"
        },
        {
          "internalType": "uint256",
          "name": "dayDuration_",
          "type": "uint256"
        },
        {
          "internalType": "uint16",
          "name": "interestRate_",
          "type": "uint16"
        },
        {
          "internalType": "address",
          "name": "medToken_",
          "type": "address"
        },
        {
          "internalType": "address",
          "name": "fpToken_",
          "type": "address"
        }
      ],
      "stateMutability": "nonpayable",
      "type": "constructor"
    },
    {
      "inputs": [],
      "name": "dayDuration",
      "outputs": [
        {
          "internalType": "uint256",
          "name": "",
          "type": "uint256"
        }
      ],
      "stateMutability": "view",
      "type": "function"
    },
    {
      "inputs": [],
      "name": "fpToken",
      "outputs": [
        {
          "internalType": "contract FP",
          "name": "",
          "type": "address"
        }
      ],
      "stateMutability": "view",
      "type": "function"
    },
    {
      "inputs": [],
      "name": "interestRate",
      "outputs": [
        {
          "internalType": "uint16",
          "name": "",
          "type": "uint16"
        }
      ],
      "stateMutability": "view",
      "type": "function"
    },
    {
      "inputs": [],
      "name": "medToken",
      "outputs": [
        {
          "internalType": "contract MED",
          "name": "",
          "type": "address"
        }
      ],
      "stateMutability": "view",
      "type": "function"
    },
    {
      "inputs": [],
      "name": "minimumAmount",
      "outputs": [
        {
          "internalType": "uint256",
          "name": "",
          "type": "uint256"
        }
      ],
      "stateMutability": "view",
      "type": "function"
    },
    {
      "inputs": [
        {
          "internalType": "uint256",
          "name": "depositAmount",
          "type": "uint256"
        }
      ],
      "name": "subscribeDat",
      "outputs": [],
      "stateMutability": "nonpayable",
      "type": "function"
    },
    {
      "inputs": [
        {
          "internalType": "uint256",
          "name": "tokenId",
          "type": "uint256"
        }
      ],
      "name": "cancelDat",
      "outputs": [],
      "stateMutability": "nonpayable",
      "type": "function"
    },
    {
      "inputs": [
        {
          "internalType": "uint256",
          "name": "tokenId",
          "type": "uint256"
        }
      ],
      "name": "payDat",
      "outputs": [],
      "stateMutability": "nonpayable",
      "type": "function"
    },
    {
      "inputs": [
        {
          "internalType": "uint256",
          "name": "tokenId",
          "type": "uint256"
        }
      ],
      "name": "isSuscribed",
      "outputs": [
        {
          "internalType": "bool",
          "name": "",
          "type": "bool"
        }
      ],
      "stateMutability": "view",
      "type": "function"
    },
    {
      "inputs": [
        {
          "internalType": "uint256",
          "name": "idx",
          "type": "uint256"
        }
      ],
      "name": "getSubscription",
      "outputs": [
        {
          "internalType": "uint256",
          "name": "",
          "type": "uint256"
        }
      ],
      "stateMutability": "view",
      "type": "function"
    },
    {
      "inputs": [],
      "name": "getSubscriptionLength",
      "outputs": [
        {
          "internalType": "uint256",
          "name": "",
          "type": "uint256"
        }
      ],
      "stateMutability": "view",
      "type": "function"
    }
  ],
  "bytecode": "0x60806040523480156200001157600080fd5b50604051620019eb380380620019eb83398181016040528101906200003791906200018b565b620000476200013e60201b60201c565b600460026101000a81548173ffffffffffffffffffffffffffffffffffffffff021916908373ffffffffffffffffffffffffffffffffffffffff160217905550846002819055508360038190555082600460006101000a81548161ffff021916908361ffff160217905550816000806101000a81548173ffffffffffffffffffffffffffffffffffffffff021916908373ffffffffffffffffffffffffffffffffffffffff16021790555080600160006101000a81548173ffffffffffffffffffffffffffffffffffffffff021916908373ffffffffffffffffffffffffffffffffffffffff1602179055505050505050620002a7565b600033905090565b600081519050620001578162000259565b92915050565b6000815190506200016e8162000273565b92915050565b60008151905062000185816200028d565b92915050565b600080600080600060a08688031215620001a457600080fd5b6000620001b48882890162000174565b9550506020620001c78882890162000174565b9450506040620001da888289016200015d565b9350506060620001ed8882890162000146565b9250506080620002008882890162000146565b9150509295509295909350565b60006200021a826200022f565b9050919050565b600061ffff82169050919050565b600073ffffffffffffffffffffffffffffffffffffffff82169050919050565b6000819050919050565b62000264816200020d565b81146200027057600080fd5b50565b6200027e8162000221565b81146200028a57600080fd5b50565b62000298816200024f565b8114620002a457600080fd5b50565b61173480620002b76000396000f3fe608060405234801561001057600080fd5b50600436106100a95760003560e01c80637c3a00fd116100715780637c3a00fd1461013e578063839db9c01461015c578063bb0c82981461018c578063d4ef8554146101aa578063dc311dd3146101c8578063f6f071f1146101f8576100a9565b80631074d027146100ae5780632530ea71146100ca578063780b321c146100e85780637b3457d5146101045780637c12712814610122575b600080fd5b6100c860048036038101906100c3919061108d565b610216565b005b6100d2610568565b6040516100df9190611372565b60405180910390f35b61010260048036038101906100fd919061108d565b610579565b005b61010c610999565b60405161011991906112a1565b60405180910390f35b61013c6004803603810190610137919061108d565b6109bf565b005b610146610c1e565b6040516101539190611357565b60405180910390f35b6101766004803603810190610171919061108d565b610c32565b6040516101839190611286565b60405180910390f35b610194610c4f565b6040516101a19190611372565b60405180910390f35b6101b2610c55565b6040516101bf91906112bc565b60405180910390f35b6101e260048036038101906101dd919061108d565b610c79565b6040516101ef9190611372565b60405180910390f35b610200610ce1565b60405161020d9190611372565b60405180910390f35b600354600560008381526020019081526020016000206000015460008054906101000a900473ffffffffffffffffffffffffffffffffffffffff1673ffffffffffffffffffffffffffffffffffffffff166380477a4c6040518163ffffffff1660e01b815260040160206040518083038186803b15801561029657600080fd5b505afa1580156102aa573d6000803e3d6000fd5b505050506040513d601f19601f820116820180604052508101906102ce91906110b6565b6102d89190611461565b11610318576040517f08c379a000000000000000000000000000000000000000000000000000000000815260040161030f906112d7565b60405180910390fd5b60006005600083815260200190815260200160002060010154905060008054906101000a900473ffffffffffffffffffffffffffffffffffffffff1673ffffffffffffffffffffffffffffffffffffffff1663a9059cbb600160009054906101000a900473ffffffffffffffffffffffffffffffffffffffff1673ffffffffffffffffffffffffffffffffffffffff16636352211e856040518263ffffffff1660e01b81526004016103ca9190611372565b60206040518083038186803b1580156103e257600080fd5b505afa1580156103f6573d6000803e3d6000fd5b505050506040513d601f19601f8201168201806040525081019061041a919061103b565b6064600460009054906101000a900461ffff166064610439919061139e565b61ffff16856104489190611407565b61045291906113d6565b6040518363ffffffff1660e01b815260040161046f92919061125d565b602060405180830381600087803b15801561048957600080fd5b505af115801561049d573d6000803e3d6000fd5b505050506040513d601f19601f820116820180604052508101906104c19190611064565b50600160009054906101000a900473ffffffffffffffffffffffffffffffffffffffff1673ffffffffffffffffffffffffffffffffffffffff16639d118770836040518263ffffffff1660e01b815260040161051d9190611372565b600060405180830381600087803b15801561053757600080fd5b505af115801561054b573d6000803e3d6000fd5b50505050610563826006610ce790919063ffffffff16565b505050565b60006105746006610d01565b905090565b6002548110156105be576040517f08c379a00000000000000000000000000000000000000000000000000000000081526004016105b590611337565b60405180910390fd5b8060008054906101000a900473ffffffffffffffffffffffffffffffffffffffff1673ffffffffffffffffffffffffffffffffffffffff1663dd62ed3e610603610d16565b306040518363ffffffff1660e01b81526004016106219291906111d4565b60206040518083038186803b15801561063957600080fd5b505afa15801561064d573d6000803e3d6000fd5b505050506040513d601f19601f8201168201806040525081019061067191906110b6565b10156106b2576040517f08c379a00000000000000000000000000000000000000000000000000000000081526004016106a990611317565b60405180910390fd5b60008054906101000a900473ffffffffffffffffffffffffffffffffffffffff1673ffffffffffffffffffffffffffffffffffffffff166323b872dd6106f6610d16565b30846040518463ffffffff1660e01b8152600401610716939291906111fd565b602060405180830381600087803b15801561073057600080fd5b505af1158015610744573d6000803e3d6000fd5b505050506040513d601f19601f820116820180604052508101906107689190611064565b50600160009054906101000a900473ffffffffffffffffffffffffffffffffffffffff1673ffffffffffffffffffffffffffffffffffffffff16635edfe0df6107af610d16565b60006040518363ffffffff1660e01b81526004016107ce929190611234565b600060405180830381600087803b1580156107e857600080fd5b505af11580156107fc573d6000803e3d6000fd5b505050506000600160009054906101000a900473ffffffffffffffffffffffffffffffffffffffff1673ffffffffffffffffffffffffffffffffffffffff1663561892366040518163ffffffff1660e01b815260040160206040518083038186803b15801561086a57600080fd5b505afa15801561087e573d6000803e3d6000fd5b505050506040513d601f19601f820116820180604052508101906108a291906110b6565b9050604051806040016040528060008054906101000a900473ffffffffffffffffffffffffffffffffffffffff1673ffffffffffffffffffffffffffffffffffffffff166380477a4c6040518163ffffffff1660e01b815260040160206040518083038186803b15801561091557600080fd5b505afa158015610929573d6000803e3d6000fd5b505050506040513d601f19601f8201168201806040525081019061094d91906110b6565b815260200183815250600560008381526020019081526020016000206000820151816000015560208201518160010155905050610994816006610d1e90919063ffffffff16565b505050565b600160009054906101000a900473ffffffffffffffffffffffffffffffffffffffff1681565b6109c7610d16565b73ffffffffffffffffffffffffffffffffffffffff16600160009054906101000a900473ffffffffffffffffffffffffffffffffffffffff1673ffffffffffffffffffffffffffffffffffffffff16636352211e836040518263ffffffff1660e01b8152600401610a389190611372565b60206040518083038186803b158015610a5057600080fd5b505afa158015610a64573d6000803e3d6000fd5b505050506040513d601f19601f82011682018060405250810190610a88919061103b565b73ffffffffffffffffffffffffffffffffffffffff1614610aa857600080fd5b60006005600083815260200190815260200160002060010154905060008054906101000a900473ffffffffffffffffffffffffffffffffffffffff1673ffffffffffffffffffffffffffffffffffffffff1663a9059cbb610b07610d16565b836040518363ffffffff1660e01b8152600401610b2592919061125d565b602060405180830381600087803b158015610b3f57600080fd5b505af1158015610b53573d6000803e3d6000fd5b505050506040513d601f19601f82011682018060405250810190610b779190611064565b50600160009054906101000a900473ffffffffffffffffffffffffffffffffffffffff1673ffffffffffffffffffffffffffffffffffffffff16639d118770836040518263ffffffff1660e01b8152600401610bd39190611372565b600060405180830381600087803b158015610bed57600080fd5b505af1158015610c01573d6000803e3d6000fd5b50505050610c19826006610ce790919063ffffffff16565b505050565b600460009054906101000a900461ffff1681565b6000610c48826006610d3890919063ffffffff16565b9050919050565b60025481565b60008054906101000a900473ffffffffffffffffffffffffffffffffffffffff1681565b6000610c856006610d01565b8210610cc6576040517f08c379a0000000000000000000000000000000000000000000000000000000008152600401610cbd906112f7565b60405180910390fd5b610cda826006610d5290919063ffffffff16565b9050919050565b60035481565b6000610cf9836000018360001b610d6c565b905092915050565b6000610d0f82600001610ef2565b9050919050565b600033905090565b6000610d30836000018360001b610f03565b905092915050565b6000610d4a836000018360001b610f73565b905092915050565b6000610d618360000183610f96565b60001c905092915050565b60008083600101600084815260200190815260200160002054905060008114610ee6576000600182610d9e9190611461565b9050600060018660000180549050610db69190611461565b9050818114610e71576000866000018281548110610dfd577f4e487b7100000000000000000000000000000000000000000000000000000000600052603260045260246000fd5b9060005260206000200154905080876000018481548110610e47577f4e487b7100000000000000000000000000000000000000000000000000000000600052603260045260246000fd5b90600052602060002001819055508387600101600083815260200190815260200160002081905550505b85600001805480610eab577f4e487b7100000000000000000000000000000000000000000000000000000000600052603160045260246000fd5b600190038181906000526020600020016000905590558560010160008681526020019081526020016000206000905560019350505050610eec565b60009150505b92915050565b600081600001805490509050919050565b6000610f0f8383610f73565b610f68578260000182908060018154018082558091505060019003906000526020600020016000909190919091505582600001805490508360010160008481526020019081526020016000208190555060019050610f6d565b600090505b92915050565b600080836001016000848152602001908152602001600020541415905092915050565b6000826000018281548110610fd4577f4e487b7100000000000000000000000000000000000000000000000000000000600052603260045260246000fd5b9060005260206000200154905092915050565b600081519050610ff6816116b9565b92915050565b60008151905061100b816116d0565b92915050565b600081359050611020816116e7565b92915050565b600081519050611035816116e7565b92915050565b60006020828403121561104d57600080fd5b600061105b84828501610fe7565b91505092915050565b60006020828403121561107657600080fd5b600061108484828501610ffc565b91505092915050565b60006020828403121561109f57600080fd5b60006110ad84828501611011565b91505092915050565b6000602082840312156110c857600080fd5b60006110d684828501611026565b91505092915050565b6110e881611495565b82525050565b6110f7816114a7565b82525050565b611106816114eb565b82525050565b6111158161150f565b82525050565b61112481611533565b82525050565b600061113760158361138d565b9150611142826115a3565b602082019050919050565b600061115a600c8361138d565b9150611165826115cc565b602082019050919050565b600061117d60428361138d565b9150611188826115f5565b606082019050919050565b60006111a0602c8361138d565b91506111ab8261166a565b604082019050919050565b6111bf816114b3565b82525050565b6111ce816114e1565b82525050565b60006040820190506111e960008301856110df565b6111f660208301846110df565b9392505050565b600060608201905061121260008301866110df565b61121f60208301856110df565b61122c60408301846111c5565b949350505050565b600060408201905061124960008301856110df565b611256602083018461111b565b9392505050565b600060408201905061127260008301856110df565b61127f60208301846111c5565b9392505050565b600060208201905061129b60008301846110ee565b92915050565b60006020820190506112b660008301846110fd565b92915050565b60006020820190506112d1600083018461110c565b92915050565b600060208201905081810360008301526112f08161112a565b9050919050565b600060208201905081810360008301526113108161114d565b9050919050565b6000602082019050818103600083015261133081611170565b9050919050565b6000602082019050818103600083015261135081611193565b9050919050565b600060208201905061136c60008301846111b6565b92915050565b600060208201905061138760008301846111c5565b92915050565b600082825260208201905092915050565b60006113a9826114b3565b91506113b4836114b3565b92508261ffff038211156113cb576113ca611545565b5b828201905092915050565b60006113e1826114e1565b91506113ec836114e1565b9250826113fc576113fb611574565b5b828204905092915050565b6000611412826114e1565b915061141d836114e1565b9250817fffffffffffffffffffffffffffffffffffffffffffffffffffffffffffffffff048311821515161561145657611455611545565b5b828202905092915050565b600061146c826114e1565b9150611477836114e1565b92508282101561148a57611489611545565b5b828203905092915050565b60006114a0826114c1565b9050919050565b60008115159050919050565b600061ffff82169050919050565b600073ffffffffffffffffffffffffffffffffffffffff82169050919050565b6000819050919050565b60006114f6826114fd565b9050919050565b6000611508826114c1565b9050919050565b600061151a82611521565b9050919050565b600061152c826114c1565b9050919050565b600061153e826114b3565b9050919050565b7f4e487b7100000000000000000000000000000000000000000000000000000000600052601160045260246000fd5b7f4e487b7100000000000000000000000000000000000000000000000000000000600052601260045260246000fd5b7f546f6f206561726c7920746f2062652070617965640000000000000000000000600082015250565b7f496478206f766572666c6f770000000000000000000000000000000000000000600082015250565b7f5072657061726520616e20616c6c6f77616e636520776974682074686520636f60008201527f727265637420616d6f756e7420696e206f7264657220746f207375627363726960208201527f6265000000000000000000000000000000000000000000000000000000000000604082015250565b7f4465706f73697420616d6f756e74206973206c657373207468616e206d696e6960008201527f6d756d2072657175697265640000000000000000000000000000000000000000602082015250565b6116c281611495565b81146116cd57600080fd5b50565b6116d9816114a7565b81146116e457600080fd5b50565b6116f0816114e1565b81146116fb57600080fd5b5056fea2646970667358221220a71f3f5c6afa34462278fc7c2bc27f02610431060e35d790573432e2c11b733f64736f6c63430008030033",
  "immutableReferences": {},
  "source": "// SPDX-License-Identifier: MIT\n\npragma solidity ^0.8.0;\n\nimport \"../../utils/Context.sol\";\nimport \"../../utils/EnumerableSet.sol\";\nimport \"../med/MED.sol\";\nimport \"../nft/FP.sol\";\n\n/**\n * @dev Banking smart contracts - Term Deposit (Depot A Terme)\n * @author AshtonIzmev\n */\ncontract DAT is Context {\n\n    using EnumerableSet for EnumerableSet.UintSet;\n\n    MED public medToken;\n    FP public fpToken;\n\n    uint256 public minimumAmount;\n    uint256 public dayDuration;\n    uint16 public interestRate;\n\n    address _issuingBank;\n\n    struct Product {\n        uint256 _subscriptionDate;\n        uint256 _subscriptionPrice;\n    }\n\n    mapping (uint256 => Product) private _subscriptions;\n    EnumerableSet.UintSet private _subscriptionIds;\n\n    modifier onlyIssuingBank() {\n        require(\n            _msgSender() == _issuingBank,\n            \"Only Issuing Bank is allowed to call this\"\n        );\n        _;\n    }\n\n    /**\n     * The treasure account is the \"root\" account on this currency\n     * param minimumAmount      minimum amount deposited\n     * param dayDuration        duration of the DAT (in days)\n     * param interestRate       interest rate of the DAT\n     */\n    constructor (uint256 minimumAmount_, uint256 dayDuration_, uint16 interestRate_, \n            address medToken_, address fpToken_) {\n        _issuingBank = _msgSender();\n        minimumAmount = minimumAmount_;\n        dayDuration = dayDuration_;\n        interestRate = interestRate_;\n\n        medToken = MED(medToken_);\n        fpToken = FP(fpToken_);\n    }\n\n    /**\n     * Subscribe a new term deposit\n     */\n    function subscribeDat(uint256 depositAmount) public virtual {\n        require(depositAmount >= minimumAmount, \"Deposit amount is less than minimum required\");\n        require(medToken.allowance(_msgSender(), address(this)) >= depositAmount, \"Prepare an allowance with the correct amount in order to subscribe\");\n        medToken.transferFrom(_msgSender(), address(this), depositAmount);\n        fpToken.create(_msgSender(), 0);\n        uint256 tokenId = fpToken.getCurrentTokenId();\n        _subscriptions[tokenId] = Product(medToken.daysElapsed(), depositAmount);\n        _subscriptionIds.add(tokenId);\n    }\n\n    /**\n     * Cancelling a DAT is getting reimbursed your initial deposit at anytime without any added interest\n     */\n    function cancelDat(uint256 tokenId) public virtual {\n        require(fpToken.ownerOf(tokenId) == _msgSender());\n        uint256 initialAmount = _subscriptions[tokenId]._subscriptionPrice;\n        medToken.transfer(_msgSender(), initialAmount);\n        fpToken.destroy(tokenId);\n        _subscriptionIds.remove(tokenId);\n    }\n\n    /**\n     * Get your principal and your interest once the term ended\n     */\n    function payDat(uint256 tokenId) public virtual {\n        require(medToken.daysElapsed() - _subscriptions[tokenId]._subscriptionDate > dayDuration, \n            \"Too early to be payed\");\n        uint256 initialAmount = _subscriptions[tokenId]._subscriptionPrice;\n        medToken.transfer(fpToken.ownerOf(tokenId), initialAmount * (100+interestRate) / 100);\n        fpToken.destroy(tokenId);\n        _subscriptionIds.remove(tokenId);        \n    }\n\n    function isSuscribed(uint256 tokenId) public virtual view returns (bool) {\n        return _subscriptionIds.contains(tokenId);\n    }\n\n    function getSubscription(uint256 idx) public virtual view returns (uint256) {\n        require(idx < _subscriptionIds.length(), \"Idx overflow\");\n        return _subscriptionIds.at(idx);\n    }\n\n    function getSubscriptionLength() public virtual view returns (uint256) {\n        return _subscriptionIds.length();\n    }\n\n}\n",
  "sourcePath": "/home/issam/git/med-erc20/sol/truffle/contracts/token/bank/DAT.sol",
  "compiler": {
    "name": "solc",
    "version": "0.8.3+commit.8d00100c.Emscripten.clang"
  },
  "schemaVersion": "3.2.4",
  "updatedAt": "2021-05-09T09:29:35.723Z",
  "devdoc": {
    "author": "AshtonIzmev",
    "details": "Banking smart contracts - Term Deposit (Depot A Terme)",
    "kind": "dev",
    "methods": {},
    "version": 1
  },
  "userdoc": {
    "kind": "user",
    "methods": {
      "cancelDat(uint256)": {
        "notice": "Cancelling a DAT is getting reimbursed your initial deposit at anytime without any added interest"
      },
      "constructor": {
        "notice": "The treasure account is the \"root\" account on this currency param minimumAmount      minimum amount deposited param dayDuration        duration of the DAT (in days) param interestRate       interest rate of the DAT"
      },
      "payDat(uint256)": {
        "notice": "Get your principal and your interest once the term ended"
      },
      "subscribeDat(uint256)": {
        "notice": "Subscribe a new term deposit"
      }
    },
    "version": 1
  }
}