{
  "contractName": "Factoring",
  "abi": [
    {
      "inputs": [
        {
          "internalType": "address",
          "name": "medToken_",
          "type": "address"
        },
        {
          "internalType": "address",
          "name": "fpToken_",
          "type": "address"
        }
      ],
      "stateMutability": "nonpayable",
      "type": "constructor"
    },
    {
      "inputs": [
        {
          "internalType": "uint256",
          "name": "idx",
          "type": "uint256"
        }
      ],
      "name": "getSubscription",
      "outputs": [
        {
          "internalType": "uint256",
          "name": "",
          "type": "uint256"
        }
      ],
      "stateMutability": "view",
      "type": "function"
    },
    {
      "inputs": [],
      "name": "getSubscriptionLength",
      "outputs": [
        {
          "internalType": "uint256",
          "name": "",
          "type": "uint256"
        }
      ],
      "stateMutability": "view",
      "type": "function"
    },
    {
      "inputs": [
        {
          "internalType": "uint256",
          "name": "tokenId",
          "type": "uint256"
        }
      ],
      "name": "isSuscribed",
      "outputs": [
        {
          "internalType": "bool",
          "name": "",
          "type": "bool"
        }
      ],
      "stateMutability": "view",
      "type": "function"
    },
    {
      "inputs": [
        {
          "internalType": "uint256",
          "name": "invoiceAmount_",
          "type": "uint256"
        },
        {
          "internalType": "address",
          "name": "borrower_",
          "type": "address"
        }
      ],
      "name": "sellInvoice",
      "outputs": [],
      "stateMutability": "nonpayable",
      "type": "function"
    },
    {
      "inputs": [
        {
          "internalType": "uint256",
          "name": "tokenId",
          "type": "uint256"
        }
      ],
      "name": "validateInvoice",
      "outputs": [],
      "stateMutability": "nonpayable",
      "type": "function"
    },
    {
      "inputs": [
        {
          "internalType": "uint256",
          "name": "tokenId",
          "type": "uint256"
        }
      ],
      "name": "payInvoice",
      "outputs": [],
      "stateMutability": "nonpayable",
      "type": "function"
    }
  ],
  "bytecode": "0x60806040523480156200001157600080fd5b506040516200134d3803806200134d83398181016040528101906200003791906200012f565b620000476200011060201b60201c565b600260006101000a81548173ffffffffffffffffffffffffffffffffffffffff021916908373ffffffffffffffffffffffffffffffffffffffff160217905550816000806101000a81548173ffffffffffffffffffffffffffffffffffffffff021916908373ffffffffffffffffffffffffffffffffffffffff16021790555080600160006101000a81548173ffffffffffffffffffffffffffffffffffffffff021916908373ffffffffffffffffffffffffffffffffffffffff1602179055505050620001be565b600033905090565b6000815190506200012981620001a4565b92915050565b600080604083850312156200014357600080fd5b6000620001538582860162000118565b9250506020620001668582860162000118565b9150509250929050565b60006200017d8262000184565b9050919050565b600073ffffffffffffffffffffffffffffffffffffffff82169050919050565b620001af8162000170565b8114620001bb57600080fd5b50565b61117f80620001ce6000396000f3fe608060405234801561001057600080fd5b50600436106100625760003560e01c80632530ea71146100675780632e9853ec146100855780633b56c4c7146100a1578063839db9c0146100bd578063ac60a6cd146100ed578063dc311dd314610109575b600080fd5b61006f610139565b60405161007c9190610f92565b60405180910390f35b61009f600480360381019061009a9190610dd6565b61014a565b005b6100bb60048036038101906100b69190610d84565b610407565b005b6100d760048036038101906100d29190610d84565b61064a565b6040516100e49190610f17565b60405180910390f35b61010760048036038101906101029190610d84565b610667565b005b610123600480360381019061011e9190610d84565b610961565b6040516101309190610f92565b60405180910390f35b600061014560036109c9565b905090565b600160009054906101000a900473ffffffffffffffffffffffffffffffffffffffff1673ffffffffffffffffffffffffffffffffffffffff16635edfe0df6101906109de565b60016040518363ffffffff1660e01b81526004016101af929190610eee565b600060405180830381600087803b1580156101c957600080fd5b505af11580156101dd573d6000803e3d6000fd5b505050506000600160009054906101000a900473ffffffffffffffffffffffffffffffffffffffff1673ffffffffffffffffffffffffffffffffffffffff1663561892366040518163ffffffff1660e01b815260040160206040518083038186803b15801561024b57600080fd5b505afa15801561025f573d6000803e3d6000fd5b505050506040513d601f19601f820116820180604052508101906102839190610dad565b905060405180608001604052808373ffffffffffffffffffffffffffffffffffffffff16815260200160008054906101000a900473ffffffffffffffffffffffffffffffffffffffff1673ffffffffffffffffffffffffffffffffffffffff166380477a4c6040518163ffffffff1660e01b815260040160206040518083038186803b15801561031257600080fd5b505afa158015610326573d6000803e3d6000fd5b505050506040513d601f19601f8201168201806040525081019061034a9190610dad565b8152602001848152602001600015158152506005600083815260200190815260200160002060008201518160000160006101000a81548173ffffffffffffffffffffffffffffffffffffffff021916908373ffffffffffffffffffffffffffffffffffffffff160217905550602082015181600101556040820151816002015560608201518160030160006101000a81548160ff0219169083151502179055509050506104018160036109e690919063ffffffff16565b50505050565b6104108161064a565b61044f576040517f08c379a000000000000000000000000000000000000000000000000000000000815260040161044690610f72565b60405180910390fd5b6000600560008381526020019081526020016000206040518060800160405290816000820160009054906101000a900473ffffffffffffffffffffffffffffffffffffffff1673ffffffffffffffffffffffffffffffffffffffff1673ffffffffffffffffffffffffffffffffffffffff16815260200160018201548152602001600282015481526020016003820160009054906101000a900460ff16151515158152505090506104fe6109de565b73ffffffffffffffffffffffffffffffffffffffff16816000015173ffffffffffffffffffffffffffffffffffffffff161461056f576040517f08c379a000000000000000000000000000000000000000000000000000000000815260040161056690610f52565b60405180910390fd5b6040518060800160405280826000015173ffffffffffffffffffffffffffffffffffffffff1681526020018260200151815260200182604001518152602001600115158152506005600084815260200190815260200160002060008201518160000160006101000a81548173ffffffffffffffffffffffffffffffffffffffff021916908373ffffffffffffffffffffffffffffffffffffffff160217905550602082015181600101556040820151816002015560608201518160030160006101000a81548160ff0219169083151502179055509050505050565b6000610660826003610a0090919063ffffffff16565b9050919050565b6106708161064a565b6106af576040517f08c379a00000000000000000000000000000000000000000000000000000000081526004016106a690610f72565b60405180910390fd5b6000600560008381526020019081526020016000206040518060800160405290816000820160009054906101000a900473ffffffffffffffffffffffffffffffffffffffff1673ffffffffffffffffffffffffffffffffffffffff1673ffffffffffffffffffffffffffffffffffffffff16815260200160018201548152602001600282015481526020016003820160009054906101000a900460ff161515151581525050905060008054906101000a900473ffffffffffffffffffffffffffffffffffffffff1673ffffffffffffffffffffffffffffffffffffffff166323b872dd61079a6109de565b600160009054906101000a900473ffffffffffffffffffffffffffffffffffffffff1673ffffffffffffffffffffffffffffffffffffffff16636352211e866040518263ffffffff1660e01b81526004016107f59190610f92565b60206040518083038186803b15801561080d57600080fd5b505afa158015610821573d6000803e3d6000fd5b505050506040513d601f19601f820116820180604052508101906108459190610d32565b84604001516040518463ffffffff1660e01b815260040161086893929190610eb7565b602060405180830381600087803b15801561088257600080fd5b505af1158015610896573d6000803e3d6000fd5b505050506040513d601f19601f820116820180604052508101906108ba9190610d5b565b50600160009054906101000a900473ffffffffffffffffffffffffffffffffffffffff1673ffffffffffffffffffffffffffffffffffffffff16639d118770836040518263ffffffff1660e01b81526004016109169190610f92565b600060405180830381600087803b15801561093057600080fd5b505af1158015610944573d6000803e3d6000fd5b5050505061095c826003610a1a90919063ffffffff16565b505050565b600061096d60036109c9565b82106109ae576040517f08c379a00000000000000000000000000000000000000000000000000000000081526004016109a590610f32565b60405180910390fd5b6109c2826003610a3490919063ffffffff16565b9050919050565b60006109d782600001610a4e565b9050919050565b600033905090565b60006109f8836000018360001b610a5f565b905092915050565b6000610a12836000018360001b610acf565b905092915050565b6000610a2c836000018360001b610af2565b905092915050565b6000610a438360000183610c78565b60001c905092915050565b600081600001805490509050919050565b6000610a6b8383610acf565b610ac4578260000182908060018154018082558091505060019003906000526020600020016000909190919091505582600001805490508360010160008481526020019081526020016000208190555060019050610ac9565b600090505b92915050565b600080836001016000848152602001908152602001600020541415905092915050565b60008083600101600084815260200190815260200160002054905060008114610c6c576000600182610b249190610fbe565b9050600060018660000180549050610b3c9190610fbe565b9050818114610bf7576000866000018281548110610b83577f4e487b7100000000000000000000000000000000000000000000000000000000600052603260045260246000fd5b9060005260206000200154905080876000018481548110610bcd577f4e487b7100000000000000000000000000000000000000000000000000000000600052603260045260246000fd5b90600052602060002001819055508387600101600083815260200190815260200160002081905550505b85600001805480610c31577f4e487b7100000000000000000000000000000000000000000000000000000000600052603160045260246000fd5b600190038181906000526020600020016000905590558560010160008681526020019081526020016000206000905560019350505050610c72565b60009150505b92915050565b6000826000018281548110610cb6577f4e487b7100000000000000000000000000000000000000000000000000000000600052603260045260246000fd5b9060005260206000200154905092915050565b600081359050610cd881611104565b92915050565b600081519050610ced81611104565b92915050565b600081519050610d028161111b565b92915050565b600081359050610d1781611132565b92915050565b600081519050610d2c81611132565b92915050565b600060208284031215610d4457600080fd5b6000610d5284828501610cde565b91505092915050565b600060208284031215610d6d57600080fd5b6000610d7b84828501610cf3565b91505092915050565b600060208284031215610d9657600080fd5b6000610da484828501610d08565b91505092915050565b600060208284031215610dbf57600080fd5b6000610dcd84828501610d1d565b91505092915050565b60008060408385031215610de957600080fd5b6000610df785828601610d08565b9250506020610e0885828601610cc9565b9150509250929050565b610e1b81610ff2565b82525050565b610e2a81611004565b82525050565b610e3981611048565b82525050565b6000610e4c600c83610fad565b9150610e5782611089565b602082019050919050565b6000610e6f601a83610fad565b9150610e7a826110b2565b602082019050919050565b6000610e92601f83610fad565b9150610e9d826110db565b602082019050919050565b610eb18161103e565b82525050565b6000606082019050610ecc6000830186610e12565b610ed96020830185610e12565b610ee66040830184610ea8565b949350505050565b6000604082019050610f036000830185610e12565b610f106020830184610e30565b9392505050565b6000602082019050610f2c6000830184610e21565b92915050565b60006020820190508181036000830152610f4b81610e3f565b9050919050565b60006020820190508181036000830152610f6b81610e62565b9050919050565b60006020820190508181036000830152610f8b81610e85565b9050919050565b6000602082019050610fa76000830184610ea8565b92915050565b600082825260208201905092915050565b6000610fc98261103e565b9150610fd48361103e565b925082821015610fe757610fe661105a565b5b828203905092915050565b6000610ffd8261101e565b9050919050565b60008115159050919050565b600061ffff82169050919050565b600073ffffffffffffffffffffffffffffffffffffffff82169050919050565b6000819050919050565b600061105382611010565b9050919050565b7f4e487b7100000000000000000000000000000000000000000000000000000000600052601160045260246000fd5b7f496478206f766572666c6f770000000000000000000000000000000000000000600082015250565b7f4f6e6c7920626f72726f7765722063616e2076616c6964617465000000000000600082015250565b7f4578697374696e6720466163746f72696e6720737562736372697074696f6e00600082015250565b61110d81610ff2565b811461111857600080fd5b50565b61112481611004565b811461112f57600080fd5b50565b61113b8161103e565b811461114657600080fd5b5056fea26469706673582212200f2e2e72bbdf7a302fe2bf61f85d1d3e6b8459fcbf74617b07c06805c57af6d564736f6c63430008030033",
  "immutableReferences": {},
  "source": "// SPDX-License-Identifier: MIT\n\npragma solidity ^0.8.0;\n\nimport \"./GenericProduct.sol\";\n\n/**\n * @dev Banking smart contracts - Factoring\n * @author AshtonIzmev\n */\ncontract Factoring is GenericProduct {\n\n    using EnumerableSet for EnumerableSet.UintSet;\n\n    struct Product {\n        address _borrower;\n        uint256 _factoringDate;\n        uint256 _factoringAmount;\n        bool _validated;\n    }\n\n    mapping (uint256 => Product) private _subscriptions;\n\n    /**\n     * param minimumAmount      minimum amount deposited\n     * param dayDuration        duration of the DAT (in days)\n     * param interestRate       interest rate of the DAT\n     */\n    constructor (address medToken_, address fpToken_) {\n        _issuingBank = _msgSender();\n        medToken = MED(medToken_);\n        fpToken = FP(fpToken_);\n    }\n\n    /**\n     * Get a token in exchange of an invoice\n     */\n    function sellInvoice(uint256 invoiceAmount_, address borrower_) public virtual {\n        fpToken.create(_msgSender(), 1);\n        uint256 tokenId = fpToken.getCurrentTokenId();\n        _subscriptions[tokenId] = Product(borrower_, medToken.daysElapsed(), invoiceAmount_, false);\n        _subscriptionIds.add(tokenId);\n    }\n\n    /**\n     * Get a token in exchange of an invoice\n     */\n    function validateInvoice(uint256 tokenId) public virtual {\n        require(isSuscribed(tokenId), \"Existing Factoring subscription\");\n        Product memory prod = _subscriptions[tokenId];\n        require(prod._borrower == _msgSender(), \"Only borrower can validate\");\n        _subscriptions[tokenId] = \n            Product(prod._borrower, prod._factoringDate, prod._factoringAmount, true);\n    }\n\n    /**\n     * Pay the owner of an invoice\n     */\n    function payInvoice(uint256 tokenId) public virtual {\n        require(isSuscribed(tokenId), \"Existing Factoring subscription\");\n        Product memory prod = _subscriptions[tokenId];\n        medToken.transferFrom(_msgSender(), fpToken.ownerOf(tokenId), prod._factoringAmount);\n        fpToken.destroy(tokenId);\n        _subscriptionIds.remove(tokenId);\n    }\n}",
  "sourcePath": "/home/issam/git/med-erc20/sol/truffle/contracts/token/bank/Factoring.sol",
  "compiler": {
    "name": "solc",
    "version": "0.8.3+commit.8d00100c.Emscripten.clang"
  },
  "schemaVersion": "3.2.4",
  "updatedAt": "2021-05-11T22:47:01.246Z",
  "devdoc": {
    "author": "AshtonIzmev",
    "details": "Banking smart contracts - Factoring",
    "kind": "dev",
    "methods": {},
    "version": 1
  },
  "userdoc": {
    "kind": "user",
    "methods": {
      "constructor": {
        "notice": "param minimumAmount      minimum amount deposited param dayDuration        duration of the DAT (in days) param interestRate       interest rate of the DAT"
      },
      "payInvoice(uint256)": {
        "notice": "Pay the owner of an invoice"
      },
      "sellInvoice(uint256,address)": {
        "notice": "Get a token in exchange of an invoice"
      },
      "validateInvoice(uint256)": {
        "notice": "Get a token in exchange of an invoice"
      }
    },
    "version": 1
  }
}