{
  "contractName": "Factoring",
  "abi": [
    {
      "inputs": [
        {
          "internalType": "address",
          "name": "medToken_",
          "type": "address"
        },
        {
          "internalType": "address",
          "name": "fpToken_",
          "type": "address"
        }
      ],
      "stateMutability": "nonpayable",
      "type": "constructor"
    },
    {
      "inputs": [
        {
          "internalType": "uint256",
          "name": "idx",
          "type": "uint256"
        }
      ],
      "name": "getSubscription",
      "outputs": [
        {
          "internalType": "uint256",
          "name": "",
          "type": "uint256"
        }
      ],
      "stateMutability": "view",
      "type": "function"
    },
    {
      "inputs": [],
      "name": "getSubscriptionLength",
      "outputs": [
        {
          "internalType": "uint256",
          "name": "",
          "type": "uint256"
        }
      ],
      "stateMutability": "view",
      "type": "function"
    },
    {
      "inputs": [
        {
          "internalType": "uint256",
          "name": "tokenId",
          "type": "uint256"
        }
      ],
      "name": "isSuscribed",
      "outputs": [
        {
          "internalType": "bool",
          "name": "",
          "type": "bool"
        }
      ],
      "stateMutability": "view",
      "type": "function"
    },
    {
      "inputs": [
        {
          "internalType": "uint256",
          "name": "invoiceAmount_",
          "type": "uint256"
        },
        {
          "internalType": "address",
          "name": "borrower_",
          "type": "address"
        }
      ],
      "name": "sellInvoice",
      "outputs": [],
      "stateMutability": "nonpayable",
      "type": "function"
    },
    {
      "inputs": [
        {
          "internalType": "uint256",
          "name": "tokenId",
          "type": "uint256"
        }
      ],
      "name": "validateInvoice",
      "outputs": [],
      "stateMutability": "nonpayable",
      "type": "function"
    },
    {
      "inputs": [
        {
          "internalType": "uint256",
          "name": "tokenId",
          "type": "uint256"
        }
      ],
      "name": "payInvoice",
      "outputs": [],
      "stateMutability": "nonpayable",
      "type": "function"
    },
    {
      "inputs": [
        {
          "internalType": "uint256",
          "name": "tokenId",
          "type": "uint256"
        }
      ],
      "name": "getProduct",
      "outputs": [
        {
          "internalType": "address",
          "name": "",
          "type": "address"
        },
        {
          "internalType": "uint256",
          "name": "",
          "type": "uint256"
        },
        {
          "internalType": "uint256",
          "name": "",
          "type": "uint256"
        },
        {
          "internalType": "bool",
          "name": "",
          "type": "bool"
        }
      ],
      "stateMutability": "view",
      "type": "function"
    }
  ],
  "bytecode": "0x60806040523480156200001157600080fd5b50604051620015633803806200156383398181016040528101906200003791906200012f565b620000476200011060201b60201c565b600260006101000a81548173ffffffffffffffffffffffffffffffffffffffff021916908373ffffffffffffffffffffffffffffffffffffffff160217905550816000806101000a81548173ffffffffffffffffffffffffffffffffffffffff021916908373ffffffffffffffffffffffffffffffffffffffff16021790555080600160006101000a81548173ffffffffffffffffffffffffffffffffffffffff021916908373ffffffffffffffffffffffffffffffffffffffff1602179055505050620001be565b600033905090565b6000815190506200012981620001a4565b92915050565b600080604083850312156200014357600080fd5b6000620001538582860162000118565b9250506020620001668582860162000118565b9150509250929050565b60006200017d8262000184565b9050919050565b600073ffffffffffffffffffffffffffffffffffffffff82169050919050565b620001af8162000170565b8114620001bb57600080fd5b50565b61139580620001ce6000396000f3fe608060405234801561001057600080fd5b506004361061007d5760003560e01c8063839db9c01161005b578063839db9c0146100d8578063ac60a6cd14610108578063b9db15b414610124578063dc311dd3146101575761007d565b80632530ea71146100825780632e9853ec146100a05780633b56c4c7146100bc575b600080fd5b61008a610187565b604051610097919061117f565b60405180910390f35b6100ba60048036038101906100b59190610f3b565b610198565b005b6100d660048036038101906100d19190610ee9565b610455565b005b6100f260048036038101906100ed9190610ee9565b610698565b6040516100ff91906110e4565b60405180910390f35b610122600480360381019061011d9190610ee9565b6106b5565b005b61013e60048036038101906101399190610ee9565b610a28565b60405161014e949392919061109f565b60405180910390f35b610171600480360381019061016c9190610ee9565b610ac6565b60405161017e919061117f565b60405180910390f35b60006101936003610b2e565b905090565b600160009054906101000a900473ffffffffffffffffffffffffffffffffffffffff1673ffffffffffffffffffffffffffffffffffffffff16635edfe0df6101de610b43565b60016040518363ffffffff1660e01b81526004016101fd929190611076565b600060405180830381600087803b15801561021757600080fd5b505af115801561022b573d6000803e3d6000fd5b505050506000600160009054906101000a900473ffffffffffffffffffffffffffffffffffffffff1673ffffffffffffffffffffffffffffffffffffffff1663561892366040518163ffffffff1660e01b815260040160206040518083038186803b15801561029957600080fd5b505afa1580156102ad573d6000803e3d6000fd5b505050506040513d601f19601f820116820180604052508101906102d19190610f12565b905060405180608001604052808373ffffffffffffffffffffffffffffffffffffffff16815260200160008054906101000a900473ffffffffffffffffffffffffffffffffffffffff1673ffffffffffffffffffffffffffffffffffffffff166380477a4c6040518163ffffffff1660e01b815260040160206040518083038186803b15801561036057600080fd5b505afa158015610374573d6000803e3d6000fd5b505050506040513d601f19601f820116820180604052508101906103989190610f12565b8152602001848152602001600015158152506005600083815260200190815260200160002060008201518160000160006101000a81548173ffffffffffffffffffffffffffffffffffffffff021916908373ffffffffffffffffffffffffffffffffffffffff160217905550602082015181600101556040820151816002015560608201518160030160006101000a81548160ff02191690831515021790555090505061044f816003610b4b90919063ffffffff16565b50505050565b61045e81610698565b61049d576040517f08c379a00000000000000000000000000000000000000000000000000000000081526004016104949061115f565b60405180910390fd5b6000600560008381526020019081526020016000206040518060800160405290816000820160009054906101000a900473ffffffffffffffffffffffffffffffffffffffff1673ffffffffffffffffffffffffffffffffffffffff1673ffffffffffffffffffffffffffffffffffffffff16815260200160018201548152602001600282015481526020016003820160009054906101000a900460ff161515151581525050905061054c610b43565b73ffffffffffffffffffffffffffffffffffffffff16816000015173ffffffffffffffffffffffffffffffffffffffff16146105bd576040517f08c379a00000000000000000000000000000000000000000000000000000000081526004016105b49061111f565b60405180910390fd5b6040518060800160405280826000015173ffffffffffffffffffffffffffffffffffffffff1681526020018260200151815260200182604001518152602001600115158152506005600084815260200190815260200160002060008201518160000160006101000a81548173ffffffffffffffffffffffffffffffffffffffff021916908373ffffffffffffffffffffffffffffffffffffffff160217905550602082015181600101556040820151816002015560608201518160030160006101000a81548160ff0219169083151502179055509050505050565b60006106ae826003610b6590919063ffffffff16565b9050919050565b6106be81610698565b6106fd576040517f08c379a00000000000000000000000000000000000000000000000000000000081526004016106f49061115f565b60405180910390fd5b6000600560008381526020019081526020016000206040518060800160405290816000820160009054906101000a900473ffffffffffffffffffffffffffffffffffffffff1673ffffffffffffffffffffffffffffffffffffffff1673ffffffffffffffffffffffffffffffffffffffff16815260200160018201548152602001600282015481526020016003820160009054906101000a900460ff16151515158152505090506107ac610b43565b73ffffffffffffffffffffffffffffffffffffffff16816000015173ffffffffffffffffffffffffffffffffffffffff161461081d576040517f08c379a00000000000000000000000000000000000000000000000000000000081526004016108149061113f565b60405180910390fd5b60008054906101000a900473ffffffffffffffffffffffffffffffffffffffff1673ffffffffffffffffffffffffffffffffffffffff166323b872dd610861610b43565b600160009054906101000a900473ffffffffffffffffffffffffffffffffffffffff1673ffffffffffffffffffffffffffffffffffffffff16636352211e866040518263ffffffff1660e01b81526004016108bc919061117f565b60206040518083038186803b1580156108d457600080fd5b505afa1580156108e8573d6000803e3d6000fd5b505050506040513d601f19601f8201168201806040525081019061090c9190610e97565b84604001516040518463ffffffff1660e01b815260040161092f9392919061103f565b602060405180830381600087803b15801561094957600080fd5b505af115801561095d573d6000803e3d6000fd5b505050506040513d601f19601f820116820180604052508101906109819190610ec0565b50600160009054906101000a900473ffffffffffffffffffffffffffffffffffffffff1673ffffffffffffffffffffffffffffffffffffffff16639d118770836040518263ffffffff1660e01b81526004016109dd919061117f565b600060405180830381600087803b1580156109f757600080fd5b505af1158015610a0b573d6000803e3d6000fd5b50505050610a23826003610b7f90919063ffffffff16565b505050565b6000806000806005600086815260200190815260200160002060000160009054906101000a900473ffffffffffffffffffffffffffffffffffffffff16600560008781526020019081526020016000206001015460056000888152602001908152602001600020600201546005600089815260200190815260200160002060030160009054906101000a900460ff1693509350935093509193509193565b6000610ad26003610b2e565b8210610b13576040517f08c379a0000000000000000000000000000000000000000000000000000000008152600401610b0a906110ff565b60405180910390fd5b610b27826003610b9990919063ffffffff16565b9050919050565b6000610b3c82600001610bb3565b9050919050565b600033905090565b6000610b5d836000018360001b610bc4565b905092915050565b6000610b77836000018360001b610c34565b905092915050565b6000610b91836000018360001b610c57565b905092915050565b6000610ba88360000183610ddd565b60001c905092915050565b600081600001805490509050919050565b6000610bd08383610c34565b610c29578260000182908060018154018082558091505060019003906000526020600020016000909190919091505582600001805490508360010160008481526020019081526020016000208190555060019050610c2e565b600090505b92915050565b600080836001016000848152602001908152602001600020541415905092915050565b60008083600101600084815260200190815260200160002054905060008114610dd1576000600182610c8991906111ab565b9050600060018660000180549050610ca191906111ab565b9050818114610d5c576000866000018281548110610ce8577f4e487b7100000000000000000000000000000000000000000000000000000000600052603260045260246000fd5b9060005260206000200154905080876000018481548110610d32577f4e487b7100000000000000000000000000000000000000000000000000000000600052603260045260246000fd5b90600052602060002001819055508387600101600083815260200190815260200160002081905550505b85600001805480610d96577f4e487b7100000000000000000000000000000000000000000000000000000000600052603160045260246000fd5b600190038181906000526020600020016000905590558560010160008681526020019081526020016000206000905560019350505050610dd7565b60009150505b92915050565b6000826000018281548110610e1b577f4e487b7100000000000000000000000000000000000000000000000000000000600052603260045260246000fd5b9060005260206000200154905092915050565b600081359050610e3d8161131a565b92915050565b600081519050610e528161131a565b92915050565b600081519050610e6781611331565b92915050565b600081359050610e7c81611348565b92915050565b600081519050610e9181611348565b92915050565b600060208284031215610ea957600080fd5b6000610eb784828501610e43565b91505092915050565b600060208284031215610ed257600080fd5b6000610ee084828501610e58565b91505092915050565b600060208284031215610efb57600080fd5b6000610f0984828501610e6d565b91505092915050565b600060208284031215610f2457600080fd5b6000610f3284828501610e82565b91505092915050565b60008060408385031215610f4e57600080fd5b6000610f5c85828601610e6d565b9250506020610f6d85828601610e2e565b9150509250929050565b610f80816111df565b82525050565b610f8f816111f1565b82525050565b610f9e81611235565b82525050565b6000610fb1600c8361119a565b9150610fbc82611276565b602082019050919050565b6000610fd4601a8361119a565b9150610fdf8261129f565b602082019050919050565b6000610ff760158361119a565b9150611002826112c8565b602082019050919050565b600061101a601f8361119a565b9150611025826112f1565b602082019050919050565b6110398161122b565b82525050565b60006060820190506110546000830186610f77565b6110616020830185610f77565b61106e6040830184611030565b949350505050565b600060408201905061108b6000830185610f77565b6110986020830184610f95565b9392505050565b60006080820190506110b46000830187610f77565b6110c16020830186611030565b6110ce6040830185611030565b6110db6060830184610f86565b95945050505050565b60006020820190506110f96000830184610f86565b92915050565b6000602082019050818103600083015261111881610fa4565b9050919050565b6000602082019050818103600083015261113881610fc7565b9050919050565b6000602082019050818103600083015261115881610fea565b9050919050565b600060208201905081810360008301526111788161100d565b9050919050565b60006020820190506111946000830184611030565b92915050565b600082825260208201905092915050565b60006111b68261122b565b91506111c18361122b565b9250828210156111d4576111d3611247565b5b828203905092915050565b60006111ea8261120b565b9050919050565b60008115159050919050565b600061ffff82169050919050565b600073ffffffffffffffffffffffffffffffffffffffff82169050919050565b6000819050919050565b6000611240826111fd565b9050919050565b7f4e487b7100000000000000000000000000000000000000000000000000000000600052601160045260246000fd5b7f496478206f766572666c6f770000000000000000000000000000000000000000600082015250565b7f4f6e6c7920626f72726f7765722063616e2076616c6964617465000000000000600082015250565b7f4f6e6c7920626f72726f7765722063616e207061790000000000000000000000600082015250565b7f4578697374696e6720466163746f72696e6720737562736372697074696f6e00600082015250565b611323816111df565b811461132e57600080fd5b50565b61133a816111f1565b811461134557600080fd5b50565b6113518161122b565b811461135c57600080fd5b5056fea2646970667358221220ea9ef70f3a9f9e5c72504964dacea8913e967697e9307099c2e443b19f14f5b064736f6c63430008030033",
  "immutableReferences": {},
  "source": "// SPDX-License-Identifier: MIT\n\npragma solidity ^0.8.0;\n\nimport \"./GenericProduct.sol\";\n\n/**\n * @dev Banking smart contracts - Factoring\n * @author AshtonIzmev\n */\ncontract Factoring is GenericProduct {\n\n    using EnumerableSet for EnumerableSet.UintSet;\n\n    struct Product {\n        address _borrower;\n        uint256 _factoringDate;\n        uint256 _factoringAmount;\n        bool _validated;\n    }\n\n    mapping (uint256 => Product) private _subscriptions;\n\n    /**\n     * param minimumAmount      minimum amount deposited\n     * param dayDuration        duration of the DAT (in days)\n     * param interestRate       interest rate of the DAT\n     */\n    constructor (address medToken_, address fpToken_) {\n        _issuingBank = _msgSender();\n        medToken = MED(medToken_);\n        fpToken = FP(fpToken_);\n    }\n\n    /**\n     * Get a token in exchange of an invoice\n     */\n    function sellInvoice(uint256 invoiceAmount_, address borrower_) public virtual {\n        fpToken.create(_msgSender(), 1);\n        uint256 tokenId = fpToken.getCurrentTokenId();\n        _subscriptions[tokenId] = Product(borrower_, medToken.daysElapsed(), invoiceAmount_, false);\n        _subscriptionIds.add(tokenId);\n    }\n\n    /**\n     * Get a token in exchange of an invoice\n     */\n    function validateInvoice(uint256 tokenId) public virtual {\n        require(isSuscribed(tokenId), \"Existing Factoring subscription\");\n        Product memory prod = _subscriptions[tokenId];\n        require(prod._borrower == _msgSender(), \"Only borrower can validate\");\n        _subscriptions[tokenId] = \n            Product(prod._borrower, prod._factoringDate, prod._factoringAmount, true);\n    }\n\n    /**\n     * Pay the owner of the FP NFT invoice representation\n     */\n    function payInvoice(uint256 tokenId) public virtual {\n        require(isSuscribed(tokenId), \"Existing Factoring subscription\");\n        Product memory prod = _subscriptions[tokenId];\n        require(prod._borrower == _msgSender(), \"Only borrower can pay\");\n        medToken.transferFrom(_msgSender(), fpToken.ownerOf(tokenId), prod._factoringAmount);\n        fpToken.destroy(tokenId);\n        _subscriptionIds.remove(tokenId);\n    }\n\n    function getProduct(uint256 tokenId) public view virtual returns (address, uint256, uint256, bool) {\n        return (\n            _subscriptions[tokenId]._borrower,\n            _subscriptions[tokenId]._factoringDate,\n            _subscriptions[tokenId]._factoringAmount,\n            _subscriptions[tokenId]._validated);\n    }\n\n}",
  "sourcePath": "/home/issam/git/med-erc20/sol/truffle/contracts/token/bank/Factoring.sol",
  "compiler": {
    "name": "solc",
    "version": "0.8.3+commit.8d00100c.Emscripten.clang"
  },
  "schemaVersion": "3.2.4",
  "updatedAt": "2021-05-13T11:39:17.991Z",
  "devdoc": {
    "author": "AshtonIzmev",
    "details": "Banking smart contracts - Factoring",
    "kind": "dev",
    "methods": {},
    "version": 1
  },
  "userdoc": {
    "kind": "user",
    "methods": {
      "constructor": {
        "notice": "param minimumAmount      minimum amount deposited param dayDuration        duration of the DAT (in days) param interestRate       interest rate of the DAT"
      },
      "payInvoice(uint256)": {
        "notice": "Pay the owner of the FP NFT invoice representation"
      },
      "sellInvoice(uint256,address)": {
        "notice": "Get a token in exchange of an invoice"
      },
      "validateInvoice(uint256)": {
        "notice": "Get a token in exchange of an invoice"
      }
    },
    "version": 1
  }
}