{
  "contractName": "FP",
  "abi": [
    {
      "inputs": [
        {
          "internalType": "string",
          "name": "name_",
          "type": "string"
        },
        {
          "internalType": "string",
          "name": "symbol_",
          "type": "string"
        },
        {
          "internalType": "uint16",
          "name": "interestRate_",
          "type": "uint16"
        },
        {
          "internalType": "uint16",
          "name": "maturity_",
          "type": "uint16"
        }
      ],
      "stateMutability": "nonpayable",
      "type": "constructor"
    },
    {
      "anonymous": false,
      "inputs": [
        {
          "indexed": true,
          "internalType": "address",
          "name": "owner",
          "type": "address"
        },
        {
          "indexed": true,
          "internalType": "address",
          "name": "approved",
          "type": "address"
        },
        {
          "indexed": true,
          "internalType": "uint256",
          "name": "tokenId",
          "type": "uint256"
        }
      ],
      "name": "Approval",
      "type": "event"
    },
    {
      "anonymous": false,
      "inputs": [
        {
          "indexed": true,
          "internalType": "address",
          "name": "owner",
          "type": "address"
        },
        {
          "indexed": true,
          "internalType": "address",
          "name": "operator",
          "type": "address"
        },
        {
          "indexed": false,
          "internalType": "bool",
          "name": "approved",
          "type": "bool"
        }
      ],
      "name": "ApprovalForAll",
      "type": "event"
    },
    {
      "anonymous": false,
      "inputs": [
        {
          "indexed": true,
          "internalType": "address",
          "name": "from",
          "type": "address"
        },
        {
          "indexed": true,
          "internalType": "address",
          "name": "to",
          "type": "address"
        },
        {
          "indexed": true,
          "internalType": "uint256",
          "name": "tokenId",
          "type": "uint256"
        }
      ],
      "name": "Transfer",
      "type": "event"
    },
    {
      "inputs": [
        {
          "internalType": "address",
          "name": "to",
          "type": "address"
        },
        {
          "internalType": "uint256",
          "name": "tokenId",
          "type": "uint256"
        }
      ],
      "name": "approve",
      "outputs": [],
      "stateMutability": "nonpayable",
      "type": "function"
    },
    {
      "inputs": [
        {
          "internalType": "address",
          "name": "owner",
          "type": "address"
        }
      ],
      "name": "balanceOf",
      "outputs": [
        {
          "internalType": "uint256",
          "name": "",
          "type": "uint256"
        }
      ],
      "stateMutability": "view",
      "type": "function"
    },
    {
      "inputs": [],
      "name": "creator",
      "outputs": [
        {
          "internalType": "address",
          "name": "",
          "type": "address"
        }
      ],
      "stateMutability": "view",
      "type": "function"
    },
    {
      "inputs": [
        {
          "internalType": "uint256",
          "name": "tokenId",
          "type": "uint256"
        }
      ],
      "name": "getApproved",
      "outputs": [
        {
          "internalType": "address",
          "name": "",
          "type": "address"
        }
      ],
      "stateMutability": "view",
      "type": "function"
    },
    {
      "inputs": [],
      "name": "interestRate",
      "outputs": [
        {
          "internalType": "uint16",
          "name": "",
          "type": "uint16"
        }
      ],
      "stateMutability": "view",
      "type": "function"
    },
    {
      "inputs": [
        {
          "internalType": "address",
          "name": "owner",
          "type": "address"
        },
        {
          "internalType": "address",
          "name": "operator",
          "type": "address"
        }
      ],
      "name": "isApprovedForAll",
      "outputs": [
        {
          "internalType": "bool",
          "name": "",
          "type": "bool"
        }
      ],
      "stateMutability": "view",
      "type": "function"
    },
    {
      "inputs": [],
      "name": "maturity",
      "outputs": [
        {
          "internalType": "uint16",
          "name": "",
          "type": "uint16"
        }
      ],
      "stateMutability": "view",
      "type": "function"
    },
    {
      "inputs": [],
      "name": "name",
      "outputs": [
        {
          "internalType": "string",
          "name": "",
          "type": "string"
        }
      ],
      "stateMutability": "view",
      "type": "function"
    },
    {
      "inputs": [
        {
          "internalType": "uint256",
          "name": "tokenId",
          "type": "uint256"
        }
      ],
      "name": "ownerOf",
      "outputs": [
        {
          "internalType": "address",
          "name": "",
          "type": "address"
        }
      ],
      "stateMutability": "view",
      "type": "function"
    },
    {
      "inputs": [
        {
          "internalType": "address",
          "name": "from",
          "type": "address"
        },
        {
          "internalType": "address",
          "name": "to",
          "type": "address"
        },
        {
          "internalType": "uint256",
          "name": "tokenId",
          "type": "uint256"
        }
      ],
      "name": "safeTransferFrom",
      "outputs": [],
      "stateMutability": "nonpayable",
      "type": "function"
    },
    {
      "inputs": [
        {
          "internalType": "address",
          "name": "from",
          "type": "address"
        },
        {
          "internalType": "address",
          "name": "to",
          "type": "address"
        },
        {
          "internalType": "uint256",
          "name": "tokenId",
          "type": "uint256"
        },
        {
          "internalType": "bytes",
          "name": "_data",
          "type": "bytes"
        }
      ],
      "name": "safeTransferFrom",
      "outputs": [],
      "stateMutability": "nonpayable",
      "type": "function"
    },
    {
      "inputs": [
        {
          "internalType": "address",
          "name": "operator",
          "type": "address"
        },
        {
          "internalType": "bool",
          "name": "approved",
          "type": "bool"
        }
      ],
      "name": "setApprovalForAll",
      "outputs": [],
      "stateMutability": "nonpayable",
      "type": "function"
    },
    {
      "inputs": [
        {
          "internalType": "bytes4",
          "name": "interfaceId",
          "type": "bytes4"
        }
      ],
      "name": "supportsInterface",
      "outputs": [
        {
          "internalType": "bool",
          "name": "",
          "type": "bool"
        }
      ],
      "stateMutability": "view",
      "type": "function"
    },
    {
      "inputs": [],
      "name": "symbol",
      "outputs": [
        {
          "internalType": "string",
          "name": "",
          "type": "string"
        }
      ],
      "stateMutability": "view",
      "type": "function"
    },
    {
      "inputs": [
        {
          "internalType": "uint256",
          "name": "tokenId",
          "type": "uint256"
        }
      ],
      "name": "tokenURI",
      "outputs": [
        {
          "internalType": "string",
          "name": "",
          "type": "string"
        }
      ],
      "stateMutability": "view",
      "type": "function"
    },
    {
      "inputs": [
        {
          "internalType": "address",
          "name": "from",
          "type": "address"
        },
        {
          "internalType": "address",
          "name": "to",
          "type": "address"
        },
        {
          "internalType": "uint256",
          "name": "tokenId",
          "type": "uint256"
        }
      ],
      "name": "transferFrom",
      "outputs": [],
      "stateMutability": "nonpayable",
      "type": "function"
    },
    {
      "inputs": [
        {
          "internalType": "uint256",
          "name": "tokenId",
          "type": "uint256"
        }
      ],
      "name": "getSubAmount",
      "outputs": [
        {
          "internalType": "uint256",
          "name": "",
          "type": "uint256"
        }
      ],
      "stateMutability": "view",
      "type": "function"
    },
    {
      "inputs": [
        {
          "internalType": "uint256",
          "name": "tokenId",
          "type": "uint256"
        }
      ],
      "name": "getSubDate",
      "outputs": [
        {
          "internalType": "uint256",
          "name": "",
          "type": "uint256"
        }
      ],
      "stateMutability": "view",
      "type": "function"
    },
    {
      "inputs": [
        {
          "internalType": "address",
          "name": "buyer",
          "type": "address"
        },
        {
          "internalType": "uint256",
          "name": "amount",
          "type": "uint256"
        },
        {
          "internalType": "uint256",
          "name": "subscriptionDate",
          "type": "uint256"
        }
      ],
      "name": "create",
      "outputs": [],
      "stateMutability": "nonpayable",
      "type": "function"
    },
    {
      "inputs": [
        {
          "internalType": "uint256",
          "name": "tokenId",
          "type": "uint256"
        }
      ],
      "name": "destroy",
      "outputs": [],
      "stateMutability": "nonpayable",
      "type": "function"
    }
  ],
  "bytecode": "0x60806040523480156200001157600080fd5b506040516200314138038062003141833981810160405281019062000037919062000242565b838381600090805190602001906200005192919062000109565b5080600190805190602001906200006a92919062000109565b5050506200007d6200010160201b60201c565b600960006101000a81548173ffffffffffffffffffffffffffffffffffffffff021916908373ffffffffffffffffffffffffffffffffffffffff16021790555081600760006101000a81548161ffff021916908361ffff16021790555080600760026101000a81548161ffff021916908361ffff1602179055505050505062000478565b600033905090565b828054620001179062000383565b90600052602060002090601f0160209004810192826200013b576000855562000187565b82601f106200015657805160ff191683800117855562000187565b8280016001018555821562000187579182015b828111156200018657825182559160200191906001019062000169565b5b5090506200019691906200019a565b5090565b5b80821115620001b55760008160009055506001016200019b565b5090565b6000620001d0620001ca8462000309565b620002e0565b905082815260208101848484011115620001e957600080fd5b620001f68482856200034d565b509392505050565b600082601f8301126200021057600080fd5b815162000222848260208601620001b9565b91505092915050565b6000815190506200023c816200045e565b92915050565b600080600080608085870312156200025957600080fd5b600085015167ffffffffffffffff8111156200027457600080fd5b6200028287828801620001fe565b945050602085015167ffffffffffffffff811115620002a057600080fd5b620002ae87828801620001fe565b9350506040620002c1878288016200022b565b9250506060620002d4878288016200022b565b91505092959194509250565b6000620002ec620002ff565b9050620002fa8282620003b9565b919050565b6000604051905090565b600067ffffffffffffffff8211156200032757620003266200041e565b5b62000332826200044d565b9050602081019050919050565b600061ffff82169050919050565b60005b838110156200036d57808201518184015260208101905062000350565b838111156200037d576000848401525b50505050565b600060028204905060018216806200039c57607f821691505b60208210811415620003b357620003b2620003ef565b5b50919050565b620003c4826200044d565b810181811067ffffffffffffffff82111715620003e657620003e56200041e565b5b80604052505050565b7f4e487b7100000000000000000000000000000000000000000000000000000000600052602260045260246000fd5b7f4e487b7100000000000000000000000000000000000000000000000000000000600052604160045260246000fd5b6000601f19601f8301169050919050565b62000469816200033f565b81146200047557600080fd5b50565b612cb980620004886000396000f3fe608060405234801561001057600080fd5b506004361061012c5760003560e01c806370a08231116100ad578063aafc69ef11610071578063aafc69ef1461032f578063b254fe9a1461035f578063b88d4fde1461038f578063c87b56dd146103ab578063e985e9c5146103db5761012c565b806370a082311461028b5780637c3a00fd146102bb57806395d89b41146102d95780639d118770146102f7578063a22cb465146103135761012c565b8063204f83f9116100f4578063204f83f9146101e957806323b872dd1461020757806342842e0e146102235780635165da301461023f5780636352211e1461025b5761012c565b806301ffc9a71461013157806302d05d3f1461016157806306fdde031461017f578063081812fc1461019d578063095ea7b3146101cd575b600080fd5b61014b60048036038101906101469190611df1565b61040b565b60405161015891906121e3565b60405180910390f35b6101696104ed565b604051610176919061217c565b60405180910390f35b610187610513565b60405161019491906121fe565b60405180910390f35b6101b760048036038101906101b29190611e43565b6105a5565b6040516101c4919061217c565b60405180910390f35b6101e760048036038101906101e29190611d66565b61062a565b005b6101f1610742565b6040516101fe9190612400565b60405180910390f35b610221600480360381019061021c9190611c60565b610756565b005b61023d60048036038101906102389190611c60565b6107b6565b005b61025960048036038101906102549190611da2565b6107d6565b005b61027560048036038101906102709190611e43565b6108d7565b604051610282919061217c565b60405180910390f35b6102a560048036038101906102a09190611bfb565b610989565b6040516102b2919061241b565b60405180910390f35b6102c3610a41565b6040516102d09190612400565b60405180910390f35b6102e1610a55565b6040516102ee91906121fe565b60405180910390f35b610311600480360381019061030c9190611e43565b610ae7565b005b61032d60048036038101906103289190611d2a565b610b8a565b005b61034960048036038101906103449190611e43565b610d0b565b604051610356919061241b565b60405180910390f35b61037960048036038101906103749190611e43565b610d2b565b604051610386919061241b565b60405180910390f35b6103a960048036038101906103a49190611caf565b610d4b565b005b6103c560048036038101906103c09190611e43565b610dad565b6040516103d291906121fe565b60405180910390f35b6103f560048036038101906103f09190611c24565b610e54565b60405161040291906121e3565b60405180910390f35b60007f80ac58cd000000000000000000000000000000000000000000000000000000007bffffffffffffffffffffffffffffffffffffffffffffffffffffffff1916827bffffffffffffffffffffffffffffffffffffffffffffffffffffffff191614806104d657507f5b5e139f000000000000000000000000000000000000000000000000000000007bffffffffffffffffffffffffffffffffffffffffffffffffffffffff1916827bffffffffffffffffffffffffffffffffffffffffffffffffffffffff1916145b806104e657506104e582610ee8565b5b9050919050565b600960009054906101000a900473ffffffffffffffffffffffffffffffffffffffff1681565b6060600080546105229061264e565b80601f016020809104026020016040519081016040528092919081815260200182805461054e9061264e565b801561059b5780601f106105705761010080835404028352916020019161059b565b820191906000526020600020905b81548152906001019060200180831161057e57829003601f168201915b5050505050905090565b60006105b082610f52565b6105ef576040517f08c379a00000000000000000000000000000000000000000000000000000000081526004016105e690612340565b60405180910390fd5b6004600083815260200190815260200160002060009054906101000a900473ffffffffffffffffffffffffffffffffffffffff169050919050565b6000610635826108d7565b90508073ffffffffffffffffffffffffffffffffffffffff168373ffffffffffffffffffffffffffffffffffffffff1614156106a6576040517f08c379a000000000000000000000000000000000000000000000000000000000815260040161069d906123c0565b60405180910390fd5b8073ffffffffffffffffffffffffffffffffffffffff166106c5610fbe565b73ffffffffffffffffffffffffffffffffffffffff1614806106f457506106f3816106ee610fbe565b610e54565b5b610733576040517f08c379a000000000000000000000000000000000000000000000000000000000815260040161072a906122c0565b60405180910390fd5b61073d8383610fc6565b505050565b600760029054906101000a900461ffff1681565b610767610761610fbe565b8261107f565b6107a6576040517f08c379a000000000000000000000000000000000000000000000000000000000815260040161079d906123e0565b60405180910390fd5b6107b183838361115d565b505050565b6107d183838360405180602001604052806000815250610d4b565b505050565b600960009054906101000a900473ffffffffffffffffffffffffffffffffffffffff1673ffffffffffffffffffffffffffffffffffffffff16610817610fbe565b73ffffffffffffffffffffffffffffffffffffffff161461086d576040517f08c379a000000000000000000000000000000000000000000000000000000000815260040161086490612380565b60405180910390fd5b6108808361087b60066113b9565b6113c7565b604051806040016040528083815260200182815250600860006108a360066113b9565b815260200190815260200160002060008201518160000155602082015181600101559050506108d260066113e5565b505050565b6000806002600084815260200190815260200160002060009054906101000a900473ffffffffffffffffffffffffffffffffffffffff169050600073ffffffffffffffffffffffffffffffffffffffff168173ffffffffffffffffffffffffffffffffffffffff161415610980576040517f08c379a000000000000000000000000000000000000000000000000000000000815260040161097790612300565b60405180910390fd5b80915050919050565b60008073ffffffffffffffffffffffffffffffffffffffff168273ffffffffffffffffffffffffffffffffffffffff1614156109fa576040517f08c379a00000000000000000000000000000000000000000000000000000000081526004016109f1906122e0565b60405180910390fd5b600360008373ffffffffffffffffffffffffffffffffffffffff1673ffffffffffffffffffffffffffffffffffffffff168152602001908152602001600020549050919050565b600760009054906101000a900461ffff1681565b606060018054610a649061264e565b80601f0160208091040260200160405190810160405280929190818152602001828054610a909061264e565b8015610add5780601f10610ab257610100808354040283529160200191610add565b820191906000526020600020905b815481529060010190602001808311610ac057829003601f168201915b5050505050905090565b600960009054906101000a900473ffffffffffffffffffffffffffffffffffffffff1673ffffffffffffffffffffffffffffffffffffffff16610b28610fbe565b73ffffffffffffffffffffffffffffffffffffffff1614610b7e576040517f08c379a0000000000000000000000000000000000000000000000000000000008152600401610b7590612380565b60405180910390fd5b610b87816113fb565b50565b610b92610fbe565b73ffffffffffffffffffffffffffffffffffffffff168273ffffffffffffffffffffffffffffffffffffffff161415610c00576040517f08c379a0000000000000000000000000000000000000000000000000000000008152600401610bf790612280565b60405180910390fd5b8060056000610c0d610fbe565b73ffffffffffffffffffffffffffffffffffffffff1673ffffffffffffffffffffffffffffffffffffffff16815260200190815260200160002060008473ffffffffffffffffffffffffffffffffffffffff1673ffffffffffffffffffffffffffffffffffffffff16815260200190815260200160002060006101000a81548160ff0219169083151502179055508173ffffffffffffffffffffffffffffffffffffffff16610cba610fbe565b73ffffffffffffffffffffffffffffffffffffffff167f17307eab39ab6107e8899845ad3d59bd9653f200f220920489ca2b5937696c3183604051610cff91906121e3565b60405180910390a35050565b600060086000838152602001908152602001600020600101549050919050565b600060086000838152602001908152602001600020600001549050919050565b610d5c610d56610fbe565b8361107f565b610d9b576040517f08c379a0000000000000000000000000000000000000000000000000000000008152600401610d92906123e0565b60405180910390fd5b610da78484848461150c565b50505050565b6060610db882610f52565b610df7576040517f08c379a0000000000000000000000000000000000000000000000000000000008152600401610dee906123a0565b60405180910390fd5b6000610e01611568565b90506000815111610e215760405180602001604052806000815250610e4c565b80610e2b846115a5565b604051602001610e3c929190612158565b6040516020818303038152906040525b915050919050565b6000600560008473ffffffffffffffffffffffffffffffffffffffff1673ffffffffffffffffffffffffffffffffffffffff16815260200190815260200160002060008373ffffffffffffffffffffffffffffffffffffffff1673ffffffffffffffffffffffffffffffffffffffff16815260200190815260200160002060009054906101000a900460ff16905092915050565b60007f01ffc9a7000000000000000000000000000000000000000000000000000000007bffffffffffffffffffffffffffffffffffffffffffffffffffffffff1916827bffffffffffffffffffffffffffffffffffffffffffffffffffffffff1916149050919050565b60008073ffffffffffffffffffffffffffffffffffffffff166002600084815260200190815260200160002060009054906101000a900473ffffffffffffffffffffffffffffffffffffffff1673ffffffffffffffffffffffffffffffffffffffff1614159050919050565b600033905090565b816004600083815260200190815260200160002060006101000a81548173ffffffffffffffffffffffffffffffffffffffff021916908373ffffffffffffffffffffffffffffffffffffffff160217905550808273ffffffffffffffffffffffffffffffffffffffff16611039836108d7565b73ffffffffffffffffffffffffffffffffffffffff167f8c5be1e5ebec7d5bd14f71427d1e84f3dd0314c0f7b2291e5b200ac8c7c3b92560405160405180910390a45050565b600061108a82610f52565b6110c9576040517f08c379a00000000000000000000000000000000000000000000000000000000081526004016110c0906122a0565b60405180910390fd5b60006110d4836108d7565b90508073ffffffffffffffffffffffffffffffffffffffff168473ffffffffffffffffffffffffffffffffffffffff16148061114357508373ffffffffffffffffffffffffffffffffffffffff1661112b846105a5565b73ffffffffffffffffffffffffffffffffffffffff16145b8061115457506111538185610e54565b5b91505092915050565b8273ffffffffffffffffffffffffffffffffffffffff1661117d826108d7565b73ffffffffffffffffffffffffffffffffffffffff16146111d3576040517f08c379a00000000000000000000000000000000000000000000000000000000081526004016111ca90612360565b60405180910390fd5b600073ffffffffffffffffffffffffffffffffffffffff168273ffffffffffffffffffffffffffffffffffffffff161415611243576040517f08c379a000000000000000000000000000000000000000000000000000000000815260040161123a90612260565b60405180910390fd5b61124e838383611752565b611259600082610fc6565b6001600360008573ffffffffffffffffffffffffffffffffffffffff1673ffffffffffffffffffffffffffffffffffffffff16815260200190815260200160002060008282546112a99190612556565b925050819055506001600360008473ffffffffffffffffffffffffffffffffffffffff1673ffffffffffffffffffffffffffffffffffffffff168152602001908152602001600020600082825461130091906124cf565b92505081905550816002600083815260200190815260200160002060006101000a81548173ffffffffffffffffffffffffffffffffffffffff021916908373ffffffffffffffffffffffffffffffffffffffff160217905550808273ffffffffffffffffffffffffffffffffffffffff168473ffffffffffffffffffffffffffffffffffffffff167fddf252ad1be2c89b69c2b068fc378daa952ba7f163c4a11628f55a4df523b3ef60405160405180910390a4505050565b600081600001549050919050565b6113e1828260405180602001604052806000815250611757565b5050565b6001816000016000828254019250508190555050565b6000611406826108d7565b905061141481600084611752565b61141f600083610fc6565b6001600360008373ffffffffffffffffffffffffffffffffffffffff1673ffffffffffffffffffffffffffffffffffffffff168152602001908152602001600020600082825461146f9190612556565b925050819055506002600083815260200190815260200160002060006101000a81549073ffffffffffffffffffffffffffffffffffffffff021916905581600073ffffffffffffffffffffffffffffffffffffffff168273ffffffffffffffffffffffffffffffffffffffff167fddf252ad1be2c89b69c2b068fc378daa952ba7f163c4a11628f55a4df523b3ef60405160405180910390a45050565b61151784848461115d565b611523848484846117b2565b611562576040517f08c379a000000000000000000000000000000000000000000000000000000000815260040161155990612220565b60405180910390fd5b50505050565b60606040518060400160405280601381526020017f68747470733a2f2f637572696575782e6d612f00000000000000000000000000815250905090565b606060008214156115ed576040518060400160405280600181526020017f3000000000000000000000000000000000000000000000000000000000000000815250905061174d565b600082905060005b6000821461161f578080611608906126b1565b915050600a826116189190612525565b91506115f5565b60008167ffffffffffffffff811115611661577f4e487b7100000000000000000000000000000000000000000000000000000000600052604160045260246000fd5b6040519080825280601f01601f1916602001820160405280156116935781602001600182028036833780820191505090505b5090505b60008514611746576001826116ac9190612556565b9150600a856116bb91906126fa565b60306116c791906124cf565b60f81b818381518110611703577f4e487b7100000000000000000000000000000000000000000000000000000000600052603260045260246000fd5b60200101907effffffffffffffffffffffffffffffffffffffffffffffffffffffffffffff1916908160001a905350600a8561173f9190612525565b9450611697565b8093505050505b919050565b505050565b6117618383611949565b61176e60008484846117b2565b6117ad576040517f08c379a00000000000000000000000000000000000000000000000000000000081526004016117a490612220565b60405180910390fd5b505050565b60006117d38473ffffffffffffffffffffffffffffffffffffffff16611b17565b1561193c578373ffffffffffffffffffffffffffffffffffffffff1663150b7a026117fc610fbe565b8786866040518563ffffffff1660e01b815260040161181e9493929190612197565b602060405180830381600087803b15801561183857600080fd5b505af192505050801561186957506040513d601f19601f820116820180604052508101906118669190611e1a565b60015b6118ec573d8060008114611899576040519150601f19603f3d011682016040523d82523d6000602084013e61189e565b606091505b506000815114156118e4576040517f08c379a00000000000000000000000000000000000000000000000000000000081526004016118db90612220565b60405180910390fd5b805181602001fd5b63150b7a0260e01b7bffffffffffffffffffffffffffffffffffffffffffffffffffffffff1916817bffffffffffffffffffffffffffffffffffffffffffffffffffffffff191614915050611941565b600190505b949350505050565b600073ffffffffffffffffffffffffffffffffffffffff168273ffffffffffffffffffffffffffffffffffffffff1614156119b9576040517f08c379a00000000000000000000000000000000000000000000000000000000081526004016119b090612320565b60405180910390fd5b6119c281610f52565b15611a02576040517f08c379a00000000000000000000000000000000000000000000000000000000081526004016119f990612240565b60405180910390fd5b611a0e60008383611752565b6001600360008473ffffffffffffffffffffffffffffffffffffffff1673ffffffffffffffffffffffffffffffffffffffff1681526020019081526020016000206000828254611a5e91906124cf565b92505081905550816002600083815260200190815260200160002060006101000a81548173ffffffffffffffffffffffffffffffffffffffff021916908373ffffffffffffffffffffffffffffffffffffffff160217905550808273ffffffffffffffffffffffffffffffffffffffff16600073ffffffffffffffffffffffffffffffffffffffff167fddf252ad1be2c89b69c2b068fc378daa952ba7f163c4a11628f55a4df523b3ef60405160405180910390a45050565b600080823b905060008111915050919050565b6000611b3d611b388461245b565b612436565b905082815260208101848484011115611b5557600080fd5b611b6084828561260c565b509392505050565b600081359050611b7781612c27565b92915050565b600081359050611b8c81612c3e565b92915050565b600081359050611ba181612c55565b92915050565b600081519050611bb681612c55565b92915050565b600082601f830112611bcd57600080fd5b8135611bdd848260208601611b2a565b91505092915050565b600081359050611bf581612c6c565b92915050565b600060208284031215611c0d57600080fd5b6000611c1b84828501611b68565b91505092915050565b60008060408385031215611c3757600080fd5b6000611c4585828601611b68565b9250506020611c5685828601611b68565b9150509250929050565b600080600060608486031215611c7557600080fd5b6000611c8386828701611b68565b9350506020611c9486828701611b68565b9250506040611ca586828701611be6565b9150509250925092565b60008060008060808587031215611cc557600080fd5b6000611cd387828801611b68565b9450506020611ce487828801611b68565b9350506040611cf587828801611be6565b925050606085013567ffffffffffffffff811115611d1257600080fd5b611d1e87828801611bbc565b91505092959194509250565b60008060408385031215611d3d57600080fd5b6000611d4b85828601611b68565b9250506020611d5c85828601611b7d565b9150509250929050565b60008060408385031215611d7957600080fd5b6000611d8785828601611b68565b9250506020611d9885828601611be6565b9150509250929050565b600080600060608486031215611db757600080fd5b6000611dc586828701611b68565b9350506020611dd686828701611be6565b9250506040611de786828701611be6565b9150509250925092565b600060208284031215611e0357600080fd5b6000611e1184828501611b92565b91505092915050565b600060208284031215611e2c57600080fd5b6000611e3a84828501611ba7565b91505092915050565b600060208284031215611e5557600080fd5b6000611e6384828501611be6565b91505092915050565b611e758161258a565b82525050565b611e848161259c565b82525050565b6000611e958261248c565b611e9f81856124a2565b9350611eaf81856020860161261b565b611eb8816127e7565b840191505092915050565b6000611ece82612497565b611ed881856124b3565b9350611ee881856020860161261b565b611ef1816127e7565b840191505092915050565b6000611f0782612497565b611f1181856124c4565b9350611f2181856020860161261b565b80840191505092915050565b6000611f3a6032836124b3565b9150611f45826127f8565b604082019050919050565b6000611f5d601c836124b3565b9150611f6882612847565b602082019050919050565b6000611f806024836124b3565b9150611f8b82612870565b604082019050919050565b6000611fa36019836124b3565b9150611fae826128bf565b602082019050919050565b6000611fc6602c836124b3565b9150611fd1826128e8565b604082019050919050565b6000611fe96038836124b3565b9150611ff482612937565b604082019050919050565b600061200c602a836124b3565b915061201782612986565b604082019050919050565b600061202f6029836124b3565b915061203a826129d5565b604082019050919050565b60006120526020836124b3565b915061205d82612a24565b602082019050919050565b6000612075602c836124b3565b915061208082612a4d565b604082019050919050565b60006120986029836124b3565b91506120a382612a9c565b604082019050919050565b60006120bb6028836124b3565b91506120c682612aeb565b604082019050919050565b60006120de602f836124b3565b91506120e982612b3a565b604082019050919050565b60006121016021836124b3565b915061210c82612b89565b604082019050919050565b60006121246031836124b3565b915061212f82612bd8565b604082019050919050565b612143816125d4565b82525050565b61215281612602565b82525050565b60006121648285611efc565b91506121708284611efc565b91508190509392505050565b60006020820190506121916000830184611e6c565b92915050565b60006080820190506121ac6000830187611e6c565b6121b96020830186611e6c565b6121c66040830185612149565b81810360608301526121d88184611e8a565b905095945050505050565b60006020820190506121f86000830184611e7b565b92915050565b600060208201905081810360008301526122188184611ec3565b905092915050565b6000602082019050818103600083015261223981611f2d565b9050919050565b6000602082019050818103600083015261225981611f50565b9050919050565b6000602082019050818103600083015261227981611f73565b9050919050565b6000602082019050818103600083015261229981611f96565b9050919050565b600060208201905081810360008301526122b981611fb9565b9050919050565b600060208201905081810360008301526122d981611fdc565b9050919050565b600060208201905081810360008301526122f981611fff565b9050919050565b6000602082019050818103600083015261231981612022565b9050919050565b6000602082019050818103600083015261233981612045565b9050919050565b6000602082019050818103600083015261235981612068565b9050919050565b600060208201905081810360008301526123798161208b565b9050919050565b60006020820190508181036000830152612399816120ae565b9050919050565b600060208201905081810360008301526123b9816120d1565b9050919050565b600060208201905081810360008301526123d9816120f4565b9050919050565b600060208201905081810360008301526123f981612117565b9050919050565b6000602082019050612415600083018461213a565b92915050565b60006020820190506124306000830184612149565b92915050565b6000612440612451565b905061244c8282612680565b919050565b6000604051905090565b600067ffffffffffffffff821115612476576124756127b8565b5b61247f826127e7565b9050602081019050919050565b600081519050919050565b600081519050919050565b600082825260208201905092915050565b600082825260208201905092915050565b600081905092915050565b60006124da82612602565b91506124e583612602565b9250827fffffffffffffffffffffffffffffffffffffffffffffffffffffffffffffffff0382111561251a5761251961272b565b5b828201905092915050565b600061253082612602565b915061253b83612602565b92508261254b5761254a61275a565b5b828204905092915050565b600061256182612602565b915061256c83612602565b92508282101561257f5761257e61272b565b5b828203905092915050565b6000612595826125e2565b9050919050565b60008115159050919050565b60007fffffffff0000000000000000000000000000000000000000000000000000000082169050919050565b600061ffff82169050919050565b600073ffffffffffffffffffffffffffffffffffffffff82169050919050565b6000819050919050565b82818337600083830152505050565b60005b8381101561263957808201518184015260208101905061261e565b83811115612648576000848401525b50505050565b6000600282049050600182168061266657607f821691505b6020821081141561267a57612679612789565b5b50919050565b612689826127e7565b810181811067ffffffffffffffff821117156126a8576126a76127b8565b5b80604052505050565b60006126bc82612602565b91507fffffffffffffffffffffffffffffffffffffffffffffffffffffffffffffffff8214156126ef576126ee61272b565b5b600182019050919050565b600061270582612602565b915061271083612602565b9250826127205761271f61275a565b5b828206905092915050565b7f4e487b7100000000000000000000000000000000000000000000000000000000600052601160045260246000fd5b7f4e487b7100000000000000000000000000000000000000000000000000000000600052601260045260246000fd5b7f4e487b7100000000000000000000000000000000000000000000000000000000600052602260045260246000fd5b7f4e487b7100000000000000000000000000000000000000000000000000000000600052604160045260246000fd5b6000601f19601f8301169050919050565b7f4552433732313a207472616e7366657220746f206e6f6e20455243373231526560008201527f63656976657220696d706c656d656e7465720000000000000000000000000000602082015250565b7f4552433732313a20746f6b656e20616c7265616479206d696e74656400000000600082015250565b7f4552433732313a207472616e7366657220746f20746865207a65726f2061646460008201527f7265737300000000000000000000000000000000000000000000000000000000602082015250565b7f4552433732313a20617070726f766520746f2063616c6c657200000000000000600082015250565b7f4552433732313a206f70657261746f7220717565727920666f72206e6f6e657860008201527f697374656e7420746f6b656e0000000000000000000000000000000000000000602082015250565b7f4552433732313a20617070726f76652063616c6c6572206973206e6f74206f7760008201527f6e6572206e6f7220617070726f76656420666f7220616c6c0000000000000000602082015250565b7f4552433732313a2062616c616e636520717565727920666f7220746865207a6560008201527f726f206164647265737300000000000000000000000000000000000000000000602082015250565b7f4552433732313a206f776e657220717565727920666f72206e6f6e657869737460008201527f656e7420746f6b656e0000000000000000000000000000000000000000000000602082015250565b7f4552433732313a206d696e7420746f20746865207a65726f2061646472657373600082015250565b7f4552433732313a20617070726f76656420717565727920666f72206e6f6e657860008201527f697374656e7420746f6b656e0000000000000000000000000000000000000000602082015250565b7f4552433732313a207472616e73666572206f6620746f6b656e2074686174206960008201527f73206e6f74206f776e0000000000000000000000000000000000000000000000602082015250565b7f4f6e6c79207468652063726561746f7220697320616c6c6f77656420746f206360008201527f616c6c2074686973000000000000000000000000000000000000000000000000602082015250565b7f4552433732314d657461646174613a2055524920717565727920666f72206e6f60008201527f6e6578697374656e7420746f6b656e0000000000000000000000000000000000602082015250565b7f4552433732313a20617070726f76616c20746f2063757272656e74206f776e6560008201527f7200000000000000000000000000000000000000000000000000000000000000602082015250565b7f4552433732313a207472616e736665722063616c6c6572206973206e6f74206f60008201527f776e6572206e6f7220617070726f766564000000000000000000000000000000602082015250565b612c308161258a565b8114612c3b57600080fd5b50565b612c478161259c565b8114612c5257600080fd5b50565b612c5e816125a8565b8114612c6957600080fd5b50565b612c7581612602565b8114612c8057600080fd5b5056fea26469706673582212200f0a50fedfe955d78b4d6bb67ef30833e906774e33fe0e8e8e445873e93eac1c64736f6c63430008030033",
  "immutableReferences": {},
  "source": "// SPDX-License-Identifier: MIT\n\npragma solidity ^0.8.0;\n\nimport \"../../token/ERC721/ERC721.sol\";\nimport \"../../utils/Counters.sol\";\n\n/**\n    NFT representing a share of a finance product (term deposit, crowdunfing, investment etc.)\n */\ncontract FP is ERC721 {\n    \n    using Counters for Counters.Counter;\n    Counters.Counter private _tokenIds;\n\n    uint16 public interestRate;\n    uint16 public maturity;\n\n    struct Product {\n        uint256 _subscriptionAmount;\n        uint256 _subscriptionDate;\n    }\n\n    mapping (uint256 => Product) private _subscriptions;\n\n    address public creator;\n\n    modifier onlyCreator() { \n        require(_msgSender() == creator, \"Only the creator is allowed to call this\");\n        _;\n    }\n\n    constructor(string memory name_, string memory symbol_, uint16 interestRate_, uint16 maturity_) \n        ERC721(name_, symbol_) {\n            creator = _msgSender();\n            interestRate = interestRate_;\n            maturity = maturity_;\n    }\n\n    function _baseURI() internal virtual view override returns (string memory) {\n        return \"https://curieux.ma/\";\n    }\n\n    function getSubAmount(uint256 tokenId) public virtual view returns (uint256) {\n        return _subscriptions[tokenId]._subscriptionAmount;\n    }\n\n    function getSubDate(uint256 tokenId) public virtual view returns (uint256) {\n        return _subscriptions[tokenId]._subscriptionDate;\n    }\n\n    function create(address buyer, uint256 amount, uint256 subscriptionDate) \n        public virtual onlyCreator {\n        _safeMint(buyer, _tokenIds.current());\n        _subscriptions[_tokenIds.current()] = Product(amount, subscriptionDate);\n        _tokenIds.increment();\n    }\n\n    function destroy(uint256 tokenId) public virtual onlyCreator {\n        _burn(tokenId);\n    }\n\n}",
  "sourcePath": "/home/issam/git/med-erc20/sol/truffle/contracts/token/nft/FP.sol",
  "compiler": {
    "name": "solc",
    "version": "0.8.3+commit.8d00100c.Emscripten.clang"
  },
  "schemaVersion": "3.2.4",
  "updatedAt": "2021-04-25T12:07:06.076Z",
  "devdoc": {
    "kind": "dev",
    "methods": {
      "approve(address,uint256)": {
        "details": "See {IERC721-approve}."
      },
      "balanceOf(address)": {
        "details": "See {IERC721-balanceOf}."
      },
      "getApproved(uint256)": {
        "details": "See {IERC721-getApproved}."
      },
      "isApprovedForAll(address,address)": {
        "details": "See {IERC721-isApprovedForAll}."
      },
      "name()": {
        "details": "See {IERC721Metadata-name}."
      },
      "ownerOf(uint256)": {
        "details": "See {IERC721-ownerOf}."
      },
      "safeTransferFrom(address,address,uint256)": {
        "details": "See {IERC721-safeTransferFrom}."
      },
      "safeTransferFrom(address,address,uint256,bytes)": {
        "details": "See {IERC721-safeTransferFrom}."
      },
      "setApprovalForAll(address,bool)": {
        "details": "See {IERC721-setApprovalForAll}."
      },
      "supportsInterface(bytes4)": {
        "details": "See {IERC165-supportsInterface}."
      },
      "symbol()": {
        "details": "See {IERC721Metadata-symbol}."
      },
      "tokenURI(uint256)": {
        "details": "See {IERC721Metadata-tokenURI}."
      },
      "transferFrom(address,address,uint256)": {
        "details": "See {IERC721-transferFrom}."
      }
    },
    "version": 1
  },
  "userdoc": {
    "kind": "user",
    "methods": {},
    "notice": "NFT representing a share of a finance product (term deposit, crowdunfing, investment etc.)",
    "version": 1
  }
}