{
  "contractName": "FP",
  "abi": [
    {
      "inputs": [
        {
          "internalType": "string",
          "name": "name_",
          "type": "string"
        },
        {
          "internalType": "string",
          "name": "symbol_",
          "type": "string"
        },
        {
          "internalType": "uint16",
          "name": "interestRate_",
          "type": "uint16"
        },
        {
          "internalType": "uint256",
          "name": "maturity_",
          "type": "uint256"
        }
      ],
      "stateMutability": "nonpayable",
      "type": "constructor"
    },
    {
      "anonymous": false,
      "inputs": [
        {
          "indexed": true,
          "internalType": "address",
          "name": "owner",
          "type": "address"
        },
        {
          "indexed": true,
          "internalType": "address",
          "name": "approved",
          "type": "address"
        },
        {
          "indexed": true,
          "internalType": "uint256",
          "name": "tokenId",
          "type": "uint256"
        }
      ],
      "name": "Approval",
      "type": "event"
    },
    {
      "anonymous": false,
      "inputs": [
        {
          "indexed": true,
          "internalType": "address",
          "name": "owner",
          "type": "address"
        },
        {
          "indexed": true,
          "internalType": "address",
          "name": "operator",
          "type": "address"
        },
        {
          "indexed": false,
          "internalType": "bool",
          "name": "approved",
          "type": "bool"
        }
      ],
      "name": "ApprovalForAll",
      "type": "event"
    },
    {
      "anonymous": false,
      "inputs": [
        {
          "indexed": true,
          "internalType": "address",
          "name": "from",
          "type": "address"
        },
        {
          "indexed": true,
          "internalType": "address",
          "name": "to",
          "type": "address"
        },
        {
          "indexed": true,
          "internalType": "uint256",
          "name": "tokenId",
          "type": "uint256"
        }
      ],
      "name": "Transfer",
      "type": "event"
    },
    {
      "inputs": [
        {
          "internalType": "address",
          "name": "to",
          "type": "address"
        },
        {
          "internalType": "uint256",
          "name": "tokenId",
          "type": "uint256"
        }
      ],
      "name": "approve",
      "outputs": [],
      "stateMutability": "nonpayable",
      "type": "function"
    },
    {
      "inputs": [
        {
          "internalType": "address",
          "name": "owner",
          "type": "address"
        }
      ],
      "name": "balanceOf",
      "outputs": [
        {
          "internalType": "uint256",
          "name": "",
          "type": "uint256"
        }
      ],
      "stateMutability": "view",
      "type": "function"
    },
    {
      "inputs": [],
      "name": "creator",
      "outputs": [
        {
          "internalType": "address",
          "name": "",
          "type": "address"
        }
      ],
      "stateMutability": "view",
      "type": "function"
    },
    {
      "inputs": [
        {
          "internalType": "uint256",
          "name": "tokenId",
          "type": "uint256"
        }
      ],
      "name": "getApproved",
      "outputs": [
        {
          "internalType": "address",
          "name": "",
          "type": "address"
        }
      ],
      "stateMutability": "view",
      "type": "function"
    },
    {
      "inputs": [],
      "name": "interestRate",
      "outputs": [
        {
          "internalType": "uint16",
          "name": "",
          "type": "uint16"
        }
      ],
      "stateMutability": "view",
      "type": "function"
    },
    {
      "inputs": [
        {
          "internalType": "address",
          "name": "owner",
          "type": "address"
        },
        {
          "internalType": "address",
          "name": "operator",
          "type": "address"
        }
      ],
      "name": "isApprovedForAll",
      "outputs": [
        {
          "internalType": "bool",
          "name": "",
          "type": "bool"
        }
      ],
      "stateMutability": "view",
      "type": "function"
    },
    {
      "inputs": [],
      "name": "maturity",
      "outputs": [
        {
          "internalType": "uint256",
          "name": "",
          "type": "uint256"
        }
      ],
      "stateMutability": "view",
      "type": "function"
    },
    {
      "inputs": [],
      "name": "name",
      "outputs": [
        {
          "internalType": "string",
          "name": "",
          "type": "string"
        }
      ],
      "stateMutability": "view",
      "type": "function"
    },
    {
      "inputs": [
        {
          "internalType": "uint256",
          "name": "tokenId",
          "type": "uint256"
        }
      ],
      "name": "ownerOf",
      "outputs": [
        {
          "internalType": "address",
          "name": "",
          "type": "address"
        }
      ],
      "stateMutability": "view",
      "type": "function"
    },
    {
      "inputs": [
        {
          "internalType": "address",
          "name": "from",
          "type": "address"
        },
        {
          "internalType": "address",
          "name": "to",
          "type": "address"
        },
        {
          "internalType": "uint256",
          "name": "tokenId",
          "type": "uint256"
        }
      ],
      "name": "safeTransferFrom",
      "outputs": [],
      "stateMutability": "nonpayable",
      "type": "function"
    },
    {
      "inputs": [
        {
          "internalType": "address",
          "name": "from",
          "type": "address"
        },
        {
          "internalType": "address",
          "name": "to",
          "type": "address"
        },
        {
          "internalType": "uint256",
          "name": "tokenId",
          "type": "uint256"
        },
        {
          "internalType": "bytes",
          "name": "_data",
          "type": "bytes"
        }
      ],
      "name": "safeTransferFrom",
      "outputs": [],
      "stateMutability": "nonpayable",
      "type": "function"
    },
    {
      "inputs": [
        {
          "internalType": "address",
          "name": "operator",
          "type": "address"
        },
        {
          "internalType": "bool",
          "name": "approved",
          "type": "bool"
        }
      ],
      "name": "setApprovalForAll",
      "outputs": [],
      "stateMutability": "nonpayable",
      "type": "function"
    },
    {
      "inputs": [
        {
          "internalType": "bytes4",
          "name": "interfaceId",
          "type": "bytes4"
        }
      ],
      "name": "supportsInterface",
      "outputs": [
        {
          "internalType": "bool",
          "name": "",
          "type": "bool"
        }
      ],
      "stateMutability": "view",
      "type": "function"
    },
    {
      "inputs": [],
      "name": "symbol",
      "outputs": [
        {
          "internalType": "string",
          "name": "",
          "type": "string"
        }
      ],
      "stateMutability": "view",
      "type": "function"
    },
    {
      "inputs": [
        {
          "internalType": "uint256",
          "name": "tokenId",
          "type": "uint256"
        }
      ],
      "name": "tokenURI",
      "outputs": [
        {
          "internalType": "string",
          "name": "",
          "type": "string"
        }
      ],
      "stateMutability": "view",
      "type": "function"
    },
    {
      "inputs": [
        {
          "internalType": "address",
          "name": "from",
          "type": "address"
        },
        {
          "internalType": "address",
          "name": "to",
          "type": "address"
        },
        {
          "internalType": "uint256",
          "name": "tokenId",
          "type": "uint256"
        }
      ],
      "name": "transferFrom",
      "outputs": [],
      "stateMutability": "nonpayable",
      "type": "function"
    },
    {
      "inputs": [
        {
          "internalType": "uint256",
          "name": "tokenId",
          "type": "uint256"
        }
      ],
      "name": "getSubAmount",
      "outputs": [
        {
          "internalType": "uint256",
          "name": "",
          "type": "uint256"
        }
      ],
      "stateMutability": "view",
      "type": "function"
    },
    {
      "inputs": [
        {
          "internalType": "uint256",
          "name": "tokenId",
          "type": "uint256"
        }
      ],
      "name": "getSubDate",
      "outputs": [
        {
          "internalType": "uint256",
          "name": "",
          "type": "uint256"
        }
      ],
      "stateMutability": "view",
      "type": "function"
    },
    {
      "inputs": [
        {
          "internalType": "address",
          "name": "buyer",
          "type": "address"
        },
        {
          "internalType": "uint256",
          "name": "amount",
          "type": "uint256"
        },
        {
          "internalType": "uint256",
          "name": "subscriptionDate",
          "type": "uint256"
        }
      ],
      "name": "create",
      "outputs": [],
      "stateMutability": "nonpayable",
      "type": "function"
    },
    {
      "inputs": [
        {
          "internalType": "uint256",
          "name": "tokenId",
          "type": "uint256"
        }
      ],
      "name": "destroy",
      "outputs": [],
      "stateMutability": "nonpayable",
      "type": "function"
    }
  ],
  "bytecode": "0x60806040523480156200001157600080fd5b506040516200315838038062003158833981810160405281019062000037919062000243565b8383816000908051906020019062000051929190620000f3565b5080600190805190602001906200006a929190620000f3565b5050506200007d620000eb60201b60201c565b600a60006101000a81548173ffffffffffffffffffffffffffffffffffffffff021916908373ffffffffffffffffffffffffffffffffffffffff16021790555081600760006101000a81548161ffff021916908361ffff16021790555080600881905550505050506200049d565b600033905090565b82805462000101906200038e565b90600052602060002090601f01602090048101928262000125576000855562000171565b82601f106200014057805160ff191683800117855562000171565b8280016001018555821562000171579182015b828111156200017057825182559160200191906001019062000153565b5b50905062000180919062000184565b5090565b5b808211156200019f57600081600090555060010162000185565b5090565b6000620001ba620001b4846200030a565b620002e1565b905082815260208101848484011115620001d357600080fd5b620001e084828562000358565b509392505050565b600082601f830112620001fa57600080fd5b81516200020c848260208601620001a3565b91505092915050565b600081519050620002268162000469565b92915050565b6000815190506200023d8162000483565b92915050565b600080600080608085870312156200025a57600080fd5b600085015167ffffffffffffffff8111156200027557600080fd5b6200028387828801620001e8565b945050602085015167ffffffffffffffff811115620002a157600080fd5b620002af87828801620001e8565b9350506040620002c28782880162000215565b9250506060620002d5878288016200022c565b91505092959194509250565b6000620002ed62000300565b9050620002fb8282620003c4565b919050565b6000604051905090565b600067ffffffffffffffff82111562000328576200032762000429565b5b620003338262000458565b9050602081019050919050565b600061ffff82169050919050565b6000819050919050565b60005b83811015620003785780820151818401526020810190506200035b565b8381111562000388576000848401525b50505050565b60006002820490506001821680620003a757607f821691505b60208210811415620003be57620003bd620003fa565b5b50919050565b620003cf8262000458565b810181811067ffffffffffffffff82111715620003f157620003f062000429565b5b80604052505050565b7f4e487b7100000000000000000000000000000000000000000000000000000000600052602260045260246000fd5b7f4e487b7100000000000000000000000000000000000000000000000000000000600052604160045260246000fd5b6000601f19601f8301169050919050565b620004748162000340565b81146200048057600080fd5b50565b6200048e816200034e565b81146200049a57600080fd5b50565b612cab80620004ad6000396000f3fe608060405234801561001057600080fd5b506004361061012c5760003560e01c806370a08231116100ad578063aafc69ef11610071578063aafc69ef1461032f578063b254fe9a1461035f578063b88d4fde1461038f578063c87b56dd146103ab578063e985e9c5146103db5761012c565b806370a082311461028b5780637c3a00fd146102bb57806395d89b41146102d95780639d118770146102f7578063a22cb465146103135761012c565b8063204f83f9116100f4578063204f83f9146101e957806323b872dd1461020757806342842e0e146102235780635165da301461023f5780636352211e1461025b5761012c565b806301ffc9a71461013157806302d05d3f1461016157806306fdde031461017f578063081812fc1461019d578063095ea7b3146101cd575b600080fd5b61014b60048036038101906101469190611de3565b61040b565b60405161015891906121d5565b60405180910390f35b6101696104ed565b604051610176919061216e565b60405180910390f35b610187610513565b60405161019491906121f0565b60405180910390f35b6101b760048036038101906101b29190611e35565b6105a5565b6040516101c4919061216e565b60405180910390f35b6101e760048036038101906101e29190611d58565b61062a565b005b6101f1610742565b6040516101fe919061240d565b60405180910390f35b610221600480360381019061021c9190611c52565b610748565b005b61023d60048036038101906102389190611c52565b6107a8565b005b61025960048036038101906102549190611d94565b6107c8565b005b61027560048036038101906102709190611e35565b6108c9565b604051610282919061216e565b60405180910390f35b6102a560048036038101906102a09190611bed565b61097b565b6040516102b2919061240d565b60405180910390f35b6102c3610a33565b6040516102d091906123f2565b60405180910390f35b6102e1610a47565b6040516102ee91906121f0565b60405180910390f35b610311600480360381019061030c9190611e35565b610ad9565b005b61032d60048036038101906103289190611d1c565b610b7c565b005b61034960048036038101906103449190611e35565b610cfd565b604051610356919061240d565b60405180910390f35b61037960048036038101906103749190611e35565b610d1d565b604051610386919061240d565b60405180910390f35b6103a960048036038101906103a49190611ca1565b610d3d565b005b6103c560048036038101906103c09190611e35565b610d9f565b6040516103d291906121f0565b60405180910390f35b6103f560048036038101906103f09190611c16565b610e46565b60405161040291906121d5565b60405180910390f35b60007f80ac58cd000000000000000000000000000000000000000000000000000000007bffffffffffffffffffffffffffffffffffffffffffffffffffffffff1916827bffffffffffffffffffffffffffffffffffffffffffffffffffffffff191614806104d657507f5b5e139f000000000000000000000000000000000000000000000000000000007bffffffffffffffffffffffffffffffffffffffffffffffffffffffff1916827bffffffffffffffffffffffffffffffffffffffffffffffffffffffff1916145b806104e657506104e582610eda565b5b9050919050565b600a60009054906101000a900473ffffffffffffffffffffffffffffffffffffffff1681565b60606000805461052290612640565b80601f016020809104026020016040519081016040528092919081815260200182805461054e90612640565b801561059b5780601f106105705761010080835404028352916020019161059b565b820191906000526020600020905b81548152906001019060200180831161057e57829003601f168201915b5050505050905090565b60006105b082610f44565b6105ef576040517f08c379a00000000000000000000000000000000000000000000000000000000081526004016105e690612332565b60405180910390fd5b6004600083815260200190815260200160002060009054906101000a900473ffffffffffffffffffffffffffffffffffffffff169050919050565b6000610635826108c9565b90508073ffffffffffffffffffffffffffffffffffffffff168373ffffffffffffffffffffffffffffffffffffffff1614156106a6576040517f08c379a000000000000000000000000000000000000000000000000000000000815260040161069d906123b2565b60405180910390fd5b8073ffffffffffffffffffffffffffffffffffffffff166106c5610fb0565b73ffffffffffffffffffffffffffffffffffffffff1614806106f457506106f3816106ee610fb0565b610e46565b5b610733576040517f08c379a000000000000000000000000000000000000000000000000000000000815260040161072a906122b2565b60405180910390fd5b61073d8383610fb8565b505050565b60085481565b610759610753610fb0565b82611071565b610798576040517f08c379a000000000000000000000000000000000000000000000000000000000815260040161078f906123d2565b60405180910390fd5b6107a383838361114f565b505050565b6107c383838360405180602001604052806000815250610d3d565b505050565b600a60009054906101000a900473ffffffffffffffffffffffffffffffffffffffff1673ffffffffffffffffffffffffffffffffffffffff16610809610fb0565b73ffffffffffffffffffffffffffffffffffffffff161461085f576040517f08c379a000000000000000000000000000000000000000000000000000000000815260040161085690612372565b60405180910390fd5b6108728361086d60066113ab565b6113b9565b6040518060400160405280838152602001828152506009600061089560066113ab565b815260200190815260200160002060008201518160000155602082015181600101559050506108c460066113d7565b505050565b6000806002600084815260200190815260200160002060009054906101000a900473ffffffffffffffffffffffffffffffffffffffff169050600073ffffffffffffffffffffffffffffffffffffffff168173ffffffffffffffffffffffffffffffffffffffff161415610972576040517f08c379a0000000000000000000000000000000000000000000000000000000008152600401610969906122f2565b60405180910390fd5b80915050919050565b60008073ffffffffffffffffffffffffffffffffffffffff168273ffffffffffffffffffffffffffffffffffffffff1614156109ec576040517f08c379a00000000000000000000000000000000000000000000000000000000081526004016109e3906122d2565b60405180910390fd5b600360008373ffffffffffffffffffffffffffffffffffffffff1673ffffffffffffffffffffffffffffffffffffffff168152602001908152602001600020549050919050565b600760009054906101000a900461ffff1681565b606060018054610a5690612640565b80601f0160208091040260200160405190810160405280929190818152602001828054610a8290612640565b8015610acf5780601f10610aa457610100808354040283529160200191610acf565b820191906000526020600020905b815481529060010190602001808311610ab257829003601f168201915b5050505050905090565b600a60009054906101000a900473ffffffffffffffffffffffffffffffffffffffff1673ffffffffffffffffffffffffffffffffffffffff16610b1a610fb0565b73ffffffffffffffffffffffffffffffffffffffff1614610b70576040517f08c379a0000000000000000000000000000000000000000000000000000000008152600401610b6790612372565b60405180910390fd5b610b79816113ed565b50565b610b84610fb0565b73ffffffffffffffffffffffffffffffffffffffff168273ffffffffffffffffffffffffffffffffffffffff161415610bf2576040517f08c379a0000000000000000000000000000000000000000000000000000000008152600401610be990612272565b60405180910390fd5b8060056000610bff610fb0565b73ffffffffffffffffffffffffffffffffffffffff1673ffffffffffffffffffffffffffffffffffffffff16815260200190815260200160002060008473ffffffffffffffffffffffffffffffffffffffff1673ffffffffffffffffffffffffffffffffffffffff16815260200190815260200160002060006101000a81548160ff0219169083151502179055508173ffffffffffffffffffffffffffffffffffffffff16610cac610fb0565b73ffffffffffffffffffffffffffffffffffffffff167f17307eab39ab6107e8899845ad3d59bd9653f200f220920489ca2b5937696c3183604051610cf191906121d5565b60405180910390a35050565b600060096000838152602001908152602001600020600101549050919050565b600060096000838152602001908152602001600020600001549050919050565b610d4e610d48610fb0565b83611071565b610d8d576040517f08c379a0000000000000000000000000000000000000000000000000000000008152600401610d84906123d2565b60405180910390fd5b610d99848484846114fe565b50505050565b6060610daa82610f44565b610de9576040517f08c379a0000000000000000000000000000000000000000000000000000000008152600401610de090612392565b60405180910390fd5b6000610df361155a565b90506000815111610e135760405180602001604052806000815250610e3e565b80610e1d84611597565b604051602001610e2e92919061214a565b6040516020818303038152906040525b915050919050565b6000600560008473ffffffffffffffffffffffffffffffffffffffff1673ffffffffffffffffffffffffffffffffffffffff16815260200190815260200160002060008373ffffffffffffffffffffffffffffffffffffffff1673ffffffffffffffffffffffffffffffffffffffff16815260200190815260200160002060009054906101000a900460ff16905092915050565b60007f01ffc9a7000000000000000000000000000000000000000000000000000000007bffffffffffffffffffffffffffffffffffffffffffffffffffffffff1916827bffffffffffffffffffffffffffffffffffffffffffffffffffffffff1916149050919050565b60008073ffffffffffffffffffffffffffffffffffffffff166002600084815260200190815260200160002060009054906101000a900473ffffffffffffffffffffffffffffffffffffffff1673ffffffffffffffffffffffffffffffffffffffff1614159050919050565b600033905090565b816004600083815260200190815260200160002060006101000a81548173ffffffffffffffffffffffffffffffffffffffff021916908373ffffffffffffffffffffffffffffffffffffffff160217905550808273ffffffffffffffffffffffffffffffffffffffff1661102b836108c9565b73ffffffffffffffffffffffffffffffffffffffff167f8c5be1e5ebec7d5bd14f71427d1e84f3dd0314c0f7b2291e5b200ac8c7c3b92560405160405180910390a45050565b600061107c82610f44565b6110bb576040517f08c379a00000000000000000000000000000000000000000000000000000000081526004016110b290612292565b60405180910390fd5b60006110c6836108c9565b90508073ffffffffffffffffffffffffffffffffffffffff168473ffffffffffffffffffffffffffffffffffffffff16148061113557508373ffffffffffffffffffffffffffffffffffffffff1661111d846105a5565b73ffffffffffffffffffffffffffffffffffffffff16145b8061114657506111458185610e46565b5b91505092915050565b8273ffffffffffffffffffffffffffffffffffffffff1661116f826108c9565b73ffffffffffffffffffffffffffffffffffffffff16146111c5576040517f08c379a00000000000000000000000000000000000000000000000000000000081526004016111bc90612352565b60405180910390fd5b600073ffffffffffffffffffffffffffffffffffffffff168273ffffffffffffffffffffffffffffffffffffffff161415611235576040517f08c379a000000000000000000000000000000000000000000000000000000000815260040161122c90612252565b60405180910390fd5b611240838383611744565b61124b600082610fb8565b6001600360008573ffffffffffffffffffffffffffffffffffffffff1673ffffffffffffffffffffffffffffffffffffffff168152602001908152602001600020600082825461129b9190612548565b925050819055506001600360008473ffffffffffffffffffffffffffffffffffffffff1673ffffffffffffffffffffffffffffffffffffffff16815260200190815260200160002060008282546112f291906124c1565b92505081905550816002600083815260200190815260200160002060006101000a81548173ffffffffffffffffffffffffffffffffffffffff021916908373ffffffffffffffffffffffffffffffffffffffff160217905550808273ffffffffffffffffffffffffffffffffffffffff168473ffffffffffffffffffffffffffffffffffffffff167fddf252ad1be2c89b69c2b068fc378daa952ba7f163c4a11628f55a4df523b3ef60405160405180910390a4505050565b600081600001549050919050565b6113d3828260405180602001604052806000815250611749565b5050565b6001816000016000828254019250508190555050565b60006113f8826108c9565b905061140681600084611744565b611411600083610fb8565b6001600360008373ffffffffffffffffffffffffffffffffffffffff1673ffffffffffffffffffffffffffffffffffffffff16815260200190815260200160002060008282546114619190612548565b925050819055506002600083815260200190815260200160002060006101000a81549073ffffffffffffffffffffffffffffffffffffffff021916905581600073ffffffffffffffffffffffffffffffffffffffff168273ffffffffffffffffffffffffffffffffffffffff167fddf252ad1be2c89b69c2b068fc378daa952ba7f163c4a11628f55a4df523b3ef60405160405180910390a45050565b61150984848461114f565b611515848484846117a4565b611554576040517f08c379a000000000000000000000000000000000000000000000000000000000815260040161154b90612212565b60405180910390fd5b50505050565b60606040518060400160405280601381526020017f68747470733a2f2f637572696575782e6d612f00000000000000000000000000815250905090565b606060008214156115df576040518060400160405280600181526020017f3000000000000000000000000000000000000000000000000000000000000000815250905061173f565b600082905060005b600082146116115780806115fa906126a3565b915050600a8261160a9190612517565b91506115e7565b60008167ffffffffffffffff811115611653577f4e487b7100000000000000000000000000000000000000000000000000000000600052604160045260246000fd5b6040519080825280601f01601f1916602001820160405280156116855781602001600182028036833780820191505090505b5090505b600085146117385760018261169e9190612548565b9150600a856116ad91906126ec565b60306116b991906124c1565b60f81b8183815181106116f5577f4e487b7100000000000000000000000000000000000000000000000000000000600052603260045260246000fd5b60200101907effffffffffffffffffffffffffffffffffffffffffffffffffffffffffffff1916908160001a905350600a856117319190612517565b9450611689565b8093505050505b919050565b505050565b611753838361193b565b61176060008484846117a4565b61179f576040517f08c379a000000000000000000000000000000000000000000000000000000000815260040161179690612212565b60405180910390fd5b505050565b60006117c58473ffffffffffffffffffffffffffffffffffffffff16611b09565b1561192e578373ffffffffffffffffffffffffffffffffffffffff1663150b7a026117ee610fb0565b8786866040518563ffffffff1660e01b81526004016118109493929190612189565b602060405180830381600087803b15801561182a57600080fd5b505af192505050801561185b57506040513d601f19601f820116820180604052508101906118589190611e0c565b60015b6118de573d806000811461188b576040519150601f19603f3d011682016040523d82523d6000602084013e611890565b606091505b506000815114156118d6576040517f08c379a00000000000000000000000000000000000000000000000000000000081526004016118cd90612212565b60405180910390fd5b805181602001fd5b63150b7a0260e01b7bffffffffffffffffffffffffffffffffffffffffffffffffffffffff1916817bffffffffffffffffffffffffffffffffffffffffffffffffffffffff191614915050611933565b600190505b949350505050565b600073ffffffffffffffffffffffffffffffffffffffff168273ffffffffffffffffffffffffffffffffffffffff1614156119ab576040517f08c379a00000000000000000000000000000000000000000000000000000000081526004016119a290612312565b60405180910390fd5b6119b481610f44565b156119f4576040517f08c379a00000000000000000000000000000000000000000000000000000000081526004016119eb90612232565b60405180910390fd5b611a0060008383611744565b6001600360008473ffffffffffffffffffffffffffffffffffffffff1673ffffffffffffffffffffffffffffffffffffffff1681526020019081526020016000206000828254611a5091906124c1565b92505081905550816002600083815260200190815260200160002060006101000a81548173ffffffffffffffffffffffffffffffffffffffff021916908373ffffffffffffffffffffffffffffffffffffffff160217905550808273ffffffffffffffffffffffffffffffffffffffff16600073ffffffffffffffffffffffffffffffffffffffff167fddf252ad1be2c89b69c2b068fc378daa952ba7f163c4a11628f55a4df523b3ef60405160405180910390a45050565b600080823b905060008111915050919050565b6000611b2f611b2a8461244d565b612428565b905082815260208101848484011115611b4757600080fd5b611b528482856125fe565b509392505050565b600081359050611b6981612c19565b92915050565b600081359050611b7e81612c30565b92915050565b600081359050611b9381612c47565b92915050565b600081519050611ba881612c47565b92915050565b600082601f830112611bbf57600080fd5b8135611bcf848260208601611b1c565b91505092915050565b600081359050611be781612c5e565b92915050565b600060208284031215611bff57600080fd5b6000611c0d84828501611b5a565b91505092915050565b60008060408385031215611c2957600080fd5b6000611c3785828601611b5a565b9250506020611c4885828601611b5a565b9150509250929050565b600080600060608486031215611c6757600080fd5b6000611c7586828701611b5a565b9350506020611c8686828701611b5a565b9250506040611c9786828701611bd8565b9150509250925092565b60008060008060808587031215611cb757600080fd5b6000611cc587828801611b5a565b9450506020611cd687828801611b5a565b9350506040611ce787828801611bd8565b925050606085013567ffffffffffffffff811115611d0457600080fd5b611d1087828801611bae565b91505092959194509250565b60008060408385031215611d2f57600080fd5b6000611d3d85828601611b5a565b9250506020611d4e85828601611b6f565b9150509250929050565b60008060408385031215611d6b57600080fd5b6000611d7985828601611b5a565b9250506020611d8a85828601611bd8565b9150509250929050565b600080600060608486031215611da957600080fd5b6000611db786828701611b5a565b9350506020611dc886828701611bd8565b9250506040611dd986828701611bd8565b9150509250925092565b600060208284031215611df557600080fd5b6000611e0384828501611b84565b91505092915050565b600060208284031215611e1e57600080fd5b6000611e2c84828501611b99565b91505092915050565b600060208284031215611e4757600080fd5b6000611e5584828501611bd8565b91505092915050565b611e678161257c565b82525050565b611e768161258e565b82525050565b6000611e878261247e565b611e918185612494565b9350611ea181856020860161260d565b611eaa816127d9565b840191505092915050565b6000611ec082612489565b611eca81856124a5565b9350611eda81856020860161260d565b611ee3816127d9565b840191505092915050565b6000611ef982612489565b611f0381856124b6565b9350611f1381856020860161260d565b80840191505092915050565b6000611f2c6032836124a5565b9150611f37826127ea565b604082019050919050565b6000611f4f601c836124a5565b9150611f5a82612839565b602082019050919050565b6000611f726024836124a5565b9150611f7d82612862565b604082019050919050565b6000611f956019836124a5565b9150611fa0826128b1565b602082019050919050565b6000611fb8602c836124a5565b9150611fc3826128da565b604082019050919050565b6000611fdb6038836124a5565b9150611fe682612929565b604082019050919050565b6000611ffe602a836124a5565b915061200982612978565b604082019050919050565b60006120216029836124a5565b915061202c826129c7565b604082019050919050565b60006120446020836124a5565b915061204f82612a16565b602082019050919050565b6000612067602c836124a5565b915061207282612a3f565b604082019050919050565b600061208a6029836124a5565b915061209582612a8e565b604082019050919050565b60006120ad6028836124a5565b91506120b882612add565b604082019050919050565b60006120d0602f836124a5565b91506120db82612b2c565b604082019050919050565b60006120f36021836124a5565b91506120fe82612b7b565b604082019050919050565b60006121166031836124a5565b915061212182612bca565b604082019050919050565b612135816125c6565b82525050565b612144816125f4565b82525050565b60006121568285611eee565b91506121628284611eee565b91508190509392505050565b60006020820190506121836000830184611e5e565b92915050565b600060808201905061219e6000830187611e5e565b6121ab6020830186611e5e565b6121b8604083018561213b565b81810360608301526121ca8184611e7c565b905095945050505050565b60006020820190506121ea6000830184611e6d565b92915050565b6000602082019050818103600083015261220a8184611eb5565b905092915050565b6000602082019050818103600083015261222b81611f1f565b9050919050565b6000602082019050818103600083015261224b81611f42565b9050919050565b6000602082019050818103600083015261226b81611f65565b9050919050565b6000602082019050818103600083015261228b81611f88565b9050919050565b600060208201905081810360008301526122ab81611fab565b9050919050565b600060208201905081810360008301526122cb81611fce565b9050919050565b600060208201905081810360008301526122eb81611ff1565b9050919050565b6000602082019050818103600083015261230b81612014565b9050919050565b6000602082019050818103600083015261232b81612037565b9050919050565b6000602082019050818103600083015261234b8161205a565b9050919050565b6000602082019050818103600083015261236b8161207d565b9050919050565b6000602082019050818103600083015261238b816120a0565b9050919050565b600060208201905081810360008301526123ab816120c3565b9050919050565b600060208201905081810360008301526123cb816120e6565b9050919050565b600060208201905081810360008301526123eb81612109565b9050919050565b6000602082019050612407600083018461212c565b92915050565b6000602082019050612422600083018461213b565b92915050565b6000612432612443565b905061243e8282612672565b919050565b6000604051905090565b600067ffffffffffffffff821115612468576124676127aa565b5b612471826127d9565b9050602081019050919050565b600081519050919050565b600081519050919050565b600082825260208201905092915050565b600082825260208201905092915050565b600081905092915050565b60006124cc826125f4565b91506124d7836125f4565b9250827fffffffffffffffffffffffffffffffffffffffffffffffffffffffffffffffff0382111561250c5761250b61271d565b5b828201905092915050565b6000612522826125f4565b915061252d836125f4565b92508261253d5761253c61274c565b5b828204905092915050565b6000612553826125f4565b915061255e836125f4565b9250828210156125715761257061271d565b5b828203905092915050565b6000612587826125d4565b9050919050565b60008115159050919050565b60007fffffffff0000000000000000000000000000000000000000000000000000000082169050919050565b600061ffff82169050919050565b600073ffffffffffffffffffffffffffffffffffffffff82169050919050565b6000819050919050565b82818337600083830152505050565b60005b8381101561262b578082015181840152602081019050612610565b8381111561263a576000848401525b50505050565b6000600282049050600182168061265857607f821691505b6020821081141561266c5761266b61277b565b5b50919050565b61267b826127d9565b810181811067ffffffffffffffff8211171561269a576126996127aa565b5b80604052505050565b60006126ae826125f4565b91507fffffffffffffffffffffffffffffffffffffffffffffffffffffffffffffffff8214156126e1576126e061271d565b5b600182019050919050565b60006126f7826125f4565b9150612702836125f4565b9250826127125761271161274c565b5b828206905092915050565b7f4e487b7100000000000000000000000000000000000000000000000000000000600052601160045260246000fd5b7f4e487b7100000000000000000000000000000000000000000000000000000000600052601260045260246000fd5b7f4e487b7100000000000000000000000000000000000000000000000000000000600052602260045260246000fd5b7f4e487b7100000000000000000000000000000000000000000000000000000000600052604160045260246000fd5b6000601f19601f8301169050919050565b7f4552433732313a207472616e7366657220746f206e6f6e20455243373231526560008201527f63656976657220696d706c656d656e7465720000000000000000000000000000602082015250565b7f4552433732313a20746f6b656e20616c7265616479206d696e74656400000000600082015250565b7f4552433732313a207472616e7366657220746f20746865207a65726f2061646460008201527f7265737300000000000000000000000000000000000000000000000000000000602082015250565b7f4552433732313a20617070726f766520746f2063616c6c657200000000000000600082015250565b7f4552433732313a206f70657261746f7220717565727920666f72206e6f6e657860008201527f697374656e7420746f6b656e0000000000000000000000000000000000000000602082015250565b7f4552433732313a20617070726f76652063616c6c6572206973206e6f74206f7760008201527f6e6572206e6f7220617070726f76656420666f7220616c6c0000000000000000602082015250565b7f4552433732313a2062616c616e636520717565727920666f7220746865207a6560008201527f726f206164647265737300000000000000000000000000000000000000000000602082015250565b7f4552433732313a206f776e657220717565727920666f72206e6f6e657869737460008201527f656e7420746f6b656e0000000000000000000000000000000000000000000000602082015250565b7f4552433732313a206d696e7420746f20746865207a65726f2061646472657373600082015250565b7f4552433732313a20617070726f76656420717565727920666f72206e6f6e657860008201527f697374656e7420746f6b656e0000000000000000000000000000000000000000602082015250565b7f4552433732313a207472616e73666572206f6620746f6b656e2074686174206960008201527f73206e6f74206f776e0000000000000000000000000000000000000000000000602082015250565b7f4f6e6c79207468652063726561746f7220697320616c6c6f77656420746f206360008201527f616c6c2074686973000000000000000000000000000000000000000000000000602082015250565b7f4552433732314d657461646174613a2055524920717565727920666f72206e6f60008201527f6e6578697374656e7420746f6b656e0000000000000000000000000000000000602082015250565b7f4552433732313a20617070726f76616c20746f2063757272656e74206f776e6560008201527f7200000000000000000000000000000000000000000000000000000000000000602082015250565b7f4552433732313a207472616e736665722063616c6c6572206973206e6f74206f60008201527f776e6572206e6f7220617070726f766564000000000000000000000000000000602082015250565b612c228161257c565b8114612c2d57600080fd5b50565b612c398161258e565b8114612c4457600080fd5b50565b612c508161259a565b8114612c5b57600080fd5b50565b612c67816125f4565b8114612c7257600080fd5b5056fea264697066735822122062dffeb272312f9957a2a54f6d21dbb8247ec95e6e58561d94c5c96568f0853f64736f6c63430008030033",
  "immutableReferences": {},
  "source": "// SPDX-License-Identifier: MIT\n\npragma solidity ^0.8.0;\n\nimport \"../../token/ERC721/ERC721.sol\";\nimport \"../../utils/Counters.sol\";\n\n/**\n * @title NFT representing a share of a finance product (term deposit, crowdunfing, investment etc.)\n * @author AshtonIzmev\n */\ncontract FP is ERC721 {\n    \n    using Counters for Counters.Counter;\n    Counters.Counter private _tokenIds;\n\n    uint16 public interestRate;\n    uint256 public maturity;\n\n    struct Product {\n        uint256 _subscriptionAmount;\n        uint256 _subscriptionDate;\n    }\n\n    mapping (uint256 => Product) private _subscriptions;\n\n    address public creator;\n\n    modifier onlyCreator() { \n        require(_msgSender() == creator, \"Only the creator is allowed to call this\");\n        _;\n    }\n\n    constructor(string memory name_, string memory symbol_, uint16 interestRate_, uint256 maturity_) \n        ERC721(name_, symbol_) {\n            creator = _msgSender();\n            interestRate = interestRate_;\n            maturity = maturity_;\n    }\n\n    function _baseURI() internal virtual view override returns (string memory) {\n        return \"https://curieux.ma/\";\n    }\n\n    function getSubAmount(uint256 tokenId) public virtual view returns (uint256) {\n        return _subscriptions[tokenId]._subscriptionAmount;\n    }\n\n    function getSubDate(uint256 tokenId) public virtual view returns (uint256) {\n        return _subscriptions[tokenId]._subscriptionDate;\n    }\n\n    function create(address buyer, uint256 amount, uint256 subscriptionDate) \n        public virtual onlyCreator {\n        _safeMint(buyer, _tokenIds.current());\n        _subscriptions[_tokenIds.current()] = Product(amount, subscriptionDate);\n        _tokenIds.increment();\n    }\n\n    function destroy(uint256 tokenId) public virtual onlyCreator {\n        _burn(tokenId);\n    }\n\n}",
  "sourcePath": "/home/issam/git/med-erc20/sol/truffle/contracts/token/nft/FP.sol",
  "compiler": {
    "name": "solc",
    "version": "0.8.3+commit.8d00100c.Emscripten.clang"
  },
  "schemaVersion": "3.2.4",
  "updatedAt": "2021-05-08T09:55:02.044Z",
  "devdoc": {
    "author": "AshtonIzmev",
    "kind": "dev",
    "methods": {
      "approve(address,uint256)": {
        "details": "See {IERC721-approve}."
      },
      "balanceOf(address)": {
        "details": "See {IERC721-balanceOf}."
      },
      "getApproved(uint256)": {
        "details": "See {IERC721-getApproved}."
      },
      "isApprovedForAll(address,address)": {
        "details": "See {IERC721-isApprovedForAll}."
      },
      "name()": {
        "details": "See {IERC721Metadata-name}."
      },
      "ownerOf(uint256)": {
        "details": "See {IERC721-ownerOf}."
      },
      "safeTransferFrom(address,address,uint256)": {
        "details": "See {IERC721-safeTransferFrom}."
      },
      "safeTransferFrom(address,address,uint256,bytes)": {
        "details": "See {IERC721-safeTransferFrom}."
      },
      "setApprovalForAll(address,bool)": {
        "details": "See {IERC721-setApprovalForAll}."
      },
      "supportsInterface(bytes4)": {
        "details": "See {IERC165-supportsInterface}."
      },
      "symbol()": {
        "details": "See {IERC721Metadata-symbol}."
      },
      "tokenURI(uint256)": {
        "details": "See {IERC721Metadata-tokenURI}."
      },
      "transferFrom(address,address,uint256)": {
        "details": "See {IERC721-transferFrom}."
      }
    },
    "title": "NFT representing a share of a finance product (term deposit, crowdunfing, investment etc.)",
    "version": 1
  },
  "userdoc": {
    "kind": "user",
    "methods": {},
    "version": 1
  }
}