{
  "contractName": "FP",
  "abi": [
    {
      "inputs": [
        {
          "internalType": "string",
          "name": "name_",
          "type": "string"
        },
        {
          "internalType": "string",
          "name": "symbol_",
          "type": "string"
        }
      ],
      "stateMutability": "nonpayable",
      "type": "constructor"
    },
    {
      "anonymous": false,
      "inputs": [
        {
          "indexed": true,
          "internalType": "address",
          "name": "owner",
          "type": "address"
        },
        {
          "indexed": true,
          "internalType": "address",
          "name": "approved",
          "type": "address"
        },
        {
          "indexed": true,
          "internalType": "uint256",
          "name": "tokenId",
          "type": "uint256"
        }
      ],
      "name": "Approval",
      "type": "event"
    },
    {
      "anonymous": false,
      "inputs": [
        {
          "indexed": true,
          "internalType": "address",
          "name": "owner",
          "type": "address"
        },
        {
          "indexed": true,
          "internalType": "address",
          "name": "operator",
          "type": "address"
        },
        {
          "indexed": false,
          "internalType": "bool",
          "name": "approved",
          "type": "bool"
        }
      ],
      "name": "ApprovalForAll",
      "type": "event"
    },
    {
      "anonymous": false,
      "inputs": [
        {
          "indexed": true,
          "internalType": "address",
          "name": "from",
          "type": "address"
        },
        {
          "indexed": true,
          "internalType": "address",
          "name": "to",
          "type": "address"
        },
        {
          "indexed": true,
          "internalType": "uint256",
          "name": "tokenId",
          "type": "uint256"
        }
      ],
      "name": "Transfer",
      "type": "event"
    },
    {
      "inputs": [
        {
          "internalType": "address",
          "name": "to",
          "type": "address"
        },
        {
          "internalType": "uint256",
          "name": "tokenId",
          "type": "uint256"
        }
      ],
      "name": "approve",
      "outputs": [],
      "stateMutability": "nonpayable",
      "type": "function"
    },
    {
      "inputs": [
        {
          "internalType": "address",
          "name": "owner",
          "type": "address"
        }
      ],
      "name": "balanceOf",
      "outputs": [
        {
          "internalType": "uint256",
          "name": "",
          "type": "uint256"
        }
      ],
      "stateMutability": "view",
      "type": "function"
    },
    {
      "inputs": [],
      "name": "creator",
      "outputs": [
        {
          "internalType": "address",
          "name": "",
          "type": "address"
        }
      ],
      "stateMutability": "view",
      "type": "function"
    },
    {
      "inputs": [
        {
          "internalType": "uint256",
          "name": "tokenId",
          "type": "uint256"
        }
      ],
      "name": "getApproved",
      "outputs": [
        {
          "internalType": "address",
          "name": "",
          "type": "address"
        }
      ],
      "stateMutability": "view",
      "type": "function"
    },
    {
      "inputs": [
        {
          "internalType": "address",
          "name": "owner",
          "type": "address"
        },
        {
          "internalType": "address",
          "name": "operator",
          "type": "address"
        }
      ],
      "name": "isApprovedForAll",
      "outputs": [
        {
          "internalType": "bool",
          "name": "",
          "type": "bool"
        }
      ],
      "stateMutability": "view",
      "type": "function"
    },
    {
      "inputs": [],
      "name": "name",
      "outputs": [
        {
          "internalType": "string",
          "name": "",
          "type": "string"
        }
      ],
      "stateMutability": "view",
      "type": "function"
    },
    {
      "inputs": [
        {
          "internalType": "uint256",
          "name": "tokenId",
          "type": "uint256"
        }
      ],
      "name": "ownerOf",
      "outputs": [
        {
          "internalType": "address",
          "name": "",
          "type": "address"
        }
      ],
      "stateMutability": "view",
      "type": "function"
    },
    {
      "inputs": [
        {
          "internalType": "address",
          "name": "from",
          "type": "address"
        },
        {
          "internalType": "address",
          "name": "to",
          "type": "address"
        },
        {
          "internalType": "uint256",
          "name": "tokenId",
          "type": "uint256"
        }
      ],
      "name": "safeTransferFrom",
      "outputs": [],
      "stateMutability": "nonpayable",
      "type": "function"
    },
    {
      "inputs": [
        {
          "internalType": "address",
          "name": "from",
          "type": "address"
        },
        {
          "internalType": "address",
          "name": "to",
          "type": "address"
        },
        {
          "internalType": "uint256",
          "name": "tokenId",
          "type": "uint256"
        },
        {
          "internalType": "bytes",
          "name": "_data",
          "type": "bytes"
        }
      ],
      "name": "safeTransferFrom",
      "outputs": [],
      "stateMutability": "nonpayable",
      "type": "function"
    },
    {
      "inputs": [
        {
          "internalType": "address",
          "name": "operator",
          "type": "address"
        },
        {
          "internalType": "bool",
          "name": "approved",
          "type": "bool"
        }
      ],
      "name": "setApprovalForAll",
      "outputs": [],
      "stateMutability": "nonpayable",
      "type": "function"
    },
    {
      "inputs": [
        {
          "internalType": "bytes4",
          "name": "interfaceId",
          "type": "bytes4"
        }
      ],
      "name": "supportsInterface",
      "outputs": [
        {
          "internalType": "bool",
          "name": "",
          "type": "bool"
        }
      ],
      "stateMutability": "view",
      "type": "function"
    },
    {
      "inputs": [],
      "name": "symbol",
      "outputs": [
        {
          "internalType": "string",
          "name": "",
          "type": "string"
        }
      ],
      "stateMutability": "view",
      "type": "function"
    },
    {
      "inputs": [
        {
          "internalType": "uint256",
          "name": "tokenId",
          "type": "uint256"
        }
      ],
      "name": "tokenURI",
      "outputs": [
        {
          "internalType": "string",
          "name": "",
          "type": "string"
        }
      ],
      "stateMutability": "view",
      "type": "function"
    },
    {
      "inputs": [
        {
          "internalType": "address",
          "name": "from",
          "type": "address"
        },
        {
          "internalType": "address",
          "name": "to",
          "type": "address"
        },
        {
          "internalType": "uint256",
          "name": "tokenId",
          "type": "uint256"
        }
      ],
      "name": "transferFrom",
      "outputs": [],
      "stateMutability": "nonpayable",
      "type": "function"
    },
    {
      "inputs": [
        {
          "internalType": "uint256",
          "name": "tokenId",
          "type": "uint256"
        }
      ],
      "name": "getKind",
      "outputs": [
        {
          "internalType": "uint16",
          "name": "",
          "type": "uint16"
        }
      ],
      "stateMutability": "view",
      "type": "function"
    },
    {
      "inputs": [
        {
          "internalType": "address",
          "name": "buyer",
          "type": "address"
        },
        {
          "internalType": "uint16",
          "name": "kind_",
          "type": "uint16"
        }
      ],
      "name": "create",
      "outputs": [
        {
          "internalType": "uint256",
          "name": "",
          "type": "uint256"
        }
      ],
      "stateMutability": "nonpayable",
      "type": "function"
    },
    {
      "inputs": [
        {
          "internalType": "uint256",
          "name": "tokenId",
          "type": "uint256"
        }
      ],
      "name": "destroy",
      "outputs": [],
      "stateMutability": "nonpayable",
      "type": "function"
    }
  ],
  "bytecode": "0x60806040523480156200001157600080fd5b5060405162002ffc38038062002ffc8339818101604052810190620000379190620001ef565b8181816000908051906020019062000051929190620000cd565b5080600190805190602001906200006a929190620000cd565b5050506200007d620000c560201b60201c565b600860006101000a81548173ffffffffffffffffffffffffffffffffffffffff021916908373ffffffffffffffffffffffffffffffffffffffff1602179055505050620003d2565b600033905090565b828054620000db90620002f7565b90600052602060002090601f016020900481019282620000ff57600085556200014b565b82601f106200011a57805160ff19168380011785556200014b565b828001600101855582156200014b579182015b828111156200014a5782518255916020019190600101906200012d565b5b5090506200015a91906200015e565b5090565b5b80821115620001795760008160009055506001016200015f565b5090565b6000620001946200018e846200028b565b62000262565b905082815260208101848484011115620001ad57600080fd5b620001ba848285620002c1565b509392505050565b600082601f830112620001d457600080fd5b8151620001e68482602086016200017d565b91505092915050565b600080604083850312156200020357600080fd5b600083015167ffffffffffffffff8111156200021e57600080fd5b6200022c85828601620001c2565b925050602083015167ffffffffffffffff8111156200024a57600080fd5b6200025885828601620001c2565b9150509250929050565b60006200026e62000281565b90506200027c82826200032d565b919050565b6000604051905090565b600067ffffffffffffffff821115620002a957620002a862000392565b5b620002b482620003c1565b9050602081019050919050565b60005b83811015620002e1578082015181840152602081019050620002c4565b83811115620002f1576000848401525b50505050565b600060028204905060018216806200031057607f821691505b6020821081141562000327576200032662000363565b5b50919050565b6200033882620003c1565b810181811067ffffffffffffffff821117156200035a576200035962000392565b5b80604052505050565b7f4e487b7100000000000000000000000000000000000000000000000000000000600052602260045260246000fd5b7f4e487b7100000000000000000000000000000000000000000000000000000000600052604160045260246000fd5b6000601f19601f8301169050919050565b612c1a80620003e26000396000f3fe608060405234801561001057600080fd5b506004361061010b5760003560e01c80636352211e116100a25780639d118770116100715780639d118770146102de578063a22cb465146102fa578063b88d4fde14610316578063c87b56dd14610332578063e985e9c5146103625761010b565b80636352211e146102305780636ca8fede1461026057806370a082311461029057806395d89b41146102c05761010b565b8063095ea7b3116100de578063095ea7b3146101ac57806323b872dd146101c857806342842e0e146101e45780635edfe0df146102005761010b565b806301ffc9a71461011057806302d05d3f1461014057806306fdde031461015e578063081812fc1461017c575b600080fd5b61012a60048036038101906101259190611d3b565b610392565b604051610137919061212d565b60405180910390f35b610148610474565b60405161015591906120c6565b60405180910390f35b61016661049a565b6040516101739190612148565b60405180910390f35b61019660048036038101906101919190611d8d565b61052c565b6040516101a391906120c6565b60405180910390f35b6101c660048036038101906101c19190611cff565b6105b1565b005b6101e260048036038101906101dd9190611bbd565b6106c9565b005b6101fe60048036038101906101f99190611bbd565b610729565b005b61021a60048036038101906102159190611cc3565b610749565b6040516102279190612365565b60405180910390f35b61024a60048036038101906102459190611d8d565b610848565b60405161025791906120c6565b60405180910390f35b61027a60048036038101906102759190611d8d565b6108fa565b604051610287919061234a565b60405180910390f35b6102aa60048036038101906102a59190611b58565b610925565b6040516102b79190612365565b60405180910390f35b6102c86109dd565b6040516102d59190612148565b60405180910390f35b6102f860048036038101906102f39190611d8d565b610a6f565b005b610314600480360381019061030f9190611c87565b610b12565b005b610330600480360381019061032b9190611c0c565b610c93565b005b61034c60048036038101906103479190611d8d565b610cf5565b6040516103599190612148565b60405180910390f35b61037c60048036038101906103779190611b81565b610d9c565b604051610389919061212d565b60405180910390f35b60007f80ac58cd000000000000000000000000000000000000000000000000000000007bffffffffffffffffffffffffffffffffffffffffffffffffffffffff1916827bffffffffffffffffffffffffffffffffffffffffffffffffffffffff1916148061045d57507f5b5e139f000000000000000000000000000000000000000000000000000000007bffffffffffffffffffffffffffffffffffffffffffffffffffffffff1916827bffffffffffffffffffffffffffffffffffffffffffffffffffffffff1916145b8061046d575061046c82610e30565b5b9050919050565b600860009054906101000a900473ffffffffffffffffffffffffffffffffffffffff1681565b6060600080546104a990612598565b80601f01602080910402602001604051908101604052809291908181526020018280546104d590612598565b80156105225780601f106104f757610100808354040283529160200191610522565b820191906000526020600020905b81548152906001019060200180831161050557829003601f168201915b5050505050905090565b600061053782610e9a565b610576576040517f08c379a000000000000000000000000000000000000000000000000000000000815260040161056d9061228a565b60405180910390fd5b6004600083815260200190815260200160002060009054906101000a900473ffffffffffffffffffffffffffffffffffffffff169050919050565b60006105bc82610848565b90508073ffffffffffffffffffffffffffffffffffffffff168373ffffffffffffffffffffffffffffffffffffffff16141561062d576040517f08c379a00000000000000000000000000000000000000000000000000000000081526004016106249061230a565b60405180910390fd5b8073ffffffffffffffffffffffffffffffffffffffff1661064c610f06565b73ffffffffffffffffffffffffffffffffffffffff16148061067b575061067a81610675610f06565b610d9c565b5b6106ba576040517f08c379a00000000000000000000000000000000000000000000000000000000081526004016106b19061220a565b60405180910390fd5b6106c48383610f0e565b505050565b6106da6106d4610f06565b82610fc7565b610719576040517f08c379a00000000000000000000000000000000000000000000000000000000081526004016107109061232a565b60405180910390fd5b6107248383836110a5565b505050565b61074483838360405180602001604052806000815250610c93565b505050565b6000600860009054906101000a900473ffffffffffffffffffffffffffffffffffffffff1673ffffffffffffffffffffffffffffffffffffffff1661078c610f06565b73ffffffffffffffffffffffffffffffffffffffff16146107e2576040517f08c379a00000000000000000000000000000000000000000000000000000000081526004016107d9906122ca565b60405180910390fd5b6107ec6006611301565b6107ff836107fa6006611317565b611325565b816007600061080e6006611317565b815260200190815260200160002060006101000a81548161ffff021916908361ffff1602179055506108406006611317565b905092915050565b6000806002600084815260200190815260200160002060009054906101000a900473ffffffffffffffffffffffffffffffffffffffff169050600073ffffffffffffffffffffffffffffffffffffffff168173ffffffffffffffffffffffffffffffffffffffff1614156108f1576040517f08c379a00000000000000000000000000000000000000000000000000000000081526004016108e89061224a565b60405180910390fd5b80915050919050565b60006007600083815260200190815260200160002060009054906101000a900461ffff169050919050565b60008073ffffffffffffffffffffffffffffffffffffffff168273ffffffffffffffffffffffffffffffffffffffff161415610996576040517f08c379a000000000000000000000000000000000000000000000000000000000815260040161098d9061222a565b60405180910390fd5b600360008373ffffffffffffffffffffffffffffffffffffffff1673ffffffffffffffffffffffffffffffffffffffff168152602001908152602001600020549050919050565b6060600180546109ec90612598565b80601f0160208091040260200160405190810160405280929190818152602001828054610a1890612598565b8015610a655780601f10610a3a57610100808354040283529160200191610a65565b820191906000526020600020905b815481529060010190602001808311610a4857829003601f168201915b5050505050905090565b600860009054906101000a900473ffffffffffffffffffffffffffffffffffffffff1673ffffffffffffffffffffffffffffffffffffffff16610ab0610f06565b73ffffffffffffffffffffffffffffffffffffffff1614610b06576040517f08c379a0000000000000000000000000000000000000000000000000000000008152600401610afd906122ca565b60405180910390fd5b610b0f81611343565b50565b610b1a610f06565b73ffffffffffffffffffffffffffffffffffffffff168273ffffffffffffffffffffffffffffffffffffffff161415610b88576040517f08c379a0000000000000000000000000000000000000000000000000000000008152600401610b7f906121ca565b60405180910390fd5b8060056000610b95610f06565b73ffffffffffffffffffffffffffffffffffffffff1673ffffffffffffffffffffffffffffffffffffffff16815260200190815260200160002060008473ffffffffffffffffffffffffffffffffffffffff1673ffffffffffffffffffffffffffffffffffffffff16815260200190815260200160002060006101000a81548160ff0219169083151502179055508173ffffffffffffffffffffffffffffffffffffffff16610c42610f06565b73ffffffffffffffffffffffffffffffffffffffff167f17307eab39ab6107e8899845ad3d59bd9653f200f220920489ca2b5937696c3183604051610c87919061212d565b60405180910390a35050565b610ca4610c9e610f06565b83610fc7565b610ce3576040517f08c379a0000000000000000000000000000000000000000000000000000000008152600401610cda9061232a565b60405180910390fd5b610cef84848484611454565b50505050565b6060610d0082610e9a565b610d3f576040517f08c379a0000000000000000000000000000000000000000000000000000000008152600401610d36906122ea565b60405180910390fd5b6000610d496114b0565b90506000815111610d695760405180602001604052806000815250610d94565b80610d73846114ed565b604051602001610d849291906120a2565b6040516020818303038152906040525b915050919050565b6000600560008473ffffffffffffffffffffffffffffffffffffffff1673ffffffffffffffffffffffffffffffffffffffff16815260200190815260200160002060008373ffffffffffffffffffffffffffffffffffffffff1673ffffffffffffffffffffffffffffffffffffffff16815260200190815260200160002060009054906101000a900460ff16905092915050565b60007f01ffc9a7000000000000000000000000000000000000000000000000000000007bffffffffffffffffffffffffffffffffffffffffffffffffffffffff1916827bffffffffffffffffffffffffffffffffffffffffffffffffffffffff1916149050919050565b60008073ffffffffffffffffffffffffffffffffffffffff166002600084815260200190815260200160002060009054906101000a900473ffffffffffffffffffffffffffffffffffffffff1673ffffffffffffffffffffffffffffffffffffffff1614159050919050565b600033905090565b816004600083815260200190815260200160002060006101000a81548173ffffffffffffffffffffffffffffffffffffffff021916908373ffffffffffffffffffffffffffffffffffffffff160217905550808273ffffffffffffffffffffffffffffffffffffffff16610f8183610848565b73ffffffffffffffffffffffffffffffffffffffff167f8c5be1e5ebec7d5bd14f71427d1e84f3dd0314c0f7b2291e5b200ac8c7c3b92560405160405180910390a45050565b6000610fd282610e9a565b611011576040517f08c379a0000000000000000000000000000000000000000000000000000000008152600401611008906121ea565b60405180910390fd5b600061101c83610848565b90508073ffffffffffffffffffffffffffffffffffffffff168473ffffffffffffffffffffffffffffffffffffffff16148061108b57508373ffffffffffffffffffffffffffffffffffffffff166110738461052c565b73ffffffffffffffffffffffffffffffffffffffff16145b8061109c575061109b8185610d9c565b5b91505092915050565b8273ffffffffffffffffffffffffffffffffffffffff166110c582610848565b73ffffffffffffffffffffffffffffffffffffffff161461111b576040517f08c379a0000000000000000000000000000000000000000000000000000000008152600401611112906122aa565b60405180910390fd5b600073ffffffffffffffffffffffffffffffffffffffff168273ffffffffffffffffffffffffffffffffffffffff16141561118b576040517f08c379a0000000000000000000000000000000000000000000000000000000008152600401611182906121aa565b60405180910390fd5b61119683838361169a565b6111a1600082610f0e565b6001600360008573ffffffffffffffffffffffffffffffffffffffff1673ffffffffffffffffffffffffffffffffffffffff16815260200190815260200160002060008282546111f191906124a0565b925050819055506001600360008473ffffffffffffffffffffffffffffffffffffffff1673ffffffffffffffffffffffffffffffffffffffff16815260200190815260200160002060008282546112489190612419565b92505081905550816002600083815260200190815260200160002060006101000a81548173ffffffffffffffffffffffffffffffffffffffff021916908373ffffffffffffffffffffffffffffffffffffffff160217905550808273ffffffffffffffffffffffffffffffffffffffff168473ffffffffffffffffffffffffffffffffffffffff167fddf252ad1be2c89b69c2b068fc378daa952ba7f163c4a11628f55a4df523b3ef60405160405180910390a4505050565b6001816000016000828254019250508190555050565b600081600001549050919050565b61133f82826040518060200160405280600081525061169f565b5050565b600061134e82610848565b905061135c8160008461169a565b611367600083610f0e565b6001600360008373ffffffffffffffffffffffffffffffffffffffff1673ffffffffffffffffffffffffffffffffffffffff16815260200190815260200160002060008282546113b791906124a0565b925050819055506002600083815260200190815260200160002060006101000a81549073ffffffffffffffffffffffffffffffffffffffff021916905581600073ffffffffffffffffffffffffffffffffffffffff168273ffffffffffffffffffffffffffffffffffffffff167fddf252ad1be2c89b69c2b068fc378daa952ba7f163c4a11628f55a4df523b3ef60405160405180910390a45050565b61145f8484846110a5565b61146b848484846116fa565b6114aa576040517f08c379a00000000000000000000000000000000000000000000000000000000081526004016114a19061216a565b60405180910390fd5b50505050565b60606040518060400160405280601381526020017f68747470733a2f2f637572696575782e6d612f00000000000000000000000000815250905090565b60606000821415611535576040518060400160405280600181526020017f30000000000000000000000000000000000000000000000000000000000000008152509050611695565b600082905060005b60008214611567578080611550906125fb565b915050600a82611560919061246f565b915061153d565b60008167ffffffffffffffff8111156115a9577f4e487b7100000000000000000000000000000000000000000000000000000000600052604160045260246000fd5b6040519080825280601f01601f1916602001820160405280156115db5781602001600182028036833780820191505090505b5090505b6000851461168e576001826115f491906124a0565b9150600a856116039190612644565b603061160f9190612419565b60f81b81838151811061164b577f4e487b7100000000000000000000000000000000000000000000000000000000600052603260045260246000fd5b60200101907effffffffffffffffffffffffffffffffffffffffffffffffffffffffffffff1916908160001a905350600a85611687919061246f565b94506115df565b8093505050505b919050565b505050565b6116a98383611891565b6116b660008484846116fa565b6116f5576040517f08c379a00000000000000000000000000000000000000000000000000000000081526004016116ec9061216a565b60405180910390fd5b505050565b600061171b8473ffffffffffffffffffffffffffffffffffffffff16611a5f565b15611884578373ffffffffffffffffffffffffffffffffffffffff1663150b7a02611744610f06565b8786866040518563ffffffff1660e01b815260040161176694939291906120e1565b602060405180830381600087803b15801561178057600080fd5b505af19250505080156117b157506040513d601f19601f820116820180604052508101906117ae9190611d64565b60015b611834573d80600081146117e1576040519150601f19603f3d011682016040523d82523d6000602084013e6117e6565b606091505b5060008151141561182c576040517f08c379a00000000000000000000000000000000000000000000000000000000081526004016118239061216a565b60405180910390fd5b805181602001fd5b63150b7a0260e01b7bffffffffffffffffffffffffffffffffffffffffffffffffffffffff1916817bffffffffffffffffffffffffffffffffffffffffffffffffffffffff191614915050611889565b600190505b949350505050565b600073ffffffffffffffffffffffffffffffffffffffff168273ffffffffffffffffffffffffffffffffffffffff161415611901576040517f08c379a00000000000000000000000000000000000000000000000000000000081526004016118f89061226a565b60405180910390fd5b61190a81610e9a565b1561194a576040517f08c379a00000000000000000000000000000000000000000000000000000000081526004016119419061218a565b60405180910390fd5b6119566000838361169a565b6001600360008473ffffffffffffffffffffffffffffffffffffffff1673ffffffffffffffffffffffffffffffffffffffff16815260200190815260200160002060008282546119a69190612419565b92505081905550816002600083815260200190815260200160002060006101000a81548173ffffffffffffffffffffffffffffffffffffffff021916908373ffffffffffffffffffffffffffffffffffffffff160217905550808273ffffffffffffffffffffffffffffffffffffffff16600073ffffffffffffffffffffffffffffffffffffffff167fddf252ad1be2c89b69c2b068fc378daa952ba7f163c4a11628f55a4df523b3ef60405160405180910390a45050565b600080823b905060008111915050919050565b6000611a85611a80846123a5565b612380565b905082815260208101848484011115611a9d57600080fd5b611aa8848285612556565b509392505050565b600081359050611abf81612b71565b92915050565b600081359050611ad481612b88565b92915050565b600081359050611ae981612b9f565b92915050565b600081519050611afe81612b9f565b92915050565b600082601f830112611b1557600080fd5b8135611b25848260208601611a72565b91505092915050565b600081359050611b3d81612bb6565b92915050565b600081359050611b5281612bcd565b92915050565b600060208284031215611b6a57600080fd5b6000611b7884828501611ab0565b91505092915050565b60008060408385031215611b9457600080fd5b6000611ba285828601611ab0565b9250506020611bb385828601611ab0565b9150509250929050565b600080600060608486031215611bd257600080fd5b6000611be086828701611ab0565b9350506020611bf186828701611ab0565b9250506040611c0286828701611b43565b9150509250925092565b60008060008060808587031215611c2257600080fd5b6000611c3087828801611ab0565b9450506020611c4187828801611ab0565b9350506040611c5287828801611b43565b925050606085013567ffffffffffffffff811115611c6f57600080fd5b611c7b87828801611b04565b91505092959194509250565b60008060408385031215611c9a57600080fd5b6000611ca885828601611ab0565b9250506020611cb985828601611ac5565b9150509250929050565b60008060408385031215611cd657600080fd5b6000611ce485828601611ab0565b9250506020611cf585828601611b2e565b9150509250929050565b60008060408385031215611d1257600080fd5b6000611d2085828601611ab0565b9250506020611d3185828601611b43565b9150509250929050565b600060208284031215611d4d57600080fd5b6000611d5b84828501611ada565b91505092915050565b600060208284031215611d7657600080fd5b6000611d8484828501611aef565b91505092915050565b600060208284031215611d9f57600080fd5b6000611dad84828501611b43565b91505092915050565b611dbf816124d4565b82525050565b611dce816124e6565b82525050565b6000611ddf826123d6565b611de981856123ec565b9350611df9818560208601612565565b611e0281612731565b840191505092915050565b6000611e18826123e1565b611e2281856123fd565b9350611e32818560208601612565565b611e3b81612731565b840191505092915050565b6000611e51826123e1565b611e5b818561240e565b9350611e6b818560208601612565565b80840191505092915050565b6000611e846032836123fd565b9150611e8f82612742565b604082019050919050565b6000611ea7601c836123fd565b9150611eb282612791565b602082019050919050565b6000611eca6024836123fd565b9150611ed5826127ba565b604082019050919050565b6000611eed6019836123fd565b9150611ef882612809565b602082019050919050565b6000611f10602c836123fd565b9150611f1b82612832565b604082019050919050565b6000611f336038836123fd565b9150611f3e82612881565b604082019050919050565b6000611f56602a836123fd565b9150611f61826128d0565b604082019050919050565b6000611f796029836123fd565b9150611f848261291f565b604082019050919050565b6000611f9c6020836123fd565b9150611fa78261296e565b602082019050919050565b6000611fbf602c836123fd565b9150611fca82612997565b604082019050919050565b6000611fe26029836123fd565b9150611fed826129e6565b604082019050919050565b60006120056028836123fd565b915061201082612a35565b604082019050919050565b6000612028602f836123fd565b915061203382612a84565b604082019050919050565b600061204b6021836123fd565b915061205682612ad3565b604082019050919050565b600061206e6031836123fd565b915061207982612b22565b604082019050919050565b61208d8161251e565b82525050565b61209c8161254c565b82525050565b60006120ae8285611e46565b91506120ba8284611e46565b91508190509392505050565b60006020820190506120db6000830184611db6565b92915050565b60006080820190506120f66000830187611db6565b6121036020830186611db6565b6121106040830185612093565b81810360608301526121228184611dd4565b905095945050505050565b60006020820190506121426000830184611dc5565b92915050565b600060208201905081810360008301526121628184611e0d565b905092915050565b6000602082019050818103600083015261218381611e77565b9050919050565b600060208201905081810360008301526121a381611e9a565b9050919050565b600060208201905081810360008301526121c381611ebd565b9050919050565b600060208201905081810360008301526121e381611ee0565b9050919050565b6000602082019050818103600083015261220381611f03565b9050919050565b6000602082019050818103600083015261222381611f26565b9050919050565b6000602082019050818103600083015261224381611f49565b9050919050565b6000602082019050818103600083015261226381611f6c565b9050919050565b6000602082019050818103600083015261228381611f8f565b9050919050565b600060208201905081810360008301526122a381611fb2565b9050919050565b600060208201905081810360008301526122c381611fd5565b9050919050565b600060208201905081810360008301526122e381611ff8565b9050919050565b600060208201905081810360008301526123038161201b565b9050919050565b600060208201905081810360008301526123238161203e565b9050919050565b6000602082019050818103600083015261234381612061565b9050919050565b600060208201905061235f6000830184612084565b92915050565b600060208201905061237a6000830184612093565b92915050565b600061238a61239b565b905061239682826125ca565b919050565b6000604051905090565b600067ffffffffffffffff8211156123c0576123bf612702565b5b6123c982612731565b9050602081019050919050565b600081519050919050565b600081519050919050565b600082825260208201905092915050565b600082825260208201905092915050565b600081905092915050565b60006124248261254c565b915061242f8361254c565b9250827fffffffffffffffffffffffffffffffffffffffffffffffffffffffffffffffff0382111561246457612463612675565b5b828201905092915050565b600061247a8261254c565b91506124858361254c565b925082612495576124946126a4565b5b828204905092915050565b60006124ab8261254c565b91506124b68361254c565b9250828210156124c9576124c8612675565b5b828203905092915050565b60006124df8261252c565b9050919050565b60008115159050919050565b60007fffffffff0000000000000000000000000000000000000000000000000000000082169050919050565b600061ffff82169050919050565b600073ffffffffffffffffffffffffffffffffffffffff82169050919050565b6000819050919050565b82818337600083830152505050565b60005b83811015612583578082015181840152602081019050612568565b83811115612592576000848401525b50505050565b600060028204905060018216806125b057607f821691505b602082108114156125c4576125c36126d3565b5b50919050565b6125d382612731565b810181811067ffffffffffffffff821117156125f2576125f1612702565b5b80604052505050565b60006126068261254c565b91507fffffffffffffffffffffffffffffffffffffffffffffffffffffffffffffffff82141561263957612638612675565b5b600182019050919050565b600061264f8261254c565b915061265a8361254c565b92508261266a576126696126a4565b5b828206905092915050565b7f4e487b7100000000000000000000000000000000000000000000000000000000600052601160045260246000fd5b7f4e487b7100000000000000000000000000000000000000000000000000000000600052601260045260246000fd5b7f4e487b7100000000000000000000000000000000000000000000000000000000600052602260045260246000fd5b7f4e487b7100000000000000000000000000000000000000000000000000000000600052604160045260246000fd5b6000601f19601f8301169050919050565b7f4552433732313a207472616e7366657220746f206e6f6e20455243373231526560008201527f63656976657220696d706c656d656e7465720000000000000000000000000000602082015250565b7f4552433732313a20746f6b656e20616c7265616479206d696e74656400000000600082015250565b7f4552433732313a207472616e7366657220746f20746865207a65726f2061646460008201527f7265737300000000000000000000000000000000000000000000000000000000602082015250565b7f4552433732313a20617070726f766520746f2063616c6c657200000000000000600082015250565b7f4552433732313a206f70657261746f7220717565727920666f72206e6f6e657860008201527f697374656e7420746f6b656e0000000000000000000000000000000000000000602082015250565b7f4552433732313a20617070726f76652063616c6c6572206973206e6f74206f7760008201527f6e6572206e6f7220617070726f76656420666f7220616c6c0000000000000000602082015250565b7f4552433732313a2062616c616e636520717565727920666f7220746865207a6560008201527f726f206164647265737300000000000000000000000000000000000000000000602082015250565b7f4552433732313a206f776e657220717565727920666f72206e6f6e657869737460008201527f656e7420746f6b656e0000000000000000000000000000000000000000000000602082015250565b7f4552433732313a206d696e7420746f20746865207a65726f2061646472657373600082015250565b7f4552433732313a20617070726f76656420717565727920666f72206e6f6e657860008201527f697374656e7420746f6b656e0000000000000000000000000000000000000000602082015250565b7f4552433732313a207472616e73666572206f6620746f6b656e2074686174206960008201527f73206e6f74206f776e0000000000000000000000000000000000000000000000602082015250565b7f4f6e6c79207468652063726561746f7220697320616c6c6f77656420746f206360008201527f616c6c2074686973000000000000000000000000000000000000000000000000602082015250565b7f4552433732314d657461646174613a2055524920717565727920666f72206e6f60008201527f6e6578697374656e7420746f6b656e0000000000000000000000000000000000602082015250565b7f4552433732313a20617070726f76616c20746f2063757272656e74206f776e6560008201527f7200000000000000000000000000000000000000000000000000000000000000602082015250565b7f4552433732313a207472616e736665722063616c6c6572206973206e6f74206f60008201527f776e6572206e6f7220617070726f766564000000000000000000000000000000602082015250565b612b7a816124d4565b8114612b8557600080fd5b50565b612b91816124e6565b8114612b9c57600080fd5b50565b612ba8816124f2565b8114612bb357600080fd5b50565b612bbf8161251e565b8114612bca57600080fd5b50565b612bd68161254c565b8114612be157600080fd5b5056fea26469706673582212205406bc606ae5d58b0ba6ff8177226e1819b922e253aee82c064fda245f9939e864736f6c63430008030033",
  "immutableReferences": {},
  "source": "// SPDX-License-Identifier: MIT\n\npragma solidity ^0.8.0;\n\nimport \"../../token/ERC721/ERC721.sol\";\nimport \"../../utils/Counters.sol\";\n\n/**\n * @title NFT representing a share of a finance product (term deposit, crowdunfing, investment etc.)\n * @author AshtonIzmev\n */\ncontract FP is ERC721 {\n    \n    using Counters for Counters.Counter;\n    Counters.Counter private _tokenIds;\n\n    // 0 is DAT (term deposit)\n    // 1 is Crowdfunding\n    // 2 is Mudaraba\n    // Not using enum because list may grow (is there a better way ?)\n    mapping (uint256 => uint16) private _subscriptionKinds;\n\n    address public creator;\n\n    modifier onlyCreator() { \n        require(_msgSender() == creator, \"Only the creator is allowed to call this\");\n        _;\n    }\n\n    constructor(string memory name_, string memory symbol_) \n        ERC721(name_, symbol_) {\n            creator = _msgSender();\n    }\n\n    function _baseURI() internal virtual view override returns (string memory) {\n        return \"https://curieux.ma/\";\n    }\n\n    function getKind(uint256 tokenId) public virtual view returns (uint16) {\n        return _subscriptionKinds[tokenId];\n    }\n\n    function create(address buyer, uint16 kind_) \n        public virtual onlyCreator returns (uint256) {\n        _tokenIds.increment();\n        _safeMint(buyer, _tokenIds.current());\n        _subscriptionKinds[_tokenIds.current()] = kind_;\n        return _tokenIds.current();\n    }\n\n    function destroy(uint256 tokenId) public virtual onlyCreator {\n        _burn(tokenId);\n    }\n\n}",
  "sourcePath": "/home/issam/git/med-erc20/sol/truffle/contracts/token/nft/FP.sol",
  "compiler": {
    "name": "solc",
    "version": "0.8.3+commit.8d00100c.Emscripten.clang"
  },
  "schemaVersion": "3.2.4",
  "updatedAt": "2021-05-08T12:24:56.579Z",
  "devdoc": {
    "author": "AshtonIzmev",
    "kind": "dev",
    "methods": {
      "approve(address,uint256)": {
        "details": "See {IERC721-approve}."
      },
      "balanceOf(address)": {
        "details": "See {IERC721-balanceOf}."
      },
      "getApproved(uint256)": {
        "details": "See {IERC721-getApproved}."
      },
      "isApprovedForAll(address,address)": {
        "details": "See {IERC721-isApprovedForAll}."
      },
      "name()": {
        "details": "See {IERC721Metadata-name}."
      },
      "ownerOf(uint256)": {
        "details": "See {IERC721-ownerOf}."
      },
      "safeTransferFrom(address,address,uint256)": {
        "details": "See {IERC721-safeTransferFrom}."
      },
      "safeTransferFrom(address,address,uint256,bytes)": {
        "details": "See {IERC721-safeTransferFrom}."
      },
      "setApprovalForAll(address,bool)": {
        "details": "See {IERC721-setApprovalForAll}."
      },
      "supportsInterface(bytes4)": {
        "details": "See {IERC165-supportsInterface}."
      },
      "symbol()": {
        "details": "See {IERC721Metadata-symbol}."
      },
      "tokenURI(uint256)": {
        "details": "See {IERC721Metadata-tokenURI}."
      },
      "transferFrom(address,address,uint256)": {
        "details": "See {IERC721-transferFrom}."
      }
    },
    "title": "NFT representing a share of a finance product (term deposit, crowdunfing, investment etc.)",
    "version": 1
  },
  "userdoc": {
    "kind": "user",
    "methods": {},
    "version": 1
  }
}