{
  "contractName": "Marketplace",
  "abi": [
    {
      "inputs": [
        {
          "internalType": "uint256",
          "name": "sellFee_",
          "type": "uint256"
        },
        {
          "internalType": "uint256",
          "name": "withdrawFee_",
          "type": "uint256"
        },
        {
          "internalType": "address",
          "name": "medToken_",
          "type": "address"
        },
        {
          "internalType": "address",
          "name": "fpToken_",
          "type": "address"
        }
      ],
      "stateMutability": "nonpayable",
      "type": "constructor"
    },
    {
      "inputs": [],
      "name": "fpToken",
      "outputs": [
        {
          "internalType": "contract FP",
          "name": "",
          "type": "address"
        }
      ],
      "stateMutability": "view",
      "type": "function"
    },
    {
      "inputs": [],
      "name": "medToken",
      "outputs": [
        {
          "internalType": "contract MED",
          "name": "",
          "type": "address"
        }
      ],
      "stateMutability": "view",
      "type": "function"
    },
    {
      "inputs": [],
      "name": "sellFee",
      "outputs": [
        {
          "internalType": "uint256",
          "name": "",
          "type": "uint256"
        }
      ],
      "stateMutability": "view",
      "type": "function"
    },
    {
      "inputs": [],
      "name": "totalFees",
      "outputs": [
        {
          "internalType": "uint256",
          "name": "",
          "type": "uint256"
        }
      ],
      "stateMutability": "view",
      "type": "function"
    },
    {
      "inputs": [],
      "name": "withdrawFee",
      "outputs": [
        {
          "internalType": "uint256",
          "name": "",
          "type": "uint256"
        }
      ],
      "stateMutability": "view",
      "type": "function"
    },
    {
      "inputs": [
        {
          "internalType": "uint256",
          "name": "tokenId_",
          "type": "uint256"
        },
        {
          "internalType": "uint256",
          "name": "price_",
          "type": "uint256"
        }
      ],
      "name": "sell",
      "outputs": [],
      "stateMutability": "nonpayable",
      "type": "function"
    },
    {
      "inputs": [
        {
          "internalType": "uint256",
          "name": "tokenId_",
          "type": "uint256"
        }
      ],
      "name": "withdraw",
      "outputs": [],
      "stateMutability": "nonpayable",
      "type": "function"
    },
    {
      "inputs": [
        {
          "internalType": "uint256",
          "name": "tokenId_",
          "type": "uint256"
        }
      ],
      "name": "buy",
      "outputs": [],
      "stateMutability": "nonpayable",
      "type": "function"
    },
    {
      "inputs": [],
      "name": "withdrawProfit",
      "outputs": [],
      "stateMutability": "nonpayable",
      "type": "function"
    },
    {
      "inputs": [
        {
          "internalType": "uint256",
          "name": "tokenId",
          "type": "uint256"
        }
      ],
      "name": "isToSell",
      "outputs": [
        {
          "internalType": "bool",
          "name": "",
          "type": "bool"
        }
      ],
      "stateMutability": "view",
      "type": "function"
    },
    {
      "inputs": [
        {
          "internalType": "uint256",
          "name": "idx",
          "type": "uint256"
        }
      ],
      "name": "getTokenIdOffer",
      "outputs": [
        {
          "internalType": "uint256",
          "name": "",
          "type": "uint256"
        }
      ],
      "stateMutability": "view",
      "type": "function"
    },
    {
      "inputs": [],
      "name": "getOfferLength",
      "outputs": [
        {
          "internalType": "uint256",
          "name": "",
          "type": "uint256"
        }
      ],
      "stateMutability": "view",
      "type": "function"
    },
    {
      "inputs": [
        {
          "internalType": "address",
          "name": "",
          "type": "address"
        },
        {
          "internalType": "address",
          "name": "",
          "type": "address"
        },
        {
          "internalType": "uint256",
          "name": "",
          "type": "uint256"
        },
        {
          "internalType": "bytes",
          "name": "",
          "type": "bytes"
        }
      ],
      "name": "onERC721Received",
      "outputs": [
        {
          "internalType": "bytes4",
          "name": "",
          "type": "bytes4"
        }
      ],
      "stateMutability": "pure",
      "type": "function"
    }
  ],
  "bytecode": "0x60806040523480156200001157600080fd5b5060405162001fb738038062001fb7833981810160405281019062000037919062000156565b620000476200012060201b60201c565b600260006101000a81548173ffffffffffffffffffffffffffffffffffffffff021916908373ffffffffffffffffffffffffffffffffffffffff16021790555080600160006101000a81548173ffffffffffffffffffffffffffffffffffffffff021916908373ffffffffffffffffffffffffffffffffffffffff160217905550816000806101000a81548173ffffffffffffffffffffffffffffffffffffffff021916908373ffffffffffffffffffffffffffffffffffffffff16021790555083600381905550826004819055505050505062000234565b600033905090565b600081519050620001398162000200565b92915050565b60008151905062000150816200021a565b92915050565b600080600080608085870312156200016d57600080fd5b60006200017d878288016200013f565b945050602062000190878288016200013f565b9350506040620001a38782880162000128565b9250506060620001b68782880162000128565b91505092959194509250565b6000620001cf82620001d6565b9050919050565b600073ffffffffffffffffffffffffffffffffffffffff82169050919050565b6000819050919050565b6200020b81620001c2565b81146200021757600080fd5b50565b6200022581620001f6565b81146200023157600080fd5b50565b611d7380620002446000396000f3fe608060405234801561001057600080fd5b50600436106100cf5760003560e01c80637b3457d51161008c578063d4ef855411610066578063d4ef855414610202578063d79875eb14610220578063d96a094a1461023c578063e941fa7814610258576100cf565b80637b3457d5146101aa578063959499b6146101c8578063d403d4b9146101d2576100cf565b80630bd64455146100d457806313114a9d146100f2578063150b7a021461011057806317fedbc2146101405780632b14ca56146101705780632e1a7d4d1461018e575b600080fd5b6100dc610276565b6040516100e99190611905565b60405180910390f35b6100fa610287565b6040516101079190611905565b60405180910390f35b61012a60048036038101906101259190611467565b61028d565b60405161013791906117b4565b60405180910390f35b61015a60048036038101906101559190611510565b6102a2565b6040516101679190611799565b60405180910390f35b6101786102bf565b6040516101859190611905565b60405180910390f35b6101a860048036038101906101a39190611510565b6102c5565b005b6101b2610689565b6040516101bf91906117cf565b60405180910390f35b6101d06106af565b005b6101ec60048036038101906101e79190611510565b610822565b6040516101f99190611905565b60405180910390f35b61020a61088a565b60405161021791906117ea565b60405180910390f35b61023a60048036038101906102359190611562565b6108ae565b005b61025660048036038101906102519190611510565b610c73565b005b610260611085565b60405161026d9190611905565b60405180910390f35b6000610282600761108b565b905090565b60055481565b600063150b7a0260e01b905095945050505050565b60006102b88260076110a090919063ffffffff16565b9050919050565b60035481565b6102d98160076110a090919063ffffffff16565b610318576040517f08c379a000000000000000000000000000000000000000000000000000000000815260040161030f90611865565b60405180910390fd5b6000600660008381526020019081526020016000206040518060400160405290816000820160009054906101000a900473ffffffffffffffffffffffffffffffffffffffff1673ffffffffffffffffffffffffffffffffffffffff1673ffffffffffffffffffffffffffffffffffffffff16815260200160018201548152505090506103a26110ba565b73ffffffffffffffffffffffffffffffffffffffff16816000015173ffffffffffffffffffffffffffffffffffffffff1614610413576040517f08c379a000000000000000000000000000000000000000000000000000000000815260040161040a906118e5565b60405180910390fd5b60045460008054906101000a900473ffffffffffffffffffffffffffffffffffffffff1673ffffffffffffffffffffffffffffffffffffffff1663dd62ed3e61045a6110ba565b306040518363ffffffff1660e01b8152600401610478929190611710565b60206040518083038186803b15801561049057600080fd5b505afa1580156104a4573d6000803e3d6000fd5b505050506040513d601f19601f820116820180604052508101906104c89190611539565b1015610509576040517f08c379a0000000000000000000000000000000000000000000000000000000008152600401610500906118a5565b60405180910390fd5b60008054906101000a900473ffffffffffffffffffffffffffffffffffffffff1673ffffffffffffffffffffffffffffffffffffffff166323b872dd61054d6110ba565b306004546040518463ffffffff1660e01b815260040161056f93929190611739565b602060405180830381600087803b15801561058957600080fd5b505af115801561059d573d6000803e3d6000fd5b505050506040513d601f19601f820116820180604052508101906105c191906114e7565b50600160009054906101000a900473ffffffffffffffffffffffffffffffffffffffff1673ffffffffffffffffffffffffffffffffffffffff166342842e0e306106096110ba565b856040518463ffffffff1660e01b815260040161062893929190611739565b600060405180830381600087803b15801561064257600080fd5b505af1158015610656573d6000803e3d6000fd5b5050505061066e8260076110c290919063ffffffff16565b5060045460055461067f9190611931565b6005819055505050565b600160009054906101000a900473ffffffffffffffffffffffffffffffffffffffff1681565b600260009054906101000a900473ffffffffffffffffffffffffffffffffffffffff1673ffffffffffffffffffffffffffffffffffffffff166106f06110ba565b73ffffffffffffffffffffffffffffffffffffffff1614610746576040517f08c379a000000000000000000000000000000000000000000000000000000000815260040161073d906118c5565b60405180910390fd5b60008054906101000a900473ffffffffffffffffffffffffffffffffffffffff1673ffffffffffffffffffffffffffffffffffffffff1663a9059cbb600260009054906101000a900473ffffffffffffffffffffffffffffffffffffffff166005546040518363ffffffff1660e01b81526004016107c5929190611770565b602060405180830381600087803b1580156107df57600080fd5b505af11580156107f3573d6000803e3d6000fd5b505050506040513d601f19601f8201168201806040525081019061081791906114e7565b506000600581905550565b600061082e600761108b565b821061086f576040517f08c379a000000000000000000000000000000000000000000000000000000000815260040161086690611805565b60405180910390fd5b6108838260076110dc90919063ffffffff16565b9050919050565b60008054906101000a900473ffffffffffffffffffffffffffffffffffffffff1681565b6108b66110ba565b73ffffffffffffffffffffffffffffffffffffffff16600160009054906101000a900473ffffffffffffffffffffffffffffffffffffffff1673ffffffffffffffffffffffffffffffffffffffff16636352211e846040518263ffffffff1660e01b81526004016109279190611905565b60206040518083038186803b15801561093f57600080fd5b505afa158015610953573d6000803e3d6000fd5b505050506040513d601f19601f82011682018060405250810190610977919061143e565b73ffffffffffffffffffffffffffffffffffffffff16146109cd576040517f08c379a00000000000000000000000000000000000000000000000000000000081526004016109c4906118e5565b60405180910390fd5b6003548111610a11576040517f08c379a0000000000000000000000000000000000000000000000000000000008152600401610a0890611825565b60405180910390fd5b3073ffffffffffffffffffffffffffffffffffffffff16600160009054906101000a900473ffffffffffffffffffffffffffffffffffffffff1673ffffffffffffffffffffffffffffffffffffffff1663081812fc846040518263ffffffff1660e01b8152600401610a839190611905565b60206040518083038186803b158015610a9b57600080fd5b505afa158015610aaf573d6000803e3d6000fd5b505050506040513d601f19601f82011682018060405250810190610ad3919061143e565b73ffffffffffffffffffffffffffffffffffffffff1614610b29576040517f08c379a0000000000000000000000000000000000000000000000000000000008152600401610b2090611845565b60405180910390fd5b600160009054906101000a900473ffffffffffffffffffffffffffffffffffffffff1673ffffffffffffffffffffffffffffffffffffffff166342842e0e610b6f6110ba565b30856040518463ffffffff1660e01b8152600401610b8f93929190611739565b600060405180830381600087803b158015610ba957600080fd5b505af1158015610bbd573d6000803e3d6000fd5b50505050610bd58260076110f690919063ffffffff16565b506040518060400160405280610be96110ba565b73ffffffffffffffffffffffffffffffffffffffff168152602001828152506006600084815260200190815260200160002060008201518160000160006101000a81548173ffffffffffffffffffffffffffffffffffffffff021916908373ffffffffffffffffffffffffffffffffffffffff160217905550602082015181600101559050505050565b610c878160076110a090919063ffffffff16565b610cc6576040517f08c379a0000000000000000000000000000000000000000000000000000000008152600401610cbd90611865565b60405180910390fd5b6000600660008381526020019081526020016000206040518060400160405290816000820160009054906101000a900473ffffffffffffffffffffffffffffffffffffffff1673ffffffffffffffffffffffffffffffffffffffff1673ffffffffffffffffffffffffffffffffffffffff1681526020016001820154815250509050806020015160008054906101000a900473ffffffffffffffffffffffffffffffffffffffff1673ffffffffffffffffffffffffffffffffffffffff1663dd62ed3e610d916110ba565b306040518363ffffffff1660e01b8152600401610daf929190611710565b60206040518083038186803b158015610dc757600080fd5b505afa158015610ddb573d6000803e3d6000fd5b505050506040513d601f19601f82011682018060405250810190610dff9190611539565b1015610e40576040517f08c379a0000000000000000000000000000000000000000000000000000000008152600401610e3790611885565b60405180910390fd5b60008054906101000a900473ffffffffffffffffffffffffffffffffffffffff1673ffffffffffffffffffffffffffffffffffffffff166323b872dd610e846110ba565b3084602001516040518463ffffffff1660e01b8152600401610ea893929190611739565b602060405180830381600087803b158015610ec257600080fd5b505af1158015610ed6573d6000803e3d6000fd5b505050506040513d601f19601f82011682018060405250810190610efa91906114e7565b5060008054906101000a900473ffffffffffffffffffffffffffffffffffffffff1673ffffffffffffffffffffffffffffffffffffffff1663a9059cbb82600001516003548460200151610f4e9190611987565b6040518363ffffffff1660e01b8152600401610f6b929190611770565b602060405180830381600087803b158015610f8557600080fd5b505af1158015610f99573d6000803e3d6000fd5b505050506040513d601f19601f82011682018060405250810190610fbd91906114e7565b50600160009054906101000a900473ffffffffffffffffffffffffffffffffffffffff1673ffffffffffffffffffffffffffffffffffffffff166342842e0e306110056110ba565b856040518463ffffffff1660e01b815260040161102493929190611739565b600060405180830381600087803b15801561103e57600080fd5b505af1158015611052573d6000803e3d6000fd5b5050505061106a8260076110c290919063ffffffff16565b5060035460055461107b9190611931565b6005819055505050565b60045481565b600061109982600001611110565b9050919050565b60006110b2836000018360001b611121565b905092915050565b600033905090565b60006110d4836000018360001b611144565b905092915050565b60006110eb83600001836112ca565b60001c905092915050565b6000611108836000018360001b61131b565b905092915050565b600081600001805490509050919050565b600080836001016000848152602001908152602001600020541415905092915050565b600080836001016000848152602001908152602001600020549050600081146112be5760006001826111769190611987565b905060006001866000018054905061118e9190611987565b90508181146112495760008660000182815481106111d5577f4e487b7100000000000000000000000000000000000000000000000000000000600052603260045260246000fd5b906000526020600020015490508087600001848154811061121f577f4e487b7100000000000000000000000000000000000000000000000000000000600052603260045260246000fd5b90600052602060002001819055508387600101600083815260200190815260200160002081905550505b85600001805480611283577f4e487b7100000000000000000000000000000000000000000000000000000000600052603160045260246000fd5b6001900381819060005260206000200160009055905585600101600086815260200190815260200160002060009055600193505050506112c4565b60009150505b92915050565b6000826000018281548110611308577f4e487b7100000000000000000000000000000000000000000000000000000000600052603260045260246000fd5b9060005260206000200154905092915050565b60006113278383611121565b611380578260000182908060018154018082558091505060019003906000526020600020016000909190919091505582600001805490508360010160008481526020019081526020016000208190555060019050611385565b600090505b92915050565b60008135905061139a81611cf8565b92915050565b6000815190506113af81611cf8565b92915050565b6000815190506113c481611d0f565b92915050565b60008083601f8401126113dc57600080fd5b8235905067ffffffffffffffff8111156113f557600080fd5b60208301915083600182028301111561140d57600080fd5b9250929050565b60008135905061142381611d26565b92915050565b60008151905061143881611d26565b92915050565b60006020828403121561145057600080fd5b600061145e848285016113a0565b91505092915050565b60008060008060006080868803121561147f57600080fd5b600061148d8882890161138b565b955050602061149e8882890161138b565b94505060406114af88828901611414565b935050606086013567ffffffffffffffff8111156114cc57600080fd5b6114d8888289016113ca565b92509250509295509295909350565b6000602082840312156114f957600080fd5b6000611507848285016113b5565b91505092915050565b60006020828403121561152257600080fd5b600061153084828501611414565b91505092915050565b60006020828403121561154b57600080fd5b600061155984828501611429565b91505092915050565b6000806040838503121561157557600080fd5b600061158385828601611414565b925050602061159485828601611414565b9150509250929050565b6115a7816119bb565b82525050565b6115b6816119cd565b82525050565b6115c5816119d9565b82525050565b6115d481611a2f565b82525050565b6115e381611a53565b82525050565b60006115f6600c83611920565b915061160182611aa6565b602082019050919050565b6000611619603783611920565b915061162482611acf565b604082019050919050565b600061163c603383611920565b915061164782611b1e565b604082019050919050565b600061165f601a83611920565b915061166a82611b6d565b602082019050919050565b6000611682603c83611920565b915061168d82611b96565b604082019050919050565b60006116a5604183611920565b91506116b082611be5565b606082019050919050565b60006116c8602983611920565b91506116d382611c5a565b604082019050919050565b60006116eb602383611920565b91506116f682611ca9565b604082019050919050565b61170a81611a25565b82525050565b6000604082019050611725600083018561159e565b611732602083018461159e565b9392505050565b600060608201905061174e600083018661159e565b61175b602083018561159e565b6117686040830184611701565b949350505050565b6000604082019050611785600083018561159e565b6117926020830184611701565b9392505050565b60006020820190506117ae60008301846115ad565b92915050565b60006020820190506117c960008301846115bc565b92915050565b60006020820190506117e460008301846115cb565b92915050565b60006020820190506117ff60008301846115da565b92915050565b6000602082019050818103600083015261181e816115e9565b9050919050565b6000602082019050818103600083015261183e8161160c565b9050919050565b6000602082019050818103600083015261185e8161162f565b9050919050565b6000602082019050818103600083015261187e81611652565b9050919050565b6000602082019050818103600083015261189e81611675565b9050919050565b600060208201905081810360008301526118be81611698565b9050919050565b600060208201905081810360008301526118de816116bb565b9050919050565b600060208201905081810360008301526118fe816116de565b9050919050565b600060208201905061191a6000830184611701565b92915050565b600082825260208201905092915050565b600061193c82611a25565b915061194783611a25565b9250827fffffffffffffffffffffffffffffffffffffffffffffffffffffffffffffffff0382111561197c5761197b611a77565b5b828201905092915050565b600061199282611a25565b915061199d83611a25565b9250828210156119b0576119af611a77565b5b828203905092915050565b60006119c682611a05565b9050919050565b60008115159050919050565b60007fffffffff0000000000000000000000000000000000000000000000000000000082169050919050565b600073ffffffffffffffffffffffffffffffffffffffff82169050919050565b6000819050919050565b6000611a3a82611a41565b9050919050565b6000611a4c82611a05565b9050919050565b6000611a5e82611a65565b9050919050565b6000611a7082611a05565b9050919050565b7f4e487b7100000000000000000000000000000000000000000000000000000000600052601160045260246000fd5b7f496478206f766572666c6f770000000000000000000000000000000000000000600082015250565b7f53656c6c696e67207072696365206d757374206265206772656174657220746860008201527f616e20746865206d61726b6574706c6163652066656573000000000000000000602082015250565b7f5072657061726520616e20616c6c6f77616e636520666f722074686520746f6b60008201527f656e20696e206f7264657220746f2073656c6c00000000000000000000000000602082015250565b7f546f6b656e206f6666657220646f6573206e6f74206578697374000000000000600082015250565b7f5072657061726520616e20616c6c6f77616e636520776974682074686520636f60008201527f727265637420616d6f756e7420696e206f7264657220746f2062757900000000602082015250565b7f5072657061726520616e20616c6c6f77616e636520776974682074686520636f60008201527f727265637420616d6f756e7420696e206f7264657220746f207769746864726160208201527f7700000000000000000000000000000000000000000000000000000000000000604082015250565b7f4f6e6c792049737375696e672042616e6b20697320616c6c6f77656420746f2060008201527f63616c6c20746869730000000000000000000000000000000000000000000000602082015250565b7f596f7520617265206e6f7420746865206f776e6572206f66207468697320746f60008201527f6b656e0000000000000000000000000000000000000000000000000000000000602082015250565b611d01816119bb565b8114611d0c57600080fd5b50565b611d18816119cd565b8114611d2357600080fd5b50565b611d2f81611a25565b8114611d3a57600080fd5b5056fea264697066735822122048dcd945e03e2e4af33a504b14508701b447d8787c1b4711307391b802fe813764736f6c63430008030033",
  "immutableReferences": {},
  "source": "// SPDX-License-Identifier: MIT\n\npragma solidity ^0.8.0;\n\nimport \"../../utils/Context.sol\";\nimport \"../../utils/Counters.sol\";\nimport \"../../utils/EnumerableSet.sol\";\nimport \"../nft/FP.sol\";\nimport \"../med/MED.sol\";\n\n/**\n * @title ERC721 Financial Product Marketplace\n * @author AshtonIzmev\n */\ncontract Marketplace is IERC721Receiver, Context {\n\n    using Counters for Counters.Counter;\n    using EnumerableSet for EnumerableSet.UintSet;\n\n    MED public medToken;\n    FP public fpToken;\n    address _issuingBank;\n\n    uint256 public sellFee;\n    uint256 public withdrawFee;\n    uint256 public totalFees;\n\n    struct Offer {\n        address _tokenOwner;\n        uint256 _sellingPrice;\n    }\n\n    mapping (uint256 => Offer) private offers;\n    EnumerableSet.UintSet private _tokenIds;\n\n    modifier onlyIssuingBank() {\n        require(\n            _msgSender() == _issuingBank,\n            \"Only Issuing Bank is allowed to call this\"\n        );\n        _;\n    }\n\n    constructor (uint256 sellFee_, uint256 withdrawFee_, address medToken_, address fpToken_) {\n        _issuingBank = _msgSender();\n        fpToken = FP(fpToken_);\n        medToken = MED(medToken_);\n        sellFee = sellFee_;\n        withdrawFee = withdrawFee_;\n    }\n\n    function sell(uint256 tokenId_, uint256 price_) public virtual {\n        require(fpToken.ownerOf(tokenId_) == _msgSender(), \"You are not the owner of this token\");\n        require(price_ > sellFee, \"Selling price must be greater than the marketplace fees\");\n        require(fpToken.getApproved(tokenId_) == address(this), \"Prepare an allowance for the token in order to sell\");\n        fpToken.safeTransferFrom(_msgSender(), address(this), tokenId_);\n        _tokenIds.add(tokenId_);\n        offers[tokenId_] = Offer(_msgSender(), price_);\n    }\n\n    function withdraw(uint256 tokenId_) public virtual {\n        require(_tokenIds.contains(tokenId_), \"Token offer does not exist\");\n        Offer memory offer = offers[tokenId_];\n        require(offer._tokenOwner == _msgSender(), \"You are not the owner of this token\");\n        require(medToken.allowance(_msgSender(), address(this)) >= withdrawFee, \"Prepare an allowance with the correct amount in order to withdraw\");\n        medToken.transferFrom(_msgSender(), address(this), withdrawFee);\n        fpToken.safeTransferFrom(address(this), _msgSender(), tokenId_);\n        _tokenIds.remove(tokenId_);\n        totalFees = totalFees + withdrawFee;\n    }\n\n    function buy(uint256 tokenId_) public virtual {\n        require(_tokenIds.contains(tokenId_), \"Token offer does not exist\");\n        Offer memory offer = offers[tokenId_];\n        require(medToken.allowance(_msgSender(), address(this)) >= offer._sellingPrice, \"Prepare an allowance with the correct amount in order to buy\");\n        medToken.transferFrom(_msgSender(), address(this), offer._sellingPrice);\n        medToken.transfer(offer._tokenOwner, offer._sellingPrice - sellFee);\n        fpToken.safeTransferFrom(address(this), _msgSender(), tokenId_);\n        _tokenIds.remove(tokenId_);\n        totalFees = totalFees + sellFee;\n    }\n\n    function withdrawProfit() public virtual onlyIssuingBank {\n        medToken.transfer(_issuingBank, totalFees);\n        totalFees = 0;\n    }\n\n    function isToSell(uint256 tokenId) public virtual view returns (bool) {\n        return _tokenIds.contains(tokenId);\n    }\n\n    function getTokenIdOffer(uint256 idx) public virtual view returns (uint256) {\n        require(idx < _tokenIds.length(), \"Idx overflow\");\n        return _tokenIds.at(idx);\n    }\n\n    function getOfferLength() public virtual view returns (uint256) {\n        return _tokenIds.length();\n    }\n\n     function onERC721Received(address, address, uint256, bytes calldata) \n            pure external override returns (bytes4) { \n        return this.onERC721Received.selector;\n     } \n\n}",
  "sourcePath": "/home/issam/git/med-erc20/sol/truffle/contracts/token/bank/Marketplace.sol",
  "compiler": {
    "name": "solc",
    "version": "0.8.3+commit.8d00100c.Emscripten.clang"
  },
  "schemaVersion": "3.2.4",
  "updatedAt": "2021-05-11T22:47:01.254Z",
  "devdoc": {
    "author": "AshtonIzmev",
    "kind": "dev",
    "methods": {},
    "title": "ERC721 Financial Product Marketplace",
    "version": 1
  },
  "userdoc": {
    "kind": "user",
    "methods": {},
    "version": 1
  }
}