{
  "contractName": "Marketplace",
  "abi": [
    {
      "inputs": [
        {
          "internalType": "address",
          "name": "fpToken_",
          "type": "address"
        },
        {
          "internalType": "address",
          "name": "medToken_",
          "type": "address"
        },
        {
          "internalType": "uint256",
          "name": "sellFee_",
          "type": "uint256"
        },
        {
          "internalType": "uint256",
          "name": "withdrawFee_",
          "type": "uint256"
        }
      ],
      "stateMutability": "nonpayable",
      "type": "constructor"
    },
    {
      "inputs": [],
      "name": "fpToken",
      "outputs": [
        {
          "internalType": "contract FP",
          "name": "",
          "type": "address"
        }
      ],
      "stateMutability": "view",
      "type": "function"
    },
    {
      "inputs": [],
      "name": "medToken",
      "outputs": [
        {
          "internalType": "contract MED",
          "name": "",
          "type": "address"
        }
      ],
      "stateMutability": "view",
      "type": "function"
    },
    {
      "inputs": [],
      "name": "sellFee",
      "outputs": [
        {
          "internalType": "uint256",
          "name": "",
          "type": "uint256"
        }
      ],
      "stateMutability": "view",
      "type": "function"
    },
    {
      "inputs": [],
      "name": "totalFees",
      "outputs": [
        {
          "internalType": "uint256",
          "name": "",
          "type": "uint256"
        }
      ],
      "stateMutability": "view",
      "type": "function"
    },
    {
      "inputs": [],
      "name": "withdrawFee",
      "outputs": [
        {
          "internalType": "uint256",
          "name": "",
          "type": "uint256"
        }
      ],
      "stateMutability": "view",
      "type": "function"
    },
    {
      "inputs": [
        {
          "internalType": "uint256",
          "name": "tokenId_",
          "type": "uint256"
        },
        {
          "internalType": "uint256",
          "name": "price_",
          "type": "uint256"
        }
      ],
      "name": "sell",
      "outputs": [],
      "stateMutability": "nonpayable",
      "type": "function"
    },
    {
      "inputs": [
        {
          "internalType": "uint256",
          "name": "tokenId_",
          "type": "uint256"
        }
      ],
      "name": "withdraw",
      "outputs": [],
      "stateMutability": "nonpayable",
      "type": "function"
    },
    {
      "inputs": [
        {
          "internalType": "uint256",
          "name": "tokenId_",
          "type": "uint256"
        }
      ],
      "name": "buy",
      "outputs": [],
      "stateMutability": "nonpayable",
      "type": "function"
    },
    {
      "inputs": [],
      "name": "withdrawProfit",
      "outputs": [],
      "stateMutability": "nonpayable",
      "type": "function"
    }
  ],
  "bytecode": "0x60806040523480156200001157600080fd5b5060405162001b9638038062001b96833981810160405281019062000037919062000156565b620000476200012060201b60201c565b600260006101000a81548173ffffffffffffffffffffffffffffffffffffffff021916908373ffffffffffffffffffffffffffffffffffffffff16021790555083600160006101000a81548173ffffffffffffffffffffffffffffffffffffffff021916908373ffffffffffffffffffffffffffffffffffffffff160217905550826000806101000a81548173ffffffffffffffffffffffffffffffffffffffff021916908373ffffffffffffffffffffffffffffffffffffffff16021790555081600381905550806004819055505050505062000234565b600033905090565b600081519050620001398162000200565b92915050565b60008151905062000150816200021a565b92915050565b600080600080608085870312156200016d57600080fd5b60006200017d8782880162000128565b9450506020620001908782880162000128565b9350506040620001a3878288016200013f565b9250506060620001b6878288016200013f565b91505092959194509250565b6000620001cf82620001d6565b9050919050565b600073ffffffffffffffffffffffffffffffffffffffff82169050919050565b6000819050919050565b6200020b81620001c2565b81146200021757600080fd5b50565b6200022581620001f6565b81146200023157600080fd5b50565b61195280620002446000396000f3fe608060405234801561001057600080fd5b50600436106100935760003560e01c8063959499b611610066578063959499b61461010e578063d4ef855414610118578063d79875eb14610136578063d96a094a14610152578063e941fa781461016e57610093565b806313114a9d146100985780632b14ca56146100b65780632e1a7d4d146100d45780637b3457d5146100f0575b600080fd5b6100a061018c565b6040516100ad9190611539565b60405180910390f35b6100be610192565b6040516100cb9190611539565b60405180910390f35b6100ee60048036038101906100e991906111db565b610198565b005b6100f861052c565b6040516101059190611423565b60405180910390f35b610116610552565b005b6101206106c5565b60405161012d919061143e565b60405180910390f35b610150600480360381019061014b919061122d565b6106e9565b005b61016c600480360381019061016791906111db565b610aae565b005b610176610ec0565b6040516101839190611539565b60405180910390f35b60055481565b60035481565b6101a0610ec6565b73ffffffffffffffffffffffffffffffffffffffff16600160009054906101000a900473ffffffffffffffffffffffffffffffffffffffff1673ffffffffffffffffffffffffffffffffffffffff16636352211e836040518263ffffffff1660e01b81526004016102119190611539565b60206040518083038186803b15801561022957600080fd5b505afa15801561023d573d6000803e3d6000fd5b505050506040513d601f19601f820116820180604052508101906102619190611189565b73ffffffffffffffffffffffffffffffffffffffff16146102b7576040517f08c379a00000000000000000000000000000000000000000000000000000000081526004016102ae90611519565b60405180910390fd5b60045460008054906101000a900473ffffffffffffffffffffffffffffffffffffffff1673ffffffffffffffffffffffffffffffffffffffff1663dd62ed3e6102fe610ec6565b306040518363ffffffff1660e01b815260040161031c92919061139a565b60206040518083038186803b15801561033457600080fd5b505afa158015610348573d6000803e3d6000fd5b505050506040513d601f19601f8201168201806040525081019061036c9190611204565b10156103ad576040517f08c379a00000000000000000000000000000000000000000000000000000000081526004016103a4906114d9565b60405180910390fd5b60008054906101000a900473ffffffffffffffffffffffffffffffffffffffff1673ffffffffffffffffffffffffffffffffffffffff166323b872dd6103f1610ec6565b306004546040518463ffffffff1660e01b8152600401610413939291906113c3565b602060405180830381600087803b15801561042d57600080fd5b505af1158015610441573d6000803e3d6000fd5b505050506040513d601f19601f8201168201806040525081019061046591906111b2565b50600160009054906101000a900473ffffffffffffffffffffffffffffffffffffffff1673ffffffffffffffffffffffffffffffffffffffff166342842e0e306104ad610ec6565b846040518463ffffffff1660e01b81526004016104cc939291906113c3565b600060405180830381600087803b1580156104e657600080fd5b505af11580156104fa573d6000803e3d6000fd5b50505050610512816007610ece90919063ffffffff16565b506004546005546105239190611565565b60058190555050565b600160009054906101000a900473ffffffffffffffffffffffffffffffffffffffff1681565b600260009054906101000a900473ffffffffffffffffffffffffffffffffffffffff1673ffffffffffffffffffffffffffffffffffffffff16610593610ec6565b73ffffffffffffffffffffffffffffffffffffffff16146105e9576040517f08c379a00000000000000000000000000000000000000000000000000000000081526004016105e0906114f9565b60405180910390fd5b60008054906101000a900473ffffffffffffffffffffffffffffffffffffffff1673ffffffffffffffffffffffffffffffffffffffff1663a9059cbb600260009054906101000a900473ffffffffffffffffffffffffffffffffffffffff166005546040518363ffffffff1660e01b81526004016106689291906113fa565b602060405180830381600087803b15801561068257600080fd5b505af1158015610696573d6000803e3d6000fd5b505050506040513d601f19601f820116820180604052508101906106ba91906111b2565b506000600581905550565b60008054906101000a900473ffffffffffffffffffffffffffffffffffffffff1681565b6106f1610ec6565b73ffffffffffffffffffffffffffffffffffffffff16600160009054906101000a900473ffffffffffffffffffffffffffffffffffffffff1673ffffffffffffffffffffffffffffffffffffffff16636352211e846040518263ffffffff1660e01b81526004016107629190611539565b60206040518083038186803b15801561077a57600080fd5b505afa15801561078e573d6000803e3d6000fd5b505050506040513d601f19601f820116820180604052508101906107b29190611189565b73ffffffffffffffffffffffffffffffffffffffff1614610808576040517f08c379a00000000000000000000000000000000000000000000000000000000081526004016107ff90611519565b60405180910390fd5b600354811161084c576040517f08c379a000000000000000000000000000000000000000000000000000000000815260040161084390611459565b60405180910390fd5b3073ffffffffffffffffffffffffffffffffffffffff16600160009054906101000a900473ffffffffffffffffffffffffffffffffffffffff1673ffffffffffffffffffffffffffffffffffffffff1663081812fc846040518263ffffffff1660e01b81526004016108be9190611539565b60206040518083038186803b1580156108d657600080fd5b505afa1580156108ea573d6000803e3d6000fd5b505050506040513d601f19601f8201168201806040525081019061090e9190611189565b73ffffffffffffffffffffffffffffffffffffffff1614610964576040517f08c379a000000000000000000000000000000000000000000000000000000000815260040161095b90611479565b60405180910390fd5b600160009054906101000a900473ffffffffffffffffffffffffffffffffffffffff1673ffffffffffffffffffffffffffffffffffffffff166342842e0e6109aa610ec6565b30856040518463ffffffff1660e01b81526004016109ca939291906113c3565b600060405180830381600087803b1580156109e457600080fd5b505af11580156109f8573d6000803e3d6000fd5b50505050610a10826007610ee890919063ffffffff16565b506040518060400160405280610a24610ec6565b73ffffffffffffffffffffffffffffffffffffffff168152602001828152506006600084815260200190815260200160002060008201518160000160006101000a81548173ffffffffffffffffffffffffffffffffffffffff021916908373ffffffffffffffffffffffffffffffffffffffff160217905550602082015181600101559050505050565b610ac2816007610f0290919063ffffffff16565b610b01576040517f08c379a0000000000000000000000000000000000000000000000000000000008152600401610af890611499565b60405180910390fd5b6000600660008381526020019081526020016000206040518060400160405290816000820160009054906101000a900473ffffffffffffffffffffffffffffffffffffffff1673ffffffffffffffffffffffffffffffffffffffff1673ffffffffffffffffffffffffffffffffffffffff1681526020016001820154815250509050806020015160008054906101000a900473ffffffffffffffffffffffffffffffffffffffff1673ffffffffffffffffffffffffffffffffffffffff1663dd62ed3e610bcc610ec6565b306040518363ffffffff1660e01b8152600401610bea92919061139a565b60206040518083038186803b158015610c0257600080fd5b505afa158015610c16573d6000803e3d6000fd5b505050506040513d601f19601f82011682018060405250810190610c3a9190611204565b1015610c7b576040517f08c379a0000000000000000000000000000000000000000000000000000000008152600401610c72906114b9565b60405180910390fd5b60008054906101000a900473ffffffffffffffffffffffffffffffffffffffff1673ffffffffffffffffffffffffffffffffffffffff166323b872dd610cbf610ec6565b3084602001516040518463ffffffff1660e01b8152600401610ce3939291906113c3565b602060405180830381600087803b158015610cfd57600080fd5b505af1158015610d11573d6000803e3d6000fd5b505050506040513d601f19601f82011682018060405250810190610d3591906111b2565b5060008054906101000a900473ffffffffffffffffffffffffffffffffffffffff1673ffffffffffffffffffffffffffffffffffffffff1663a9059cbb82600001516003548460200151610d8991906115bb565b6040518363ffffffff1660e01b8152600401610da69291906113fa565b602060405180830381600087803b158015610dc057600080fd5b505af1158015610dd4573d6000803e3d6000fd5b505050506040513d601f19601f82011682018060405250810190610df891906111b2565b50600160009054906101000a900473ffffffffffffffffffffffffffffffffffffffff1673ffffffffffffffffffffffffffffffffffffffff166342842e0e30610e40610ec6565b856040518463ffffffff1660e01b8152600401610e5f939291906113c3565b600060405180830381600087803b158015610e7957600080fd5b505af1158015610e8d573d6000803e3d6000fd5b50505050610ea5826007610ece90919063ffffffff16565b50600354600554610eb69190611565565b6005819055505050565b60045481565b600033905090565b6000610ee0836000018360001b610f1c565b905092915050565b6000610efa836000018360001b6110a2565b905092915050565b6000610f14836000018360001b611112565b905092915050565b60008083600101600084815260200190815260200160002054905060008114611096576000600182610f4e91906115bb565b9050600060018660000180549050610f6691906115bb565b9050818114611021576000866000018281548110610fad577f4e487b7100000000000000000000000000000000000000000000000000000000600052603260045260246000fd5b9060005260206000200154905080876000018481548110610ff7577f4e487b7100000000000000000000000000000000000000000000000000000000600052603260045260246000fd5b90600052602060002001819055508387600101600083815260200190815260200160002081905550505b8560000180548061105b577f4e487b7100000000000000000000000000000000000000000000000000000000600052603160045260246000fd5b60019003818190600052602060002001600090559055856001016000868152602001908152602001600020600090556001935050505061109c565b60009150505b92915050565b60006110ae8383611112565b61110757826000018290806001815401808255809150506001900390600052602060002001600090919091909150558260000180549050836001016000848152602001908152602001600020819055506001905061110c565b600090505b92915050565b600080836001016000848152602001908152602001600020541415905092915050565b600081519050611144816118d7565b92915050565b600081519050611159816118ee565b92915050565b60008135905061116e81611905565b92915050565b60008151905061118381611905565b92915050565b60006020828403121561119b57600080fd5b60006111a984828501611135565b91505092915050565b6000602082840312156111c457600080fd5b60006111d28482850161114a565b91505092915050565b6000602082840312156111ed57600080fd5b60006111fb8482850161115f565b91505092915050565b60006020828403121561121657600080fd5b600061122484828501611174565b91505092915050565b6000806040838503121561124057600080fd5b600061124e8582860161115f565b925050602061125f8582860161115f565b9150509250929050565b611272816115ef565b82525050565b61128181611637565b82525050565b6112908161165b565b82525050565b60006112a3603783611554565b91506112ae826116ae565b604082019050919050565b60006112c6603383611554565b91506112d1826116fd565b604082019050919050565b60006112e9601a83611554565b91506112f48261174c565b602082019050919050565b600061130c603c83611554565b915061131782611775565b604082019050919050565b600061132f604183611554565b915061133a826117c4565b606082019050919050565b6000611352602983611554565b915061135d82611839565b604082019050919050565b6000611375602383611554565b915061138082611888565b604082019050919050565b6113948161162d565b82525050565b60006040820190506113af6000830185611269565b6113bc6020830184611269565b9392505050565b60006060820190506113d86000830186611269565b6113e56020830185611269565b6113f2604083018461138b565b949350505050565b600060408201905061140f6000830185611269565b61141c602083018461138b565b9392505050565b60006020820190506114386000830184611278565b92915050565b60006020820190506114536000830184611287565b92915050565b6000602082019050818103600083015261147281611296565b9050919050565b60006020820190508181036000830152611492816112b9565b9050919050565b600060208201905081810360008301526114b2816112dc565b9050919050565b600060208201905081810360008301526114d2816112ff565b9050919050565b600060208201905081810360008301526114f281611322565b9050919050565b6000602082019050818103600083015261151281611345565b9050919050565b6000602082019050818103600083015261153281611368565b9050919050565b600060208201905061154e600083018461138b565b92915050565b600082825260208201905092915050565b60006115708261162d565b915061157b8361162d565b9250827fffffffffffffffffffffffffffffffffffffffffffffffffffffffffffffffff038211156115b0576115af61167f565b5b828201905092915050565b60006115c68261162d565b91506115d18361162d565b9250828210156115e4576115e361167f565b5b828203905092915050565b60006115fa8261160d565b9050919050565b60008115159050919050565b600073ffffffffffffffffffffffffffffffffffffffff82169050919050565b6000819050919050565b600061164282611649565b9050919050565b60006116548261160d565b9050919050565b60006116668261166d565b9050919050565b60006116788261160d565b9050919050565b7f4e487b7100000000000000000000000000000000000000000000000000000000600052601160045260246000fd5b7f53656c6c696e67207072696365206d757374206265206772656174657220746860008201527f616e20746865206d61726b6574706c6163652066656573000000000000000000602082015250565b7f5072657061726520616e20616c6c6f77616e636520666f722074686520746f6b60008201527f656e20696e206f7264657220746f2073656c6c00000000000000000000000000602082015250565b7f546f6b656e206f6666657220646f6573206e6f74206578697374000000000000600082015250565b7f5072657061726520616e20616c6c6f77616e636520776974682074686520636f60008201527f727265637420616d6f756e7420696e206f7264657220746f2062757900000000602082015250565b7f5072657061726520616e20616c6c6f77616e636520776974682074686520636f60008201527f727265637420616d6f756e7420696e206f7264657220746f207769746864726160208201527f7700000000000000000000000000000000000000000000000000000000000000604082015250565b7f4f6e6c792049737375696e672042616e6b20697320616c6c6f77656420746f2060008201527f63616c6c20746869730000000000000000000000000000000000000000000000602082015250565b7f596f7520617265206e6f7420746865206f776e6572206f66207468697320746f60008201527f6b656e0000000000000000000000000000000000000000000000000000000000602082015250565b6118e0816115ef565b81146118eb57600080fd5b50565b6118f781611601565b811461190257600080fd5b50565b61190e8161162d565b811461191957600080fd5b5056fea2646970667358221220a73051f335b69385a263ae98ad081f3bb1f01546e216e3700c4f84f11188d24764736f6c63430008030033",
  "immutableReferences": {},
  "source": "// SPDX-License-Identifier: MIT\n\npragma solidity ^0.8.0;\n\nimport \"../../utils/Context.sol\";\nimport \"../../utils/Counters.sol\";\nimport \"../../utils/EnumerableSet.sol\";\nimport \"../nft/FP.sol\";\nimport \"../med/MED.sol\";\n\n/**\n * @title ERC721 Financial Product Marketplace\n * @author AshtonIzmev\n */\ncontract Marketplace is Context {\n\n    using Counters for Counters.Counter;\n    using EnumerableSet for EnumerableSet.UintSet;\n\n    MED public medToken;\n    FP public fpToken;\n    address _issuingBank;\n\n    uint256 public sellFee;\n    uint256 public withdrawFee;\n    uint256 public totalFees;\n\n    struct Offer {\n        address _tokenOwner;\n        uint256 _sellingPrice;\n    }\n\n    mapping (uint256 => Offer) private offers;\n    EnumerableSet.UintSet private _tokenIds;\n\n    modifier onlyIssuingBank() {\n        require(\n            _msgSender() == _issuingBank,\n            \"Only Issuing Bank is allowed to call this\"\n        );\n        _;\n    }\n\n    constructor (address fpToken_, address medToken_, uint256 sellFee_, uint256 withdrawFee_) {\n        _issuingBank = _msgSender();\n        fpToken = FP(fpToken_);\n        medToken = MED(medToken_);\n        sellFee = sellFee_;\n        withdrawFee = withdrawFee_;\n    }\n\n    function sell(uint256 tokenId_, uint256 price_) public virtual {\n        require(fpToken.ownerOf(tokenId_) == _msgSender(), \"You are not the owner of this token\");\n        require(price_ > sellFee, \"Selling price must be greater than the marketplace fees\");\n        require(fpToken.getApproved(tokenId_) == address(this), \"Prepare an allowance for the token in order to sell\");\n        fpToken.safeTransferFrom(_msgSender(), address(this), tokenId_);\n        _tokenIds.add(tokenId_);\n        offers[tokenId_] = Offer(_msgSender(), price_);\n    }\n\n    function withdraw(uint256 tokenId_) public virtual {\n        require(fpToken.ownerOf(tokenId_) == _msgSender(), \"You are not the owner of this token\");\n        require(medToken.allowance(_msgSender(), address(this)) >= withdrawFee, \"Prepare an allowance with the correct amount in order to withdraw\");\n        medToken.transferFrom(_msgSender(), address(this), withdrawFee);\n        fpToken.safeTransferFrom(address(this), _msgSender(), tokenId_);\n        _tokenIds.remove(tokenId_);\n        totalFees = totalFees + withdrawFee;\n    }\n\n    function buy(uint256 tokenId_) public virtual {\n        require(_tokenIds.contains(tokenId_), \"Token offer does not exist\");\n        Offer memory offer = offers[tokenId_];\n        require(medToken.allowance(_msgSender(), address(this)) >= offer._sellingPrice, \"Prepare an allowance with the correct amount in order to buy\");\n        medToken.transferFrom(_msgSender(), address(this), offer._sellingPrice);\n        medToken.transfer(offer._tokenOwner, offer._sellingPrice - sellFee);\n        fpToken.safeTransferFrom(address(this), _msgSender(), tokenId_);\n        _tokenIds.remove(tokenId_);\n        totalFees = totalFees + sellFee;\n    }\n\n    function withdrawProfit() public virtual onlyIssuingBank {\n        medToken.transfer(_issuingBank, totalFees);\n        totalFees = 0;\n    }\n\n}",
  "sourcePath": "/home/issam/git/med-erc20/sol/truffle/contracts/token/bank/marketplace.sol",
  "compiler": {
    "name": "solc",
    "version": "0.8.3+commit.8d00100c.Emscripten.clang"
  },
  "schemaVersion": "3.2.4",
  "updatedAt": "2021-05-08T12:24:56.573Z",
  "devdoc": {
    "author": "AshtonIzmev",
    "kind": "dev",
    "methods": {},
    "title": "ERC721 Financial Product Marketplace",
    "version": 1
  },
  "userdoc": {
    "kind": "user",
    "methods": {},
    "version": 1
  }
}