{
  "contractName": "Marketplace",
  "abi": [
    {
      "inputs": [
        {
          "internalType": "address",
          "name": "fpToken_",
          "type": "address"
        },
        {
          "internalType": "address",
          "name": "medToken_",
          "type": "address"
        },
        {
          "internalType": "uint256",
          "name": "sellFee_",
          "type": "uint256"
        },
        {
          "internalType": "uint256",
          "name": "withdrawFee_",
          "type": "uint256"
        }
      ],
      "stateMutability": "nonpayable",
      "type": "constructor"
    },
    {
      "inputs": [],
      "name": "fpToken",
      "outputs": [
        {
          "internalType": "contract FP",
          "name": "",
          "type": "address"
        }
      ],
      "stateMutability": "view",
      "type": "function"
    },
    {
      "inputs": [],
      "name": "medToken",
      "outputs": [
        {
          "internalType": "contract MED",
          "name": "",
          "type": "address"
        }
      ],
      "stateMutability": "view",
      "type": "function"
    },
    {
      "inputs": [],
      "name": "sellFee",
      "outputs": [
        {
          "internalType": "uint256",
          "name": "",
          "type": "uint256"
        }
      ],
      "stateMutability": "view",
      "type": "function"
    },
    {
      "inputs": [],
      "name": "totalFees",
      "outputs": [
        {
          "internalType": "uint256",
          "name": "",
          "type": "uint256"
        }
      ],
      "stateMutability": "view",
      "type": "function"
    },
    {
      "inputs": [],
      "name": "withdrawFee",
      "outputs": [
        {
          "internalType": "uint256",
          "name": "",
          "type": "uint256"
        }
      ],
      "stateMutability": "view",
      "type": "function"
    },
    {
      "inputs": [
        {
          "internalType": "uint256",
          "name": "tokenId_",
          "type": "uint256"
        },
        {
          "internalType": "uint256",
          "name": "price_",
          "type": "uint256"
        }
      ],
      "name": "sell",
      "outputs": [],
      "stateMutability": "nonpayable",
      "type": "function"
    },
    {
      "inputs": [
        {
          "internalType": "uint256",
          "name": "tokenId_",
          "type": "uint256"
        }
      ],
      "name": "withdraw",
      "outputs": [],
      "stateMutability": "nonpayable",
      "type": "function"
    },
    {
      "inputs": [
        {
          "internalType": "uint256",
          "name": "tokenId_",
          "type": "uint256"
        }
      ],
      "name": "buy",
      "outputs": [],
      "stateMutability": "nonpayable",
      "type": "function"
    },
    {
      "inputs": [],
      "name": "withdrawProfit",
      "outputs": [],
      "stateMutability": "nonpayable",
      "type": "function"
    }
  ],
  "bytecode": "0x60806040523480156200001157600080fd5b5060405162001b8e38038062001b8e833981810160405281019062000037919062000156565b620000476200012060201b60201c565b600260006101000a81548173ffffffffffffffffffffffffffffffffffffffff021916908373ffffffffffffffffffffffffffffffffffffffff16021790555083600160006101000a81548173ffffffffffffffffffffffffffffffffffffffff021916908373ffffffffffffffffffffffffffffffffffffffff160217905550826000806101000a81548173ffffffffffffffffffffffffffffffffffffffff021916908373ffffffffffffffffffffffffffffffffffffffff16021790555081600381905550806004819055505050505062000234565b600033905090565b600081519050620001398162000200565b92915050565b60008151905062000150816200021a565b92915050565b600080600080608085870312156200016d57600080fd5b60006200017d8782880162000128565b9450506020620001908782880162000128565b9350506040620001a3878288016200013f565b9250506060620001b6878288016200013f565b91505092959194509250565b6000620001cf82620001d6565b9050919050565b600073ffffffffffffffffffffffffffffffffffffffff82169050919050565b6000819050919050565b6200020b81620001c2565b81146200021757600080fd5b50565b6200022581620001f6565b81146200023157600080fd5b50565b61194a80620002446000396000f3fe608060405234801561001057600080fd5b50600436106100935760003560e01c8063959499b611610066578063959499b61461010e578063d4ef855414610118578063d79875eb14610136578063d96a094a14610152578063e941fa781461016e57610093565b806313114a9d146100985780632b14ca56146100b65780632e1a7d4d146100d45780637b3457d5146100f0575b600080fd5b6100a061018c565b6040516100ad9190611531565b60405180910390f35b6100be610192565b6040516100cb9190611531565b60405180910390f35b6100ee60048036038101906100e991906111d3565b610198565b005b6100f861052c565b604051610105919061141b565b60405180910390f35b610116610552565b005b6101206106bd565b60405161012d9190611436565b60405180910390f35b610150600480360381019061014b9190611225565b6106e1565b005b61016c600480360381019061016791906111d3565b610aa6565b005b610176610eb8565b6040516101839190611531565b60405180910390f35b60055481565b60035481565b6101a0610ebe565b73ffffffffffffffffffffffffffffffffffffffff16600160009054906101000a900473ffffffffffffffffffffffffffffffffffffffff1673ffffffffffffffffffffffffffffffffffffffff16636352211e836040518263ffffffff1660e01b81526004016102119190611531565b60206040518083038186803b15801561022957600080fd5b505afa15801561023d573d6000803e3d6000fd5b505050506040513d601f19601f820116820180604052508101906102619190611181565b73ffffffffffffffffffffffffffffffffffffffff16146102b7576040517f08c379a00000000000000000000000000000000000000000000000000000000081526004016102ae90611511565b60405180910390fd5b60045460008054906101000a900473ffffffffffffffffffffffffffffffffffffffff1673ffffffffffffffffffffffffffffffffffffffff1663dd62ed3e6102fe610ebe565b306040518363ffffffff1660e01b815260040161031c929190611392565b60206040518083038186803b15801561033457600080fd5b505afa158015610348573d6000803e3d6000fd5b505050506040513d601f19601f8201168201806040525081019061036c91906111fc565b10156103ad576040517f08c379a00000000000000000000000000000000000000000000000000000000081526004016103a4906114d1565b60405180910390fd5b60008054906101000a900473ffffffffffffffffffffffffffffffffffffffff1673ffffffffffffffffffffffffffffffffffffffff166323b872dd6103f1610ebe565b306004546040518463ffffffff1660e01b8152600401610413939291906113bb565b602060405180830381600087803b15801561042d57600080fd5b505af1158015610441573d6000803e3d6000fd5b505050506040513d601f19601f8201168201806040525081019061046591906111aa565b50600160009054906101000a900473ffffffffffffffffffffffffffffffffffffffff1673ffffffffffffffffffffffffffffffffffffffff166342842e0e306104ad610ebe565b846040518463ffffffff1660e01b81526004016104cc939291906113bb565b600060405180830381600087803b1580156104e657600080fd5b505af11580156104fa573d6000803e3d6000fd5b50505050610512816007610ec690919063ffffffff16565b50600454600554610523919061155d565b60058190555050565b600160009054906101000a900473ffffffffffffffffffffffffffffffffffffffff1681565b600260009054906101000a900473ffffffffffffffffffffffffffffffffffffffff1673ffffffffffffffffffffffffffffffffffffffff16610593610ebe565b73ffffffffffffffffffffffffffffffffffffffff16146105e9576040517f08c379a00000000000000000000000000000000000000000000000000000000081526004016105e0906114f1565b60405180910390fd5b60008054906101000a900473ffffffffffffffffffffffffffffffffffffffff1673ffffffffffffffffffffffffffffffffffffffff1663a9059cbb600260009054906101000a900473ffffffffffffffffffffffffffffffffffffffff166005546040518363ffffffff1660e01b81526004016106689291906113f2565b602060405180830381600087803b15801561068257600080fd5b505af1158015610696573d6000803e3d6000fd5b505050506040513d601f19601f820116820180604052508101906106ba91906111aa565b50565b60008054906101000a900473ffffffffffffffffffffffffffffffffffffffff1681565b6106e9610ebe565b73ffffffffffffffffffffffffffffffffffffffff16600160009054906101000a900473ffffffffffffffffffffffffffffffffffffffff1673ffffffffffffffffffffffffffffffffffffffff16636352211e846040518263ffffffff1660e01b815260040161075a9190611531565b60206040518083038186803b15801561077257600080fd5b505afa158015610786573d6000803e3d6000fd5b505050506040513d601f19601f820116820180604052508101906107aa9190611181565b73ffffffffffffffffffffffffffffffffffffffff1614610800576040517f08c379a00000000000000000000000000000000000000000000000000000000081526004016107f790611511565b60405180910390fd5b6003548111610844576040517f08c379a000000000000000000000000000000000000000000000000000000000815260040161083b90611451565b60405180910390fd5b3073ffffffffffffffffffffffffffffffffffffffff16600160009054906101000a900473ffffffffffffffffffffffffffffffffffffffff1673ffffffffffffffffffffffffffffffffffffffff1663081812fc846040518263ffffffff1660e01b81526004016108b69190611531565b60206040518083038186803b1580156108ce57600080fd5b505afa1580156108e2573d6000803e3d6000fd5b505050506040513d601f19601f820116820180604052508101906109069190611181565b73ffffffffffffffffffffffffffffffffffffffff161461095c576040517f08c379a000000000000000000000000000000000000000000000000000000000815260040161095390611471565b60405180910390fd5b600160009054906101000a900473ffffffffffffffffffffffffffffffffffffffff1673ffffffffffffffffffffffffffffffffffffffff166342842e0e6109a2610ebe565b30856040518463ffffffff1660e01b81526004016109c2939291906113bb565b600060405180830381600087803b1580156109dc57600080fd5b505af11580156109f0573d6000803e3d6000fd5b50505050610a08826007610ee090919063ffffffff16565b506040518060400160405280610a1c610ebe565b73ffffffffffffffffffffffffffffffffffffffff168152602001828152506006600084815260200190815260200160002060008201518160000160006101000a81548173ffffffffffffffffffffffffffffffffffffffff021916908373ffffffffffffffffffffffffffffffffffffffff160217905550602082015181600101559050505050565b610aba816007610efa90919063ffffffff16565b610af9576040517f08c379a0000000000000000000000000000000000000000000000000000000008152600401610af090611491565b60405180910390fd5b6000600660008381526020019081526020016000206040518060400160405290816000820160009054906101000a900473ffffffffffffffffffffffffffffffffffffffff1673ffffffffffffffffffffffffffffffffffffffff1673ffffffffffffffffffffffffffffffffffffffff1681526020016001820154815250509050806020015160008054906101000a900473ffffffffffffffffffffffffffffffffffffffff1673ffffffffffffffffffffffffffffffffffffffff1663dd62ed3e610bc4610ebe565b306040518363ffffffff1660e01b8152600401610be2929190611392565b60206040518083038186803b158015610bfa57600080fd5b505afa158015610c0e573d6000803e3d6000fd5b505050506040513d601f19601f82011682018060405250810190610c3291906111fc565b1015610c73576040517f08c379a0000000000000000000000000000000000000000000000000000000008152600401610c6a906114b1565b60405180910390fd5b60008054906101000a900473ffffffffffffffffffffffffffffffffffffffff1673ffffffffffffffffffffffffffffffffffffffff166323b872dd610cb7610ebe565b3084602001516040518463ffffffff1660e01b8152600401610cdb939291906113bb565b602060405180830381600087803b158015610cf557600080fd5b505af1158015610d09573d6000803e3d6000fd5b505050506040513d601f19601f82011682018060405250810190610d2d91906111aa565b5060008054906101000a900473ffffffffffffffffffffffffffffffffffffffff1673ffffffffffffffffffffffffffffffffffffffff1663a9059cbb82600001516003548460200151610d8191906115b3565b6040518363ffffffff1660e01b8152600401610d9e9291906113f2565b602060405180830381600087803b158015610db857600080fd5b505af1158015610dcc573d6000803e3d6000fd5b505050506040513d601f19601f82011682018060405250810190610df091906111aa565b50600160009054906101000a900473ffffffffffffffffffffffffffffffffffffffff1673ffffffffffffffffffffffffffffffffffffffff166342842e0e30610e38610ebe565b856040518463ffffffff1660e01b8152600401610e57939291906113bb565b600060405180830381600087803b158015610e7157600080fd5b505af1158015610e85573d6000803e3d6000fd5b50505050610e9d826007610ec690919063ffffffff16565b50600354600554610eae919061155d565b6005819055505050565b60045481565b600033905090565b6000610ed8836000018360001b610f14565b905092915050565b6000610ef2836000018360001b61109a565b905092915050565b6000610f0c836000018360001b61110a565b905092915050565b6000808360010160008481526020019081526020016000205490506000811461108e576000600182610f4691906115b3565b9050600060018660000180549050610f5e91906115b3565b9050818114611019576000866000018281548110610fa5577f4e487b7100000000000000000000000000000000000000000000000000000000600052603260045260246000fd5b9060005260206000200154905080876000018481548110610fef577f4e487b7100000000000000000000000000000000000000000000000000000000600052603260045260246000fd5b90600052602060002001819055508387600101600083815260200190815260200160002081905550505b85600001805480611053577f4e487b7100000000000000000000000000000000000000000000000000000000600052603160045260246000fd5b600190038181906000526020600020016000905590558560010160008681526020019081526020016000206000905560019350505050611094565b60009150505b92915050565b60006110a6838361110a565b6110ff578260000182908060018154018082558091505060019003906000526020600020016000909190919091505582600001805490508360010160008481526020019081526020016000208190555060019050611104565b600090505b92915050565b600080836001016000848152602001908152602001600020541415905092915050565b60008151905061113c816118cf565b92915050565b600081519050611151816118e6565b92915050565b600081359050611166816118fd565b92915050565b60008151905061117b816118fd565b92915050565b60006020828403121561119357600080fd5b60006111a18482850161112d565b91505092915050565b6000602082840312156111bc57600080fd5b60006111ca84828501611142565b91505092915050565b6000602082840312156111e557600080fd5b60006111f384828501611157565b91505092915050565b60006020828403121561120e57600080fd5b600061121c8482850161116c565b91505092915050565b6000806040838503121561123857600080fd5b600061124685828601611157565b925050602061125785828601611157565b9150509250929050565b61126a816115e7565b82525050565b6112798161162f565b82525050565b61128881611653565b82525050565b600061129b60378361154c565b91506112a6826116a6565b604082019050919050565b60006112be60338361154c565b91506112c9826116f5565b604082019050919050565b60006112e1601a8361154c565b91506112ec82611744565b602082019050919050565b6000611304603c8361154c565b915061130f8261176d565b604082019050919050565b600061132760418361154c565b9150611332826117bc565b606082019050919050565b600061134a60298361154c565b915061135582611831565b604082019050919050565b600061136d60238361154c565b915061137882611880565b604082019050919050565b61138c81611625565b82525050565b60006040820190506113a76000830185611261565b6113b46020830184611261565b9392505050565b60006060820190506113d06000830186611261565b6113dd6020830185611261565b6113ea6040830184611383565b949350505050565b60006040820190506114076000830185611261565b6114146020830184611383565b9392505050565b60006020820190506114306000830184611270565b92915050565b600060208201905061144b600083018461127f565b92915050565b6000602082019050818103600083015261146a8161128e565b9050919050565b6000602082019050818103600083015261148a816112b1565b9050919050565b600060208201905081810360008301526114aa816112d4565b9050919050565b600060208201905081810360008301526114ca816112f7565b9050919050565b600060208201905081810360008301526114ea8161131a565b9050919050565b6000602082019050818103600083015261150a8161133d565b9050919050565b6000602082019050818103600083015261152a81611360565b9050919050565b60006020820190506115466000830184611383565b92915050565b600082825260208201905092915050565b600061156882611625565b915061157383611625565b9250827fffffffffffffffffffffffffffffffffffffffffffffffffffffffffffffffff038211156115a8576115a7611677565b5b828201905092915050565b60006115be82611625565b91506115c983611625565b9250828210156115dc576115db611677565b5b828203905092915050565b60006115f282611605565b9050919050565b60008115159050919050565b600073ffffffffffffffffffffffffffffffffffffffff82169050919050565b6000819050919050565b600061163a82611641565b9050919050565b600061164c82611605565b9050919050565b600061165e82611665565b9050919050565b600061167082611605565b9050919050565b7f4e487b7100000000000000000000000000000000000000000000000000000000600052601160045260246000fd5b7f53656c6c696e67207072696365206d757374206265206772656174657220746860008201527f616e20746865206d61726b6574706c6163652066656573000000000000000000602082015250565b7f5072657061726520616e20616c6c6f77616e636520666f722074686520746f6b60008201527f656e20696e206f7264657220746f2073656c6c00000000000000000000000000602082015250565b7f546f6b656e206f6666657220646f6573206e6f74206578697374000000000000600082015250565b7f5072657061726520616e20616c6c6f77616e636520776974682074686520636f60008201527f727265637420616d6f756e7420696e206f7264657220746f2062757900000000602082015250565b7f5072657061726520616e20616c6c6f77616e636520776974682074686520636f60008201527f727265637420616d6f756e7420696e206f7264657220746f207769746864726160208201527f7700000000000000000000000000000000000000000000000000000000000000604082015250565b7f4f6e6c792049737375696e672042616e6b20697320616c6c6f77656420746f2060008201527f63616c6c20746869730000000000000000000000000000000000000000000000602082015250565b7f596f7520617265206e6f7420746865206f776e6572206f66207468697320746f60008201527f6b656e0000000000000000000000000000000000000000000000000000000000602082015250565b6118d8816115e7565b81146118e357600080fd5b50565b6118ef816115f9565b81146118fa57600080fd5b50565b61190681611625565b811461191157600080fd5b5056fea2646970667358221220ad8d168ddd1e067d487106f4e98e520ea45aa17498227452cdca60746533a42164736f6c63430008030033",
  "immutableReferences": {},
  "source": "// SPDX-License-Identifier: MIT\n\npragma solidity ^0.8.0;\n\nimport \"../../utils/Context.sol\";\nimport \"../../utils/Counters.sol\";\nimport \"../../utils/EnumerableSet.sol\";\nimport \"../nft/FP.sol\";\nimport \"../med/MED.sol\";\n\n/**\n * @title ERC721 Financial Product Marketplace\n * @author AshtonIzmev\n */\ncontract Marketplace is Context {\n\n    using Counters for Counters.Counter;\n    using EnumerableSet for EnumerableSet.UintSet;\n\n    MED public medToken;\n    FP public fpToken;\n    address _issuingBank;\n\n    uint256 public sellFee;\n    uint256 public withdrawFee;\n    uint256 public totalFees;\n\n    struct Offer {\n        address _tokenOwner;\n        uint256 _sellingPrice;\n    }\n\n    mapping (uint256 => Offer) private offers;\n    EnumerableSet.UintSet private _tokenIds;\n\n    modifier onlyIssuingBank() {\n        require(\n            _msgSender() == _issuingBank,\n            \"Only Issuing Bank is allowed to call this\"\n        );\n        _;\n    }\n\n    constructor (address fpToken_, address medToken_, uint256 sellFee_, uint256 withdrawFee_) {\n        _issuingBank = _msgSender();\n        fpToken = FP(fpToken_);\n        medToken = MED(medToken_);\n        sellFee = sellFee_;\n        withdrawFee = withdrawFee_;\n    }\n\n    function sell(uint256 tokenId_, uint256 price_) public virtual {\n        require(fpToken.ownerOf(tokenId_) == _msgSender(), \"You are not the owner of this token\");\n        require(price_ > sellFee, \"Selling price must be greater than the marketplace fees\");\n        require(fpToken.getApproved(tokenId_) == address(this), \"Prepare an allowance for the token in order to sell\");\n        fpToken.safeTransferFrom(_msgSender(), address(this), tokenId_);\n        _tokenIds.add(tokenId_);\n        offers[tokenId_] = Offer(_msgSender(), price_);\n    }\n\n    function withdraw(uint256 tokenId_) public virtual {\n        require(fpToken.ownerOf(tokenId_) == _msgSender(), \"You are not the owner of this token\");\n        require(medToken.allowance(_msgSender(), address(this)) >= withdrawFee, \"Prepare an allowance with the correct amount in order to withdraw\");\n        medToken.transferFrom(_msgSender(), address(this), withdrawFee);\n        fpToken.safeTransferFrom(address(this), _msgSender(), tokenId_);\n        _tokenIds.remove(tokenId_);\n        totalFees = totalFees + withdrawFee;\n    }\n\n    function buy(uint256 tokenId_) public virtual {\n        require(_tokenIds.contains(tokenId_), \"Token offer does not exist\");\n        Offer memory offer = offers[tokenId_];\n        require(medToken.allowance(_msgSender(), address(this)) >= offer._sellingPrice, \"Prepare an allowance with the correct amount in order to buy\");\n        medToken.transferFrom(_msgSender(), address(this), offer._sellingPrice);\n        medToken.transfer(offer._tokenOwner, offer._sellingPrice - sellFee);\n        fpToken.safeTransferFrom(address(this), _msgSender(), tokenId_);\n        _tokenIds.remove(tokenId_);\n        totalFees = totalFees + sellFee;\n    }\n\n    function withdrawProfit() public virtual onlyIssuingBank {\n        medToken.transfer(_issuingBank, totalFees);\n    }\n\n\n}",
  "sourcePath": "/home/issam/git/med-erc20/sol/truffle/contracts/token/bank/marketplace.sol",
  "compiler": {
    "name": "solc",
    "version": "0.8.3+commit.8d00100c.Emscripten.clang"
  },
  "schemaVersion": "3.2.4",
  "updatedAt": "2021-05-08T09:55:02.031Z",
  "devdoc": {
    "author": "AshtonIzmev",
    "kind": "dev",
    "methods": {},
    "title": "ERC721 Financial Product Marketplace",
    "version": 1
  },
  "userdoc": {
    "kind": "user",
    "methods": {},
    "version": 1
  }
}