{
  "contractName": "MED",
  "abi": [
    {
      "inputs": [
        {
          "internalType": "address",
          "name": "treasureAccount",
          "type": "address"
        },
        {
          "internalType": "uint32",
          "name": "annualTaxRatePercent",
          "type": "uint32"
        },
        {
          "internalType": "uint256",
          "name": "umi",
          "type": "uint256"
        },
        {
          "internalType": "bool",
          "name": "allowMintArg",
          "type": "bool"
        },
        {
          "internalType": "uint256",
          "name": "initialMint",
          "type": "uint256"
        }
      ],
      "stateMutability": "nonpayable",
      "type": "constructor"
    },
    {
      "anonymous": false,
      "inputs": [
        {
          "indexed": true,
          "internalType": "address",
          "name": "owner",
          "type": "address"
        },
        {
          "indexed": true,
          "internalType": "address",
          "name": "spender",
          "type": "address"
        },
        {
          "indexed": false,
          "internalType": "uint256",
          "name": "value",
          "type": "uint256"
        }
      ],
      "name": "Approval",
      "type": "event"
    },
    {
      "anonymous": false,
      "inputs": [
        {
          "indexed": true,
          "internalType": "address",
          "name": "from",
          "type": "address"
        },
        {
          "indexed": true,
          "internalType": "address",
          "name": "to",
          "type": "address"
        },
        {
          "indexed": false,
          "internalType": "uint256",
          "name": "value",
          "type": "uint256"
        }
      ],
      "name": "Transfer",
      "type": "event"
    },
    {
      "inputs": [],
      "name": "allowMint",
      "outputs": [
        {
          "internalType": "bool",
          "name": "",
          "type": "bool"
        }
      ],
      "stateMutability": "view",
      "type": "function"
    },
    {
      "inputs": [],
      "name": "dailyTaxRate",
      "outputs": [
        {
          "internalType": "uint32",
          "name": "",
          "type": "uint32"
        }
      ],
      "stateMutability": "view",
      "type": "function"
    },
    {
      "inputs": [],
      "name": "daysElapsed",
      "outputs": [
        {
          "internalType": "uint256",
          "name": "",
          "type": "uint256"
        }
      ],
      "stateMutability": "view",
      "type": "function"
    },
    {
      "inputs": [],
      "name": "monthsElapsed",
      "outputs": [
        {
          "internalType": "uint256",
          "name": "",
          "type": "uint256"
        }
      ],
      "stateMutability": "view",
      "type": "function"
    },
    {
      "inputs": [],
      "name": "universalMonthlyIncome",
      "outputs": [
        {
          "internalType": "uint256",
          "name": "",
          "type": "uint256"
        }
      ],
      "stateMutability": "view",
      "type": "function"
    },
    {
      "inputs": [],
      "name": "name",
      "outputs": [
        {
          "internalType": "string",
          "name": "",
          "type": "string"
        }
      ],
      "stateMutability": "view",
      "type": "function"
    },
    {
      "inputs": [],
      "name": "symbol",
      "outputs": [
        {
          "internalType": "string",
          "name": "",
          "type": "string"
        }
      ],
      "stateMutability": "view",
      "type": "function"
    },
    {
      "inputs": [],
      "name": "decimals",
      "outputs": [
        {
          "internalType": "uint8",
          "name": "",
          "type": "uint8"
        }
      ],
      "stateMutability": "view",
      "type": "function"
    },
    {
      "inputs": [],
      "name": "totalSupply",
      "outputs": [
        {
          "internalType": "uint256",
          "name": "",
          "type": "uint256"
        }
      ],
      "stateMutability": "view",
      "type": "function"
    },
    {
      "inputs": [
        {
          "internalType": "address",
          "name": "account",
          "type": "address"
        }
      ],
      "name": "balanceOf",
      "outputs": [
        {
          "internalType": "uint256",
          "name": "",
          "type": "uint256"
        }
      ],
      "stateMutability": "view",
      "type": "function"
    },
    {
      "inputs": [
        {
          "internalType": "address",
          "name": "account",
          "type": "address"
        }
      ],
      "name": "elapsedTaxDaysOf",
      "outputs": [
        {
          "internalType": "uint256",
          "name": "",
          "type": "uint256"
        }
      ],
      "stateMutability": "view",
      "type": "function"
    },
    {
      "inputs": [
        {
          "internalType": "address",
          "name": "account",
          "type": "address"
        }
      ],
      "name": "elapsedIncomeMonthOf",
      "outputs": [
        {
          "internalType": "uint256",
          "name": "",
          "type": "uint256"
        }
      ],
      "stateMutability": "view",
      "type": "function"
    },
    {
      "inputs": [
        {
          "internalType": "address",
          "name": "recipient",
          "type": "address"
        },
        {
          "internalType": "uint256",
          "name": "amount",
          "type": "uint256"
        }
      ],
      "name": "transfer",
      "outputs": [
        {
          "internalType": "bool",
          "name": "",
          "type": "bool"
        }
      ],
      "stateMutability": "nonpayable",
      "type": "function"
    },
    {
      "inputs": [
        {
          "internalType": "address",
          "name": "taxPayer",
          "type": "address"
        }
      ],
      "name": "updateAccount",
      "outputs": [],
      "stateMutability": "nonpayable",
      "type": "function"
    },
    {
      "inputs": [
        {
          "internalType": "uint256",
          "name": "amount",
          "type": "uint256"
        }
      ],
      "name": "mint",
      "outputs": [],
      "stateMutability": "nonpayable",
      "type": "function"
    },
    {
      "inputs": [
        {
          "internalType": "uint256",
          "name": "amount",
          "type": "uint256"
        }
      ],
      "name": "burn",
      "outputs": [],
      "stateMutability": "nonpayable",
      "type": "function"
    },
    {
      "inputs": [],
      "name": "incrementDay",
      "outputs": [],
      "stateMutability": "nonpayable",
      "type": "function"
    },
    {
      "inputs": [],
      "name": "incrementMonth",
      "outputs": [],
      "stateMutability": "nonpayable",
      "type": "function"
    },
    {
      "inputs": [
        {
          "internalType": "uint32",
          "name": "newRate",
          "type": "uint32"
        }
      ],
      "name": "setNewDailyTaxRate",
      "outputs": [],
      "stateMutability": "nonpayable",
      "type": "function"
    },
    {
      "inputs": [
        {
          "internalType": "uint256",
          "name": "newIncome",
          "type": "uint256"
        }
      ],
      "name": "setNewBasicIncome",
      "outputs": [],
      "stateMutability": "nonpayable",
      "type": "function"
    },
    {
      "inputs": [
        {
          "internalType": "address",
          "name": "owner",
          "type": "address"
        },
        {
          "internalType": "address",
          "name": "spender",
          "type": "address"
        }
      ],
      "name": "allowance",
      "outputs": [
        {
          "internalType": "uint256",
          "name": "",
          "type": "uint256"
        }
      ],
      "stateMutability": "view",
      "type": "function"
    },
    {
      "inputs": [
        {
          "internalType": "address",
          "name": "spender",
          "type": "address"
        },
        {
          "internalType": "uint256",
          "name": "amount",
          "type": "uint256"
        }
      ],
      "name": "approve",
      "outputs": [
        {
          "internalType": "bool",
          "name": "",
          "type": "bool"
        }
      ],
      "stateMutability": "nonpayable",
      "type": "function"
    },
    {
      "inputs": [
        {
          "internalType": "address",
          "name": "sender",
          "type": "address"
        },
        {
          "internalType": "address",
          "name": "recipient",
          "type": "address"
        },
        {
          "internalType": "uint256",
          "name": "amount",
          "type": "uint256"
        }
      ],
      "name": "transferFrom",
      "outputs": [
        {
          "internalType": "bool",
          "name": "",
          "type": "bool"
        }
      ],
      "stateMutability": "nonpayable",
      "type": "function"
    },
    {
      "inputs": [
        {
          "internalType": "address",
          "name": "spender",
          "type": "address"
        },
        {
          "internalType": "uint256",
          "name": "addedValue",
          "type": "uint256"
        }
      ],
      "name": "increaseAllowance",
      "outputs": [
        {
          "internalType": "bool",
          "name": "",
          "type": "bool"
        }
      ],
      "stateMutability": "nonpayable",
      "type": "function"
    },
    {
      "inputs": [
        {
          "internalType": "address",
          "name": "spender",
          "type": "address"
        },
        {
          "internalType": "uint256",
          "name": "subtractedValue",
          "type": "uint256"
        }
      ],
      "name": "decreaseAllowance",
      "outputs": [
        {
          "internalType": "bool",
          "name": "",
          "type": "bool"
        }
      ],
      "stateMutability": "nonpayable",
      "type": "function"
    }
  ],
  "bytecode": "0x60806040526040518060400160405280601181526020017f4d6f726f6363616e20452d44697268616d000000000000000000000000000000815250600a90805190602001906200005192919062000423565b506040518060400160405280600381526020017f4d45440000000000000000000000000000000000000000000000000000000000815250600b90805190602001906200009f92919062000423565b506000600c60006101000a81548160ff021916908315150217905550348015620000c857600080fd5b5060405162003134380380620031348339818101604052810190620000ee91906200052f565b620000fe6200021e60201b60201c565b600260006101000a81548173ffffffffffffffffffffffffffffffffffffffff021916908373ffffffffffffffffffffffffffffffffffffffff16021790555084600360006101000a81548173ffffffffffffffffffffffffffffffffffffffff021916908373ffffffffffffffffffffffffffffffffffffffff16021790555061016d6127108562000192919062000717565b6200019e9190620006df565b600660006101000a81548163ffffffff021916908363ffffffff1602179055508260098190555081600c60006101000a81548160ff02191690831515021790555062000213600360009054906101000a900473ffffffffffffffffffffffffffffffffffffffff16826200022660201b60201c565b505050505062000959565b600033905090565b600073ffffffffffffffffffffffffffffffffffffffff168273ffffffffffffffffffffffffffffffffffffffff16141562000299576040517f08c379a0000000000000000000000000000000000000000000000000000000008152600401620002909062000632565b60405180910390fd5b600360009054906101000a900473ffffffffffffffffffffffffffffffffffffffff1673ffffffffffffffffffffffffffffffffffffffff168273ffffffffffffffffffffffffffffffffffffffff16146200032c576040517f08c379a0000000000000000000000000000000000000000000000000000000008152600401620003239062000610565b60405180910390fd5b62000340600083836200041e60201b60201c565b806001600082825462000354919062000682565b92505081905550806000808473ffffffffffffffffffffffffffffffffffffffff1673ffffffffffffffffffffffffffffffffffffffff1681526020019081526020016000206000828254620003ab919062000682565b925050819055508173ffffffffffffffffffffffffffffffffffffffff16600073ffffffffffffffffffffffffffffffffffffffff167fddf252ad1be2c89b69c2b068fc378daa952ba7f163c4a11628f55a4df523b3ef8360405162000412919062000654565b60405180910390a35050565b505050565b8280546200043190620007b6565b90600052602060002090601f016020900481019282620004555760008555620004a1565b82601f106200047057805160ff1916838001178555620004a1565b82800160010185558215620004a1579182015b82811115620004a057825182559160200191906001019062000483565b5b509050620004b09190620004b4565b5090565b5b80821115620004cf576000816000905550600101620004b5565b5090565b600081519050620004e481620008f1565b92915050565b600081519050620004fb816200090b565b92915050565b600081519050620005128162000925565b92915050565b60008151905062000529816200093f565b92915050565b600080600080600060a086880312156200054857600080fd5b60006200055888828901620004d3565b95505060206200056b8882890162000518565b94505060406200057e8882890162000501565b93505060606200059188828901620004ea565b9250506080620005a48882890162000501565b9150509295509295909350565b6000620005c060298362000671565b9150620005cd8262000879565b604082019050919050565b6000620005e7601f8362000671565b9150620005f482620008c8565b602082019050919050565b6200060a816200079c565b82525050565b600060208201905081810360008301526200062b81620005b1565b9050919050565b600060208201905081810360008301526200064d81620005d8565b9050919050565b60006020820190506200066b6000830184620005ff565b92915050565b600082825260208201905092915050565b60006200068f826200079c565b91506200069c836200079c565b9250827fffffffffffffffffffffffffffffffffffffffffffffffffffffffffffffffff03821115620006d457620006d3620007ec565b5b828201905092915050565b6000620006ec82620007a6565b9150620006f983620007a6565b9250826200070c576200070b6200081b565b5b828204905092915050565b60006200072482620007a6565b91506200073183620007a6565b92508163ffffffff0483118215151615620007515762000750620007ec565b5b828202905092915050565b600062000769826200077c565b9050919050565b60008115159050919050565b600073ffffffffffffffffffffffffffffffffffffffff82169050919050565b6000819050919050565b600063ffffffff82169050919050565b60006002820490506001821680620007cf57607f821691505b60208210811415620007e657620007e56200084a565b5b50919050565b7f4e487b7100000000000000000000000000000000000000000000000000000000600052601160045260246000fd5b7f4e487b7100000000000000000000000000000000000000000000000000000000600052601260045260246000fd5b7f4e487b7100000000000000000000000000000000000000000000000000000000600052602260045260246000fd5b7f4d696e742063616e206f6e6c7920626520646f6e6520746f207472656173757260008201527f79206163636f756e740000000000000000000000000000000000000000000000602082015250565b7f45524332303a206d696e7420746f20746865207a65726f206164647265737300600082015250565b620008fc816200075c565b81146200090857600080fd5b50565b620009168162000770565b81146200092257600080fd5b50565b62000930816200079c565b81146200093c57600080fd5b50565b6200094a81620007a6565b81146200095657600080fd5b50565b6127cb80620009696000396000f3fe608060405234801561001057600080fd5b50600436106101735760003560e01c80635b073d23116100de578063a0712d6811610097578063da21bcec11610071578063da21bcec14610462578063dbbe09361461047e578063dd62ed3e14610488578063ec714a81146104b857610173565b8063a0712d68146103e6578063a457c2d714610402578063a9059cbb1461043257610173565b80635b073d231461032257806367ed0c791461034057806370a082311461034a57806380477a4c1461037a578063850401051461039857806395d89b41146103c857610173565b80632a96e410116101305780632a96e410146102625780632ce3d4401461027e578063313ce5671461029a57806339509351146102b857806342966c68146102e85780634fb6b0591461030457610173565b806306fdde0314610178578063095ea7b31461019657806311e0df82146101c657806318160ddd146101f65780631b8dca741461021457806323b872dd14610232575b600080fd5b6101806104d6565b60405161018d9190611ec7565b60405180910390f35b6101b060048036038101906101ab9190611be2565b610568565b6040516101bd9190611eac565b60405180910390f35b6101e060048036038101906101db9190611b2e565b610586565b6040516101ed9190612089565b60405180910390f35b6101fe6105cf565b60405161020b9190612089565b60405180910390f35b61021c6105d9565b6040516102299190611eac565b60405180910390f35b61024c60048036038101906102479190611b93565b6105ec565b6040516102599190611eac565b60405180910390f35b61027c60048036038101906102779190611c47565b6106ed565b005b61029860048036038101906102939190611b2e565b6107a8565b005b6102a26107b4565b6040516102af91906120bf565b60405180910390f35b6102d260048036038101906102cd9190611be2565b6107bd565b6040516102df9190611eac565b60405180910390f35b61030260048036038101906102fd9190611c1e565b610869565b005b61030c61092f565b6040516103199190612089565b60405180910390f35b61032a610935565b60405161033791906120a4565b60405180910390f35b61034861094b565b005b610364600480360381019061035f9190611b2e565b6109f9565b6040516103719190612089565b60405180910390f35b610382610a41565b60405161038f9190612089565b60405180910390f35b6103b260048036038101906103ad9190611b2e565b610a47565b6040516103bf9190612089565b60405180910390f35b6103d0610a90565b6040516103dd9190611ec7565b60405180910390f35b61040060048036038101906103fb9190611c1e565b610b22565b005b61041c60048036038101906104179190611be2565b610c01565b6040516104299190611eac565b60405180910390f35b61044c60048036038101906104479190611be2565b610cf5565b6040516104599190611eac565b60405180910390f35b61047c60048036038101906104779190611c1e565b610d2c565b005b610486610dcd565b005b6104a2600480360381019061049d9190611b57565b610e7b565b6040516104af9190612089565b60405180910390f35b6104c0610f02565b6040516104cd9190612089565b60405180910390f35b6060600a80546104e5906122a3565b80601f0160208091040260200160405190810160405280929190818152602001828054610511906122a3565b801561055e5780601f106105335761010080835404028352916020019161055e565b820191906000526020600020905b81548152906001019060200180831161054157829003601f168201915b5050505050905090565b600061057c610575610f08565b8484610f10565b6001905092915050565b6000600460008373ffffffffffffffffffffffffffffffffffffffff1673ffffffffffffffffffffffffffffffffffffffff168152602001908152602001600020549050919050565b6000600154905090565b600c60009054906101000a900460ff1681565b60006105f98484846110db565b6000600d60008673ffffffffffffffffffffffffffffffffffffffff1673ffffffffffffffffffffffffffffffffffffffff1681526020019081526020016000206000610644610f08565b73ffffffffffffffffffffffffffffffffffffffff1673ffffffffffffffffffffffffffffffffffffffff168152602001908152602001600020549050828110156106c4576040517f08c379a00000000000000000000000000000000000000000000000000000000081526004016106bb90611fa9565b60405180910390fd5b6106e1856106d0610f08565b85846106dc91906121d7565b610f10565b60019150509392505050565b600260009054906101000a900473ffffffffffffffffffffffffffffffffffffffff1673ffffffffffffffffffffffffffffffffffffffff1661072e610f08565b73ffffffffffffffffffffffffffffffffffffffff1614610784576040517f08c379a000000000000000000000000000000000000000000000000000000000815260040161077b90611f49565b60405180910390fd5b80600660006101000a81548163ffffffff021916908363ffffffff16021790555050565b6107b18161135a565b50565b60006002905090565b600061085f6107ca610f08565b8484600d60006107d8610f08565b73ffffffffffffffffffffffffffffffffffffffff1673ffffffffffffffffffffffffffffffffffffffff16815260200190815260200160002060008873ffffffffffffffffffffffffffffffffffffffff1673ffffffffffffffffffffffffffffffffffffffff1681526020019081526020016000205461085a91906120f6565b610f10565b6001905092915050565b600260009054906101000a900473ffffffffffffffffffffffffffffffffffffffff1673ffffffffffffffffffffffffffffffffffffffff166108aa610f08565b73ffffffffffffffffffffffffffffffffffffffff1614610900576040517f08c379a00000000000000000000000000000000000000000000000000000000081526004016108f790611f49565b60405180910390fd5b61092c600360009054906101000a900473ffffffffffffffffffffffffffffffffffffffff168261136f565b50565b60085481565b600660009054906101000a900463ffffffff1681565b600260009054906101000a900473ffffffffffffffffffffffffffffffffffffffff1673ffffffffffffffffffffffffffffffffffffffff1661098c610f08565b73ffffffffffffffffffffffffffffffffffffffff16146109e2576040517f08c379a00000000000000000000000000000000000000000000000000000000081526004016109d990611f49565b60405180910390fd5b60016005546109f191906120f6565b600581905550565b60008060008373ffffffffffffffffffffffffffffffffffffffff1673ffffffffffffffffffffffffffffffffffffffff168152602001908152602001600020549050919050565b60055481565b6000600760008373ffffffffffffffffffffffffffffffffffffffff1673ffffffffffffffffffffffffffffffffffffffff168152602001908152602001600020549050919050565b6060600b8054610a9f906122a3565b80601f0160208091040260200160405190810160405280929190818152602001828054610acb906122a3565b8015610b185780601f10610aed57610100808354040283529160200191610b18565b820191906000526020600020905b815481529060010190602001808311610afb57829003601f168201915b5050505050905090565b600260009054906101000a900473ffffffffffffffffffffffffffffffffffffffff1673ffffffffffffffffffffffffffffffffffffffff16610b63610f08565b73ffffffffffffffffffffffffffffffffffffffff1614610bb9576040517f08c379a0000000000000000000000000000000000000000000000000000000008152600401610bb090611f49565b60405180910390fd5b600c60009054906101000a900460ff16610bd257600080fd5b610bfe600360009054906101000a900473ffffffffffffffffffffffffffffffffffffffff16826115d3565b50565b600080600d6000610c10610f08565b73ffffffffffffffffffffffffffffffffffffffff1673ffffffffffffffffffffffffffffffffffffffff16815260200190815260200160002060008573ffffffffffffffffffffffffffffffffffffffff1673ffffffffffffffffffffffffffffffffffffffff16815260200190815260200160002054905082811015610ccd576040517f08c379a0000000000000000000000000000000000000000000000000000000008152600401610cc490612049565b60405180910390fd5b610cea610cd8610f08565b858584610ce591906121d7565b610f10565b600191505092915050565b6000610d07610d02610f08565b61135a565b610d108361135a565b610d22610d1b610f08565b84846110db565b6001905092915050565b600260009054906101000a900473ffffffffffffffffffffffffffffffffffffffff1673ffffffffffffffffffffffffffffffffffffffff16610d6d610f08565b73ffffffffffffffffffffffffffffffffffffffff1614610dc3576040517f08c379a0000000000000000000000000000000000000000000000000000000008152600401610dba90611f49565b60405180910390fd5b8060098190555050565b600260009054906101000a900473ffffffffffffffffffffffffffffffffffffffff1673ffffffffffffffffffffffffffffffffffffffff16610e0e610f08565b73ffffffffffffffffffffffffffffffffffffffff1614610e64576040517f08c379a0000000000000000000000000000000000000000000000000000000008152600401610e5b90611f49565b60405180910390fd5b6001600854610e7391906120f6565b600881905550565b6000600d60008473ffffffffffffffffffffffffffffffffffffffff1673ffffffffffffffffffffffffffffffffffffffff16815260200190815260200160002060008373ffffffffffffffffffffffffffffffffffffffff1673ffffffffffffffffffffffffffffffffffffffff16815260200190815260200160002054905092915050565b60095481565b600033905090565b600073ffffffffffffffffffffffffffffffffffffffff168373ffffffffffffffffffffffffffffffffffffffff161415610f80576040517f08c379a0000000000000000000000000000000000000000000000000000000008152600401610f7790612029565b60405180910390fd5b600073ffffffffffffffffffffffffffffffffffffffff168273ffffffffffffffffffffffffffffffffffffffff161415610ff0576040517f08c379a0000000000000000000000000000000000000000000000000000000008152600401610fe790611f29565b60405180910390fd5b80600d60008573ffffffffffffffffffffffffffffffffffffffff1673ffffffffffffffffffffffffffffffffffffffff16815260200190815260200160002060008473ffffffffffffffffffffffffffffffffffffffff1673ffffffffffffffffffffffffffffffffffffffff168152602001908152602001600020819055508173ffffffffffffffffffffffffffffffffffffffff168373ffffffffffffffffffffffffffffffffffffffff167f8c5be1e5ebec7d5bd14f71427d1e84f3dd0314c0f7b2291e5b200ac8c7c3b925836040516110ce9190612089565b60405180910390a3505050565b600073ffffffffffffffffffffffffffffffffffffffff168373ffffffffffffffffffffffffffffffffffffffff16141561114b576040517f08c379a000000000000000000000000000000000000000000000000000000000815260040161114290611fe9565b60405180910390fd5b600073ffffffffffffffffffffffffffffffffffffffff168273ffffffffffffffffffffffffffffffffffffffff1614156111bb576040517f08c379a00000000000000000000000000000000000000000000000000000000081526004016111b290611ee9565b60405180910390fd5b6111c68383836117b7565b60008060008573ffffffffffffffffffffffffffffffffffffffff1673ffffffffffffffffffffffffffffffffffffffff1681526020019081526020016000205490508181101561124c576040517f08c379a000000000000000000000000000000000000000000000000000000000815260040161124390611f69565b60405180910390fd5b818161125891906121d7565b6000808673ffffffffffffffffffffffffffffffffffffffff1673ffffffffffffffffffffffffffffffffffffffff16815260200190815260200160002081905550816000808573ffffffffffffffffffffffffffffffffffffffff1673ffffffffffffffffffffffffffffffffffffffff16815260200190815260200160002060008282546112e891906120f6565b925050819055508273ffffffffffffffffffffffffffffffffffffffff168473ffffffffffffffffffffffffffffffffffffffff167fddf252ad1be2c89b69c2b068fc378daa952ba7f163c4a11628f55a4df523b3ef8460405161134c9190612089565b60405180910390a350505050565b611363816117bc565b61136c81611840565b50565b600073ffffffffffffffffffffffffffffffffffffffff168273ffffffffffffffffffffffffffffffffffffffff1614156113df576040517f08c379a00000000000000000000000000000000000000000000000000000000081526004016113d690611fc9565b60405180910390fd5b600360009054906101000a900473ffffffffffffffffffffffffffffffffffffffff1673ffffffffffffffffffffffffffffffffffffffff168273ffffffffffffffffffffffffffffffffffffffff161461146f576040517f08c379a000000000000000000000000000000000000000000000000000000000815260040161146690611f89565b60405180910390fd5b61147b826000836117b7565b60008060008473ffffffffffffffffffffffffffffffffffffffff1673ffffffffffffffffffffffffffffffffffffffff16815260200190815260200160002054905081811015611501576040517f08c379a00000000000000000000000000000000000000000000000000000000081526004016114f890611f09565b60405180910390fd5b818161150d91906121d7565b6000808573ffffffffffffffffffffffffffffffffffffffff1673ffffffffffffffffffffffffffffffffffffffff16815260200190815260200160002081905550816001600082825461156191906121d7565b92505081905550600073ffffffffffffffffffffffffffffffffffffffff168373ffffffffffffffffffffffffffffffffffffffff167fddf252ad1be2c89b69c2b068fc378daa952ba7f163c4a11628f55a4df523b3ef846040516115c69190612089565b60405180910390a3505050565b600073ffffffffffffffffffffffffffffffffffffffff168273ffffffffffffffffffffffffffffffffffffffff161415611643576040517f08c379a000000000000000000000000000000000000000000000000000000000815260040161163a90612069565b60405180910390fd5b600360009054906101000a900473ffffffffffffffffffffffffffffffffffffffff1673ffffffffffffffffffffffffffffffffffffffff168273ffffffffffffffffffffffffffffffffffffffff16146116d3576040517f08c379a00000000000000000000000000000000000000000000000000000000081526004016116ca90612009565b60405180910390fd5b6116df600083836117b7565b80600160008282546116f191906120f6565b92505081905550806000808473ffffffffffffffffffffffffffffffffffffffff1673ffffffffffffffffffffffffffffffffffffffff168152602001908152602001600020600082825461174691906120f6565b925050819055508173ffffffffffffffffffffffffffffffffffffffff16600073ffffffffffffffffffffffffffffffffffffffff167fddf252ad1be2c89b69c2b068fc378daa952ba7f163c4a11628f55a4df523b3ef836040516117ab9190612089565b60405180910390a35050565b505050565b60006117c7826118c4565b9050600854600760008473ffffffffffffffffffffffffffffffffffffffff1673ffffffffffffffffffffffffffffffffffffffff1681526020019081526020016000208190555061183c600360009054906101000a900473ffffffffffffffffffffffffffffffffffffffff1683836110db565b5050565b600061184b826119a0565b9050600554600460008473ffffffffffffffffffffffffffffffffffffffff1673ffffffffffffffffffffffffffffffffffffffff168152602001908152602001600020819055506118c082600360009054906101000a900473ffffffffffffffffffffffffffffffffffffffff16836110db565b5050565b6000600360009054906101000a900473ffffffffffffffffffffffffffffffffffffffff1673ffffffffffffffffffffffffffffffffffffffff168273ffffffffffffffffffffffffffffffffffffffff161415611925576000905061199b565b6000600760008473ffffffffffffffffffffffffffffffffffffffff1673ffffffffffffffffffffffffffffffffffffffff1681526020019081526020016000205460085461197491906121d7565b9050600081141561198957600091505061199b565b60095481611997919061217d565b9150505b919050565b6000600360009054906101000a900473ffffffffffffffffffffffffffffffffffffffff1673ffffffffffffffffffffffffffffffffffffffff168273ffffffffffffffffffffffffffffffffffffffff161415611a015760009050611aea565b6000600460008473ffffffffffffffffffffffffffffffffffffffff1673ffffffffffffffffffffffffffffffffffffffff16815260200190815260200160002054600554611a5091906121d7565b90506000811415611a65576000915050611aea565b6000620f4240600660009054906101000a900463ffffffff1663ffffffff16836000808873ffffffffffffffffffffffffffffffffffffffff1673ffffffffffffffffffffffffffffffffffffffff16815260200190815260200160002054611ace919061217d565b611ad8919061217d565b611ae2919061214c565b905080925050505b919050565b600081359050611afe81612750565b92915050565b600081359050611b1381612767565b92915050565b600081359050611b288161277e565b92915050565b600060208284031215611b4057600080fd5b6000611b4e84828501611aef565b91505092915050565b60008060408385031215611b6a57600080fd5b6000611b7885828601611aef565b9250506020611b8985828601611aef565b9150509250929050565b600080600060608486031215611ba857600080fd5b6000611bb686828701611aef565b9350506020611bc786828701611aef565b9250506040611bd886828701611b04565b9150509250925092565b60008060408385031215611bf557600080fd5b6000611c0385828601611aef565b9250506020611c1485828601611b04565b9150509250929050565b600060208284031215611c3057600080fd5b6000611c3e84828501611b04565b91505092915050565b600060208284031215611c5957600080fd5b6000611c6784828501611b19565b91505092915050565b611c798161221d565b82525050565b6000611c8a826120da565b611c9481856120e5565b9350611ca4818560208601612270565b611cad81612362565b840191505092915050565b6000611cc56023836120e5565b9150611cd082612373565b604082019050919050565b6000611ce86022836120e5565b9150611cf3826123c2565b604082019050919050565b6000611d0b6022836120e5565b9150611d1682612411565b604082019050919050565b6000611d2e6029836120e5565b9150611d3982612460565b604082019050919050565b6000611d516026836120e5565b9150611d5c826124af565b604082019050919050565b6000611d746029836120e5565b9150611d7f826124fe565b604082019050919050565b6000611d976028836120e5565b9150611da28261254d565b604082019050919050565b6000611dba6021836120e5565b9150611dc58261259c565b604082019050919050565b6000611ddd6025836120e5565b9150611de8826125eb565b604082019050919050565b6000611e006029836120e5565b9150611e0b8261263a565b604082019050919050565b6000611e236024836120e5565b9150611e2e82612689565b604082019050919050565b6000611e466025836120e5565b9150611e51826126d8565b604082019050919050565b6000611e69601f836120e5565b9150611e7482612727565b602082019050919050565b611e8881612249565b82525050565b611e9781612253565b82525050565b611ea681612263565b82525050565b6000602082019050611ec16000830184611c70565b92915050565b60006020820190508181036000830152611ee18184611c7f565b905092915050565b60006020820190508181036000830152611f0281611cb8565b9050919050565b60006020820190508181036000830152611f2281611cdb565b9050919050565b60006020820190508181036000830152611f4281611cfe565b9050919050565b60006020820190508181036000830152611f6281611d21565b9050919050565b60006020820190508181036000830152611f8281611d44565b9050919050565b60006020820190508181036000830152611fa281611d67565b9050919050565b60006020820190508181036000830152611fc281611d8a565b9050919050565b60006020820190508181036000830152611fe281611dad565b9050919050565b6000602082019050818103600083015261200281611dd0565b9050919050565b6000602082019050818103600083015261202281611df3565b9050919050565b6000602082019050818103600083015261204281611e16565b9050919050565b6000602082019050818103600083015261206281611e39565b9050919050565b6000602082019050818103600083015261208281611e5c565b9050919050565b600060208201905061209e6000830184611e7f565b92915050565b60006020820190506120b96000830184611e8e565b92915050565b60006020820190506120d46000830184611e9d565b92915050565b600081519050919050565b600082825260208201905092915050565b600061210182612249565b915061210c83612249565b9250827fffffffffffffffffffffffffffffffffffffffffffffffffffffffffffffffff03821115612141576121406122d5565b5b828201905092915050565b600061215782612249565b915061216283612249565b92508261217257612171612304565b5b828204905092915050565b600061218882612249565b915061219383612249565b9250817fffffffffffffffffffffffffffffffffffffffffffffffffffffffffffffffff04831182151516156121cc576121cb6122d5565b5b828202905092915050565b60006121e282612249565b91506121ed83612249565b925082821015612200576121ff6122d5565b5b828203905092915050565b600061221682612229565b9050919050565b60008115159050919050565b600073ffffffffffffffffffffffffffffffffffffffff82169050919050565b6000819050919050565b600063ffffffff82169050919050565b600060ff82169050919050565b60005b8381101561228e578082015181840152602081019050612273565b8381111561229d576000848401525b50505050565b600060028204905060018216806122bb57607f821691505b602082108114156122cf576122ce612333565b5b50919050565b7f4e487b7100000000000000000000000000000000000000000000000000000000600052601160045260246000fd5b7f4e487b7100000000000000000000000000000000000000000000000000000000600052601260045260246000fd5b7f4e487b7100000000000000000000000000000000000000000000000000000000600052602260045260246000fd5b6000601f19601f8301169050919050565b7f45524332303a207472616e7366657220746f20746865207a65726f206164647260008201527f6573730000000000000000000000000000000000000000000000000000000000602082015250565b7f45524332303a206275726e20616d6f756e7420657863656564732062616c616e60008201527f6365000000000000000000000000000000000000000000000000000000000000602082015250565b7f45524332303a20617070726f766520746f20746865207a65726f20616464726560008201527f7373000000000000000000000000000000000000000000000000000000000000602082015250565b7f4f6e6c792043656e7472616c2042616e6b20697320616c6c6f77656420746f2060008201527f63616c6c20746869730000000000000000000000000000000000000000000000602082015250565b7f45524332303a207472616e7366657220616d6f756e742065786365656473206260008201527f616c616e63650000000000000000000000000000000000000000000000000000602082015250565b7f4275726e2063616e206f6e6c7920626520646f6e6520746f207472656173757260008201527f79206163636f756e740000000000000000000000000000000000000000000000602082015250565b7f45524332303a207472616e7366657220616d6f756e742065786365656473206160008201527f6c6c6f77616e6365000000000000000000000000000000000000000000000000602082015250565b7f45524332303a206275726e2066726f6d20746865207a65726f2061646472657360008201527f7300000000000000000000000000000000000000000000000000000000000000602082015250565b7f45524332303a207472616e736665722066726f6d20746865207a65726f20616460008201527f6472657373000000000000000000000000000000000000000000000000000000602082015250565b7f4d696e742063616e206f6e6c7920626520646f6e6520746f207472656173757260008201527f79206163636f756e740000000000000000000000000000000000000000000000602082015250565b7f45524332303a20617070726f76652066726f6d20746865207a65726f2061646460008201527f7265737300000000000000000000000000000000000000000000000000000000602082015250565b7f45524332303a2064656372656173656420616c6c6f77616e63652062656c6f7760008201527f207a65726f000000000000000000000000000000000000000000000000000000602082015250565b7f45524332303a206d696e7420746f20746865207a65726f206164647265737300600082015250565b6127598161220b565b811461276457600080fd5b50565b61277081612249565b811461277b57600080fd5b50565b61278781612253565b811461279257600080fd5b5056fea2646970667358221220a9b9af7f176032d0adfc556c9782e90c7defe5f70b3932b526d2b0b14d70f4ac64736f6c63430008030033",
  "immutableReferences": {},
  "source": "// SPDX-License-Identifier: MIT\n\npragma solidity ^0.8.0;\n\nimport \"./ERC20/IERC20.sol\";\nimport \"./ERC20/extensions/IERC20Metadata.sol\";\nimport \"./utils/Context.sol\";\n\n/**\n * @dev Implementation of the {IERC20} interface as a sovereign moroccan crypto-currency\n *\n */\ncontract MED is Context, IERC20, IERC20Metadata {\n\n    mapping (address => uint256) private _balances;\n\n    uint256 private _totalSupply;\n\n    address _centralBank;\n    address _treasureAccount;\n\n    mapping (address => uint256) private _lastDayTax;\n    uint256 public daysElapsed;\n    uint32 public dailyTaxRate;\n\n    mapping (address => uint256) private _lastMonthIncome;\n    uint256 public monthsElapsed;\n    uint256 public universalMonthlyIncome;\n\n    string private _name = \"Moroccan E-Dirham\";\n    string private _symbol = \"MED\";\n\n    bool public allowMint = false;\n\n    mapping (address => mapping (address => uint256)) private _allowances;\n\n    modifier onlyCentralBank() {\n        require(\n            _msgSender() == _centralBank,\n            \"Only Central Bank is allowed to call this\"\n        );\n        _;\n    } \n\n    /**\n     * The treasure account is the \"root\" account on this currency\n     * param annualTaxRatePercent : percentage of the account that would be taxed in a year\n     *                              tax is applied daily\n     * param umi : Universal Monthly Income\n     * param allowMint : Should we allow central bank to mint new tokens ?\n     */\n    constructor (address treasureAccount, uint32 annualTaxRatePercent, uint256 umi, \n        bool allowMintArg, uint256 initialMint) {\n        _centralBank = _msgSender();\n        _treasureAccount = treasureAccount;\n        dailyTaxRate = annualTaxRatePercent * 10000 / 365;\n        universalMonthlyIncome = umi;\n        allowMint = allowMintArg;\n        _mint(_treasureAccount, initialMint);\n    }\n\n    function name() public view virtual override returns (string memory) {\n        return _name;\n    }\n\n    function symbol() public view virtual override returns (string memory) {\n        return _symbol;\n    }\n\n    /**\n     * MED cyrpto-currency only uses \"cents\" or \"centimes\" as a subdivision\n     */\n    function decimals() public view virtual override returns (uint8) {\n        return 2;\n    }\n\n    function totalSupply() public view virtual override returns (uint256) {\n        return _totalSupply;\n    }\n\n    function balanceOf(address account) public view virtual override returns (uint256) {\n        return _balances[account];\n    }\n\n    function elapsedTaxDaysOf(address account) public view virtual returns (uint256) {\n        return _lastDayTax[account];\n    }\n\n    function elapsedIncomeMonthOf(address account) public view virtual returns (uint256) {\n        return _lastMonthIncome[account];\n    }\n\n    function transfer(address recipient, uint256 amount) public virtual override returns (bool) {\n        _updateAccount(_msgSender());\n        _updateAccount(recipient);\n        _transfer(_msgSender(), recipient, amount);\n        return true;\n    }\n\n    function updateAccount(address taxPayer) public virtual {\n        _updateAccount(taxPayer);\n    }\n\n    function mint(uint256 amount) public virtual onlyCentralBank {\n        require(allowMint);\n        _mint(_treasureAccount, amount);\n    }\n\n    function burn(uint256 amount) public virtual onlyCentralBank {\n        _burn(_treasureAccount, amount);\n    }\n\n    function incrementDay() public virtual onlyCentralBank {\n        daysElapsed = daysElapsed +1;\n    }\n\n    function incrementMonth() public virtual onlyCentralBank {\n        monthsElapsed = monthsElapsed +1;\n    }\n\n    function setNewDailyTaxRate(uint32 newRate) public virtual onlyCentralBank {\n        dailyTaxRate = newRate;\n    }\n\n    function setNewBasicIncome(uint256 newIncome) public virtual onlyCentralBank {\n        universalMonthlyIncome = newIncome;\n    }\n    \n    /**\n    *\n    * * * * * * * * * * * * *\n    * Internal functions    *\n    * * * * * * * * * * * * *\n    *\n    */\n\n    function _calculateIncome(address taxPayer) internal view virtual returns (uint256) {\n        if (taxPayer == _treasureAccount) {\n            return 0;\n        }\n        uint256 taxPayerMonthsElapsed = monthsElapsed - _lastMonthIncome[taxPayer];\n        if (taxPayerMonthsElapsed == 0) {\n            return 0;\n        }\n        return taxPayerMonthsElapsed * universalMonthlyIncome;\n    }\n\n    function _calculateTax(address taxPayer) internal view virtual returns (uint256) {\n        if (taxPayer == _treasureAccount) {\n            return 0;\n        }\n        uint256 taxPayerdaysElapsed = daysElapsed - _lastDayTax[taxPayer];\n        if (taxPayerdaysElapsed == 0) {\n            return 0;\n        }\n        uint256 taxToPay = _balances[taxPayer] * taxPayerdaysElapsed * dailyTaxRate / (1000 * 1000);\n        return taxToPay;\n    }\n\n    function _updateAccount(address taxPayer) internal virtual{\n        _transferIncome(taxPayer);\n        _deductTax(taxPayer);\n    }\n\n    function _transferIncome(address taxPayer) internal virtual {\n        uint256 umi = _calculateIncome(taxPayer);\n        _lastMonthIncome[taxPayer] = monthsElapsed;\n        _transfer(_treasureAccount, taxPayer, umi);\n    }\n\n    function _deductTax(address taxPayer) internal virtual {\n        uint256 taxToPay = _calculateTax(taxPayer);\n        _lastDayTax[taxPayer] = daysElapsed;\n        _transfer(taxPayer, _treasureAccount, taxToPay);\n    }\n\n    function _transfer(address sender, address recipient, uint256 amount) internal virtual {\n        require(sender != address(0), \"ERC20: transfer from the zero address\");\n        require(recipient != address(0), \"ERC20: transfer to the zero address\");\n\n        _beforeTokenTransfer(sender, recipient, amount);\n\n        uint256 senderBalance = _balances[sender];\n        require(senderBalance >= amount, \"ERC20: transfer amount exceeds balance\");\n        _balances[sender] = senderBalance - amount;\n        _balances[recipient] += amount;\n\n        emit Transfer(sender, recipient, amount);\n    }\n\n    function _mint(address account, uint256 amount) internal virtual {\n        require(account != address(0), \"ERC20: mint to the zero address\");\n        require(account == _treasureAccount, \"Mint can only be done to treasury account\");\n\n        _beforeTokenTransfer(address(0), account, amount);\n\n        _totalSupply += amount;\n        _balances[account] += amount;\n        emit Transfer(address(0), account, amount);\n    }\n\n\n    function _burn(address account, uint256 amount) internal virtual {\n        require(account != address(0), \"ERC20: burn from the zero address\");\n        require(account == _treasureAccount, \"Burn can only be done to treasury account\");\n\n        _beforeTokenTransfer(account, address(0), amount);\n\n        uint256 accountBalance = _balances[account];\n        require(accountBalance >= amount, \"ERC20: burn amount exceeds balance\");\n        _balances[account] = accountBalance - amount;\n        _totalSupply -= amount; \n\n        emit Transfer(account, address(0), amount);\n    }\n\n    function allowance(address owner, address spender) public view virtual override returns (uint256) {\n        return _allowances[owner][spender];\n    }\n\n    function approve(address spender, uint256 amount) public virtual override returns (bool) {\n        _approve(_msgSender(), spender, amount);\n        return true;\n    }\n\n    function transferFrom(address sender, address recipient, uint256 amount) public virtual override returns (bool) {\n        _transfer(sender, recipient, amount);\n\n        uint256 currentAllowance = _allowances[sender][_msgSender()];\n        require(currentAllowance >= amount, \"ERC20: transfer amount exceeds allowance\");\n        _approve(sender, _msgSender(), currentAllowance - amount);\n\n        return true;\n    }\n\n    function increaseAllowance(address spender, uint256 addedValue) public virtual returns (bool) {\n        _approve(_msgSender(), spender, _allowances[_msgSender()][spender] + addedValue);\n        return true;\n    }\n    \n    function decreaseAllowance(address spender, uint256 subtractedValue) public virtual returns (bool) {\n        uint256 currentAllowance = _allowances[_msgSender()][spender];\n        require(currentAllowance >= subtractedValue, \"ERC20: decreased allowance below zero\");\n        _approve(_msgSender(), spender, currentAllowance - subtractedValue);\n\n        return true;\n    }\n    \n    function _approve(address owner, address spender, uint256 amount) internal virtual {\n        require(owner != address(0), \"ERC20: approve from the zero address\");\n        require(spender != address(0), \"ERC20: approve to the zero address\");\n\n        _allowances[owner][spender] = amount;\n        emit Approval(owner, spender, amount);\n    }\n\n    function _beforeTokenTransfer(address from, address to, uint256 amount) internal virtual { }\n}\n",
  "sourcePath": "/home/issam/git/med-erc20/sol/truffle/contracts/MED.sol",
  "compiler": {
    "name": "solc",
    "version": "0.8.3+commit.8d00100c.Emscripten.clang"
  },
  "schemaVersion": "3.2.4",
  "updatedAt": "2021-04-24T22:38:09.259Z",
  "devdoc": {
    "details": "Implementation of the {IERC20} interface as a sovereign moroccan crypto-currency",
    "kind": "dev",
    "methods": {
      "allowance(address,address)": {
        "details": "Returns the remaining number of tokens that `spender` will be allowed to spend on behalf of `owner` through {transferFrom}. This is zero by default. This value changes when {approve} or {transferFrom} are called."
      },
      "approve(address,uint256)": {
        "details": "Sets `amount` as the allowance of `spender` over the caller's tokens. Returns a boolean value indicating whether the operation succeeded. IMPORTANT: Beware that changing an allowance with this method brings the risk that someone may use both the old and the new allowance by unfortunate transaction ordering. One possible solution to mitigate this race condition is to first reduce the spender's allowance to 0 and set the desired value afterwards: https://github.com/ethereum/EIPs/issues/20#issuecomment-263524729 Emits an {Approval} event."
      },
      "balanceOf(address)": {
        "details": "Returns the amount of tokens owned by `account`."
      },
      "name()": {
        "details": "Returns the name of the token."
      },
      "symbol()": {
        "details": "Returns the symbol of the token."
      },
      "totalSupply()": {
        "details": "Returns the amount of tokens in existence."
      },
      "transfer(address,uint256)": {
        "details": "Moves `amount` tokens from the caller's account to `recipient`. Returns a boolean value indicating whether the operation succeeded. Emits a {Transfer} event."
      },
      "transferFrom(address,address,uint256)": {
        "details": "Moves `amount` tokens from `sender` to `recipient` using the allowance mechanism. `amount` is then deducted from the caller's allowance. Returns a boolean value indicating whether the operation succeeded. Emits a {Transfer} event."
      }
    },
    "version": 1
  },
  "userdoc": {
    "kind": "user",
    "methods": {
      "constructor": {
        "notice": "The treasure account is the \"root\" account on this currency param annualTaxRatePercent : percentage of the account that would be taxed in a year                              tax is applied daily param umi : Universal Monthly Income param allowMint : Should we allow central bank to mint new tokens ?"
      },
      "decimals()": {
        "notice": "MED cyrpto-currency only uses \"cents\" or \"centimes\" as a subdivision"
      }
    },
    "version": 1
  }
}