{
  "contractName": "MED",
  "abi": [
    {
      "inputs": [
        {
          "internalType": "address",
          "name": "treasureAccount",
          "type": "address"
        },
        {
          "internalType": "uint32",
          "name": "annualTaxRatePercent",
          "type": "uint32"
        },
        {
          "internalType": "uint256",
          "name": "umi",
          "type": "uint256"
        },
        {
          "internalType": "bool",
          "name": "allowMintArg",
          "type": "bool"
        },
        {
          "internalType": "uint256",
          "name": "initialMint",
          "type": "uint256"
        }
      ],
      "stateMutability": "nonpayable",
      "type": "constructor"
    },
    {
      "anonymous": false,
      "inputs": [
        {
          "indexed": true,
          "internalType": "address",
          "name": "owner",
          "type": "address"
        },
        {
          "indexed": true,
          "internalType": "address",
          "name": "spender",
          "type": "address"
        },
        {
          "indexed": false,
          "internalType": "uint256",
          "name": "value",
          "type": "uint256"
        }
      ],
      "name": "Approval",
      "type": "event"
    },
    {
      "anonymous": false,
      "inputs": [
        {
          "indexed": true,
          "internalType": "address",
          "name": "from",
          "type": "address"
        },
        {
          "indexed": true,
          "internalType": "address",
          "name": "to",
          "type": "address"
        },
        {
          "indexed": false,
          "internalType": "uint256",
          "name": "value",
          "type": "uint256"
        }
      ],
      "name": "Transfer",
      "type": "event"
    },
    {
      "inputs": [],
      "name": "allowMint",
      "outputs": [
        {
          "internalType": "bool",
          "name": "",
          "type": "bool"
        }
      ],
      "stateMutability": "view",
      "type": "function"
    },
    {
      "inputs": [
        {
          "internalType": "address",
          "name": "owner",
          "type": "address"
        },
        {
          "internalType": "address",
          "name": "spender",
          "type": "address"
        }
      ],
      "name": "allowance",
      "outputs": [
        {
          "internalType": "uint256",
          "name": "",
          "type": "uint256"
        }
      ],
      "stateMutability": "view",
      "type": "function"
    },
    {
      "inputs": [
        {
          "internalType": "address",
          "name": "spender",
          "type": "address"
        },
        {
          "internalType": "uint256",
          "name": "amount",
          "type": "uint256"
        }
      ],
      "name": "approve",
      "outputs": [
        {
          "internalType": "bool",
          "name": "",
          "type": "bool"
        }
      ],
      "stateMutability": "nonpayable",
      "type": "function"
    },
    {
      "inputs": [
        {
          "internalType": "address",
          "name": "account",
          "type": "address"
        }
      ],
      "name": "balanceOf",
      "outputs": [
        {
          "internalType": "uint256",
          "name": "",
          "type": "uint256"
        }
      ],
      "stateMutability": "view",
      "type": "function"
    },
    {
      "inputs": [],
      "name": "dailyTaxRate",
      "outputs": [
        {
          "internalType": "uint32",
          "name": "",
          "type": "uint32"
        }
      ],
      "stateMutability": "view",
      "type": "function"
    },
    {
      "inputs": [],
      "name": "daysElapsed",
      "outputs": [
        {
          "internalType": "uint256",
          "name": "",
          "type": "uint256"
        }
      ],
      "stateMutability": "view",
      "type": "function"
    },
    {
      "inputs": [
        {
          "internalType": "address",
          "name": "spender",
          "type": "address"
        },
        {
          "internalType": "uint256",
          "name": "subtractedValue",
          "type": "uint256"
        }
      ],
      "name": "decreaseAllowance",
      "outputs": [
        {
          "internalType": "bool",
          "name": "",
          "type": "bool"
        }
      ],
      "stateMutability": "nonpayable",
      "type": "function"
    },
    {
      "inputs": [
        {
          "internalType": "address",
          "name": "spender",
          "type": "address"
        },
        {
          "internalType": "uint256",
          "name": "addedValue",
          "type": "uint256"
        }
      ],
      "name": "increaseAllowance",
      "outputs": [
        {
          "internalType": "bool",
          "name": "",
          "type": "bool"
        }
      ],
      "stateMutability": "nonpayable",
      "type": "function"
    },
    {
      "inputs": [],
      "name": "monthsElapsed",
      "outputs": [
        {
          "internalType": "uint256",
          "name": "",
          "type": "uint256"
        }
      ],
      "stateMutability": "view",
      "type": "function"
    },
    {
      "inputs": [],
      "name": "name",
      "outputs": [
        {
          "internalType": "string",
          "name": "",
          "type": "string"
        }
      ],
      "stateMutability": "view",
      "type": "function"
    },
    {
      "inputs": [],
      "name": "symbol",
      "outputs": [
        {
          "internalType": "string",
          "name": "",
          "type": "string"
        }
      ],
      "stateMutability": "view",
      "type": "function"
    },
    {
      "inputs": [],
      "name": "totalSupply",
      "outputs": [
        {
          "internalType": "uint256",
          "name": "",
          "type": "uint256"
        }
      ],
      "stateMutability": "view",
      "type": "function"
    },
    {
      "inputs": [
        {
          "internalType": "address",
          "name": "sender",
          "type": "address"
        },
        {
          "internalType": "address",
          "name": "recipient",
          "type": "address"
        },
        {
          "internalType": "uint256",
          "name": "amount",
          "type": "uint256"
        }
      ],
      "name": "transferFrom",
      "outputs": [
        {
          "internalType": "bool",
          "name": "",
          "type": "bool"
        }
      ],
      "stateMutability": "nonpayable",
      "type": "function"
    },
    {
      "inputs": [],
      "name": "universalMonthlyIncome",
      "outputs": [
        {
          "internalType": "uint256",
          "name": "",
          "type": "uint256"
        }
      ],
      "stateMutability": "view",
      "type": "function"
    },
    {
      "inputs": [],
      "name": "decimals",
      "outputs": [
        {
          "internalType": "uint8",
          "name": "",
          "type": "uint8"
        }
      ],
      "stateMutability": "view",
      "type": "function"
    },
    {
      "inputs": [
        {
          "internalType": "address",
          "name": "account",
          "type": "address"
        }
      ],
      "name": "elapsedTaxDaysOf",
      "outputs": [
        {
          "internalType": "uint256",
          "name": "",
          "type": "uint256"
        }
      ],
      "stateMutability": "view",
      "type": "function"
    },
    {
      "inputs": [
        {
          "internalType": "address",
          "name": "account",
          "type": "address"
        }
      ],
      "name": "elapsedIncomeMonthOf",
      "outputs": [
        {
          "internalType": "uint256",
          "name": "",
          "type": "uint256"
        }
      ],
      "stateMutability": "view",
      "type": "function"
    },
    {
      "inputs": [
        {
          "internalType": "address",
          "name": "recipient",
          "type": "address"
        },
        {
          "internalType": "uint256",
          "name": "amount",
          "type": "uint256"
        }
      ],
      "name": "transfer",
      "outputs": [
        {
          "internalType": "bool",
          "name": "",
          "type": "bool"
        }
      ],
      "stateMutability": "nonpayable",
      "type": "function"
    },
    {
      "inputs": [
        {
          "internalType": "address",
          "name": "taxPayer",
          "type": "address"
        }
      ],
      "name": "updateAccount",
      "outputs": [],
      "stateMutability": "nonpayable",
      "type": "function"
    },
    {
      "inputs": [
        {
          "internalType": "uint256",
          "name": "amount",
          "type": "uint256"
        }
      ],
      "name": "mint",
      "outputs": [],
      "stateMutability": "nonpayable",
      "type": "function"
    },
    {
      "inputs": [
        {
          "internalType": "uint256",
          "name": "amount",
          "type": "uint256"
        }
      ],
      "name": "burn",
      "outputs": [],
      "stateMutability": "nonpayable",
      "type": "function"
    },
    {
      "inputs": [],
      "name": "incrementDay",
      "outputs": [],
      "stateMutability": "nonpayable",
      "type": "function"
    },
    {
      "inputs": [],
      "name": "incrementMonth",
      "outputs": [],
      "stateMutability": "nonpayable",
      "type": "function"
    },
    {
      "inputs": [
        {
          "internalType": "uint32",
          "name": "newRate",
          "type": "uint32"
        }
      ],
      "name": "setNewDailyTaxRate",
      "outputs": [],
      "stateMutability": "nonpayable",
      "type": "function"
    },
    {
      "inputs": [
        {
          "internalType": "uint256",
          "name": "newIncome",
          "type": "uint256"
        }
      ],
      "name": "setNewBasicIncome",
      "outputs": [],
      "stateMutability": "nonpayable",
      "type": "function"
    }
  ],
  "bytecode": "0x60806040526000600d60006101000a81548160ff0219169083151502179055503480156200002c57600080fd5b5060405162002d9338038062002d938339818101604052810190620000529190620004a0565b6040518060400160405280601181526020017f4d6f726f6363616e20452d44697268616d0000000000000000000000000000008152506040518060400160405280600381526020017f4d454400000000000000000000000000000000000000000000000000000000008152508160039080519060200190620000d692919062000394565b508060049080519060200190620000ef92919062000394565b505050620001026200022260201b60201c565b600560006101000a81548173ffffffffffffffffffffffffffffffffffffffff021916908373ffffffffffffffffffffffffffffffffffffffff16021790555084600660006101000a81548173ffffffffffffffffffffffffffffffffffffffff021916908373ffffffffffffffffffffffffffffffffffffffff16021790555061016d612710856200019691906200063f565b620001a2919062000607565b600960006101000a81548163ffffffff021916908363ffffffff16021790555082600c8190555081600d60006101000a81548160ff02191690831515021790555062000217600660009054906101000a900473ffffffffffffffffffffffffffffffffffffffff16826200022a60201b60201c565b505050505062000832565b600033905090565b600073ffffffffffffffffffffffffffffffffffffffff168273ffffffffffffffffffffffffffffffffffffffff1614156200029d576040517f08c379a000000000000000000000000000000000000000000000000000000000815260040162000294906200055a565b60405180910390fd5b620002b1600083836200038f60201b60201c565b8060026000828254620002c59190620005aa565b92505081905550806000808473ffffffffffffffffffffffffffffffffffffffff1673ffffffffffffffffffffffffffffffffffffffff16815260200190815260200160002060008282546200031c9190620005aa565b925050819055508173ffffffffffffffffffffffffffffffffffffffff16600073ffffffffffffffffffffffffffffffffffffffff167fddf252ad1be2c89b69c2b068fc378daa952ba7f163c4a11628f55a4df523b3ef836040516200038391906200057c565b60405180910390a35050565b505050565b828054620003a290620006de565b90600052602060002090601f016020900481019282620003c6576000855562000412565b82601f10620003e157805160ff191683800117855562000412565b8280016001018555821562000412579182015b8281111562000411578251825591602001919060010190620003f4565b5b50905062000421919062000425565b5090565b5b808211156200044057600081600090555060010162000426565b5090565b6000815190506200045581620007ca565b92915050565b6000815190506200046c81620007e4565b92915050565b6000815190506200048381620007fe565b92915050565b6000815190506200049a8162000818565b92915050565b600080600080600060a08688031215620004b957600080fd5b6000620004c98882890162000444565b9550506020620004dc8882890162000489565b9450506040620004ef8882890162000472565b935050606062000502888289016200045b565b9250506080620005158882890162000472565b9150509295509295909350565b600062000531601f8362000599565b91506200053e82620007a1565b602082019050919050565b6200055481620006c4565b82525050565b60006020820190508181036000830152620005758162000522565b9050919050565b600060208201905062000593600083018462000549565b92915050565b600082825260208201905092915050565b6000620005b782620006c4565b9150620005c483620006c4565b9250827fffffffffffffffffffffffffffffffffffffffffffffffffffffffffffffffff03821115620005fc57620005fb62000714565b5b828201905092915050565b60006200061482620006ce565b91506200062183620006ce565b92508262000634576200063362000743565b5b828204905092915050565b60006200064c82620006ce565b91506200065983620006ce565b92508163ffffffff048311821515161562000679576200067862000714565b5b828202905092915050565b60006200069182620006a4565b9050919050565b60008115159050919050565b600073ffffffffffffffffffffffffffffffffffffffff82169050919050565b6000819050919050565b600063ffffffff82169050919050565b60006002820490506001821680620006f757607f821691505b602082108114156200070e576200070d62000772565b5b50919050565b7f4e487b7100000000000000000000000000000000000000000000000000000000600052601160045260246000fd5b7f4e487b7100000000000000000000000000000000000000000000000000000000600052601260045260246000fd5b7f4e487b7100000000000000000000000000000000000000000000000000000000600052602260045260246000fd5b7f45524332303a206d696e7420746f20746865207a65726f206164647265737300600082015250565b620007d58162000684565b8114620007e157600080fd5b50565b620007ef8162000698565b8114620007fb57600080fd5b50565b6200080981620006c4565b81146200081557600080fd5b50565b6200082381620006ce565b81146200082f57600080fd5b50565b61255180620008426000396000f3fe608060405234801561001057600080fd5b50600436106101735760003560e01c80635b073d23116100de578063a0712d6811610097578063da21bcec11610071578063da21bcec14610462578063dbbe09361461047e578063dd62ed3e14610488578063ec714a81146104b857610173565b8063a0712d68146103e6578063a457c2d714610402578063a9059cbb1461043257610173565b80635b073d231461032257806367ed0c791461034057806370a082311461034a57806380477a4c1461037a578063850401051461039857806395d89b41146103c857610173565b80632a96e410116101305780632a96e410146102625780632ce3d4401461027e578063313ce5671461029a57806339509351146102b857806342966c68146102e85780634fb6b0591461030457610173565b806306fdde0314610178578063095ea7b31461019657806311e0df82146101c657806318160ddd146101f65780631b8dca741461021457806323b872dd14610232575b600080fd5b6101806104d6565b60405161018d9190611d2b565b60405180910390f35b6101b060048036038101906101ab9190611a8c565b610568565b6040516101bd9190611d10565b60405180910390f35b6101e060048036038101906101db91906119d8565b610586565b6040516101ed9190611ead565b60405180910390f35b6101fe6105cf565b60405161020b9190611ead565b60405180910390f35b61021c6105d9565b6040516102299190611d10565b60405180910390f35b61024c60048036038101906102479190611a3d565b6105ec565b6040516102599190611d10565b60405180910390f35b61027c60048036038101906102779190611af1565b6106ed565b005b610298600480360381019061029391906119d8565b6107a8565b005b6102a26107b4565b6040516102af9190611ee3565b60405180910390f35b6102d260048036038101906102cd9190611a8c565b6107bd565b6040516102df9190611d10565b60405180910390f35b61030260048036038101906102fd9190611ac8565b610869565b005b61030c61092f565b6040516103199190611ead565b60405180910390f35b61032a610935565b6040516103379190611ec8565b60405180910390f35b61034861094b565b005b610364600480360381019061035f91906119d8565b6109f9565b6040516103719190611ead565b60405180910390f35b610382610a41565b60405161038f9190611ead565b60405180910390f35b6103b260048036038101906103ad91906119d8565b610a47565b6040516103bf9190611ead565b60405180910390f35b6103d0610a90565b6040516103dd9190611d2b565b60405180910390f35b61040060048036038101906103fb9190611ac8565b610b22565b005b61041c60048036038101906104179190611a8c565b610c01565b6040516104299190611d10565b60405180910390f35b61044c60048036038101906104479190611a8c565b610cf5565b6040516104599190611d10565b60405180910390f35b61047c60048036038101906104779190611ac8565b610d2c565b005b610486610dcd565b005b6104a2600480360381019061049d9190611a01565b610e7b565b6040516104af9190611ead565b60405180910390f35b6104c0610f02565b6040516104cd9190611ead565b60405180910390f35b6060600380546104e5906120c7565b80601f0160208091040260200160405190810160405280929190818152602001828054610511906120c7565b801561055e5780601f106105335761010080835404028352916020019161055e565b820191906000526020600020905b81548152906001019060200180831161054157829003601f168201915b5050505050905090565b600061057c610575610f08565b8484610f10565b6001905092915050565b6000600760008373ffffffffffffffffffffffffffffffffffffffff1673ffffffffffffffffffffffffffffffffffffffff168152602001908152602001600020549050919050565b6000600254905090565b600d60009054906101000a900460ff1681565b60006105f98484846110db565b6000600160008673ffffffffffffffffffffffffffffffffffffffff1673ffffffffffffffffffffffffffffffffffffffff1681526020019081526020016000206000610644610f08565b73ffffffffffffffffffffffffffffffffffffffff1673ffffffffffffffffffffffffffffffffffffffff168152602001908152602001600020549050828110156106c4576040517f08c379a00000000000000000000000000000000000000000000000000000000081526004016106bb90611ded565b60405180910390fd5b6106e1856106d0610f08565b85846106dc9190611ffb565b610f10565b60019150509392505050565b600560009054906101000a900473ffffffffffffffffffffffffffffffffffffffff1673ffffffffffffffffffffffffffffffffffffffff1661072e610f08565b73ffffffffffffffffffffffffffffffffffffffff1614610784576040517f08c379a000000000000000000000000000000000000000000000000000000000815260040161077b90611dad565b60405180910390fd5b80600960006101000a81548163ffffffff021916908363ffffffff16021790555050565b6107b18161135a565b50565b60006002905090565b600061085f6107ca610f08565b8484600160006107d8610f08565b73ffffffffffffffffffffffffffffffffffffffff1673ffffffffffffffffffffffffffffffffffffffff16815260200190815260200160002060008873ffffffffffffffffffffffffffffffffffffffff1673ffffffffffffffffffffffffffffffffffffffff1681526020019081526020016000205461085a9190611f1a565b610f10565b6001905092915050565b600560009054906101000a900473ffffffffffffffffffffffffffffffffffffffff1673ffffffffffffffffffffffffffffffffffffffff166108aa610f08565b73ffffffffffffffffffffffffffffffffffffffff1614610900576040517f08c379a00000000000000000000000000000000000000000000000000000000081526004016108f790611dad565b60405180910390fd5b61092c600660009054906101000a900473ffffffffffffffffffffffffffffffffffffffff168261136f565b50565b600b5481565b600960009054906101000a900463ffffffff1681565b600560009054906101000a900473ffffffffffffffffffffffffffffffffffffffff1673ffffffffffffffffffffffffffffffffffffffff1661098c610f08565b73ffffffffffffffffffffffffffffffffffffffff16146109e2576040517f08c379a00000000000000000000000000000000000000000000000000000000081526004016109d990611dad565b60405180910390fd5b60016008546109f19190611f1a565b600881905550565b60008060008373ffffffffffffffffffffffffffffffffffffffff1673ffffffffffffffffffffffffffffffffffffffff168152602001908152602001600020549050919050565b60085481565b6000600a60008373ffffffffffffffffffffffffffffffffffffffff1673ffffffffffffffffffffffffffffffffffffffff168152602001908152602001600020549050919050565b606060048054610a9f906120c7565b80601f0160208091040260200160405190810160405280929190818152602001828054610acb906120c7565b8015610b185780601f10610aed57610100808354040283529160200191610b18565b820191906000526020600020905b815481529060010190602001808311610afb57829003601f168201915b5050505050905090565b600560009054906101000a900473ffffffffffffffffffffffffffffffffffffffff1673ffffffffffffffffffffffffffffffffffffffff16610b63610f08565b73ffffffffffffffffffffffffffffffffffffffff1614610bb9576040517f08c379a0000000000000000000000000000000000000000000000000000000008152600401610bb090611dad565b60405180910390fd5b600d60009054906101000a900460ff16610bd257600080fd5b610bfe600660009054906101000a900473ffffffffffffffffffffffffffffffffffffffff1682611543565b50565b60008060016000610c10610f08565b73ffffffffffffffffffffffffffffffffffffffff1673ffffffffffffffffffffffffffffffffffffffff16815260200190815260200160002060008573ffffffffffffffffffffffffffffffffffffffff1673ffffffffffffffffffffffffffffffffffffffff16815260200190815260200160002054905082811015610ccd576040517f08c379a0000000000000000000000000000000000000000000000000000000008152600401610cc490611e6d565b60405180910390fd5b610cea610cd8610f08565b858584610ce59190611ffb565b610f10565b600191505092915050565b6000610d07610d02610f08565b61135a565b610d108361135a565b610d22610d1b610f08565b84846110db565b6001905092915050565b600560009054906101000a900473ffffffffffffffffffffffffffffffffffffffff1673ffffffffffffffffffffffffffffffffffffffff16610d6d610f08565b73ffffffffffffffffffffffffffffffffffffffff1614610dc3576040517f08c379a0000000000000000000000000000000000000000000000000000000008152600401610dba90611dad565b60405180910390fd5b80600c8190555050565b600560009054906101000a900473ffffffffffffffffffffffffffffffffffffffff1673ffffffffffffffffffffffffffffffffffffffff16610e0e610f08565b73ffffffffffffffffffffffffffffffffffffffff1614610e64576040517f08c379a0000000000000000000000000000000000000000000000000000000008152600401610e5b90611dad565b60405180910390fd5b6001600b54610e739190611f1a565b600b81905550565b6000600160008473ffffffffffffffffffffffffffffffffffffffff1673ffffffffffffffffffffffffffffffffffffffff16815260200190815260200160002060008373ffffffffffffffffffffffffffffffffffffffff1673ffffffffffffffffffffffffffffffffffffffff16815260200190815260200160002054905092915050565b600c5481565b600033905090565b600073ffffffffffffffffffffffffffffffffffffffff168373ffffffffffffffffffffffffffffffffffffffff161415610f80576040517f08c379a0000000000000000000000000000000000000000000000000000000008152600401610f7790611e4d565b60405180910390fd5b600073ffffffffffffffffffffffffffffffffffffffff168273ffffffffffffffffffffffffffffffffffffffff161415610ff0576040517f08c379a0000000000000000000000000000000000000000000000000000000008152600401610fe790611d8d565b60405180910390fd5b80600160008573ffffffffffffffffffffffffffffffffffffffff1673ffffffffffffffffffffffffffffffffffffffff16815260200190815260200160002060008473ffffffffffffffffffffffffffffffffffffffff1673ffffffffffffffffffffffffffffffffffffffff168152602001908152602001600020819055508173ffffffffffffffffffffffffffffffffffffffff168373ffffffffffffffffffffffffffffffffffffffff167f8c5be1e5ebec7d5bd14f71427d1e84f3dd0314c0f7b2291e5b200ac8c7c3b925836040516110ce9190611ead565b60405180910390a3505050565b600073ffffffffffffffffffffffffffffffffffffffff168373ffffffffffffffffffffffffffffffffffffffff16141561114b576040517f08c379a000000000000000000000000000000000000000000000000000000000815260040161114290611e2d565b60405180910390fd5b600073ffffffffffffffffffffffffffffffffffffffff168273ffffffffffffffffffffffffffffffffffffffff1614156111bb576040517f08c379a00000000000000000000000000000000000000000000000000000000081526004016111b290611d4d565b60405180910390fd5b6111c6838383611697565b60008060008573ffffffffffffffffffffffffffffffffffffffff1673ffffffffffffffffffffffffffffffffffffffff1681526020019081526020016000205490508181101561124c576040517f08c379a000000000000000000000000000000000000000000000000000000000815260040161124390611dcd565b60405180910390fd5b81816112589190611ffb565b6000808673ffffffffffffffffffffffffffffffffffffffff1673ffffffffffffffffffffffffffffffffffffffff16815260200190815260200160002081905550816000808573ffffffffffffffffffffffffffffffffffffffff1673ffffffffffffffffffffffffffffffffffffffff16815260200190815260200160002060008282546112e89190611f1a565b925050819055508273ffffffffffffffffffffffffffffffffffffffff168473ffffffffffffffffffffffffffffffffffffffff167fddf252ad1be2c89b69c2b068fc378daa952ba7f163c4a11628f55a4df523b3ef8460405161134c9190611ead565b60405180910390a350505050565b6113638161169c565b61136c81611720565b50565b600073ffffffffffffffffffffffffffffffffffffffff168273ffffffffffffffffffffffffffffffffffffffff1614156113df576040517f08c379a00000000000000000000000000000000000000000000000000000000081526004016113d690611e0d565b60405180910390fd5b6113eb82600083611697565b60008060008473ffffffffffffffffffffffffffffffffffffffff1673ffffffffffffffffffffffffffffffffffffffff16815260200190815260200160002054905081811015611471576040517f08c379a000000000000000000000000000000000000000000000000000000000815260040161146890611d6d565b60405180910390fd5b818161147d9190611ffb565b6000808573ffffffffffffffffffffffffffffffffffffffff1673ffffffffffffffffffffffffffffffffffffffff1681526020019081526020016000208190555081600260008282546114d19190611ffb565b92505081905550600073ffffffffffffffffffffffffffffffffffffffff168373ffffffffffffffffffffffffffffffffffffffff167fddf252ad1be2c89b69c2b068fc378daa952ba7f163c4a11628f55a4df523b3ef846040516115369190611ead565b60405180910390a3505050565b600073ffffffffffffffffffffffffffffffffffffffff168273ffffffffffffffffffffffffffffffffffffffff1614156115b3576040517f08c379a00000000000000000000000000000000000000000000000000000000081526004016115aa90611e8d565b60405180910390fd5b6115bf60008383611697565b80600260008282546115d19190611f1a565b92505081905550806000808473ffffffffffffffffffffffffffffffffffffffff1673ffffffffffffffffffffffffffffffffffffffff16815260200190815260200160002060008282546116269190611f1a565b925050819055508173ffffffffffffffffffffffffffffffffffffffff16600073ffffffffffffffffffffffffffffffffffffffff167fddf252ad1be2c89b69c2b068fc378daa952ba7f163c4a11628f55a4df523b3ef8360405161168b9190611ead565b60405180910390a35050565b505050565b60006116a7826117a4565b9050600b54600a60008473ffffffffffffffffffffffffffffffffffffffff1673ffffffffffffffffffffffffffffffffffffffff1681526020019081526020016000208190555061171c600660009054906101000a900473ffffffffffffffffffffffffffffffffffffffff1683836110db565b5050565b600061172b82611880565b9050600854600760008473ffffffffffffffffffffffffffffffffffffffff1673ffffffffffffffffffffffffffffffffffffffff168152602001908152602001600020819055506117a082600660009054906101000a900473ffffffffffffffffffffffffffffffffffffffff16836110db565b5050565b6000600660009054906101000a900473ffffffffffffffffffffffffffffffffffffffff1673ffffffffffffffffffffffffffffffffffffffff168273ffffffffffffffffffffffffffffffffffffffff161415611805576000905061187b565b6000600a60008473ffffffffffffffffffffffffffffffffffffffff1673ffffffffffffffffffffffffffffffffffffffff16815260200190815260200160002054600b546118549190611ffb565b9050600081141561186957600091505061187b565b600c54816118779190611fa1565b9150505b919050565b6000600660009054906101000a900473ffffffffffffffffffffffffffffffffffffffff1673ffffffffffffffffffffffffffffffffffffffff168273ffffffffffffffffffffffffffffffffffffffff1614156118e15760009050611994565b6000600760008473ffffffffffffffffffffffffffffffffffffffff1673ffffffffffffffffffffffffffffffffffffffff168152602001908152602001600020546008546119309190611ffb565b90506000811415611945576000915050611994565b6000620f4240600960009054906101000a900463ffffffff1663ffffffff168361196e876109f9565b6119789190611fa1565b6119829190611fa1565b61198c9190611f70565b905080925050505b919050565b6000813590506119a8816124d6565b92915050565b6000813590506119bd816124ed565b92915050565b6000813590506119d281612504565b92915050565b6000602082840312156119ea57600080fd5b60006119f884828501611999565b91505092915050565b60008060408385031215611a1457600080fd5b6000611a2285828601611999565b9250506020611a3385828601611999565b9150509250929050565b600080600060608486031215611a5257600080fd5b6000611a6086828701611999565b9350506020611a7186828701611999565b9250506040611a82868287016119ae565b9150509250925092565b60008060408385031215611a9f57600080fd5b6000611aad85828601611999565b9250506020611abe858286016119ae565b9150509250929050565b600060208284031215611ada57600080fd5b6000611ae8848285016119ae565b91505092915050565b600060208284031215611b0357600080fd5b6000611b11848285016119c3565b91505092915050565b611b2381612041565b82525050565b6000611b3482611efe565b611b3e8185611f09565b9350611b4e818560208601612094565b611b5781612186565b840191505092915050565b6000611b6f602383611f09565b9150611b7a82612197565b604082019050919050565b6000611b92602283611f09565b9150611b9d826121e6565b604082019050919050565b6000611bb5602283611f09565b9150611bc082612235565b604082019050919050565b6000611bd8602983611f09565b9150611be382612284565b604082019050919050565b6000611bfb602683611f09565b9150611c06826122d3565b604082019050919050565b6000611c1e602883611f09565b9150611c2982612322565b604082019050919050565b6000611c41602183611f09565b9150611c4c82612371565b604082019050919050565b6000611c64602583611f09565b9150611c6f826123c0565b604082019050919050565b6000611c87602483611f09565b9150611c928261240f565b604082019050919050565b6000611caa602583611f09565b9150611cb58261245e565b604082019050919050565b6000611ccd601f83611f09565b9150611cd8826124ad565b602082019050919050565b611cec8161206d565b82525050565b611cfb81612077565b82525050565b611d0a81612087565b82525050565b6000602082019050611d256000830184611b1a565b92915050565b60006020820190508181036000830152611d458184611b29565b905092915050565b60006020820190508181036000830152611d6681611b62565b9050919050565b60006020820190508181036000830152611d8681611b85565b9050919050565b60006020820190508181036000830152611da681611ba8565b9050919050565b60006020820190508181036000830152611dc681611bcb565b9050919050565b60006020820190508181036000830152611de681611bee565b9050919050565b60006020820190508181036000830152611e0681611c11565b9050919050565b60006020820190508181036000830152611e2681611c34565b9050919050565b60006020820190508181036000830152611e4681611c57565b9050919050565b60006020820190508181036000830152611e6681611c7a565b9050919050565b60006020820190508181036000830152611e8681611c9d565b9050919050565b60006020820190508181036000830152611ea681611cc0565b9050919050565b6000602082019050611ec26000830184611ce3565b92915050565b6000602082019050611edd6000830184611cf2565b92915050565b6000602082019050611ef86000830184611d01565b92915050565b600081519050919050565b600082825260208201905092915050565b6000611f258261206d565b9150611f308361206d565b9250827fffffffffffffffffffffffffffffffffffffffffffffffffffffffffffffffff03821115611f6557611f646120f9565b5b828201905092915050565b6000611f7b8261206d565b9150611f868361206d565b925082611f9657611f95612128565b5b828204905092915050565b6000611fac8261206d565b9150611fb78361206d565b9250817fffffffffffffffffffffffffffffffffffffffffffffffffffffffffffffffff0483118215151615611ff057611fef6120f9565b5b828202905092915050565b60006120068261206d565b91506120118361206d565b925082821015612024576120236120f9565b5b828203905092915050565b600061203a8261204d565b9050919050565b60008115159050919050565b600073ffffffffffffffffffffffffffffffffffffffff82169050919050565b6000819050919050565b600063ffffffff82169050919050565b600060ff82169050919050565b60005b838110156120b2578082015181840152602081019050612097565b838111156120c1576000848401525b50505050565b600060028204905060018216806120df57607f821691505b602082108114156120f3576120f2612157565b5b50919050565b7f4e487b7100000000000000000000000000000000000000000000000000000000600052601160045260246000fd5b7f4e487b7100000000000000000000000000000000000000000000000000000000600052601260045260246000fd5b7f4e487b7100000000000000000000000000000000000000000000000000000000600052602260045260246000fd5b6000601f19601f8301169050919050565b7f45524332303a207472616e7366657220746f20746865207a65726f206164647260008201527f6573730000000000000000000000000000000000000000000000000000000000602082015250565b7f45524332303a206275726e20616d6f756e7420657863656564732062616c616e60008201527f6365000000000000000000000000000000000000000000000000000000000000602082015250565b7f45524332303a20617070726f766520746f20746865207a65726f20616464726560008201527f7373000000000000000000000000000000000000000000000000000000000000602082015250565b7f4f6e6c792043656e7472616c2042616e6b20697320616c6c6f77656420746f2060008201527f63616c6c20746869730000000000000000000000000000000000000000000000602082015250565b7f45524332303a207472616e7366657220616d6f756e742065786365656473206260008201527f616c616e63650000000000000000000000000000000000000000000000000000602082015250565b7f45524332303a207472616e7366657220616d6f756e742065786365656473206160008201527f6c6c6f77616e6365000000000000000000000000000000000000000000000000602082015250565b7f45524332303a206275726e2066726f6d20746865207a65726f2061646472657360008201527f7300000000000000000000000000000000000000000000000000000000000000602082015250565b7f45524332303a207472616e736665722066726f6d20746865207a65726f20616460008201527f6472657373000000000000000000000000000000000000000000000000000000602082015250565b7f45524332303a20617070726f76652066726f6d20746865207a65726f2061646460008201527f7265737300000000000000000000000000000000000000000000000000000000602082015250565b7f45524332303a2064656372656173656420616c6c6f77616e63652062656c6f7760008201527f207a65726f000000000000000000000000000000000000000000000000000000602082015250565b7f45524332303a206d696e7420746f20746865207a65726f206164647265737300600082015250565b6124df8161202f565b81146124ea57600080fd5b50565b6124f68161206d565b811461250157600080fd5b50565b61250d81612077565b811461251857600080fd5b5056fea2646970667358221220607fdae8da9a686b93d316fc9d97b560b4f1bb07a1173f4593a9213037813deb64736f6c63430008030033",
  "immutableReferences": {},
  "source": "// SPDX-License-Identifier: MIT\n\npragma solidity ^0.8.0;\n\nimport \"../ERC20/ERC20.sol\";\n\n/**\n * @dev Implementation of the {ERC20} interface as a sovereign moroccan crypto-currency\n *\n */\ncontract MED is ERC20 {\n\n    address _centralBank;\n    address _treasureAccount;\n\n    mapping (address => uint256) private _lastDayTax;\n    uint256 public daysElapsed;\n    uint32 public dailyTaxRate;\n\n    mapping (address => uint256) private _lastMonthIncome;\n    uint256 public monthsElapsed;\n    uint256 public universalMonthlyIncome;\n\n    bool public allowMint = false;\n\n    modifier onlyCentralBank() {\n        require(\n            _msgSender() == _centralBank,\n            \"Only Central Bank is allowed to call this\"\n        );\n        _;\n    } \n\n    /**\n     * The treasure account is the \"root\" account on this currency\n     * param annualTaxRatePercent : percentage of the account that would be taxed in a year\n     *                              tax is applied daily\n     * param umi : Universal Monthly Income\n     * param allowMint : Should we allow central bank to mint new tokens ?\n     */\n    constructor (address treasureAccount, uint32 annualTaxRatePercent, uint256 umi, \n        bool allowMintArg, uint256 initialMint) ERC20(\"Moroccan E-Dirham\", \"MED\") {\n        _centralBank = _msgSender();\n        _treasureAccount = treasureAccount;\n        dailyTaxRate = annualTaxRatePercent * 10000 / 365;\n        universalMonthlyIncome = umi;\n        allowMint = allowMintArg;\n        _mint(_treasureAccount, initialMint);\n    }\n\n\n    /**\n     * MED cyrpto-currency only uses \"cents\" or \"centimes\" as a subdivision\n     */\n    function decimals() public view virtual override returns (uint8) {\n        return 2;\n    }\n\n    function elapsedTaxDaysOf(address account) public view virtual returns (uint256) {\n        return _lastDayTax[account];\n    }\n\n    function elapsedIncomeMonthOf(address account) public view virtual returns (uint256) {\n        return _lastMonthIncome[account];\n    }\n\n    function transfer(address recipient, uint256 amount) public virtual override returns (bool) {\n        _updateAccount(_msgSender());\n        _updateAccount(recipient);\n        _transfer(_msgSender(), recipient, amount);\n        return true;\n    }\n\n    function updateAccount(address taxPayer) public virtual {\n        _updateAccount(taxPayer);\n    }\n\n    function mint(uint256 amount) public virtual onlyCentralBank {\n        require(allowMint);\n        _mint(_treasureAccount, amount);\n    }\n\n    function burn(uint256 amount) public virtual onlyCentralBank {\n        _burn(_treasureAccount, amount);\n    }\n\n    function incrementDay() public virtual onlyCentralBank {\n        daysElapsed = daysElapsed +1;\n    }\n\n    function incrementMonth() public virtual onlyCentralBank {\n        monthsElapsed = monthsElapsed +1;\n    }\n\n    function setNewDailyTaxRate(uint32 newRate) public virtual onlyCentralBank {\n        dailyTaxRate = newRate;\n    }\n\n    function setNewBasicIncome(uint256 newIncome) public virtual onlyCentralBank {\n        universalMonthlyIncome = newIncome;\n    }\n    \n    /**\n    *\n    * * * * * * * * * * * * *\n    * Internal functions    *\n    * * * * * * * * * * * * *\n    *\n    */\n\n    function _calculateIncome(address taxPayer) internal view virtual returns (uint256) {\n        if (taxPayer == _treasureAccount) {\n            return 0;\n        }\n        uint256 taxPayerMonthsElapsed = monthsElapsed - _lastMonthIncome[taxPayer];\n        if (taxPayerMonthsElapsed == 0) {\n            return 0;\n        }\n        return taxPayerMonthsElapsed * universalMonthlyIncome;\n    }\n\n    function _calculateTax(address taxPayer) internal view virtual returns (uint256) {\n        if (taxPayer == _treasureAccount) {\n            return 0;\n        }\n        uint256 taxPayerdaysElapsed = daysElapsed - _lastDayTax[taxPayer];\n        if (taxPayerdaysElapsed == 0) {\n            return 0;\n        }\n        uint256 taxToPay = balanceOf(taxPayer) * taxPayerdaysElapsed * dailyTaxRate / (1000 * 1000);\n        return taxToPay;\n    }\n\n    function _updateAccount(address taxPayer) internal virtual{\n        _transferIncome(taxPayer);\n        _deductTax(taxPayer);\n    }\n\n    function _transferIncome(address taxPayer) internal virtual {\n        uint256 umi = _calculateIncome(taxPayer);\n        _lastMonthIncome[taxPayer] = monthsElapsed;\n        _transfer(_treasureAccount, taxPayer, umi);\n    }\n\n    function _deductTax(address taxPayer) internal virtual {\n        uint256 taxToPay = _calculateTax(taxPayer);\n        _lastDayTax[taxPayer] = daysElapsed;\n        _transfer(taxPayer, _treasureAccount, taxToPay);\n    }\n}\n",
  "sourcePath": "/home/issam/git/med-erc20/sol/truffle/contracts/token/med/MED.sol",
  "compiler": {
    "name": "solc",
    "version": "0.8.3+commit.8d00100c.Emscripten.clang"
  },
  "schemaVersion": "3.2.4",
  "updatedAt": "2021-04-25T09:03:47.321Z",
  "devdoc": {
    "details": "Implementation of the {ERC20} interface as a sovereign moroccan crypto-currency",
    "kind": "dev",
    "methods": {
      "allowance(address,address)": {
        "details": "See {IERC20-allowance}."
      },
      "approve(address,uint256)": {
        "details": "See {IERC20-approve}. Requirements: - `spender` cannot be the zero address."
      },
      "balanceOf(address)": {
        "details": "See {IERC20-balanceOf}."
      },
      "decreaseAllowance(address,uint256)": {
        "details": "Atomically decreases the allowance granted to `spender` by the caller. This is an alternative to {approve} that can be used as a mitigation for problems described in {IERC20-approve}. Emits an {Approval} event indicating the updated allowance. Requirements: - `spender` cannot be the zero address. - `spender` must have allowance for the caller of at least `subtractedValue`."
      },
      "increaseAllowance(address,uint256)": {
        "details": "Atomically increases the allowance granted to `spender` by the caller. This is an alternative to {approve} that can be used as a mitigation for problems described in {IERC20-approve}. Emits an {Approval} event indicating the updated allowance. Requirements: - `spender` cannot be the zero address."
      },
      "name()": {
        "details": "Returns the name of the token."
      },
      "symbol()": {
        "details": "Returns the symbol of the token, usually a shorter version of the name."
      },
      "totalSupply()": {
        "details": "See {IERC20-totalSupply}."
      },
      "transfer(address,uint256)": {
        "details": "See {IERC20-transfer}. Requirements: - `recipient` cannot be the zero address. - the caller must have a balance of at least `amount`."
      },
      "transferFrom(address,address,uint256)": {
        "details": "See {IERC20-transferFrom}. Emits an {Approval} event indicating the updated allowance. This is not required by the EIP. See the note at the beginning of {ERC20}. Requirements: - `sender` and `recipient` cannot be the zero address. - `sender` must have a balance of at least `amount`. - the caller must have allowance for ``sender``'s tokens of at least `amount`."
      }
    },
    "version": 1
  },
  "userdoc": {
    "kind": "user",
    "methods": {
      "constructor": {
        "notice": "The treasure account is the \"root\" account on this currency param annualTaxRatePercent : percentage of the account that would be taxed in a year                              tax is applied daily param umi : Universal Monthly Income param allowMint : Should we allow central bank to mint new tokens ?"
      },
      "decimals()": {
        "notice": "MED cyrpto-currency only uses \"cents\" or \"centimes\" as a subdivision"
      }
    },
    "version": 1
  }
}