{
  "contractName": "MED",
  "abi": [
    {
      "inputs": [
        {
          "internalType": "address",
          "name": "treasureAccount",
          "type": "address"
        },
        {
          "internalType": "uint16",
          "name": "annualTaxRatePercent",
          "type": "uint16"
        },
        {
          "internalType": "uint256",
          "name": "umi",
          "type": "uint256"
        }
      ],
      "stateMutability": "nonpayable",
      "type": "constructor"
    },
    {
      "anonymous": false,
      "inputs": [
        {
          "indexed": true,
          "internalType": "address",
          "name": "from",
          "type": "address"
        },
        {
          "indexed": true,
          "internalType": "address",
          "name": "to",
          "type": "address"
        },
        {
          "indexed": false,
          "internalType": "uint256",
          "name": "value",
          "type": "uint256"
        }
      ],
      "name": "Transfer",
      "type": "event"
    },
    {
      "inputs": [],
      "name": "name",
      "outputs": [
        {
          "internalType": "string",
          "name": "",
          "type": "string"
        }
      ],
      "stateMutability": "view",
      "type": "function"
    },
    {
      "inputs": [],
      "name": "symbol",
      "outputs": [
        {
          "internalType": "string",
          "name": "",
          "type": "string"
        }
      ],
      "stateMutability": "view",
      "type": "function"
    },
    {
      "inputs": [],
      "name": "decimals",
      "outputs": [
        {
          "internalType": "uint8",
          "name": "",
          "type": "uint8"
        }
      ],
      "stateMutability": "view",
      "type": "function"
    },
    {
      "inputs": [],
      "name": "totalSupply",
      "outputs": [
        {
          "internalType": "uint256",
          "name": "",
          "type": "uint256"
        }
      ],
      "stateMutability": "view",
      "type": "function"
    },
    {
      "inputs": [
        {
          "internalType": "address",
          "name": "account",
          "type": "address"
        }
      ],
      "name": "balanceOf",
      "outputs": [
        {
          "internalType": "uint256",
          "name": "",
          "type": "uint256"
        }
      ],
      "stateMutability": "view",
      "type": "function"
    },
    {
      "inputs": [
        {
          "internalType": "address",
          "name": "recipient",
          "type": "address"
        },
        {
          "internalType": "uint256",
          "name": "amount",
          "type": "uint256"
        }
      ],
      "name": "transfer",
      "outputs": [
        {
          "internalType": "bool",
          "name": "",
          "type": "bool"
        }
      ],
      "stateMutability": "nonpayable",
      "type": "function"
    },
    {
      "inputs": [
        {
          "internalType": "address",
          "name": "taxPayer",
          "type": "address"
        }
      ],
      "name": "updateAccount",
      "outputs": [],
      "stateMutability": "nonpayable",
      "type": "function"
    },
    {
      "inputs": [
        {
          "internalType": "uint256",
          "name": "amount",
          "type": "uint256"
        }
      ],
      "name": "mint",
      "outputs": [],
      "stateMutability": "nonpayable",
      "type": "function"
    },
    {
      "inputs": [
        {
          "internalType": "uint256",
          "name": "amount",
          "type": "uint256"
        }
      ],
      "name": "burn",
      "outputs": [],
      "stateMutability": "nonpayable",
      "type": "function"
    },
    {
      "inputs": [],
      "name": "incrementDay",
      "outputs": [],
      "stateMutability": "nonpayable",
      "type": "function"
    },
    {
      "inputs": [],
      "name": "incrementMonth",
      "outputs": [],
      "stateMutability": "nonpayable",
      "type": "function"
    }
  ],
  "bytecode": "0x60806040526040518060400160405280601181526020017f4d6f726f6363616e20452d44697268616d000000000000000000000000000000815250600a908051906020019062000051929190620001b7565b506040518060400160405280600381526020017f4d45440000000000000000000000000000000000000000000000000000000000815250600b90805190602001906200009f929190620001b7565b50348015620000ad57600080fd5b5060405162001ed438038062001ed48339818101604052810190620000d39190620002ac565b620000e3620001af60201b60201c565b600260006101000a81548173ffffffffffffffffffffffffffffffffffffffff021916908373ffffffffffffffffffffffffffffffffffffffff16021790555082600360006101000a81548173ffffffffffffffffffffffffffffffffffffffff021916908373ffffffffffffffffffffffffffffffffffffffff16021790555061016d612710836200017791906200033a565b62000183919062000302565b600660006101000a81548161ffff021916908361ffff16021790555080600981905550505050620004da565b600033905090565b828054620001c590620003c9565b90600052602060002090601f016020900481019282620001e9576000855562000235565b82601f106200020457805160ff191683800117855562000235565b8280016001018555821562000235579182015b828111156200023457825182559160200191906001019062000217565b5b50905062000244919062000248565b5090565b5b808211156200026357600081600090555060010162000249565b5090565b60008151905062000278816200048c565b92915050565b6000815190506200028f81620004a6565b92915050565b600081519050620002a681620004c0565b92915050565b600080600060608486031215620002c257600080fd5b6000620002d28682870162000267565b9350506020620002e5868287016200027e565b9250506040620002f88682870162000295565b9150509250925092565b60006200030f8262000391565b91506200031c8362000391565b9250826200032f576200032e6200042e565b5b828204905092915050565b6000620003478262000391565b9150620003548362000391565b92508161ffff0483118215151615620003725762000371620003ff565b5b828202905092915050565b60006200038a826200039f565b9050919050565b600061ffff82169050919050565b600073ffffffffffffffffffffffffffffffffffffffff82169050919050565b6000819050919050565b60006002820490506001821680620003e257607f821691505b60208210811415620003f957620003f86200045d565b5b50919050565b7f4e487b7100000000000000000000000000000000000000000000000000000000600052601160045260246000fd5b7f4e487b7100000000000000000000000000000000000000000000000000000000600052601260045260246000fd5b7f4e487b7100000000000000000000000000000000000000000000000000000000600052602260045260246000fd5b62000497816200037d565b8114620004a357600080fd5b50565b620004b18162000391565b8114620004bd57600080fd5b50565b620004cb81620003bf565b8114620004d757600080fd5b50565b6119ea80620004ea6000396000f3fe608060405234801561001057600080fd5b50600436106100a95760003560e01c806367ed0c791161007157806367ed0c791461014057806370a082311461014a57806395d89b411461017a578063a0712d6814610198578063a9059cbb146101b4578063dbbe0936146101e4576100a9565b806306fdde03146100ae57806318160ddd146100cc5780632ce3d440146100ea578063313ce5671461010657806342966c6814610124575b600080fd5b6100b66101ee565b6040516100c391906112e4565b60405180910390f35b6100d4610280565b6040516100e19190611426565b60405180910390f35b61010460048036038101906100ff919061109a565b61028a565b005b61010e610296565b60405161011b9190611441565b60405180910390f35b61013e600480360381019061013991906110ff565b61029f565b005b610148610365565b005b610164600480360381019061015f919061109a565b610413565b6040516101719190611426565b60405180910390f35b61018261045b565b60405161018f91906112e4565b60405180910390f35b6101b260048036038101906101ad91906110ff565b6104ed565b005b6101ce60048036038101906101c991906110c3565b6105b3565b6040516101db91906112c9565b60405180910390f35b6101ec6105ea565b005b6060600a80546101fd90611615565b80601f016020809104026020016040519081016040528092919081815260200182805461022990611615565b80156102765780601f1061024b57610100808354040283529160200191610276565b820191906000526020600020905b81548152906001019060200180831161025957829003601f168201915b5050505050905090565b6000600154905090565b61029381610698565b50565b60006002905090565b600260009054906101000a900473ffffffffffffffffffffffffffffffffffffffff1673ffffffffffffffffffffffffffffffffffffffff166102e06106ad565b73ffffffffffffffffffffffffffffffffffffffff1614610336576040517f08c379a000000000000000000000000000000000000000000000000000000000815260040161032d90611346565b60405180910390fd5b610362600360009054906101000a900473ffffffffffffffffffffffffffffffffffffffff16826106b5565b50565b600260009054906101000a900473ffffffffffffffffffffffffffffffffffffffff1673ffffffffffffffffffffffffffffffffffffffff166103a66106ad565b73ffffffffffffffffffffffffffffffffffffffff16146103fc576040517f08c379a00000000000000000000000000000000000000000000000000000000081526004016103f390611346565b60405180910390fd5b600160055461040b9190611478565b600581905550565b60008060008373ffffffffffffffffffffffffffffffffffffffff1673ffffffffffffffffffffffffffffffffffffffff168152602001908152602001600020549050919050565b6060600b805461046a90611615565b80601f016020809104026020016040519081016040528092919081815260200182805461049690611615565b80156104e35780601f106104b8576101008083540402835291602001916104e3565b820191906000526020600020905b8154815290600101906020018083116104c657829003601f168201915b5050505050905090565b600260009054906101000a900473ffffffffffffffffffffffffffffffffffffffff1673ffffffffffffffffffffffffffffffffffffffff1661052e6106ad565b73ffffffffffffffffffffffffffffffffffffffff1614610584576040517f08c379a000000000000000000000000000000000000000000000000000000000815260040161057b90611346565b60405180910390fd5b6105b0600360009054906101000a900473ffffffffffffffffffffffffffffffffffffffff1682610919565b50565b60006105c56105c06106ad565b610698565b6105ce83610698565b6105e06105d96106ad565b8484610afd565b6001905092915050565b600260009054906101000a900473ffffffffffffffffffffffffffffffffffffffff1673ffffffffffffffffffffffffffffffffffffffff1661062b6106ad565b73ffffffffffffffffffffffffffffffffffffffff1614610681576040517f08c379a000000000000000000000000000000000000000000000000000000000815260040161067890611346565b60405180910390fd5b60016008546106909190611478565b600881905550565b6106a181610d7c565b6106aa81610f2b565b50565b600033905090565b600073ffffffffffffffffffffffffffffffffffffffff168273ffffffffffffffffffffffffffffffffffffffff161415610725576040517f08c379a000000000000000000000000000000000000000000000000000000000815260040161071c906113a6565b60405180910390fd5b600360009054906101000a900473ffffffffffffffffffffffffffffffffffffffff1673ffffffffffffffffffffffffffffffffffffffff168273ffffffffffffffffffffffffffffffffffffffff16146107b5576040517f08c379a00000000000000000000000000000000000000000000000000000000081526004016107ac90611386565b60405180910390fd5b6107c18260008361106b565b60008060008473ffffffffffffffffffffffffffffffffffffffff1673ffffffffffffffffffffffffffffffffffffffff16815260200190815260200160002054905081811015610847576040517f08c379a000000000000000000000000000000000000000000000000000000000815260040161083e90611326565b60405180910390fd5b81816108539190611559565b6000808573ffffffffffffffffffffffffffffffffffffffff1673ffffffffffffffffffffffffffffffffffffffff1681526020019081526020016000208190555081600160008282546108a79190611559565b92505081905550600073ffffffffffffffffffffffffffffffffffffffff168373ffffffffffffffffffffffffffffffffffffffff167fddf252ad1be2c89b69c2b068fc378daa952ba7f163c4a11628f55a4df523b3ef8460405161090c9190611426565b60405180910390a3505050565b600073ffffffffffffffffffffffffffffffffffffffff168273ffffffffffffffffffffffffffffffffffffffff161415610989576040517f08c379a000000000000000000000000000000000000000000000000000000000815260040161098090611406565b60405180910390fd5b600360009054906101000a900473ffffffffffffffffffffffffffffffffffffffff1673ffffffffffffffffffffffffffffffffffffffff168273ffffffffffffffffffffffffffffffffffffffff1614610a19576040517f08c379a0000000000000000000000000000000000000000000000000000000008152600401610a10906113e6565b60405180910390fd5b610a256000838361106b565b8060016000828254610a379190611478565b92505081905550806000808473ffffffffffffffffffffffffffffffffffffffff1673ffffffffffffffffffffffffffffffffffffffff1681526020019081526020016000206000828254610a8c9190611478565b925050819055508173ffffffffffffffffffffffffffffffffffffffff16600073ffffffffffffffffffffffffffffffffffffffff167fddf252ad1be2c89b69c2b068fc378daa952ba7f163c4a11628f55a4df523b3ef83604051610af19190611426565b60405180910390a35050565b600073ffffffffffffffffffffffffffffffffffffffff168373ffffffffffffffffffffffffffffffffffffffff161415610b6d576040517f08c379a0000000000000000000000000000000000000000000000000000000008152600401610b64906113c6565b60405180910390fd5b600073ffffffffffffffffffffffffffffffffffffffff168273ffffffffffffffffffffffffffffffffffffffff161415610bdd576040517f08c379a0000000000000000000000000000000000000000000000000000000008152600401610bd490611306565b60405180910390fd5b610be883838361106b565b60008060008573ffffffffffffffffffffffffffffffffffffffff1673ffffffffffffffffffffffffffffffffffffffff16815260200190815260200160002054905081811015610c6e576040517f08c379a0000000000000000000000000000000000000000000000000000000008152600401610c6590611366565b60405180910390fd5b8181610c7a9190611559565b6000808673ffffffffffffffffffffffffffffffffffffffff1673ffffffffffffffffffffffffffffffffffffffff16815260200190815260200160002081905550816000808573ffffffffffffffffffffffffffffffffffffffff1673ffffffffffffffffffffffffffffffffffffffff1681526020019081526020016000206000828254610d0a9190611478565b925050819055508273ffffffffffffffffffffffffffffffffffffffff168473ffffffffffffffffffffffffffffffffffffffff167fddf252ad1be2c89b69c2b068fc378daa952ba7f163c4a11628f55a4df523b3ef84604051610d6e9190611426565b60405180910390a350505050565b600360009054906101000a900473ffffffffffffffffffffffffffffffffffffffff1673ffffffffffffffffffffffffffffffffffffffff168173ffffffffffffffffffffffffffffffffffffffff161415610dd757610f28565b6000600460008373ffffffffffffffffffffffffffffffffffffffff1673ffffffffffffffffffffffffffffffffffffffff16815260200190815260200160002054600554610e269190611559565b90506000811415610e375750610f28565b6000620f4240600660009054906101000a900461ffff1661ffff16836000808773ffffffffffffffffffffffffffffffffffffffff1673ffffffffffffffffffffffffffffffffffffffff16815260200190815260200160002054610e9c91906114ff565b610ea691906114ff565b610eb091906114ce565b9050600554600460008573ffffffffffffffffffffffffffffffffffffffff1673ffffffffffffffffffffffffffffffffffffffff16815260200190815260200160002081905550610f2583600360009054906101000a900473ffffffffffffffffffffffffffffffffffffffff1683610afd565b50505b50565b600360009054906101000a900473ffffffffffffffffffffffffffffffffffffffff1673ffffffffffffffffffffffffffffffffffffffff168173ffffffffffffffffffffffffffffffffffffffff161415610f8657611068565b6000600760008373ffffffffffffffffffffffffffffffffffffffff1673ffffffffffffffffffffffffffffffffffffffff16815260200190815260200160002054600854610fd59190611559565b90506000811415610fe65750611068565b600854600760008473ffffffffffffffffffffffffffffffffffffffff1673ffffffffffffffffffffffffffffffffffffffff16815260200190815260200160002081905550611066600360009054906101000a900473ffffffffffffffffffffffffffffffffffffffff16836009548461106191906114ff565b610afd565b505b50565b505050565b60008135905061107f81611986565b92915050565b6000813590506110948161199d565b92915050565b6000602082840312156110ac57600080fd5b60006110ba84828501611070565b91505092915050565b600080604083850312156110d657600080fd5b60006110e485828601611070565b92505060206110f585828601611085565b9150509250929050565b60006020828403121561111157600080fd5b600061111f84828501611085565b91505092915050565b6111318161159f565b82525050565b60006111428261145c565b61114c8185611467565b935061115c8185602086016115e2565b611165816116d4565b840191505092915050565b600061117d602383611467565b9150611188826116e5565b604082019050919050565b60006111a0602283611467565b91506111ab82611734565b604082019050919050565b60006111c3602983611467565b91506111ce82611783565b604082019050919050565b60006111e6602683611467565b91506111f1826117d2565b604082019050919050565b6000611209602983611467565b915061121482611821565b604082019050919050565b600061122c602183611467565b915061123782611870565b604082019050919050565b600061124f602583611467565b915061125a826118bf565b604082019050919050565b6000611272602983611467565b915061127d8261190e565b604082019050919050565b6000611295601f83611467565b91506112a08261195d565b602082019050919050565b6112b4816115cb565b82525050565b6112c3816115d5565b82525050565b60006020820190506112de6000830184611128565b92915050565b600060208201905081810360008301526112fe8184611137565b905092915050565b6000602082019050818103600083015261131f81611170565b9050919050565b6000602082019050818103600083015261133f81611193565b9050919050565b6000602082019050818103600083015261135f816111b6565b9050919050565b6000602082019050818103600083015261137f816111d9565b9050919050565b6000602082019050818103600083015261139f816111fc565b9050919050565b600060208201905081810360008301526113bf8161121f565b9050919050565b600060208201905081810360008301526113df81611242565b9050919050565b600060208201905081810360008301526113ff81611265565b9050919050565b6000602082019050818103600083015261141f81611288565b9050919050565b600060208201905061143b60008301846112ab565b92915050565b600060208201905061145660008301846112ba565b92915050565b600081519050919050565b600082825260208201905092915050565b6000611483826115cb565b915061148e836115cb565b9250827fffffffffffffffffffffffffffffffffffffffffffffffffffffffffffffffff038211156114c3576114c2611647565b5b828201905092915050565b60006114d9826115cb565b91506114e4836115cb565b9250826114f4576114f3611676565b5b828204905092915050565b600061150a826115cb565b9150611515836115cb565b9250817fffffffffffffffffffffffffffffffffffffffffffffffffffffffffffffffff048311821515161561154e5761154d611647565b5b828202905092915050565b6000611564826115cb565b915061156f836115cb565b92508282101561158257611581611647565b5b828203905092915050565b6000611598826115ab565b9050919050565b60008115159050919050565b600073ffffffffffffffffffffffffffffffffffffffff82169050919050565b6000819050919050565b600060ff82169050919050565b60005b838110156116005780820151818401526020810190506115e5565b8381111561160f576000848401525b50505050565b6000600282049050600182168061162d57607f821691505b60208210811415611641576116406116a5565b5b50919050565b7f4e487b7100000000000000000000000000000000000000000000000000000000600052601160045260246000fd5b7f4e487b7100000000000000000000000000000000000000000000000000000000600052601260045260246000fd5b7f4e487b7100000000000000000000000000000000000000000000000000000000600052602260045260246000fd5b6000601f19601f8301169050919050565b7f45524332303a207472616e7366657220746f20746865207a65726f206164647260008201527f6573730000000000000000000000000000000000000000000000000000000000602082015250565b7f45524332303a206275726e20616d6f756e7420657863656564732062616c616e60008201527f6365000000000000000000000000000000000000000000000000000000000000602082015250565b7f4f6e6c792043656e7472616c2042616e6b20697320616c6c6f77656420746f2060008201527f63616c6c20746869730000000000000000000000000000000000000000000000602082015250565b7f45524332303a207472616e7366657220616d6f756e742065786365656473206260008201527f616c616e63650000000000000000000000000000000000000000000000000000602082015250565b7f4275726e2063616e206f6e6c7920626520646f6e6520746f207472656173757260008201527f79206163636f756e740000000000000000000000000000000000000000000000602082015250565b7f45524332303a206275726e2066726f6d20746865207a65726f2061646472657360008201527f7300000000000000000000000000000000000000000000000000000000000000602082015250565b7f45524332303a207472616e736665722066726f6d20746865207a65726f20616460008201527f6472657373000000000000000000000000000000000000000000000000000000602082015250565b7f4d696e742063616e206f6e6c7920626520646f6e6520746f207472656173757260008201527f79206163636f756e740000000000000000000000000000000000000000000000602082015250565b7f45524332303a206d696e7420746f20746865207a65726f206164647265737300600082015250565b61198f8161158d565b811461199a57600080fd5b50565b6119a6816115cb565b81146119b157600080fd5b5056fea2646970667358221220f1167ea87fe766254401cd7ef68e8671a35af3f73a4fc6c034cccba51b03b68564736f6c63430008030033",
  "immutableReferences": {},
  "source": "// SPDX-License-Identifier: MIT\n\npragma solidity ^0.8.0;\n\nimport \"./ERC20/IERC20MED.sol\";\nimport \"./ERC20/extensions/IERC20MEDMetadata.sol\";\nimport \"./ERC20/utils/Context.sol\";\n\n/**\n * @dev Implementation of the {IERC20} interface as a sovereign moroccan crypto-currency\n *\n */\ncontract MED is Context, IERC20MED, IERC20MEDMetadata {\n\n    mapping (address => uint256) private _balances;\n\n    uint256 private _totalSupply;\n\n    address _centralBank;\n    address _treasureAccount;\n\n    mapping (address => uint256) private _lastDayTax;\n    uint256 private _daysElapsed;\n    uint16 private _dailyTaxRate;\n\n    mapping (address => uint256) private _lastMonthIncome;\n    uint256 private _monthsElapsed;\n    uint256 private _universalMonthlyIncome;\n\n    string private _name = \"Moroccan E-Dirham\";\n    string private _symbol = \"MED\";\n\n    modifier onlyCentralBank() {\n        require(\n            _msgSender() == _centralBank,\n            \"Only Central Bank is allowed to call this\"\n        );\n        _;\n    } \n\n    /**\n     * The treasure account is the \"root\" account on this currency\n     * param annualTaxRatePercent : percentage of the account that would be taxed in a year\n     *                              tax is applied daily\n     * param umi : Universal Monthly Income\n     */\n    constructor (address treasureAccount, uint16 annualTaxRatePercent, uint256 umi) {\n        _centralBank = _msgSender();\n        _treasureAccount = treasureAccount;\n        _dailyTaxRate = annualTaxRatePercent * 10000 / 365;\n        _universalMonthlyIncome = umi;\n    }\n\n    function name() public view virtual override returns (string memory) {\n        return _name;\n    }\n\n    function symbol() public view virtual override returns (string memory) {\n        return _symbol;\n    }\n\n    /**\n     * MED cyrpto-currency only uses \"cents\" or \"centimes\" as a subdivision\n     */\n    function decimals() public view virtual override returns (uint8) {\n        return 2;\n    }\n\n    function totalSupply() public view virtual override returns (uint256) {\n        return _totalSupply;\n    }\n\n    function balanceOf(address account) public view virtual override returns (uint256) {\n        return _balances[account];\n    }\n\n    function transfer(address recipient, uint256 amount) public virtual override returns (bool) {\n        _updateAccount(_msgSender());\n        _updateAccount(recipient);\n        _transfer(_msgSender(), recipient, amount);\n        return true;\n    }\n\n    function updateAccount(address taxPayer) public virtual {\n        _updateAccount(taxPayer);\n    }\n\n    function mint(uint256 amount) public virtual onlyCentralBank {\n        _mint(_treasureAccount, amount);\n    }\n\n    function burn(uint256 amount) public virtual onlyCentralBank {\n        _burn(_treasureAccount, amount);\n    }\n\n    function incrementDay() public virtual onlyCentralBank {\n        _daysElapsed = _daysElapsed +1;\n    }\n\n    function incrementMonth() public virtual onlyCentralBank {\n        _monthsElapsed = _monthsElapsed +1;\n    }\n    \n    /**\n    *\n    * * * * * * * * * * * * *\n    * Internal functions    *\n    * * * * * * * * * * * * *\n    *\n    */\n\n    function _updateAccount(address taxPayer) internal virtual {\n        _tax(taxPayer);\n        _getIncome(taxPayer);\n    }\n\n    function _getIncome(address taxPayer) internal virtual {\n        if (taxPayer == _treasureAccount) {\n            return;\n        }\n        uint256 taxPayerMonthsElapsed = _monthsElapsed - _lastMonthIncome[taxPayer];\n        if (taxPayerMonthsElapsed == 0) {\n            return;\n        }\n        _lastMonthIncome[taxPayer] = _monthsElapsed;\n        _transfer(_treasureAccount, taxPayer, taxPayerMonthsElapsed * _universalMonthlyIncome);\n    }\n\n    function _tax(address taxPayer) internal virtual {\n        if (taxPayer == _treasureAccount) {\n            return;\n        }\n        uint256 taxPayerdaysElapsed = _daysElapsed - _lastDayTax[taxPayer];\n        if (taxPayerdaysElapsed == 0) {\n            return;\n        }\n        uint256 taxToPay = _balances[taxPayer] * taxPayerdaysElapsed * _dailyTaxRate / (1000 * 1000);\n        _lastDayTax[taxPayer] = _daysElapsed;\n        _transfer(taxPayer, _treasureAccount, taxToPay);\n    }\n\n    function _transfer(address sender, address recipient, uint256 amount) internal virtual {\n        require(sender != address(0), \"ERC20: transfer from the zero address\");\n        require(recipient != address(0), \"ERC20: transfer to the zero address\");\n\n        _beforeTokenTransfer(sender, recipient, amount);\n\n        uint256 senderBalance = _balances[sender];\n        require(senderBalance >= amount, \"ERC20: transfer amount exceeds balance\");\n        _balances[sender] = senderBalance - amount;\n        _balances[recipient] += amount;\n\n        emit Transfer(sender, recipient, amount);\n    }\n\n    function _mint(address account, uint256 amount) internal virtual {\n        require(account != address(0), \"ERC20: mint to the zero address\");\n        require(account == _treasureAccount, \"Mint can only be done to treasury account\");\n\n        _beforeTokenTransfer(address(0), account, amount);\n\n        _totalSupply += amount;\n        _balances[account] += amount;\n        emit Transfer(address(0), account, amount);\n    }\n\n\n    function _burn(address account, uint256 amount) internal virtual {\n        require(account != address(0), \"ERC20: burn from the zero address\");\n        require(account == _treasureAccount, \"Burn can only be done to treasury account\");\n\n        _beforeTokenTransfer(account, address(0), amount);\n\n        uint256 accountBalance = _balances[account];\n        require(accountBalance >= amount, \"ERC20: burn amount exceeds balance\");\n        _balances[account] = accountBalance - amount;\n        _totalSupply -= amount; \n\n        emit Transfer(account, address(0), amount);\n    }\n\n    function _beforeTokenTransfer(address from, address to, uint256 amount) internal virtual { }\n}\n",
  "sourcePath": "/home/issam/git/med-erc20/sol/truffle/contracts/MED.sol",
  "compiler": {
    "name": "solc",
    "version": "0.8.3+commit.8d00100c.Emscripten.clang"
  },
  "schemaVersion": "3.2.4",
  "updatedAt": "2021-03-27T19:57:00.082Z",
  "devdoc": {
    "details": "Implementation of the {IERC20} interface as a sovereign moroccan crypto-currency",
    "kind": "dev",
    "methods": {
      "balanceOf(address)": {
        "details": "Returns the amount of tokens owned by `account`."
      },
      "name()": {
        "details": "Returns the name of the token."
      },
      "symbol()": {
        "details": "Returns the symbol of the token."
      },
      "totalSupply()": {
        "details": "Returns the amount of tokens in existence."
      },
      "transfer(address,uint256)": {
        "details": "Moves `amount` tokens from the caller's account to `recipient`. Returns a boolean value indicating whether the operation succeeded. Emits a {Transfer} event."
      }
    },
    "version": 1
  },
  "userdoc": {
    "kind": "user",
    "methods": {
      "constructor": {
        "notice": "The treasure account is the \"root\" account on this currency param annualTaxRatePercent : percentage of the account that would be taxed in a year                              tax is applied daily param umi : Universal Monthly Income"
      },
      "decimals()": {
        "notice": "MED cyrpto-currency only uses \"cents\" or \"centimes\" as a subdivision"
      }
    },
    "version": 1
  }
}