{
  "contractName": "Mudaraba",
  "abi": [
    {
      "inputs": [
        {
          "internalType": "string",
          "name": "description_",
          "type": "string"
        },
        {
          "internalType": "string",
          "name": "ice_",
          "type": "string"
        },
        {
          "internalType": "uint256",
          "name": "capitalCap_",
          "type": "uint256"
        },
        {
          "internalType": "address",
          "name": "medToken_",
          "type": "address"
        },
        {
          "internalType": "address",
          "name": "fpToken_",
          "type": "address"
        }
      ],
      "stateMutability": "nonpayable",
      "type": "constructor"
    },
    {
      "anonymous": false,
      "inputs": [
        {
          "indexed": false,
          "internalType": "uint256",
          "name": "value",
          "type": "uint256"
        }
      ],
      "name": "Loss",
      "type": "event"
    },
    {
      "anonymous": false,
      "inputs": [
        {
          "indexed": false,
          "internalType": "uint256",
          "name": "value",
          "type": "uint256"
        }
      ],
      "name": "Profit",
      "type": "event"
    },
    {
      "inputs": [],
      "name": "capitalCap",
      "outputs": [
        {
          "internalType": "uint256",
          "name": "",
          "type": "uint256"
        }
      ],
      "stateMutability": "view",
      "type": "function"
    },
    {
      "inputs": [],
      "name": "description",
      "outputs": [
        {
          "internalType": "string",
          "name": "",
          "type": "string"
        }
      ],
      "stateMutability": "view",
      "type": "function"
    },
    {
      "inputs": [
        {
          "internalType": "uint256",
          "name": "idx",
          "type": "uint256"
        }
      ],
      "name": "getSubscription",
      "outputs": [
        {
          "internalType": "uint256",
          "name": "",
          "type": "uint256"
        }
      ],
      "stateMutability": "view",
      "type": "function"
    },
    {
      "inputs": [],
      "name": "getSubscriptionLength",
      "outputs": [
        {
          "internalType": "uint256",
          "name": "",
          "type": "uint256"
        }
      ],
      "stateMutability": "view",
      "type": "function"
    },
    {
      "inputs": [],
      "name": "ice",
      "outputs": [
        {
          "internalType": "string",
          "name": "",
          "type": "string"
        }
      ],
      "stateMutability": "view",
      "type": "function"
    },
    {
      "inputs": [
        {
          "internalType": "uint256",
          "name": "tokenId",
          "type": "uint256"
        }
      ],
      "name": "isSuscribed",
      "outputs": [
        {
          "internalType": "bool",
          "name": "",
          "type": "bool"
        }
      ],
      "stateMutability": "view",
      "type": "function"
    },
    {
      "inputs": [],
      "name": "totalCapital",
      "outputs": [
        {
          "internalType": "uint256",
          "name": "",
          "type": "uint256"
        }
      ],
      "stateMutability": "view",
      "type": "function"
    },
    {
      "inputs": [
        {
          "internalType": "uint256",
          "name": "depositAmount",
          "type": "uint256"
        }
      ],
      "name": "subscribe",
      "outputs": [],
      "stateMutability": "nonpayable",
      "type": "function"
    },
    {
      "inputs": [
        {
          "internalType": "uint256",
          "name": "tokenId",
          "type": "uint256"
        },
        {
          "internalType": "uint256",
          "name": "depositAmount",
          "type": "uint256"
        }
      ],
      "name": "addFund",
      "outputs": [],
      "stateMutability": "nonpayable",
      "type": "function"
    },
    {
      "inputs": [
        {
          "internalType": "uint256",
          "name": "tokenId",
          "type": "uint256"
        },
        {
          "internalType": "uint256",
          "name": "withdrawnAmount",
          "type": "uint256"
        }
      ],
      "name": "withdrawFund",
      "outputs": [],
      "stateMutability": "nonpayable",
      "type": "function"
    },
    {
      "inputs": [
        {
          "internalType": "uint256",
          "name": "profitAmount",
          "type": "uint256"
        }
      ],
      "name": "distributeProfit",
      "outputs": [],
      "stateMutability": "nonpayable",
      "type": "function"
    },
    {
      "inputs": [
        {
          "internalType": "uint256",
          "name": "lossAmount",
          "type": "uint256"
        }
      ],
      "name": "takeLoss",
      "outputs": [],
      "stateMutability": "nonpayable",
      "type": "function"
    }
  ],
  "bytecode": "0x60806040523480156200001157600080fd5b50604051620024cf380380620024cf8339818101604052810190620000379190620002a4565b620000476200014c60201b60201c565b600260006101000a81548173ffffffffffffffffffffffffffffffffffffffff021916908373ffffffffffffffffffffffffffffffffffffffff16021790555084600590805190602001906200009f92919062000154565b508360069080519060200190620000b892919062000154565b5082600881905550816000806101000a81548173ffffffffffffffffffffffffffffffffffffffff021916908373ffffffffffffffffffffffffffffffffffffffff16021790555080600160006101000a81548173ffffffffffffffffffffffffffffffffffffffff021916908373ffffffffffffffffffffffffffffffffffffffff16021790555050505050506200053a565b600033905090565b82805462000162906200042b565b90600052602060002090601f016020900481019282620001865760008555620001d2565b82601f10620001a157805160ff1916838001178555620001d2565b82800160010185558215620001d2579182015b82811115620001d1578251825591602001919060010190620001b4565b5b509050620001e19190620001e5565b5090565b5b8082111562000200576000816000905550600101620001e6565b5090565b60006200021b620002158462000381565b62000358565b9050828152602081018484840111156200023457600080fd5b62000241848285620003f5565b509392505050565b6000815190506200025a8162000506565b92915050565b600082601f8301126200027257600080fd5b81516200028484826020860162000204565b91505092915050565b6000815190506200029e8162000520565b92915050565b600080600080600060a08688031215620002bd57600080fd5b600086015167ffffffffffffffff811115620002d857600080fd5b620002e68882890162000260565b955050602086015167ffffffffffffffff8111156200030457600080fd5b620003128882890162000260565b945050604062000325888289016200028d565b9350506060620003388882890162000249565b92505060806200034b8882890162000249565b9150509295509295909350565b60006200036462000377565b905062000372828262000461565b919050565b6000604051905090565b600067ffffffffffffffff8211156200039f576200039e620004c6565b5b620003aa82620004f5565b9050602081019050919050565b6000620003c482620003cb565b9050919050565b600073ffffffffffffffffffffffffffffffffffffffff82169050919050565b6000819050919050565b60005b8381101562000415578082015181840152602081019050620003f8565b8381111562000425576000848401525b50505050565b600060028204905060018216806200044457607f821691505b602082108114156200045b576200045a62000497565b5b50919050565b6200046c82620004f5565b810181811067ffffffffffffffff821117156200048e576200048d620004c6565b5b80604052505050565b7f4e487b7100000000000000000000000000000000000000000000000000000000600052602260045260246000fd5b7f4e487b7100000000000000000000000000000000000000000000000000000000600052604160045260246000fd5b6000601f19601f8301169050919050565b6200051181620003b7565b81146200051d57600080fd5b50565b6200052b81620003eb565b81146200053757600080fd5b50565b611f85806200054a6000396000f3fe608060405234801561001057600080fd5b50600436106100b45760003560e01c8063839db9c011610071578063839db9c0146101695780639c146b6814610199578063b88d09f6146101b7578063d36dfac8146101d3578063d8ba83d5146101ef578063dc311dd31461020b576100b4565b80630f574ba7146100b95780632530ea71146100d5578063383032ea146100f35780634c2a860d146101115780637284e4161461012f57806375ee32e31461014d575b600080fd5b6100d360048036038101906100ce91906116b5565b61023b565b005b6100dd61066d565b6040516100ea9190611a53565b60405180910390f35b6100fb61067e565b6040516101089190611a53565b60405180910390f35b610119610684565b6040516101269190611951565b60405180910390f35b610137610712565b6040516101449190611951565b60405180910390f35b610167600480360381019061016291906116b5565b6107a0565b005b610183600480360381019061017e91906116b5565b610961565b6040516101909190611936565b60405180910390f35b6101a161097e565b6040516101ae9190611a53565b60405180910390f35b6101d160048036038101906101cc9190611707565b610984565b005b6101ed60048036038101906101e891906116b5565b610a7b565b005b61020960048036038101906102049190611707565b610bf7565b005b610225600480360381019061022091906116b5565b610cee565b6040516102329190611a53565b60405180910390f35b6000811161027e576040517f08c379a000000000000000000000000000000000000000000000000000000000815260040161027590611a33565b60405180910390fd5b8060008054906101000a900473ffffffffffffffffffffffffffffffffffffffff1673ffffffffffffffffffffffffffffffffffffffff1663dd62ed3e6102c3610d56565b306040518363ffffffff1660e01b81526004016102e19291906118ad565b60206040518083038186803b1580156102f957600080fd5b505afa15801561030d573d6000803e3d6000fd5b505050506040513d601f19601f8201168201806040525081019061033191906116de565b1015610372576040517f08c379a000000000000000000000000000000000000000000000000000000000815260040161036990611993565b60405180910390fd5b60008054906101000a900473ffffffffffffffffffffffffffffffffffffffff1673ffffffffffffffffffffffffffffffffffffffff166323b872dd6103b6610d56565b30846040518463ffffffff1660e01b81526004016103d6939291906118d6565b602060405180830381600087803b1580156103f057600080fd5b505af1158015610404573d6000803e3d6000fd5b505050506040513d601f19601f82011682018060405250810190610428919061168c565b50600160009054906101000a900473ffffffffffffffffffffffffffffffffffffffff1673ffffffffffffffffffffffffffffffffffffffff16635edfe0df61046f610d56565b60026040518363ffffffff1660e01b815260040161048e92919061190d565b600060405180830381600087803b1580156104a857600080fd5b505af11580156104bc573d6000803e3d6000fd5b505050506000600160009054906101000a900473ffffffffffffffffffffffffffffffffffffffff1673ffffffffffffffffffffffffffffffffffffffff1663561892366040518163ffffffff1660e01b815260040160206040518083038186803b15801561052a57600080fd5b505afa15801561053e573d6000803e3d6000fd5b505050506040513d601f19601f8201168201806040525081019061056291906116de565b9050604051806040016040528060008054906101000a900473ffffffffffffffffffffffffffffffffffffffff1673ffffffffffffffffffffffffffffffffffffffff166380477a4c6040518163ffffffff1660e01b815260040160206040518083038186803b1580156105d557600080fd5b505afa1580156105e9573d6000803e3d6000fd5b505050506040513d601f19601f8201168201806040525081019061060d91906116de565b815260200183815250600960008381526020019081526020016000206000820151816000015560208201518160010155905050610654816003610d5e90919063ffffffff16565b50816007546106639190611a8a565b6007819055505050565b60006106796003610d78565b905090565b60075481565b6006805461069190611c3a565b80601f01602080910402602001604051908101604052809291908181526020018280546106bd90611c3a565b801561070a5780601f106106df5761010080835404028352916020019161070a565b820191906000526020600020905b8154815290600101906020018083116106ed57829003601f168201915b505050505081565b6005805461071f90611c3a565b80601f016020809104026020016040519081016040528092919081815260200182805461074b90611c3a565b80156107985780601f1061076d57610100808354040283529160200191610798565b820191906000526020600020905b81548152906001019060200180831161077b57829003601f168201915b505050505081565b600260009054906101000a900473ffffffffffffffffffffffffffffffffffffffff1673ffffffffffffffffffffffffffffffffffffffff166107e1610d56565b73ffffffffffffffffffffffffffffffffffffffff1614610837576040517f08c379a000000000000000000000000000000000000000000000000000000000815260040161082e90611a13565b60405180910390fd5b80600754101561087c576040517f08c379a0000000000000000000000000000000000000000000000000000000008152600401610873906119b3565b60405180910390fd5b60005b61088761066d565b81101561091257600061089982610cee565b905060006009600083815260200190815260200160002060405180604001604052908160008201548152602001600182015481525050905060006007548260200151866108e69190611b11565b6108f09190611ae0565b90506108fc8382610d8d565b505050808061090a90611c6c565b91505061087f565b50806007546109219190611b6b565b6007819055507fb65b2e085d7d040c313f7d4e1ac90f5937026fee497e0e24a7eff16a55e1c5ea816040516109569190611a53565b60405180910390a150565b60006109778260036110bc90919063ffffffff16565b9050919050565b60085481565b61098c610d56565b73ffffffffffffffffffffffffffffffffffffffff16600160009054906101000a900473ffffffffffffffffffffffffffffffffffffffff1673ffffffffffffffffffffffffffffffffffffffff16636352211e846040518263ffffffff1660e01b81526004016109fd9190611a53565b60206040518083038186803b158015610a1557600080fd5b505afa158015610a29573d6000803e3d6000fd5b505050506040513d601f19601f82011682018060405250810190610a4d9190611663565b73ffffffffffffffffffffffffffffffffffffffff1614610a6d57600080fd5b610a778282610d8d565b5050565b600260009054906101000a900473ffffffffffffffffffffffffffffffffffffffff1673ffffffffffffffffffffffffffffffffffffffff16610abc610d56565b73ffffffffffffffffffffffffffffffffffffffff1614610b12576040517f08c379a0000000000000000000000000000000000000000000000000000000008152600401610b0990611a13565b60405180910390fd5b60005b610b1d61066d565b811015610ba8576000610b2f82610cee565b90506000600960008381526020019081526020016000206040518060400160405290816000820154815260200160018201548152505090506000600754826020015186610b7c9190611b11565b610b869190611ae0565b9050610b9283826110d6565b5050508080610ba090611c6c565b915050610b15565b5080600754610bb79190611a8a565b6007819055507f357d905f1831209797df4d55d79c5c5bf1d9f7311c976afd05e13d881eab9bc881604051610bec9190611a53565b60405180910390a150565b610bff610d56565b73ffffffffffffffffffffffffffffffffffffffff16600160009054906101000a900473ffffffffffffffffffffffffffffffffffffffff1673ffffffffffffffffffffffffffffffffffffffff16636352211e846040518263ffffffff1660e01b8152600401610c709190611a53565b60206040518083038186803b158015610c8857600080fd5b505afa158015610c9c573d6000803e3d6000fd5b505050506040513d601f19601f82011682018060405250810190610cc09190611663565b73ffffffffffffffffffffffffffffffffffffffff1614610ce057600080fd5b610cea82826110d6565b5050565b6000610cfa6003610d78565b8210610d3b576040517f08c379a0000000000000000000000000000000000000000000000000000000008152600401610d3290611973565b60405180910390fd5b610d4f82600361136090919063ffffffff16565b9050919050565b600033905090565b6000610d70836000018360001b61137a565b905092915050565b6000610d86826000016113ea565b9050919050565b610d9682610961565b610dd5576040517f08c379a0000000000000000000000000000000000000000000000000000000008152600401610dcc906119f3565b60405180910390fd5b6000600960008481526020019081526020016000206040518060400160405290816000820154815260200160018201548152505090508181602001511015610e52576040517f08c379a0000000000000000000000000000000000000000000000000000000008152600401610e49906119d3565b60405180910390fd5b60008054906101000a900473ffffffffffffffffffffffffffffffffffffffff1673ffffffffffffffffffffffffffffffffffffffff166323b872dd30610e97610d56565b856040518463ffffffff1660e01b8152600401610eb6939291906118d6565b602060405180830381600087803b158015610ed057600080fd5b505af1158015610ee4573d6000803e3d6000fd5b505050506040513d601f19601f82011682018060405250810190610f08919061168c565b50604051806040016040528060008054906101000a900473ffffffffffffffffffffffffffffffffffffffff1673ffffffffffffffffffffffffffffffffffffffff166380477a4c6040518163ffffffff1660e01b815260040160206040518083038186803b158015610f7a57600080fd5b505afa158015610f8e573d6000803e3d6000fd5b505050506040513d601f19601f82011682018060405250810190610fb291906116de565b8152602001838360200151610fc79190611b6b565b81525060096000858152602001908152602001600020600082015181600001556020820151816001015590505081816020015114156110a357600160009054906101000a900473ffffffffffffffffffffffffffffffffffffffff1673ffffffffffffffffffffffffffffffffffffffff16639d118770846040518263ffffffff1660e01b815260040161105b9190611a53565b600060405180830381600087803b15801561107557600080fd5b505af1158015611089573d6000803e3d6000fd5b505050506110a18360036113fb90919063ffffffff16565b505b816007546110b19190611b6b565b600781905550505050565b60006110ce836000018360001b611415565b905092915050565b6110df82610961565b61111e576040517f08c379a0000000000000000000000000000000000000000000000000000000008152600401611115906119f3565b60405180910390fd5b600060096000848152602001908152602001600020604051806040016040529081600082015481526020016001820154815250509050600854826007546111659190611a8a565b106111a5576040517f08c379a000000000000000000000000000000000000000000000000000000000815260040161119c906119b3565b60405180910390fd5b60008054906101000a900473ffffffffffffffffffffffffffffffffffffffff1673ffffffffffffffffffffffffffffffffffffffff166323b872dd6111e9610d56565b30856040518463ffffffff1660e01b8152600401611209939291906118d6565b602060405180830381600087803b15801561122357600080fd5b505af1158015611237573d6000803e3d6000fd5b505050506040513d601f19601f8201168201806040525081019061125b919061168c565b50604051806040016040528060008054906101000a900473ffffffffffffffffffffffffffffffffffffffff1673ffffffffffffffffffffffffffffffffffffffff166380477a4c6040518163ffffffff1660e01b815260040160206040518083038186803b1580156112cd57600080fd5b505afa1580156112e1573d6000803e3d6000fd5b505050506040513d601f19601f8201168201806040525081019061130591906116de565b815260200183836020015161131a9190611a8a565b815250600960008581526020019081526020016000206000820151816000015560208201518160010155905050816007546113559190611a8a565b600781905550505050565b600061136f8360000183611438565b60001c905092915050565b60006113868383611415565b6113df5782600001829080600181540180825580915050600190039060005260206000200160009091909190915055826000018054905083600101600084815260200190815260200160002081905550600190506113e4565b600090505b92915050565b600081600001805490509050919050565b600061140d836000018360001b611489565b905092915050565b600080836001016000848152602001908152602001600020541415905092915050565b6000826000018281548110611476577f4e487b7100000000000000000000000000000000000000000000000000000000600052603260045260246000fd5b9060005260206000200154905092915050565b600080836001016000848152602001908152602001600020549050600081146116035760006001826114bb9190611b6b565b90506000600186600001805490506114d39190611b6b565b905081811461158e57600086600001828154811061151a577f4e487b7100000000000000000000000000000000000000000000000000000000600052603260045260246000fd5b9060005260206000200154905080876000018481548110611564577f4e487b7100000000000000000000000000000000000000000000000000000000600052603260045260246000fd5b90600052602060002001819055508387600101600083815260200190815260200160002081905550505b856000018054806115c8577f4e487b7100000000000000000000000000000000000000000000000000000000600052603160045260246000fd5b600190038181906000526020600020016000905590558560010160008681526020019081526020016000206000905560019350505050611609565b60009150505b92915050565b60008151905061161e81611f0a565b92915050565b60008151905061163381611f21565b92915050565b60008135905061164881611f38565b92915050565b60008151905061165d81611f38565b92915050565b60006020828403121561167557600080fd5b60006116838482850161160f565b91505092915050565b60006020828403121561169e57600080fd5b60006116ac84828501611624565b91505092915050565b6000602082840312156116c757600080fd5b60006116d584828501611639565b91505092915050565b6000602082840312156116f057600080fd5b60006116fe8482850161164e565b91505092915050565b6000806040838503121561171a57600080fd5b600061172885828601611639565b925050602061173985828601611639565b9150509250929050565b61174c81611b9f565b82525050565b61175b81611bb1565b82525050565b61176a81611bf5565b82525050565b600061177b82611a6e565b6117858185611a79565b9350611795818560208601611c07565b61179e81611d42565b840191505092915050565b60006117b6600c83611a79565b91506117c182611d53565b602082019050919050565b60006117d9604283611a79565b91506117e482611d7c565b606082019050919050565b60006117fc601483611a79565b915061180782611df1565b602082019050919050565b600061181f603083611a79565b915061182a82611e1a565b604082019050919050565b6000611842601e83611a79565b915061184d82611e69565b602082019050919050565b6000611865602983611a79565b915061187082611e92565b604082019050919050565b6000611888601f83611a79565b915061189382611ee1565b602082019050919050565b6118a781611beb565b82525050565b60006040820190506118c26000830185611743565b6118cf6020830184611743565b9392505050565b60006060820190506118eb6000830186611743565b6118f86020830185611743565b611905604083018461189e565b949350505050565b60006040820190506119226000830185611743565b61192f6020830184611761565b9392505050565b600060208201905061194b6000830184611752565b92915050565b6000602082019050818103600083015261196b8184611770565b905092915050565b6000602082019050818103600083015261198c816117a9565b9050919050565b600060208201905081810360008301526119ac816117cc565b9050919050565b600060208201905081810360008301526119cc816117ef565b9050919050565b600060208201905081810360008301526119ec81611812565b9050919050565b60006020820190508181036000830152611a0c81611835565b9050919050565b60006020820190508181036000830152611a2c81611858565b9050919050565b60006020820190508181036000830152611a4c8161187b565b9050919050565b6000602082019050611a68600083018461189e565b92915050565b600081519050919050565b600082825260208201905092915050565b6000611a9582611beb565b9150611aa083611beb565b9250827fffffffffffffffffffffffffffffffffffffffffffffffffffffffffffffffff03821115611ad557611ad4611cb5565b5b828201905092915050565b6000611aeb82611beb565b9150611af683611beb565b925082611b0657611b05611ce4565b5b828204905092915050565b6000611b1c82611beb565b9150611b2783611beb565b9250817fffffffffffffffffffffffffffffffffffffffffffffffffffffffffffffffff0483118215151615611b6057611b5f611cb5565b5b828202905092915050565b6000611b7682611beb565b9150611b8183611beb565b925082821015611b9457611b93611cb5565b5b828203905092915050565b6000611baa82611bcb565b9050919050565b60008115159050919050565b600061ffff82169050919050565b600073ffffffffffffffffffffffffffffffffffffffff82169050919050565b6000819050919050565b6000611c0082611bbd565b9050919050565b60005b83811015611c25578082015181840152602081019050611c0a565b83811115611c34576000848401525b50505050565b60006002820490506001821680611c5257607f821691505b60208210811415611c6657611c65611d13565b5b50919050565b6000611c7782611beb565b91507fffffffffffffffffffffffffffffffffffffffffffffffffffffffffffffffff821415611caa57611ca9611cb5565b5b600182019050919050565b7f4e487b7100000000000000000000000000000000000000000000000000000000600052601160045260246000fd5b7f4e487b7100000000000000000000000000000000000000000000000000000000600052601260045260246000fd5b7f4e487b7100000000000000000000000000000000000000000000000000000000600052602260045260246000fd5b6000601f19601f8301169050919050565b7f496478206f766572666c6f770000000000000000000000000000000000000000600082015250565b7f5072657061726520616e20616c6c6f77616e636520776974682074686520636f60008201527f727265637420616d6f756e7420696e206f7264657220746f207375627363726960208201527f6265000000000000000000000000000000000000000000000000000000000000604082015250565b7f4361706974616c20636170206578636565646564000000000000000000000000600082015250565b7f57697468647261776e20616d6f756e74206d757374206265206c65737320746860008201527f616e20746f74616c2070726f6475637400000000000000000000000000000000602082015250565b7f4578697374696e67204d7564617261626120737562736372697074696f6e0000600082015250565b7f4f6e6c792049737375696e672042616e6b20697320616c6c6f77656420746f2060008201527f63616c6c20746869730000000000000000000000000000000000000000000000602082015250565b7f4465706f73697420616d6f756e74206d75737420626520706f73697469766500600082015250565b611f1381611b9f565b8114611f1e57600080fd5b50565b611f2a81611bb1565b8114611f3557600080fd5b50565b611f4181611beb565b8114611f4c57600080fd5b5056fea26469706673582212200db4fb8b73b7cfca78b22d1c690141debe14be37f15cced9939c89f7671873cb64736f6c63430008030033",
  "immutableReferences": {},
  "source": "// SPDX-License-Identifier: MIT\n\npragma solidity ^0.8.0;\n\nimport \"./GenericProduct.sol\";\n\n/**\n * @dev Banking smart contracts - Mudaraba\n * @author AshtonIzmev\n */\ncontract Mudaraba is GenericProduct {\n\n    using EnumerableSet for EnumerableSet.UintSet;\n\n    string public description;\n    string public ice;\n\n    uint256 public totalCapital;\n    uint256 public capitalCap;\n\n    struct Product {\n        uint256 _subscriptionDate;\n        uint256 _subscriptionAmount;\n    }\n\n    mapping (uint256 => Product) private _subscriptions;\n\n    /**\n     * param description_       Description of the company\n     * param ice_               Unique Identification Number of a company\n     * param capital_           Initial capital\n     */\n    constructor (string memory description_, string memory ice_, uint256 capitalCap_,\n    address medToken_, address fpToken_) {\n        _issuingBank = _msgSender();\n        description = description_;\n        ice = ice_;\n        capitalCap = capitalCap_;\n\n        medToken = MED(medToken_);\n        fpToken = FP(fpToken_);\n    }\n\n    /**\n     * Subscribe a new Moudaraba product\n     */\n    function subscribe(uint256 depositAmount) public virtual {\n        require(depositAmount > 0, \"Deposit amount must be positive\");\n        require(medToken.allowance(_msgSender(), address(this)) >= depositAmount, \"Prepare an allowance with the correct amount in order to subscribe\");\n        medToken.transferFrom(_msgSender(), address(this), depositAmount);\n        fpToken.create(_msgSender(), 2);\n        uint256 tokenId = fpToken.getCurrentTokenId();\n        _subscriptions[tokenId] = Product(medToken.daysElapsed(), depositAmount);\n        _subscriptionIds.add(tokenId);\n        totalCapital = totalCapital + depositAmount;\n    }\n\n    /**\n     * Add fund to an existing Mudaraba fund (only the token owner)\n     */\n    function addFund(uint256 tokenId, uint256 depositAmount) public virtual {\n        require(fpToken.ownerOf(tokenId) == _msgSender());\n        _addFund(tokenId, depositAmount);\n    }\n\n    /**\n     * Withdraw amount for the Mudaraba fund (only the token owner)\n     */\n    function withdrawFund(uint256 tokenId, uint256 withdrawnAmount) public virtual {\n        require(fpToken.ownerOf(tokenId) == _msgSender());\n        _withdrawFund(tokenId, withdrawnAmount);\n    }\n\n    function distributeProfit(uint256 profitAmount) public virtual onlyIssuingBank {\n        for (uint idx=0; idx < getSubscriptionLength(); idx++) {\n            uint256 tokenId = getSubscription(idx);\n            Product memory prod = _subscriptions[tokenId];\n            uint256 depositAmount = (profitAmount * prod._subscriptionAmount) / totalCapital;\n            _addFund(tokenId, depositAmount);\n        }\n        totalCapital = totalCapital + profitAmount;\n        emit Profit(profitAmount);\n    }\n\n    function takeLoss(uint256 lossAmount) public virtual onlyIssuingBank {\n        require(totalCapital >= lossAmount, \"Capital cap exceeded\");\n        for (uint idx=0; idx < getSubscriptionLength(); idx++) {\n            uint256 tokenId = getSubscription(idx);\n            Product memory prod = _subscriptions[tokenId];\n            uint256 withdrawnAmount = (lossAmount * prod._subscriptionAmount) / totalCapital;\n            _withdrawFund(tokenId, withdrawnAmount);\n        }\n        totalCapital = totalCapital - lossAmount;\n        emit Loss(lossAmount);\n    }\n\n    /* ********************************************************* */\n    /* * * * * * * * * *  Internal functions * * * * * * * * * * */\n    /* ********************************************************* */\n\n    function _addFund(uint256 tokenId, uint256 depositAmount) internal virtual {\n        require(isSuscribed(tokenId), \"Existing Mudaraba subscription\");\n        Product memory prod = _subscriptions[tokenId];\n        require(totalCapital + depositAmount < capitalCap, \"Capital cap exceeded\");\n        medToken.transferFrom(_msgSender(), address(this), depositAmount);\n        _subscriptions[tokenId] = Product(medToken.daysElapsed(), prod._subscriptionAmount + depositAmount);\n        totalCapital = totalCapital + depositAmount;\n    }\n\n    function _withdrawFund(uint256 tokenId, uint256 withdrawnAmount) internal virtual {\n        require(isSuscribed(tokenId), \"Existing Mudaraba subscription\");\n        Product memory prod = _subscriptions[tokenId];\n        require(prod._subscriptionAmount >= withdrawnAmount, \"Withdrawn amount must be less than total product\");\n        medToken.transferFrom(address(this), _msgSender(), withdrawnAmount);\n        _subscriptions[tokenId] = Product(medToken.daysElapsed(), prod._subscriptionAmount - withdrawnAmount);\n        if (prod._subscriptionAmount == withdrawnAmount) {\n            fpToken.destroy(tokenId);\n            _subscriptionIds.remove(tokenId);        \n        }\n        totalCapital = totalCapital - withdrawnAmount;\n    }\n\n    event Profit(uint256 value);\n    event Loss(uint256 value);\n\n}\n",
  "sourcePath": "/home/issam/git/med-erc20/sol/truffle/contracts/token/bank/Mudaraba.sol",
  "compiler": {
    "name": "solc",
    "version": "0.8.3+commit.8d00100c.Emscripten.clang"
  },
  "schemaVersion": "3.2.4",
  "updatedAt": "2021-05-11T08:31:47.676Z",
  "devdoc": {
    "author": "AshtonIzmev",
    "details": "Banking smart contracts - Mudaraba",
    "kind": "dev",
    "methods": {},
    "version": 1
  },
  "userdoc": {
    "kind": "user",
    "methods": {
      "addFund(uint256,uint256)": {
        "notice": "Add fund to an existing Mudaraba fund (only the token owner)"
      },
      "constructor": {
        "notice": "param description_       Description of the company param ice_               Unique Identification Number of a company param capital_           Initial capital"
      },
      "subscribe(uint256)": {
        "notice": "Subscribe a new Moudaraba product"
      },
      "withdrawFund(uint256,uint256)": {
        "notice": "Withdraw amount for the Mudaraba fund (only the token owner)"
      }
    },
    "version": 1
  }
}